:020000040800F2
:10000000D8340120D90100081D150008510400084A
:100010001915000875020008951C00080000000072
:10002000000000000000000000000000A117000810
:100030007902000800000000A1150008DD17000883
:10004000F3010008F3010008F3010008F3010008C0
:10005000F3010008F3010008F3010008F3010008B0
:10006000F3010008F3010008F3010008F3010008A0
:10007000F3010008F3010008F3010008F301000890
:10008000F3010008F3010008F3010008F301000880
:10009000F3010008F3010008F3010008F301000870
:1000A000F3010008F3010008F3010008F301000860
:1000B000F3010008011A0008F3010008F301000829
:1000C000F3010008F3010008F3010008F301000840
:1000D000F3010008C51A0008F3010008F301000845
:1000E000F3010008F3010008F3010008F301000820
:1000F000F3010008F3010008F3010008F301000810
:10010000F3010008F3010008F3010008F3010008FF
:10011000F3010008F3010008F3010008F3010008EF
:10012000F3010008F3010008F3010008F3010008DF
:10013000F30100080000000000000000F3010008C7
:10014000F3010008F3010008F3010008F3010008BF
:10015000F3010008F3010008F3010008F3010008AF
:10016000F3010008F3010008F3010008F30100089F
:10017000F3010008F3010008F3010008000000008B
:1001800000000000F3010008000000000000000073
:10019000F30100080000000000000000F301000867
:1001A000000000000000000000000000F301000853
:1001B000F3010008F3010008F3010008F30100084F
:1001C000F3010008DFF80CD000F03CF800480047CD
:1001D000A11E0008D8340120064880470648004781
:1001E000FEE7FEE7FEE7FEE7FEE7FEE7FEE7FEE7E7
:1001F000FEE7FEE7E5180008C501000840EA010334
:100200009B0703D009E008C9121F08C0042AFAD2CC
:1002100003E011F8013B00F8013B521EF9D2704790
:10022000D2B201E000F8012B491EFBD27047002238
:10023000F6E710B513460A4604461946FFF7F0FFE5
:10024000204610BD1CB5094800900948019005469C
:10025000009C06E0E06840F0010394E8070098473E
:100260001034AC42F6D3FFF7B1FF0000A03D000808
:10027000C03D0008FEE700007047000080B5042084
:1002800001F0A0FA40F20400C2F2000000684DF64E
:100290008361C4F21B31A0FB011244F6D351C1F2B9
:1002A0006201A0FB0101900C40F21412C2F20002A4
:1002B000106040F21010C2F20000012202704EF2F3
:1002C0001000CEF200000268890942F002020260CA
:1002D0004160016841F00101016080BD10B5044634
:1002E00003F004FA01280AD02CB940F21010C2F22F
:1002F0000000007810B9204602F02AFB00244EF2DC
:10030000180040F21411CEF20000C2F2000150F8C1
:1003100004CC09684FF47A7261434A4301680023B0
:1003200004688C42FCD00B441B1B8C4228BF6344E6
:100330009342214628BF10BDF2E7000080B54EF27F
:10034000180140F21412CEF20001C2F2000251F87C
:1003500004CC1268002302FB00FE08680A6882428F
:10036000FCD003449B1A824228BF63447345104665
:1003700028BF80BDF2E700002DE9F043D1F80080EE
:1003800000234FF0010C4FF0030E002410E000BFDB
:10039000C26802EA0902C260CA79C5689A402A4363
:1003A000C2600134102C03F1020308BFBDE8F083E2
:1003B0000CFA04F618EA060FF3D002680EFA03F7F7
:1003C000BA4302600A796FEA0709076802FA03F57F
:1003D000013A3D43012A0560DAD8826802EA09023F
:1003E00082604A798D7987689A403A438260426890
:1003F000B243426005FA04F2456892B22A43426071
:10040000C6E700001C2303EA810C6FF0030303EA34
:10041000510108440F23016A03FA0CF39943016266
:10042000016A02FA0CF21143016270470069084048
:1004300018BF012070470000090481617047000067
:1004400081617047002A08BF09048161704700007C
:10045000FEE70000B0B582B007200121012401F0C1
:10046000D1F848F210008DF80740002400904FF4B6
:100470004070C4F202046D46ADF8040020462946DF
:10048000FFF77AFF40F28230009004F58060294641
:10049000FFF772FF4EF20700009004F50060294656
:1004A000FFF76AFF01200121002202F00BFD40F25C
:1004B0009401C2F20001086008B102B0B0BD02A010
:1004C00003F052FC02B0B0BD4B65795F51756575A4
:1004D0006548616E646C6520437265617465204691
:1004E00061696C210D000000B0B540F20044C4F217
:1004F0000204A4F5806528464FF40041FFF796FFFB
:1005000088B90A2002F024FA28464FF40041FFF788
:100510008DFF002800F08B8028464FF40041FFF744
:1005200085FF0028F8D020460221FFF77FFF78B929
:100530000A2002F00DFA20460221FFF777FF00287B
:100540007AD000BF20460221FFF770FF0028F9D0C3
:1005500020468021FFF76AFF70B90A2002F0F8F9FF
:1005600020468021FFF762FF00286AD020468021C4
:10057000FFF75CFF0028F9D028461021FFF756FF4F
:1005800070B90A2002F0E4F928461021FFF74EFF67
:1005900000285BD028461021FFF748FF0028F9D03B
:1005A00020464FF4007100F057F800281CBF0520CA
:1005B000B0BD20464FF4807100F04EF800281CBFFB
:1005C0000620B0BD04F5806420464FF4005100F0D1
:1005D00043F800281CBF0720B0BD20464FF48041DF
:1005E00000F03AF800281CBF0820B0BD20460221C8
:1005F00000F032F800281CBF0920B0BD20464FF49F
:10060000004100F029F800281CBF0A20B0BD204698
:10061000012100F021F800281CBF0B20B0BD2046AE
:10062000042100F019F8002818BF0C20B0BD0A20E2
:1006300002F08EF90120B0BD0A2002F089F90220F3
:10064000B0BD0A2002F084F90320B0BD0A2002F0F8
:100650007FF90420B0BD0000B0B50C460546FFF799
:10066000E5FE68B90A2002F073F928462146FFF733
:10067000DDFE38B128462146FFF7D8FE0028F9D024
:100680000020B0BD0A2002F063F90120B0BD0000D7
:100690002DE9F04740F20045C4F2020505F58064FB
:1006A000894607462046402198469246FFF7C4FEF9
:1006B00028464FF48051FFF7BFFE2A2000F050FD7E
:1006C0000120FFF73BFE28464FF48051FFF7B8FEAC
:1006D00020464021FFF7B4FE28464FF480513E0AE1
:1006E000FFF7AAFE304600F03BFD0120FFF726FE93
:1006F00028464FF48051FFF7A3FE28464FF480515F
:10070000FFF79AFEF8B200F02BFD0120FFF716FE6E
:1007100028464FF48051FFF793FE28464FF480514E
:100720004FEA1A26FFF788FE304600F019FD012037
:10073000FFF704FE28464FF48051FFF781FE28465C
:100740004FF48051FFF778FE5FFA8AF000F008FD61
:100750000120FFF7F3FD28464FF48051FFF770FEAC
:1007600020464021FFF768FE28464FF48051FFF7EE
:1007700063FE2B2000F0F4FC0120FFF7DFFD28468C
:100780004FF48051FFF75CFE20464021FFF758FEF2
:1007900028464FF480514FEA1926FFF74DFE3046A8
:1007A00000F0DEFC0120FFF7C9FD28464FF4805120
:1007B000FFF746FE28464FF48051FFF73DFE5FFAF3
:1007C00089F000F0CDFC0120FFF7B8FD28464FF47A
:1007D0008051FFF735FE28464FF480514FEA182626
:1007E000FFF72AFE304600F0BBFC0120FFF7A6FD14
:1007F00028464FF48051FFF723FE28464FF48051DE
:10080000FFF71AFE5FFA88F000F0AAFC0120FFF75C
:1008100095FD28464FF48051FFF712FE20464021F7
:10082000FFF70AFE28464FF48051FFF705FE2C2003
:1008300000F096FC0120FFF781FD28464FF480511F
:10084000FFF7FEFD20464021BDE8F047FFF7F8BD69
:100850002DE9F04381B00E468146501E591E984640
:10086000154682B28BB248463146FFF711FF464526
:1008700012D2089C04E000BF0136B0B240450BD252
:10088000A945F9D24F4600BF204600F0EDFD0137E3
:10089000B8B2A842F8D3EFE701B0BDE8F08300009A
:1008A00070B582B000F074FC0620012100F0AAFEB1
:1008B0004FF4A840009040F2013040F20044C0F2F2
:1008C0000010C4F202046E46019020463146FFF744
:1008D00053FD402004F58065009028463146FFF71F
:1008E0004BFD20464FF4A841FFF7AAFD28464021C2
:1008F000FFF7A6FD20464FF48041FFF79DFD6420E1
:10090000FFF7ECFC20464FF48041FFF799FD64208F
:10091000FFF7E4FC20464FF48061FFF791FD64206F
:10092000FFF7DCFC28464021FFF786FD20464FF408
:100930008051FFF781FD112000F012FC0120FFF72C
:10094000FDFC20464FF48051FFF77AFD28464021F8
:10095000FFF776FD7820FFF7C1FC28464021FFF71E
:100960006BFD20464FF48051FFF766FD362000F006
:10097000F7FB0120FFF7E2FC20464FF48051FFF720
:100980005FFD28464021FFF75BFD20464FF4805174
:10099000FFF752FDC02000F0E3FB0120FFF7CEFC83
:1009A00020464FF48051FFF74BFD28464021FFF7CA
:1009B00043FD20464FF48051FFF73EFD3A2000F002
:1009C000CFFB0120FFF7BAFC20464FF48051FFF720
:1009D00037FD28464021FFF733FD20464FF4805174
:1009E000FFF72AFD052000F0BBFB0120FFF7A6FC66
:1009F00020464FF48051FFF723FD28464021FFF7A2
:100A00001BFD20464FF48051FFF716FDB22000F089
:100A1000A7FB0120FFF792FC20464FF48051FFF71F
:100A20000FFD28464021FFF70BFD20464FF4805173
:100A3000FFF702FD0C2000F093FB0120FFF77EFC86
:100A400020464FF48051FFF7FBFC20464FF48051C5
:100A5000FFF7F2FC0C2000F083FB0120FFF76EFC97
:100A600020464FF48051FFF7EBFC20464FF48051B5
:100A7000FFF7E2FC002000F073FB0120FFF75EFCB3
:100A800020464FF48051FFF7DBFC20464FF48051A5
:100A9000FFF7D2FC332000F063FB0120FFF74EFC90
:100AA00020464FF48051FFF7CBFC20464FF4805195
:100AB000FFF7C2FC332000F053FB0120FFF73EFCA0
:100AC00020464FF48051FFF7BBFC28464021FFF73A
:100AD000B3FC20464FF48051FFF7AEFCB72000F086
:100AE0003FFB0120FFF72AFC20464FF48051FFF71F
:100AF000A7FC28464021FFF7A3FC20464FF4805175
:100B0000FFF79AFC352000F02BFB0120FFF716FCC5
:100B100020464FF48051FFF793FC28464021FFF711
:100B20008BFC20464FF48051FFF786FCBB2000F081
:100B300017FB0120FFF702FC20464FF48051FFF71E
:100B40007FFC28464021FFF77BFC20464FF4805174
:100B5000FFF772FC322000F003FB0120FFF7EEFBF1
:100B600020464FF48051FFF76BFC28464021FFF7E9
:100B700063FC20464FF48051FFF75EFCC22000F07A
:100B8000EFFA0120FFF7DAFB20464FF48051FFF720
:100B900057FC28464021FFF753FC20464FF4805174
:100BA000FFF74AFC012000F0DBFA0120FFF7C6FB4B
:100BB00020464FF48051FFF743FC28464021FFF7C1
:100BC0003BFC20464FF48051FFF736FCC32000F079
:100BD000C7FA0120FFF7B2FB20464FF48051FFF720
:100BE0002FFC28464021FFF72BFC20464FF4805174
:100BF000FFF722FC152000F0B3FA0120FFF79EFB5F
:100C000020464FF48051FFF71BFC28464021FFF798
:100C100013FC20464FF48051FFF70EFCC42000F077
:100C20009FFA0120FFF78AFB20464FF48051FFF71F
:100C300007FC28464021FFF703FC20464FF4805173
:100C4000FFF7FAFB202000F08BFA0120FFF776FB7C
:100C500020464FF48051FFF7F3FB28464021FFF771
:100C6000EBFB20464FF48051FFF7E6FBC62000F077
:100C700077FA0120FFF762FB20464FF48051FFF71F
:100C8000DFFB28464021FFF7DBFB20464FF4805175
:100C9000FFF7D2FB0F2000F063FA0120FFF74EFBB5
:100CA00020464FF48051FFF7CBFB28464021FFF749
:100CB000C3FB20464FF48051FFF7BEFBD02000F06D
:100CC0004FFA0120FFF73AFB20464FF48051FFF71F
:100CD000B7FB28464021FFF7B3FB20464FF4805175
:100CE000FFF7AAFBA42000F03BFA0120FFF726FB48
:100CF00020464FF48051FFF7A3FB20464FF480516C
:100D0000FFF79AFBA12000F02BFA0120FFF716FB5A
:100D100020464FF48051FFF793FB28464021FFF710
:100D20008BFB20464FF48051FFF786FBE02000F05C
:100D300017FA0120FFF702FB20464FF48051FFF71E
:100D40007FFB28464021FFF77BFB20464FF4805174
:100D5000FFF772FBD02000F003FA0120FFF7EEFA54
:100D600020464FF48051FFF76BFB20464FF4805133
:100D7000FFF762FB082000F0F3F90120FFF7DEFA2D
:100D800020464FF48051FFF75BFB20464FF4805123
:100D9000FFF752FB0E2000F0E3F90120FFF7CEFA37
:100DA00020464FF48051FFF74BFB20464FF4805113
:100DB000FFF742FB092000F0D3F90120FFF7BEFA4C
:100DC00020464FF48051FFF73BFB20464FF4805103
:100DD000FFF732FB092000F0C3F90120FFF7AEFA5C
:100DE00020464FF48051FFF72BFB20464FF48051F3
:100DF000FFF722FB052000F0B3F90120FFF79EFA70
:100E000020464FF48051FFF71BFB20464FF48051E2
:100E1000FFF712FB312000F0A3F90120FFF78EFA53
:100E200020464FF48051FFF70BFB20464FF48051D2
:100E3000FFF702FB332000F093F90120FFF77EFA61
:100E400020464FF48051FFF7FBFA20464FF48051C3
:100E5000FFF7F2FA482000F083F90120FFF76EFA5D
:100E600020464FF48051FFF7EBFA20464FF48051B3
:100E7000FFF7E2FA172000F073F90120FFF75EFA9E
:100E800020464FF48051FFF7DBFA20464FF48051A3
:100E9000FFF7D2FA142000F063F90120FFF74EFAB1
:100EA00020464FF48051FFF7CBFA20464FF4805193
:100EB000FFF7C2FA152000F053F90120FFF73EFAC0
:100EC00020464FF48051FFF7BBFA20464FF4805183
:100ED000FFF7B2FA312000F043F90120FFF72EFAB4
:100EE00020464FF48051FFF7ABFA20464FF4805173
:100EF000FFF7A2FA342000F033F90120FFF71EFAC1
:100F000020464FF48051FFF79BFA28464021FFF717
:100F100093FA20464FF48051FFF78EFAE12000F05B
:100F20001FF90120FFF70AFA20464FF48051FFF71E
:100F300087FA28464021FFF783FA20464FF4805174
:100F4000FFF77AFAD02000F00BF90120FFF7F6F94D
:100F500020464FF48051FFF773FA20464FF480513A
:100F6000FFF76AFA082000F0FBF80120FFF7E6F926
:100F700020464FF48051FFF763FA20464FF480512A
:100F8000FFF75AFA0E2000F0EBF80120FFF7D6F930
:100F900020464FF48051FFF753FA20464FF480511A
:100FA000FFF74AFA092000F0DBF80120FFF7C6F945
:100FB00020464FF48051FFF743FA20464FF480510A
:100FC000FFF73AFA092000F0CBF80120FFF7B6F955
:100FD00020464FF48051FFF733FA20464FF48051FA
:100FE000FFF72AFA152000F0BBF80120FFF7A6F959
:100FF00020464FF48051FFF723FA20464FF48051EA
:10100000FFF71AFA312000F0ABF80120FFF796F94C
:1010100020464FF48051FFF713FA20464FF48051D9
:10102000FFF70AFA332000F09BF80120FFF786F95A
:1010300020464FF48051FFF703FA20464FF48051C9
:10104000FFF7FAF9482000F08BF80120FFF776F956
:1010500020464FF48051FFF7F3F920464FF48051BA
:10106000FFF7EAF9172000F07BF80120FFF766F997
:1010700020464FF48051FFF7E3F920464FF48051AA
:10108000FFF7DAF9142000F06BF80120FFF756F9AA
:1010900020464FF48051FFF7D3F920464FF480519A
:1010A000FFF7CAF9152000F05BF80120FFF746F9B9
:1010B00020464FF48051FFF7C3F920464FF480518A
:1010C000FFF7BAF9312000F04BF80120FFF736F9AD
:1010D00020464FF48051FFF7B3F920464FF480517A
:1010E000FFF7AAF9342000F03BF80120FFF726F9BA
:1010F00020464FF48051FFF7A3F928464021FFF71F
:101100009BF920464FF48051FFF796F9212000F01B
:1011100027F80120FFF712F920464FF48051FFF71E
:101120008FF928464021FFF78BF928464021FFF729
:1011300083F920464FF48051FFF77EF9292000F013
:101140000FF80120FFF7FAF820464FF48051FFF71F
:1011500077F928464021FFF773F902B070BD00000F
:10116000B0B543F600040546C4F20004204602214F
:1011700000F0E2FA0028F9D02046294600F0E4FA0F
:101180002046802100F0D8FA0028F9D1B0BD000037
:10119000B0B586B002200121012500F033FA40F2FB
:1011A0000044C4F2020420460D210522FFF72AF96B
:1011B00020460F210522FFF725F940F20230C0F248
:1011C000001002904FF42040019001A92046FFF743
:1011D000D3F820464FF42041FFF732F94FF4804016
:1011E000012100F01BFA4FF4003002904CF2000095
:1011F000C0F2041001904FF4E020CDF812004FF43B
:101200000070A4F5E634CDF80E0001A92046ADF833
:101210000C5000F09BFA2046012100F083FA06B042
:10122000B0BD00002DE9F04F89B01546202A0746D1
:101230000593039112D0182D07D0102D18D110202E
:10124000049020200290002010E0182004904820F4
:10125000029044F60070C0F2030007E020200490E2
:10126000802002904BF68070C0F20A00019003E0EB
:101270000020CDE90100049005980078002800F0D6
:10128000F0800399DDE9128B0139009140F21006DC
:1012900005990024C2F200060DE000BF0698059AE9
:1012A000811CCCB2105D079F049B00281F4452FA9A
:1012B00081F100F0D68000F15F02D2B2082AC2B2FA
:1012C000069407971AD84B78A12B17D35E2012FBF0
:1012D000003043F6BF31401ADDE9011200FB021075
:1012E000314600F075FD202D2CD0182D26D0102D64
:1012F0002DD110204FF0200927E000BF5030C0B2A0
:101300004728CBD84878A128C8D35E2112FB01001A
:1013100044F24111401ADDE9011200FB021031468E
:1013200000F056FD202D56D0182D50D0079F102DBF
:1013300057D110204FF02009012456E018204FF01B
:10134000480902E020204FF08009012403E0002436
:101350004FF0000900203918009A013910448AB270
:10136000039983B2B8B2FFF793F9002C96D0B9F184
:10137000010F4FF0010098BF8146CDF82090002466
:101380004FF0000907E000BF4FF000090898013452
:1013900084423FF483AF4F4609F108094FF0000A39
:1013A000305D20FA0AF0C007404608BF584600F0FA
:1013B0005BF80137F8B2B0FBF5F101FB150000282E
:1013C000E2D00AF1010ABAF1080FE9D1DEE71820EC
:1013D0004FF0480902E020204FF08009079F0124C8
:1013E00003E000244FF0000900203918009A013969
:1013F00010448AB2039983B2B8B2FFF749F9002CBE
:101400003FF44CAFB9F1010F4FF0010098BF814696
:10141000CDF8209000274FF0000906E04FF00009BA
:101420000898013787423FF439AF4C4609F1080963
:101430004FF0000AF05D20FA0AF0C007404608BFEE
:10144000584600F011F80134E0B2B0FBF5F101FBB1
:1014500015000028E2D00AF1010ABAF1080FE9D11B
:10146000DEE709B0BDE8F08F70B540F20044C4F289
:1014700002040546060A20464FF48051FEF7DCFFC1
:101480003046FFF76DFE0120FEF758FF20464FF46F
:101490008051FEF7D5FF20464FF48051FEF7CCFF78
:1014A000E8B2FFF75DFE0120FEF748FF20464FF44B
:1014B0008051BDE87040FEF7C3BF000070B582B038
:1014C0000620012100F09EF83C2040F60004009028
:1014D00040F20120C4F20204C0F20010A4F58065BD
:1014E0006E46019028463146FEF746FF20463146BB
:1014F000FEF742FF20462021FEF7A2FF28460421E6
:10150000FEF79EFF20461021FEF79AFF2046082195
:10151000FEF796FF02B070BDFEE7000070470000C6
:1015200010B5C17800294EF20011CEF200011CD096
:101530004EF60C52CEF200021268072323EA122262
:101540000F23C2F1040C23FA02FE427884785FFA7A
:101550008CF390F800C09A4004EA0E031A4312017B
:1015600001EB0C0383F8002300E0803100780123B5
:1015700000F01F0203FA02F2C0F3421041F82020EB
:1015800010BD000040F080604EF60C5140F0FD7040
:10159000CEF200010860704700000000000000006B
:1015A000EFF30980BFF36F8F154B1A681EF0100F11
:1015B00008BF20ED108A20E9F04F10602DE90900E6
:1015C0004FF0500080F31188BFF34F8FBFF36F8F40
:1015D00001F074FB4FF0000080F31188BDE80900B2
:1015E00019680868B0E8F04F1EF0100F08BFB0ECA3
:1015F000108A80F30988BFF36F8F704700BF00BF68
:101600001C010020002943F63001C4F202010A68DF
:101610000CBF22EA0000104308607047002943F61F
:101620004001C4F202010A680CBF22EA0000104324
:1016300008607047002943F64401C4F202010A68B9
:101640000CBF22EA000010430860704743F6040C08
:10165000C4F2020CDCF8043042F20042C0F2F402A0
:10166000C3F3810310B5DFE803F03E02072141F226
:101670000022C0F27A0236E0DCF800E0DCF800304C
:10168000DCF8001003F03F03C1F388145FEA4E2139
:1016900041F20021C0F27A0158BF1146B1FBF3F1CB
:1016A000DCF800206143C2F3014217E0DCF80010CF
:1016B000DCF80030490241F20021C0F27A01DCF886
:1016C000004003F03F0358BF1146B1FBF3F1DCF8D3
:1016D0000020C4F388146143C2F30272022303EBB7
:1016E0004202B1FBF2F20260DCF8041043F68C52C5
:1016F000C1F30311C0F60002515C036823FA01F143
:101700004160DCF80430C3F38223D35C21FA03F395
:101710008360DCF80430C3F34233D25CD140C16053
:1017200010BD00000288002918BF012122F04002EC
:1017300042EA8111018070470089084018BF0120EA
:101740007047000080897047818170472DE9F04122
:1017500002880B8802F4415C4A88B1F804E043EA4D
:101760000C03CC881A430D8942EA0E024E892243AB
:101770008F892A43B1F80E8032433A4342EA080285
:101780000280828B22F400628283098A0182BDE892
:10179000F0810000000000000000000000000000D8
:1017A000074B19680868B0E8F04F80F30988BFF369
:1017B0006F8F4FF0000080F31188704700BF00BFAB
:1017C0001C0100204EF21001CEF200010A6804282C
:1017D00022F0040208BF04320A60704780B501F0AD
:1017E00085FF012808BF80BDBDE8804001F052BBE5
:1017F000B0B582B000F070FF42F64554C0F6000468
:101800002CA0642101220123009402F005FA40F289
:101810009C01C2F200010860C0B140F20804C2F2AB
:10182000000420884FF6FF7CB0F58C7F24BF3A205F
:10183000208021884FF0000E20A300201822CDE93F
:1018400000ECFFF7EFFC20881830208040F2A00069
:10185000C2F200000224CDE9004041F65520C0F656
:10186000000019A182220023002501F041FE42F26E
:101870001160C0F6000016A182220023CDE90045C8
:1018800001F036FE40F2A40541F6C120C2F2000587
:10189000C0F6000011A182220023CDE9004501F02D
:1018A00027FE002001F0B6F802B0BDE8B04000F01D
:1018B00037BF00BF54696D6572310000B4B4BDA874
:1018C000B3C9B9A6000000005461736B3100000079
:1018D000764B65795F5461736B0000005461736BE4
:1018E0003200000082B04EF6885CCEF2000CDCF8CC
:1018F000002043F6000142F47002C4F20201CCF869
:1019000000200A684FF6FF7042F001020A600022D0
:101910008A600B68CFF6F6601840086043F210004A
:10192000C2F200404860086820F480200860CA6065
:1019300001920092086840F480300860086800F462
:1019400000300090019801300190009818B901987A
:10195000B0F5A04FF2D10868800354BF00200120E9
:1019600000900098012844D1086C47F2000240F032
:101970008050C4F200020864106840F440401060D7
:1019800088688860886840F400408860886840F40F
:10199000A050886045F60820C7F24070486008688B
:1019A00040F08070086000BF08688001FCD51068B6
:1019B00040F48030106000BF5068C003FCD5106850
:1019C00040F40030106000BF50688003FCD540F246
:1019D0000570C1F80004886820F0030088608868FA
:1019E00040F00200886000BF886800F00C00082802
:1019F000FAD14FF000604CF8800C02B07047000044
:101A000010B540F20044C4F200042046012100F069
:101A100015F8012818BF10BD2046012100F00AF872
:101A200040F21440C4F20200016881F00401016038
:101A300010BD0000C943018270470000028A8089FE
:101A40000A4000EA010018BF0122002818BF012047
:101A50001040704782B040F2940640F29C0700208C
:101A6000C2F200060DF107044FF0FF38C2F2000782
:101A70008DF8070008E000BF38680321002200232A
:101A8000CDF8008002F02CF9306821464FF0FF328B
:101A900001F014FC9DF8070003280BD00228EBD0BE
:101AA0000128F1D13D6801F035FE024628460121AA
:101AB000E5E700BF386804214FF4FA72DFE7000061
:101AC000FEE7000010B541F20004C4F20104204614
:101AD00040F2255100F064F8012818BF10BD2046DF
:101AE00000F0D0F840F2A801C2F200010A78C0B2BA
:101AF000012A10D09AB9402832D140F20E10C2F219
:101B00000000007860BB0120087040F2A900C2F21A
:101B10000000002116E00D2816D102201FE00A283F
:101B20001ED10020087040F2A901C2F2000109781C
:101B300040F2AA02C2F20002505440F20E10C2F269
:101B40000000012101700BE040F2A901C2F2000186
:101B50000A7840F2AA03C2F200039854501C08709D
:101B6000204640F22551BDE8104000F001B80000C9
:101B7000090A012202FA01F1C943018070470000FD
:101B80008289002918BF012122F4005242EA413122
:101B9000818170470088084018BF0120704700000D
:101BA000C1F342121423022A08BF1023012A08BFDE
:101BB0000C23C35A008801F01F02090A23FA02F21B
:101BC000C840104000F001007047000070B584B0BC
:101BD0000446008A0D46C98820F4405008432082FC
:101BE000A0894EF6F3110840A9882A896B89084319
:101BF00010431843A081A08AA98920F440700843AB
:101C00006E46A0823046FFF721FD41F2000124F428
:101C10008060C4F201010822884208BF0C22B0583B
:101C2000B4F90C100122B1F1FF3FC8BF02222B68AA
:101C30001921484303FA02F1B0FBF1F048F21F51B9
:101C4000C5F2EB11A0FB01235A096FF0630302FBFD
:101C50000300B4F90C300326B3F1FF3FC8BF0426DC
:101C600000FA06F000F13200A0FB01014FF007007E
:101C7000C8BF0F2000EA511040EA0210208104B0D2
:101C800070BD000080886FF35F2070476FF35F21A5
:101C900081807047FEE7000010B584B0012001216B
:101CA000FFF7B0FC0024C4F20204204609210722F9
:101CB000FEF7A8FB20460A210722FEF7A3FB4FF4FC
:101CC000C060009040F20230019069462046FEF765
:101CD00053FB10200121FFF7ADFC4FF4E1300090E1
:101CE00000204FF44021A4F57044ADF80C00CDE97C
:101CF000010169462046FFF769FF20460121FFF7F1
:101D00003FFF40F22550C0F2001000906846FFF7F8
:101D100007FC04B010BD000070B586B002200121A0
:101D20000126FFF76FFC40F20044C4F20204204693
:101D300003210622FEF766FB204604210622FEF759
:101D400061FB204605210622FEF75CFB4020019046
:101D500040F20130C0F2001001AD02902046294649
:101D6000FEF70AFB3820019040F20230C0F200106A
:101D7000029020462946FEF7FFFA20464021012224
:101D8000FEF760FB4FF400400121FFF747FC4FF4E2
:101D9000003002904FF0827001904FF4E020CDF8B7
:101DA000120040F20020C0F21000A4F5E434CDF897
:101DB0000E0001A92046ADF80C60FFF7C7FC2046D5
:101DC0000121FFF7AFFC06B070BD0000FFF7A4BF14
:101DD000F0B581B040F20044C4F2020415460E464C
:101DE0000746204640210022FEF72CFB032000F08E
:101DF0001DF8C7F3074000F019F8C7F3072000F0FB
:101E000015F8F8B200F012F845B1013E0020013D8E
:101E100000F00CF8002D06F8010FF7D12046402104
:101E2000012201B0BDE8F040FEF70CBBB0B543F6AF
:101E300000440546C4F2000420460221FFF77CFC62
:101E40000028F9D020462946FFF77EFC20460121D4
:101E5000FFF772FC0028F9D02046FFF773FCC0B2F0
:101E6000B0BD0000B0B541F2000504460A28C4F236
:101E7000010509D128460D21FFF708FF28468021DA
:101E8000FFF788FE0028F9D0E1B22846FFF7FEFEF2
:101E900028468021FFF77EFE0028F9D02046B0BDFD
:101EA00082B0FEF7EBF9FFF709FBFFF7F5FEFFF74E
:101EB0008DFFFEF7CFFAFEF7F3FC4FF44070FFF70B
:101EC00061FB4FF6FF7C00200021F0224FF4A0734D
:101ED000CDF800C0FEF7BCFC40F2980C41F2F17066
:101EE000C2F2000C4FF0020EC0F6000005A1B422B1
:101EF0000023CDE900EC01F0FBFA00F089FE00BF01
:101F0000FEE700BF53797374656D43726561745465
:101F100061736B00F0B581B00D4643F2C80140F229
:101F20001C16C2F20101C2F200060F6831680446B5
:101F3000081D00F055FB10B1601C0FD027E0306881
:101F400042F6CC72C06AC2F201020121136801FAA2
:101F500000F023EA00001060601C18D1BDB143F20C
:101F6000A000C2F201004168326891608A6833685B
:101F7000DA6032688B6804325A60326804328A60F0
:101F80003168486101680131016001B0F0BD30681D
:101F9000E41944600BD340F22C10C2F20000006838
:101FA0003168043101B0BDE8F04000F05FBB40F2A1
:101FB0002410C2F2000000683168043100F056FBC2
:101FC00043F22C00C2F2010001688C4238BF046069
:101FD00001B0F0BD70B500F07FFB43F2CC06C2F259
:101FE0000106306818B1BDE8704000F099BB42F6B8
:101FF000D074C2F20104204600F028FB42F6E475DA
:10200000C2F20105284600F021FB40F22010C2F286
:102010000000046040F23010C2F2000005600520AC
:102020000C21002200F04EFF00283060DBD003A11D
:1020300000F03CFCBDE8704000F072BB546D725182
:102040000000000042F6C07540F2341A4EF6045803
:1020500043F2B40742F6BC76C2F20105C2F2000AAE
:10206000CEF200084FF08059C2F20107C2F2010619
:1020700015E000BF00F030FBF868C468201D00F0D8
:10208000AFFA30680138306028680138286000F005
:1020900047FB206B00F05CFB204600F059FB2868F2
:1020A0000028E7D1DAF800000228F8D3C8F8009039
:1020B000BFF34F8FBFF36F8FF1E700000848006850
:1020C000006880F308884FF0000080F3148862B63F
:1020D00061B6BFF34F8FBFF36F8F00DF00BF00000B
:1020E00008ED00E02DE9F04381B040F22018C2F283
:1020F0000008D8F800200546D2680E46D46804F1DE
:102100000409484600F06CFA94F8280041070CD402
:1021100000F0FA0084F828001CE000BF711B814227
:1021200010D3216A204688473D46A069246147199B
:10213000B7426760F2D9AE4201D2AF42F1D2D8F8CD
:10214000000004E040F23010C2F20000006849468E
:1021500000F08CFA216A204601B0BDE8F043084740
:1021600081B00020009040F20C00C2F20000006834
:102170004FF0500181F31188BFF36F8FBFF34F8F82
:10218000013001D0FEE700BF00980028FCD001B06C
:102190007047000084B040F2201440F2181940F259
:1021A000301A43F2CC0BC2F20004C2F20009C2F2B0
:1021B000000AC2F2010B0DF1040800BF2068076895
:1021C00017B1C068066800E0002600F06FFD01F05E
:1021D000A1FAD9F800100546884209D220680168A2
:1021E00091B1C0684FF0FF310068FFF77BFFF5E762
:1021F000C9F8005097B1AE4210D801F04DFC3046FE
:102200002946FFF76FFF29E0DAF80010CAF800004E
:102210002160C9F8005001F03FFC1FE00FB100221F
:1022200005E0DAF800000068B0FA80F04209DBF857
:102230000000711B00F068FB01F02EFC70B94EF637
:102240000450CEF200004FF080510160BFF34F8F79
:10225000BFF36F8F02E0206800F008FADBF800009F
:102260004146002201F02AF80028A7D00198002852
:10227000F4D4039D686910B1281D00F0B1F901F094
:1022800049FAD9F80010064688420ED22068016843
:1022900031B1C0684FF0FF310068FFF723FFF5E769
:1022A000DAF80010CAF8000021600198C9F800604F
:1022B00001380828D2D8DFE800F005053A23620586
:1022C000053A230095F82800029BAA6940F0010115
:1022D00085F82810D718294641F8047FB7422D61A8
:1022E00004D99E42B7D29F4203D2B4E7F31A934275
:1022F00018D3430722D400F0FA0085F8280052E0F2
:1023000095F8280040F00101029885F8281000286F
:10231000A8614CD03044294641F8040FB0422D61E9
:102320003FF699AFDAF8000000F0A0F996E795F8CB
:10233000280000F0FE0085F828008FE70298D946B3
:10234000C346D0460F46104407E000BF301A88420B
:102350001DD3296A284688475046A9692D6101EB9B
:10236000000AB245C5F804A0F0D9864201D28245E0
:10237000EFD22068394600F079F9C2460DE095F8B1
:1023800028008107D5D4284600F0E2F966E7D8F89E
:1023900000003946C24600F069F9D846CB4640F203
:1023A0001819C2F20009296A2846884756E74FF0F3
:1023B000500080F31188BFF36F8FBFF34F8F00BFC2
:1023C000FEE70000F0B581B0044600F085F994F90D
:1023D0004560012E0FDB04F1240500BF286850B1D1
:1023E000284601F0E5FA002818BF00F0B3FB70B2F0
:1023F000013E0128F2DCFF2684F8456000F090F9E8
:1024000000F06AF994F94470012F0EDB04F1100515
:10241000286850B1284601F0CBFA002818BF00F018
:1024200099FB78B2013F0128F2DC84F8446001B0E6
:10243000BDE8F04000F074B970B5044600F036FC19
:1024400040F22811C2F20001086843F2200EC2F2E5
:10245000010E58B184B304F007001138A04226BF22
:1024600024F0070000F11003002326E040F2B4300E
:10247000C2F20000C21D430700F5963318BF22F0D8
:10248000070043F29802C2F201020026C2E90006E8
:1024900023F00702A2F108030B6042E902661A1A50
:1024A0000B68CEF80020C0E9003243F22800C2F2E7
:1024B00001000260002CCED10023012B4FF000045C
:1024C0006CDBDEF80000834268D843F29802C2F267
:1024D000010215686C689C4207D200BF286820B1D1
:1024E00044682A4605469C42F8D30868854212D0C3
:1024F000D2F800C02E68E01A1128166031D3EC180B
:1025000062070AD04FF0500080F31188BFF36F8F3D
:10251000BFF34F8FFEE7002440E060606B6043F242
:102520009803C2F2010300BF1A461B68A342FBD303
:1025300050681618A64203D16468204414465060BF
:102540006668A019984201D0184606E008688342E0
:1025500003D0D3E9000131446160A242206018BF7A
:10256000146043F228006968DEF80020C2F201001E
:102570000368511A9942CEF8001038BF016043F247
:1025800034026868C2F20102136840F00040002182
:102590000CF10804C5E90010581C106001F07CFA29
:1025A000600708D04FF0500080F31188BFF36F8FA1
:1025B000BFF34F8FFEE7204670BD0000034642F296
:1025C000611021F00101C0F600004FF0807C03E9AA
:1025D00003106FF00201A3F1440043E909127047B0
:1025E000D0E9013201699A60D1F804C0826884455B
:1025F000536008BF4A600022026108680138086021
:102600000868704742F6BC70C2F20100006870476B
:1026100082B040F294050020C2F200050DF10704DB
:102620008DF8070003E000BF642000F091F9FDF78A
:102630005BFF00288DF80700F6D0286821464FF090
:10264000FF32002300F088FCEEE700004FF0FF317E
:10265000024642F8081F00214260C0E903220160DF
:1026600070470000002101617047000080B5D1F87B
:1026700000C01CF1010207D000F108039E465B6810
:102680001A686245FAD901E0D0F810E0DEF80420BB
:1026900008614A609160C1F808E0CEF80410016852
:1026A0000131016080BD0000D0F800C043680861BE
:1026B0009A684B608A609A68996051600CF10101D8
:1026C00001607047DFF80C00016841F4700101609F
:1026D0007047000088ED00E04FF0500080F3118853
:1026E000BFF36F8FBFF34F8F40F20C00C2F20000B8
:1026F00001684A1C026001B170474EF60450CEF2E8
:1027000000000068000608BF70474FF0500080F3DB
:102710001188BFF36F8FBFF34F8F00BFFEE700003C
:1027200040F20C00C2F20000016839B101390160C9
:1027300018BF7047002080F3118870474FF0500099
:1027400080F31188BFF36F8FBFF34F8FFEE7000058
:10275000B0B5002808BFB0BD50F8041C002908D44B
:102760004FF0500080F31188BFF36F8FBFF34F8F8E
:10277000FEE7A0F1080422684AB14FF0500080F350
:102780001188BFF36F8FBFF34F8F00BFFEE721F0BB
:10279000004140F8041C054600F088FA43F220018D
:1027A000C2F2010155F8040C0B682A46184408606F
:1027B00043F29801C2F2010108460968A142FBD325
:1027C0004368C518A54204D152F8042C04461A44A3
:1027D00042606368E2188A4201D00A460AE040F289
:1027E0002812C2F200021268914203D0D1E90021FE
:1027F00019446160A042226018BF046043F23800AF
:10280000C2F20100016801310160BDE8B04001F091
:1028100043B900004EF21000CEF20000002101602A
:10282000816040F20401C2F20001096844F6D3520B
:10283000C1F26202A1FB02124FF0FF3101EB9211D3
:102840004160072101607047EFF30580102814D321
:102850004EF2F031CEF20001405C42F6B471C2F2A9
:1028600001010978884208D24FF0500080F31188A6
:10287000BFF36F8FBFF34F8FFEE74EF60C50CEF2D3
:10288000000042F6B8710068C2F20101096800F464
:10289000E060884298BF70474FF0500080F3118885
:1028A000BFF36F8FBFF34F8FFEE70000B0B5C8B125
:1028B0004FF0000CF9B143F2540EC2F2010E0023A6
:1028C000002202E00833402B18D00EEB03046568A9
:1028D000854212D0002AF5D12268002A18BF64462A
:1028E0002246EFE74FF0500080F31188BFF36F8F5F
:1028F000BFF34F8FFEE7002200E02246002A18BFF8
:10290000C2E90010B0BD000070B515460E46044681
:10291000FFF7E2FE94F84400FF2804BF002084F88B
:10292000440094F84500FF2804BF002084F84500C7
:10293000FFF7F6FEA06B28B904F1240031462A46C1
:1029400000F02CF92046BDE87040FFF73BBD0000C9
:1029500070B5002852D042F6C471C2F201010A6873
:102960004AB14FF0500080F31188BFF36F8FBFF36F
:102970004F8F00BFFEE70546086840F21C14013087
:10298000086043F2C800C2F20100C2F20004066807
:1029900020680430FFF724FE60B9206842F6CC724C
:1029A000C06AC2F201020121136801FA00F023EAB1
:1029B000000010602068AD19456009D340F22C106A
:1029C000C2F20000006821680431FFF74FFE10E0FA
:1029D00040F22410C2F20000006821680431FFF7C1
:1029E00045FE43F22C00C2F2010001688D4238BF5F
:1029F000056001F051F8002818BF70BD4EF6045074
:102A0000CEF200004FF080510160BFF34F8FBFF353
:102A10006F8F70BD70B50446FFF75EFE40F21C1666
:102A2000002CC2F2000608BF3468251D2846FFF7B7
:102A3000D7FDA0B9E06A40F2341200EB8001C2F287
:102A4000000252F8211051B942F6CC72C2F20102D2
:102A50000121136801FA00F023EA00001060A06A67
:102A600018B104F11800FFF7BBFD42F6C870C2F2BE
:102A700001000168013101603068844216D042F6DD
:102A8000BC70C2F2010001680139016040F22410FB
:102A9000C2F2000001680968B1B1006843F22C017C
:102AA000C068C2F201010068086014E043F2B4009B
:102AB000C2F201002946FFF7F7FD42F6C070C2F2EC
:102AC00001000168013105E043F22C00C2F201006F
:102AD0004FF0FF310160FFF723FE3068844205D0DC
:102AE000206BFFF735FE2046FFF732FE43F29400DD
:102AF000C2F201000068E8B13068844218BF70BDBE
:102B000042F6C470C2F20100006840B14FF05000BC
:102B100080F31188BFF36F8FBFF34F8FFEE74EF640
:102B20000450CEF200004FF080510160BFF34F8F90
:102B3000BFF36F8F70BD000043F23001C2F201019C
:102B40000968016043F2C801C2F2010109684160ED
:102B50007047000043F2D400C2F20100012101607D
:102B60007047000078B110B50C4640F21C11C2F25B
:102B7000000109681831FFF779FD20460121BDE801
:102B80001040FFF7C7B94FF0500080F31188BFF332
:102B90006F8FBFF34F8F00BFFEE7000068B310B523
:102BA00040F21C1CC2F2000CD0F804E0DCF800304B
:102BB000002AC3F81CE0DEF80830DCF8004023628D
:102BC000DCF80030DEF8084003F118036360DCF83D
:102BD0000030044603F11803CEF80830DCF800306A
:102BE0009862036818BF4FF0FF3101330846114661
:102BF0002360BDE81040FFF78DB94FF0500080F31F
:102C00001188BFF36F8FBFF34F8F00BFFEE7000047
:102C100080B582B043F2240C42F24500C2F2010CAE
:102C20004FF0000EC0F600001EA178220023CDE96F
:102C300000EC00F05DFC012808BF01F021F8411C08
:102C400025D001281CD14FF0500080F31188BFF32C
:102C50006F8FBFF34F8F43F22C00C2F201004FF091
:102C6000FF31016043F29400C2F2010001210160D2
:102C700043F2C800C2F201000021016000F072F8C6
:102C800043F69C50C0F60000006802B080BD4FF0D3
:102C9000500080F31188BFF36F8FBFF34F8F00BFD9
:102CA000FEE700BF49444C450000000042F6C470F6
:102CB000C2F20100016801310160704742F6C47040
:102CC000C2F20100006830B143F2D400C2F2010048
:102CD00001210160704743F2D400C2F201000021DB
:102CE000016042F6CC70C2F201000068B0FA80F0D8
:102CF000C0B2C0F11F0040F2341100EB8000C2F2FC
:102D0000000151F8202092B101EB8000416800F1F0
:102D1000080249689142416001D1496841604068B8
:102D200040F21C11C068C2F20001086070474FF009
:102D3000500080F31188BFF36F8FBFF34F8F00BF38
:102D4000FEE7000010B540F60004C4F2020420467D
:102D50002021FDF771FB20461021BDE81040FDF752
:102D60006BBB0000B0B584B04EF20040CEF2000064
:102D70004CF27021C4F20F11D0F800294B1C9A427A
:102D800009D14FF0500080F31188BFF36F8FBFF36C
:102D90004F8F00BFFEE7D0F800298A4209D14FF0DB
:102DA000500080F31188BFF36F8FBFF34F8F00BFC8
:102DB000FEE7017842F6B4720291FF2101700178BA
:102DC000C2F201028DF807109DF8071001F05001C2
:102DD000117042F6B871C2F2010107220A609DF932
:102DE0000720B2F1FF3F0CDC062200BF0A609DF80D
:102DF0000730013A5B008DF807309DF90730002B52
:102E0000F4D40A68032A3BD14FF440720A60029955
:102E10000170D0F8201941F47001C0F82019D0F8E1
:102E2000201941F07041C0F82019FFF7F3FC40F27F
:102E30000C04C2F2000400252560FFF743FC4EF6A7
:102E40003470CEF20000016841F040410160FFF7AC
:102E500035F9FFF733FF039520684FF0500181F3F8
:102E60001188BFF36F8FBFF34F8F013002D000BFC7
:102E7000FEE700BF03980028FCD0002004B0B0BDDE
:102E80004FF0500080F31188BFF36F8FBFF34F8F67
:102E9000FEE7000080B54FF0500080F31188BFF3CB
:102EA0006F8FBFF34F8F00F03BFC30B14EF60450F4
:102EB000CEF200004FF080510160002080F31188B5
:102EC00080BD0000F0B581B0E0B3A0FB0137CFBBFF
:102ED00001FB00F313F1510F34D8064603F1500003
:102EE0000F461546FFF7A8FA4FF0000438B3014625
:102EF000002F18BF50310160C0E90F670646FFF789
:102F0000EBFB3068D6E90F12B46302FB0103013911
:102F100001FB0201C6E90103FF20F16086F84400CD
:102F200086F8450006F11000FFF790FB06F124003B
:102F3000FFF78CFBFFF7F4FB344686F84C50204635
:102F400001B0F0BD4FF0500080F31188BFF36F8FD8
:102F5000BFF34F8FFEE700002DE9F04F85B00492DC
:102F6000B8B11D460446F1B1022D03D1E06B012832
:102F700040F0A780019100F0B9FB00BB0498F0B1CC
:102F80004FF0500080F31188BFF36F8FBFF34F8F66
:102F9000FEE74FF0500080F31188BFF36F8FBFF34F
:102FA0004F8F00BFFEE7206C0028DDD04FF05000AF
:102FB00080F31188BFF36F8FBFF34F8FFEE7FFF7EA
:102FC0008BFBA06B022D5ED0E16B88425BD304F1DA
:102FD0001006012002AF4FF0000B0DF1100800BFEA
:102FE0000499002900F08280C00702D03846FFF71C
:102FF000A3FDFFF795FBFFF759FEFFF76DFB94F874
:103000004400FF2808BF84F844B094F84500FF2826
:1030100008BF84F845B0FFF783FB3846414600F00F
:1030200021FA002865D1FFF757FBD4F838A0D4F86F
:103030003C90FFF775FBCA4516D104993046FFF75F
:1030400091FD2046FFF7BEF900F026FD88B94EF647
:103050000450CEF200004FF080510160BFF34F8F5B
:10306000BFF36F8F05E000BF2046FFF7ABF900F01C
:1030700013FDFFF731FBA06B022D04D0E16B8842FA
:103080004FF00000ACD2A66B226C01991AB3CDB3FD
:10309000E068FDF7B3F8E168206C2268091A9142F4
:1030A000E16003D2A16840420844E060A81EB0FA83
:1030B00080F040093146002E18BF01210840361A21
:1030C0002CE04FF0500080F31188BFF36F8FBFF3F7
:1030D0004F8F00BFFEE7206800BBA06800F0FEFB3A
:1030E0000021B0FA80F0A160400918E0FFF718FB5A
:1030F00004E02046FFF766F900F0CEFC002005B0A2
:10310000BDE8F08F6068FDF779F8D4E90101226C21
:1031100010448842606001D3206860600120711C07
:10312000A16354F8241F79B1204600F041FCB8B1E6
:103130004EF60450CEF200004FF080510160BFF314
:103140004F8FBFF36F8F0BE050B94EF60450CEF2A5
:1031500000004FF080510160BFF34F8FBFF36F8FBE
:10316000FFF7DEFA012005B0BDE8F08F2DE9F04F42
:1031700081B0E8B11D46044619B3022D02D1E06BBF
:1031800001284DD10F469046FFF75EFBEFF3118A01
:103190004FF0500080F31188BFF36F8FBFF34F8F54
:1031A000A06B022D19D0E16B884216D3002080E07D
:1031B0004FF0500080F31188BFF36F8FBFF34F8F34
:1031C000FEE7206C0028D8D04FF0500080F3118823
:1031D000BFF36F8FBFF34F8FFEE794F945B0A06B3D
:1031E000A66B226C5FFA8BF91AB339464DB3E068CF
:1031F000FDF704F8E168206C2268091A9142E16049
:1032000003D2A16840420844E060A81EB0FA80F0F2
:1032100040093146002E18BF01210840361A1CE033
:103220004FF0500080F31188BFF36F8FBFF34F8FC3
:10323000FEE7206888B9A06800F050FB0020A0607D
:103240000BE06068FCF7DAFFD4E90101226C10445E
:103250008842606001D320686060701CB9F1FF0F84
:10326000A06310D0FFF7CEF9584521D9B9F17F0FEF
:103270001AD14FF0500080F31188BFF36F8FBFF366
:103280004F8F00BFFEE754F8240F88B1204600F0AE
:103290008FFB0146B8F1000F4FF0010009D0002963
:1032A00018BFC8F8000004E009F1010084F84500E7
:1032B00001208AF3118801B0BDE8F08F2DE9F04FAD
:1032C00085B0049298B10C460546002900F0B780FD
:1032D00000F00CFAA8B9049898B14FF0500080F3B0
:1032E0001188BFF36F8FBFF34F8F00BFFEE74FF022
:1032F000500080F31188BFF36F8FBFF34F8F00BF73
:10330000FEE705F11000019005F1240000900DF199
:1033100008090DF1100A4FF000080CE02846FFF7ED
:1033200051F800F0B9FBFFF7D7F9AF6BFFF7F8F9E9
:10333000002F00F09280FFF7CFF9D5F838B0BBF13D
:10334000000F27D02A6C5AB1D5E902011144E96077
:10335000814224BF2868E860E9682046FCF74EFFF8
:10336000ABF10100A863286970B1019800F020FB5F
:1033700050B14EF60450CEF200004FF08051016083
:10338000BFF34F8FBFF36F8FFFF7CAF900200126FD
:10339000A0B963E0049850B1B8F1000F02D14846DB
:1033A000FFF7CAFB4FF00108012038B956E0FFF7DC
:1033B000B7F900260020002850D000BFFFF7B0F971
:1033C000FFF774FCFFF788F995F84400FF2804BF65
:1033D000002085F8440095F84500FF2804BF002030
:1033E00085F84500FFF79CF94846514600F03AF849
:1033F00000287FF493AFFFF76FF9AF6BFFF790F9F9
:103400002FB12846FEF7DEFF00F046FB93E7049954
:103410000098FFF7A7FB2846FEF7D4FF00F03CFB1F
:1034200000287FF488AF4EF60450CEF200004FF033
:1034300080510160BFF34F8FBFF36F8F7BE7286C24
:1034400000283FF445AF4FF0500080F31188BFF3E0
:103450006F8FBFF34F8F00BFFEE70026304605B0E9
:10346000BDE8F08F70B538B30C4671B30546FFF771
:1034700033F943F2C80EC2F2010EDEF800302268C2
:10348000501C30D043F2300CC2F2010C2946D5E971
:103490000050DCF80060AE4201D083421FD2181AFF
:1034A00082421CD9101A2060DCF800000024086059
:1034B000DEF80000486017E04FF0500080F31188FC
:1034C000BFF36F8FBFF34F8FFEE74FF0500080F3D5
:1034D0001188BFF36F8FBFF34F8F00BFFEE700204F
:1034E0002060012400E00024FFF71AF9204670BD97
:1034F0002DE9F04F81B097008146384698469246B4
:103500000E46FEF799FF90B105465820FEF794FF4E
:1035100050B158210446FCF78AFE256354B94FF098
:10352000FF3001B0BDE8F08F2846FFF711F9002405
:10353000002CF4D0206B0A9D3946A522FCF770FEC2
:10354000206B76B104F13401002200BFB35C8B54D0
:10355000B35C1BB1092A02F10102F7D1002184F802
:103560003D10202D09D34FF0500080F31188BFF398
:103570006F8FBFF34F8F00BFFEE700EB8A00043868
:1035800004F1040B20F007060B9F5846E562A56482
:10359000FFF768F804F11800FFF764F8C5F12000A0
:1035A000A06130464946424624616462FFF706F84E
:1035B000002F206018BF3C60FFF78EF842F6BC7009
:1035C000C2F20100016840F21C1601310160C2F232
:1035D0000006316843F2940A40F23417C2F2010A3D
:1035E000C2F2000751B1DAF8000000283FD130687C
:1035F000E16AC06A884298BF346038E0346000688D
:10360000012834D1002500BF7819FFF71FF81435C1
:10361000B5F5207FF8D142F6F878C2F201084046AD
:10362000FFF714F843F20C09C2F201094846FFF70C
:103630000DF843F24000C2F20100FFF707F843F231
:10364000B400C2F20100FFF701F843F2A000C2F299
:103650000100FEF7FBFF40F22410C2F20000C0F8A8
:10366000008040F22C10C2F20000C0F8009042F638
:10367000C870C2F20100016842F6CC7201310160EB
:103680002164E06AC2F201020121136881401943FA
:1036900000EB8000116007EB80014A68616193686C
:1036A000A260E3609368C2F808B0C3F804B057F8AA
:1036B0002010013147F82010FFF732F8DAF8000047
:1036C00078B13068E16AC06A88420AD24EF6045086
:1036D000CEF200004FF080510160BFF34F8FBFF377
:1036E0006F8F012001B0BDE8F08F000043F294001D
:1036F000C2F201000068002804BF0120704742F6B2
:10370000C470C2F201000068B0FA80F040094000C5
:103710007047000043F2C800C2F201000068704721
:103720002DE9F04F42F6C470C2F20100006848B1C2
:1037300043F23C00C2F20100016801310160002047
:10374000BDE8F08F43F2C800C2F20100016811F138
:10375000010EC0F800E02DD340F22410C2F20000A8
:10376000026812684AB14FF0500080F31188BFF32D
:103770006F8FBFF34F8F00BFFEE740F22C13C2F2F2
:10378000000302681F6807601A6043F23002C2F249
:103790000102136801331360026812681AB10068ED
:1037A000C068006801E04FF0FF3043F22C02C2F223
:1037B0000102106043F22C01C2F20101086840F2DC
:1037C00034188645C2F2000801D200206EE040F2B3
:1037D000241AC2F2000ADAF800004FF0000900686B
:1037E000002858D042F6CC7BC2F2010B002025E025
:1037F000F96ADBF8002001238B401A43CBF8002044
:1038000001EB810208EB82035E687B61B468BE60F5
:10381000FC60B468B560656058F82230013348F840
:10382000223040F21C12C2F200021268D26ADAF8A8
:103830000030914288BF0120196881B3DAF8003066
:10384000DB68DF683D4655F8044FA64529D3D7E924
:1038500002637C69B360D4F804C0FB68AC455E6069
:1038600008BF6360C7F814902368013B2360BC6AFB
:10387000002CBDD0D7E907636268B3603B6A07F1EB
:1038800018018A425E6008BF6360C7F8289021680B
:1038900001392160ACE74FF0FF34002005E04FF024
:1038A000FF3443F22C01C2F201010C6040F21C1102
:1038B000C2F200010968C96A01EB810158F82110C0
:1038C000012943F2D401C2F2010188BF0120096835
:1038D000002918BF0120BDE8F08F0000002804BFB8
:1038E0000020704740F21C11C2F2000109688142B9
:1038F00009D04FF0500080F31188BFF36F8FBFF3F2
:103900004F8F00BFFEE7C16C002946D04A1E01461A
:10391000C2644FF000003FD10A46CB6A8A6C9342E2
:1039200008BF704770B50E1D30460D46FEF758FEB5
:1039300042F6CC7C2946C2F2010C48B9C86A012380
:10394000DCF8005003FA00F025EA0000CCF8000093
:103950008B6CC3F12000CB6288610120DCF8005041
:1039600000FA03F22A43CCF8002040F2341C03EBA7
:103970008302C2F2000C0CEB82056B684D619C68FF
:103980008B60CC609C689E6066605CF822100131A0
:103990004CF82210BDE8704070474FF0500080F3A3
:1039A0001188BFF36F8FBFF34F8F00BFFEE700009A
:1039B000C068C06810B310B5D0E90713826A8B6085
:1039C000036AD2F804E000F1180C59600021E645C2
:1039D00008BF5360816211680139116042F6C471F9
:1039E000C2F20101096891B143F24002C2F2010240
:1039F000516882628B68C161036231E04FF0500010
:103A000080F31188BFF36F8FBFF34F8FFEE7D0E9CC
:103A1000021342698B60D2F804E0C36800F1040C21
:103A2000E645596008BF5360116842F6CC7401390D
:103A30001160C16AC2F201044FF0010E22680EFA51
:103A400001F31A43226040F2341201EB8101C2F209
:103A5000000202EB8102516842618B688160C360A1
:103A60008B68C1F808C0C3F804C011680131116047
:103A700040F21C11C2F20001C06A0968C96A88429A
:103A8000BDE8104091BF002043F2D401C2F2010111
:103A9000012088BF086070472DE9F04F81B042F6E1
:103AA000C474C2F20104206868B1FEF715FE2068F4
:103AB00001382060206880B10024FEF731FE2046E6
:103AC00001B0BDE8F08F4FF0500080F31188BFF3D4
:103AD0006F8FBFF34F8F00BFFEE742F6BC70C2F29C
:103AE000010000680028E7D043F2400AC2F2010A50
:103AF000DAF8001043F2D4080029C2F2010868D0B5
:103B000042F6CC7B40F2341440F21C1E4FF0000C05
:103B10004FF00109C2F2010BC2F20004C2F2000E22
:103B2000DAF80C10CE68D6E90721B76A9160786898
:103B3000316A06F11805A8424A6008BF7960C6F8E4
:103B400028C0386801383860D6E90202716982609D
:103B50004A68F568371DBA42686008BF4D6008685A
:103B600001380860F06ADBF8001009FA00F211432E
:103B7000CBF8001000EB800104EB81025568726104
:103B8000AB68B560F360AB68AF605F6054F821204C
:103B9000013244F82120DEF80010C96A884228BFAB
:103BA000C8F80090DAF800000028B9D18EB140F2D0
:103BB0002410C2F200000168096819B10068C068E9
:103BC000006801E04FF0FF3043F22C01C2F2010126
:103BD000086043F23C04C2F20104256855B1012695
:103BE000FFF79EFD002818BFC8F80060013DF7D11F
:103BF00000202060D8F8000000283FF45DAF4EF6AA
:103C00000450CEF200004FF080510160BFF34F8F9F
:103C10000124BFF36F8F50E72DE9F04381B00546D3
:103C20002C201E4690460F46FEF706FC0446C0B107
:103C3000002084F82800C7B1DDF82090FEF7CAF90B
:103C4000201D2560C4E90676C4F82090FEF70AFD21
:103C5000B8F1000F05D094F8280040F0040084F873
:103C60002800204601B0BDE8F0834FF0500080F3FB
:103C70001188BFF36F8FBFF34F8F00BFFEE70000C7
:103C800080B582B0FEF7A6F943F2CC00C2F2010083
:103C9000006888B143F2D00C42F29510C2F2010CD8
:103CA0004FF01F0EC0F600000BA1F0220023CDE95B
:103CB00000ECFFF71DFC00E0002000281CBF02B054
:103CC00080BD4FF0500080F31188BFF36F8FBFF3BA
:103CD0004F8F00BFFEE700BF546D72205376630024
:103CE000B8B110B584B043F2CC04C2F201048446EA
:103CF0002068C0B10529CDE90112CDF80CC015DC52
:103D0000FFF7F4FC01462068022916D1069A01A9A2
:103D100015E04FF0500080F31188BFF36F8FBFF3B1
:103D20004F8F00BFFEE7002004B010BD01A91A4666
:103D30000023FFF71BFA04B010BD01A900220023E5
:103D4000FFF70AF904B010BD02E008C8121F08C14D
:103D5000002AFAD170477047002001E001C1121F0C
:103D6000002AFBD17047000010B5044601E0FEF7C1
:103D700079F814F8010B04490028F8D1BDE8104087
:103D80000A20FEF76FB800000000002000000000CD
:103D90000102030401020304060708091F000000D2
:103DA000C03D00080000002010000000483D000851
:103DB000D03D000810000020C8340100583D000824
:103DC000000000000095BA0A3A000000AAAAAAAAB8
:04000005080001C529
:00000001FF
