:020000040800F2
:1000000060340120D9010008A51900086D09000815
:10001000A119000891070008A123000800000000B2
:10002000000000000000000000000000111C00089B
:100030009507000800000000211A00084D1C000868
:10004000F3010008F3010008F3010008F3010008C0
:10005000F3010008F3010008F3010008F3010008B0
:10006000F3010008F3010008F3010008F3010008A0
:10007000F3010008F3010008F3010008F301000890
:10008000F3010008F3010008F3010008F301000880
:10009000F3010008F3010008F3010008F301000870
:1000A000F3010008F3010008F3010008F301000860
:1000B0003D1F0008791F0008F3010008F301000844
:1000C000F3010008F3010008F3010008F301000840
:1000D000F3010008D1210008F3010008F301000832
:1000E000F3010008F3010008F3010008F301000820
:1000F000F3010008F3010008F3010008F301000810
:10010000F3010008F3010008F3010008F3010008FF
:10011000F3010008F3010008F3010008F3010008EF
:10012000F3010008F3010008F3010008F3010008DF
:10013000F30100080000000000000000F3010008C7
:10014000F3010008F3010008F3010008F3010008BF
:10015000F3010008F3010008F3010008F3010008AF
:10016000F3010008F3010008F3010008F30100089F
:10017000F3010008F3010008F3010008000000008B
:1001800000000000F3010008000000000000000073
:10019000F30100080000000000000000F301000867
:1001A000000000000000000000000000F301000853
:1001B000F3010008F3010008F3010008F30100084F
:1001C000F3010008DFF80CD000F0BAFA004800474D
:1001D000192500086034012006488047064800477A
:1001E000FEE7FEE7FEE7FEE7FEE7FEE7FEE7FEE7E7
:1001F000FEE7FEE7211E0008C501000840EA0103F2
:100200009B0703D009E008C9121F08C0042AFAD2CC
:1002100003E011F8013B00F8013B521EF9D2704790
:10022000D2B201E000F8012B491EFBD27047002238
:10023000F6E710B513460A4604461946FFF7F0FFE5
:10024000204610BD2DE9FE4F804681EA0300C00F15
:100250000C46009021F0004123F00045B8EB02006D
:10026000A94105D24046214690461C460B4602460F
:1002700023F00040104347D0270DC7F30A00C3F313
:100280000A510290401A019040286BDAC3F3130020
:1002900040F4801B0098924620B10023D2EB030A61
:1002A00063EB0B0B01985946C0F14002504600F039
:1002B00098F906460D4650465946019A00F0A0F9B5
:1002C00010EB08006141002487EA115284EAE773C9
:1002D0001A4340D0009A62B3019A012A4FEA0752AA
:1002E00015DC001B61EB02014FF0004202EA0752ED
:1002F000CDE90042001C41F5801132462B4600F04A
:10030000A0F903B0BDE8F08F40462146F9E7001B95
:1003100061EB0201001C41F5801300185B412018BD
:10032000A2F5001747EB030140EAD570B6196D41FD
:1003300011E06D084FEA360645EAC0754FEA0752EC
:10034000001B61EB0201001C41F5801149084FEAD6
:1003500030000019514132462B4603B0BDE8F04F42
:1003600000F060B90098012240000023D0EB0202A7
:1003700063EBE073009821464FEAE074B8EB0000AD
:1003800061EB0401E9E783F000435BE781F00041A2
:1003900058E72DE9FE4F81EA030404F0004421F000
:1003A000004100944FF0000B23F0004350EA010499
:1003B0005ED052EA03045BD0C3F30A54C1F30A557A
:1003C0002C44A4F2F3340194A0FB0254C1F31301B2
:1003D00041F48011C3F3130343F4801301FB02447F
:1003E00000FB034E840A970A44EA815447EA835784
:1003F000A4FB076802958D0A05FB07854FEA932C3D
:1004000004FB0C542705029D4FEA065847EA1637AD
:10041000B5EB08056EEB070C870E920E47EA8117C5
:1004200042EA8312A7FB0201B6EB0B0164EB000466
:100430002B0D43EA0C335E1844EB1C50DA46514650
:10044000E7FB0201C5F313044FEA0B3343EA1453ED
:100450004FEA0432019C43EA0603A4F10C0402941F
:10046000009CCDE900B400F0ECF803B0BDE8F08FDB
:1004700000200146F9E72DE9F04D81EA030404F07C
:10048000004B21F0004514464FF0000A23F00041D4
:1004900050EA050220D054EA01021DD0C5F30A57E4
:1004A0000246C5F31303C1F31300C1F30A5640F427
:1004B000801543F48013A7EB0608101BD64608F2FC
:1004C000FD3873EB050002D308F1010801E0921832
:1004D0005B41B8F1000F03DA00200146BDE8F08D62
:1004E00000204FF48011064684460EE0171B73EB84
:1004F000050705D3121B63EB050306434CEA010C09
:1005000049084FEA300092185B4150EA0107EDD1EB
:1005100052EA030012D082EA040083EA050108438C
:1005200005D0101BAB4106D20122002306E00022B9
:100530004FF0004302E06FF0010253101AEB060087
:100540004CEB085110EB0A0041EB0B01BDE8F04DFC
:1005500000F068B830B50B46014600202022012487
:1005600009E021FA02F59D4205D303FA02F5491B81
:1005700004FA02F52844151EA2F10102F1DC30BD97
:100580002DE9F05F0546002092469B4688460646C8
:10059000814640241BE0284641464746224600F05B
:1005A000E7F853465A46C01A914110D311461846EF
:1005B000224600F016F82D1A67EB01084F46224636
:1005C0000120002100F00DF817EB00094E41201E1C
:1005D000A4F10104DFDC484631462A464346BDE823
:1005E000F09F202A04DB203A00FA02F10020704735
:1005F0009140C2F1200320FA03F319439040704761
:10060000202A06DBCB17203A41FA02F043EAE073D6
:1006100006E041FA02F3D040C2F1200291400843C3
:100620001946704710B5141E73F1000408DA401C17
:1006300041F1000192185B411A4301D120F0010001
:1006400010BD2DE9F04D92469B4611B1B1FA81F2F1
:1006500002E0B0FA80F220329046FFF7C2FF044673
:100660000F4640EA0A0041EA0B0153465A46084346
:1006700013D0114653EA010019D0C8F14002504688
:1006800000F076F805460E46504659464246FFF7BA
:10069000A8FF084305D0012004E020463946BDE804
:1006A000F08D0020054346EAE0762C4337430A9854
:1006B0006305E40AA0EB08000022FD0A44EA47545F
:1006C0000A3002D500200146E9E701051019694109
:1006D000DDE9084500196941BDE8F04DA2E7C1F325
:1006E0000A52C1F3130140F2FF3341F480119A42E0
:1006F00002DA00200146704740F233439A42A2F2E8
:10070000334202DC524200F033B8FFF76ABF000008
:1007100030B5041E71F1000404DB4FF00044404288
:1007200064EB0101141E73F1000405DB1C464FF05D
:100730000043524263EB0403994208BF904230BD2C
:100740001CB509480090094801900546009C06E048
:10075000E06840F0010394E8070098471034AC4289
:10076000F6D3FFF733FD00007C7E00089C7E000876
:10077000202A04DB203A21FA02F00021704721FAF6
:1007800002F3D040C2F1200291400843194670475D
:10079000FEE700007047000080B5042001F04AFA2F
:1007A00040F20400C2F2000000684DF68361C4F21A
:1007B0001B31A0FB011244F6D351C1F26201A0FB30
:1007C0000101900C40F29802C2F20002106040F267
:1007D0009400C2F20000012202704EF21000CEF22C
:1007E00000000268890942F002020260416001686B
:1007F00041F00101016080BD10B5044603F0C8F965
:1008000001280AD02CB940F29400C2F2000000780E
:1008100010B9204602F0A6FB00244EF2180040F268
:100820009801CEF20000C2F2000150F804CC096831
:100830004FF47A7261434A430168002304688C4292
:10084000FCD00B441B1B8C4228BF634493422146BF
:1008500028BF10BDF2E7000080B54EF2180140F24B
:100860009802CEF20001C2F2000251F804CC1268E4
:10087000002302FB00FE08680A688242FCD00344A1
:100880009B1A824228BF63447345104628BF80BD2F
:10089000F2E700002DE9F043D1F8008000234FF08B
:1008A000010C4FF0030E002410E000BFC26802EA02
:1008B0000902C260CA79C5689A402A43C2600134FD
:1008C000102C03F1020308BFBDE8F0830CFA04F614
:1008D00018EA060FF3D002680EFA03F7BA43026073
:1008E0000A796FEA0709076802FA03F5013A3D43FE
:1008F000012A0560DAD8826802EA090282604A7930
:100900008D7987689A403A4382604268B243426078
:1009100005FA04F2456892B22A434260C6E7000035
:100920001C2303EA810C6FF0030303EA510108441E
:100930000F23016A03FA0CF399430162016A02FA78
:100940000CF21143016270470069084018BF012092
:1009500070470000090481617047000081617047A1
:10096000002A08BF0904816170470000FEE700000B
:10097000B0B582B001F01AFB07200121012401F07B
:1009800081F848F210008DF80740002400904FF4E1
:100990004070C4F202046D46ADF8040020462946BA
:1009A000FFF778FF40F28230009004F5806029461E
:1009B000FFF770FF4EF20700009004F50060294633
:1009C000FFF768FF01200121002202F075FD40F2CF
:1009D0001801C2F20001086008B102B0B0BD02A067
:1009E00004F016F802B0B0BD4B65795F51756575BE
:1009F0006548616E646C652043726561746520466C
:100A000061696C210D000000B0B540F60004C4F22D
:100A10000204A4F5006528464FF40041FFF794FF57
:100A2000002842D028461021FFF78EFF00283ED034
:100A3000A4F5806528464FF40071FFF785FFC0B329
:100A400028464FF48071FFF77FFFA0B328460221AC
:100A5000FFF77AFF88B328468021FFF775FF70B350
:100A600020464FF40051FFF76FFF50B320464FF47C
:100A70008041FFF769FF30B320464FF40041FFF794
:100A800063FF10B320460221FFF75EFFF8B1204656
:100A90000121FFF759FFE0B120460421FFF754FF81
:100AA000FF21002808BF0B2114E0002112E00121E2
:100AB00010E002210EE003210CE004210AE00521F0
:100AC00008E0062106E0072104E0082102E00921F0
:100AD00000E00A210B2988BFB0BD481C40F210017C
:100AE000C2F200010870B0BD40F21001C2F2000174
:100AF000087800220A7070472DE9F04740F200455F
:100B0000C4F2020505F58064894607462046402167
:100B100098469246FFF71EFF28464FF48051FFF794
:100B200019FF2A2000F050FD0120FFF795FE28460E
:100B30004FF48051FFF712FF20464021FFF70EFFD0
:100B400028464FF480513E0AFFF704FF304600F07C
:100B50003BFD0120FFF780FE28464FF48051FFF750
:100B6000FDFE28464FF48051FFF7F4FEF8B200F086
:100B70002BFD0120FFF770FE28464FF48051FFF750
:100B8000EDFE28464FF480514FEA1A26FFF7E2FEA9
:100B9000304600F019FD0120FFF75EFE28464FF4B5
:100BA0008051FFF7DBFE28464FF48051FFF7D2FE5D
:100BB0005FFA8AF000F008FD0120FFF74DFE28469D
:100BC0004FF48051FFF7CAFE20464021FFF7C2FED6
:100BD00028464FF48051FFF7BDFE2B2000F0F4FCB7
:100BE0000120FFF739FE28464FF48051FFF7B6FE8B
:100BF00020464021FFF7B2FE28464FF480514FEACD
:100C00001926FFF7A7FE304600F0DEFC0120FFF7B3
:100C100023FE28464FF48051FFF7A0FE28464FF4EC
:100C20008051FFF797FE5FFA89F000F0CDFC0120BC
:100C3000FFF712FE28464FF48051FFF78FFE28463B
:100C40004FF480514FEA1826FFF784FE304600F03B
:100C5000BBFC0120FFF700FE28464FF48051FFF750
:100C60007DFE28464FF48051FFF774FE5FFA88F04E
:100C700000F0AAFC0120FFF7EFFD28464FF4805159
:100C8000FFF76CFE20464021FFF764FE28464FF434
:100C90008051FFF75FFE2C2000F096FC0120FFF74B
:100CA000DBFD28464FF48051FFF758FE20464021D7
:100CB000BDE8F047FFF752BE2DE9F04381B00E4684
:100CC0008146501E591E9846154682B28BB2484640
:100CD0003146FFF711FF464512D2089C04E000BFE1
:100CE0000136B0B240450BD2A945F9D24F4600BFFC
:100CF000204600F0FFFD0137B8B2A842F8D3EFE775
:100D000001B0BDE8F083000070B582B000F074FC63
:100D10000620012100F0B6FE4FF4A840009040F2FA
:100D2000013040F20044C0F20010C4F202046E46EA
:100D3000019020463146FFF7ADFD402004F5806567
:100D4000009028463146FFF7A5FD20464FF4A84104
:100D5000FFF704FE28464021FFF700FE20464FF42F
:100D60008041FFF7F7FD6420FFF746FD20464FF472
:100D70008041FFF7F3FD6420FFF73EFD20464FF46E
:100D80008061FFF7EBFD6420FFF736FD2846402128
:100D9000FFF7E0FD20464FF48051FFF7DBFD112007
:100DA00000F012FC0120FFF757FD20464FF4805160
:100DB000FFF7D4FD28464021FFF7D0FD7820FFF74C
:100DC0001BFD28464021FFF7C5FD20464FF480510A
:100DD000FFF7C0FD362000F0F7FB0120FFF73CFDD8
:100DE00020464FF48051FFF7B9FD28464021FFF718
:100DF000B5FD20464FF48051FFF7ACFDC02000F058
:100E0000E3FB0120FFF728FD20464FF48051FFF758
:100E1000A5FD28464021FFF79DFD20464FF4805157
:100E2000FFF798FD3A2000F0CFFB0120FFF714FDFB
:100E300020464FF48051FFF791FD28464021FFF7EF
:100E40008DFD20464FF48051FFF784FD052000F012
:100E5000BBFB0120FFF700FD20464FF48051FFF758
:100E60007DFD28464021FFF775FD20464FF4805157
:100E7000FFF770FDB22000F0A7FB0120FFF7ECFCAC
:100E800020464FF48051FFF769FD28464021FFF7C7
:100E900065FD20464FF48051FFF75CFD0C2000F00B
:100EA00093FB0120FFF7D8FC20464FF48051FFF759
:100EB00055FD20464FF48051FFF74CFD0C2000F00B
:100EC00083FB0120FFF7C8FC20464FF48051FFF759
:100ED00045FD20464FF48051FFF73CFD002000F017
:100EE00073FB0120FFF7B8FC20464FF48051FFF759
:100EF00035FD20464FF48051FFF72CFD332000F0E4
:100F000063FB0120FFF7A8FC20464FF48051FFF758
:100F100025FD20464FF48051FFF71CFD332000F0E3
:100F200053FB0120FFF798FC20464FF48051FFF758
:100F300015FD28464021FFF70DFD20464FF4805156
:100F4000FFF708FDB72000F03FFB0120FFF784FC0E
:100F500020464FF48051FFF701FD28464021FFF75E
:100F6000FDFC20464FF48051FFF7F4FC352000F0E3
:100F70002BFB0120FFF770FC20464FF48051FFF758
:100F8000EDFC28464021FFF7E5FC20464FF4805158
:100F9000FFF7E0FCBB2000F017FB0120FFF75CFC33
:100FA00020464FF48051FFF7D9FC28464021FFF737
:100FB000D5FC20464FF48051FFF7CCFC322000F0E6
:100FC00003FB0120FFF748FC20464FF48051FFF758
:100FD000C5FC28464021FFF7BDFC20464FF4805158
:100FE000FFF7B8FCC22000F0EFFA0120FFF734FC55
:100FF00020464FF48051FFF7B1FC28464021FFF70F
:10100000ADFC20464FF48051FFF7A4FC012000F016
:10101000DBFA0120FFF720FC20464FF48051FFF758
:101020009DFC28464021FFF795FC20464FF4805157
:10103000FFF790FCC32000F0C7FA0120FFF70CFC7B
:1010400020464FF48051FFF789FC28464021FFF7E6
:1010500085FC20464FF48051FFF77CFC152000F002
:10106000B3FA0120FFF7F8FB20464FF48051FFF759
:1010700075FC28464021FFF76DFC20464FF4805157
:10108000FFF768FCC42000F09FFA0120FFF7E4FBA3
:1010900020464FF48051FFF761FC28464021FFF7BE
:1010A0005DFC20464FF48051FFF754FC202000F0F7
:1010B0008BFA0120FFF7D0FB20464FF48051FFF759
:1010C0004DFC28464021FFF745FC20464FF4805157
:1010D000FFF740FCC62000F077FA0120FFF7BCFBC9
:1010E00020464FF48051FFF739FC28464021FFF796
:1010F00035FC20464FF48051FFF72CFC0F2000F008
:1011000063FA0120FFF7A8FB20464FF48051FFF758
:1011100025FC28464021FFF71DFC20464FF4805156
:10112000FFF718FCD02000F04FFA0120FFF794FBE6
:1011300020464FF48051FFF711FC28464021FFF76D
:101140000DFC20464FF48051FFF704FCA42000F072
:101150003BFA0120FFF780FB20464FF48051FFF758
:10116000FDFB20464FF48051FFF7F4FBA12000F077
:101170002BFA0120FFF770FB20464FF48051FFF758
:10118000EDFB28464021FFF7E5FB20464FF4805158
:10119000FFF7E0FBE02000F017FA0120FFF75CFB0F
:1011A00020464FF48051FFF7D9FB28464021FFF736
:1011B000D5FB20464FF48051FFF7CCFBD02000F048
:1011C00003FA0120FFF748FB20464FF48051FFF758
:1011D000C5FB20464FF48051FFF7BCFB082000F010
:1011E000F3F90120FFF738FB20464FF48051FFF759
:1011F000B5FB20464FF48051FFF7ACFB0E2000F00A
:10120000E3F90120FFF728FB20464FF48051FFF758
:10121000A5FB20464FF48051FFF79CFB092000F00E
:10122000D3F90120FFF718FB20464FF48051FFF758
:1012300095FB20464FF48051FFF78CFB092000F00E
:10124000C3F90120FFF708FB20464FF48051FFF758
:1012500085FB20464FF48051FFF77CFB052000F012
:10126000B3F90120FFF7F8FA20464FF48051FFF759
:1012700075FB20464FF48051FFF76CFB312000F0E6
:10128000A3F90120FFF7E8FA20464FF48051FFF759
:1012900065FB20464FF48051FFF75CFB332000F0E4
:1012A00093F90120FFF7D8FA20464FF48051FFF759
:1012B00055FB20464FF48051FFF74CFB482000F0CF
:1012C00083F90120FFF7C8FA20464FF48051FFF759
:1012D00045FB20464FF48051FFF73CFB172000F000
:1012E00073F90120FFF7B8FA20464FF48051FFF759
:1012F00035FB20464FF48051FFF72CFB142000F003
:1013000063F90120FFF7A8FA20464FF48051FFF758
:1013100025FB20464FF48051FFF71CFB152000F001
:1013200053F90120FFF798FA20464FF48051FFF758
:1013300015FB20464FF48051FFF70CFB312000F0E5
:1013400043F90120FFF788FA20464FF48051FFF758
:1013500005FB20464FF48051FFF7FCFA342000F0E3
:1013600033F90120FFF778FA20464FF48051FFF758
:10137000F5FA28464021FFF7EDFA20464FF4805158
:10138000FFF7E8FAE12000F01FF90120FFF764FA07
:1013900020464FF48051FFF7E1FA28464021FFF73D
:1013A000DDFA20464FF48051FFF7D4FAD02000F048
:1013B0000BF90120FFF750FA20464FF48051FFF758
:1013C000CDFA20464FF48051FFF7C4FA082000F010
:1013D000FBF80120FFF740FA20464FF48051FFF759
:1013E000BDFA20464FF48051FFF7B4FA0E2000F00A
:1013F000EBF80120FFF730FA20464FF48051FFF759
:10140000ADFA20464FF48051FFF7A4FA092000F00E
:10141000DBF80120FFF720FA20464FF48051FFF758
:101420009DFA20464FF48051FFF794FA092000F00E
:10143000CBF80120FFF710FA20464FF48051FFF758
:101440008DFA20464FF48051FFF784FA152000F002
:10145000BBF80120FFF700FA20464FF48051FFF758
:101460007DFA20464FF48051FFF774FA312000F0E6
:10147000ABF80120FFF7F0F920464FF48051FFF759
:101480006DFA20464FF48051FFF764FA332000F0E4
:101490009BF80120FFF7E0F920464FF48051FFF759
:1014A0005DFA20464FF48051FFF754FA482000F0CF
:1014B0008BF80120FFF7D0F920464FF48051FFF759
:1014C0004DFA20464FF48051FFF744FA172000F000
:1014D0007BF80120FFF7C0F920464FF48051FFF759
:1014E0003DFA20464FF48051FFF734FA142000F003
:1014F0006BF80120FFF7B0F920464FF48051FFF759
:101500002DFA20464FF48051FFF724FA152000F001
:101510005BF80120FFF7A0F920464FF48051FFF758
:101520001DFA20464FF48051FFF714FA312000F0E5
:101530004BF80120FFF790F920464FF48051FFF758
:101540000DFA20464FF48051FFF704FA342000F0E2
:101550003BF80120FFF780F920464FF48051FFF758
:10156000FDF928464021FFF7F5F920464FF4805158
:10157000FFF7F0F9212000F027F80120FFF76CF9C0
:1015800020464FF48051FFF7E9F928464021FFF744
:10159000E5F928464021FFF7DDF920464FF4805158
:1015A000FFF7D8F9292000F00FF80120FFF754F9D0
:1015B00020464FF48051FFF7D1F928464021FFF72C
:1015C000CDF902B070BD0000B0B543F60004054689
:1015D000C4F200042046022100F0EEFA0028F9D0FF
:1015E0002046294600F0EEFA2046802100F0E4FA79
:1015F0000028F9D1B0BD0000B0B586B002200121AD
:10160000012500F03FFA40F20044C4F202042046F3
:101610000D210522FFF784F920460F210522FFF74F
:101620007FF940F20230C0F2001002904FF42040E7
:10163000019001A92046FFF72DF920464FF42041E3
:10164000FFF78CF94FF48040012100F027FA4FF4A6
:10165000003002904CF20000C0F2041001904FF4F0
:10166000E020CDF812004FF40070A4F5E634CDF878
:101670000E0001A92046ADF80C5000F0A5FA204656
:10168000012100F08FFA06B0B0BD00002DE9F04F47
:1016900087B0DDF8448083464FEA58074FEA1810B8
:1016A0001C46914601237A0718BF03EB181000FB74
:1016B00008F50BEB580001EB08020138531E82B20B
:1016C0009BB258460E460691FFF716FA002D00F021
:1016D0008D80A8F10C00C1B2800140EA9100C3B234
:1016E000052B00F283800120984010F02B0F00F0B2
:1016F0007D802A46A9F120000121C0B2012D98BFAA
:101700000A4645F2A841059200EB4002C0F60001EE
:1017100001EB0211029144F6B861C0F6000101EB41
:101720000011019146F27861C0F600014FF0000A05
:1017300001EB80105E464FF0000903920090049385
:1017400008E04FF0000900BF05980AF1010A049B68
:1017500082454BD0032B0DD0012B09D063B90398E0
:1017600044F64421C0F6000101EB800005E000BF13
:10177000019802E0029800E00098504405784FF08C
:10178000000815E028422046109908BF084600F0DE
:10179000B1F809F101095FFA89F0B0FBF7F101FB3B
:1017A00017000028CDD008F10108B8F1080FCBD000
:1017B000129800284FF0010000FA08F0E2D0284209
:1017C00009D00699B0B289B202460B46FFF794F9E8
:1017D000204600F08FF80136B0B2A0EB0B00B84203
:1017E000E1D106985E4601300690ADE707B0BDE84E
:1017F000F08F0000002B08BF70472DE9F04F85B037
:10180000074610981C4693468A464508581E4FF0D6
:1018100000084FF00009049016E000BF4FF00109E6
:1018200040F030020F9808FB057100901098D2B27A
:10183000019088B251460E9B00260296FFF726FFC4
:1018400008F10108A0452CD06FEA080020440106E9
:1018500008D00121013801EB810102064FEA410164
:10186000F8D100E00121BBFBF1F049F69A11C1F675
:101870009911A0FB011202EB8201B9F1000FA0EB5C
:101880004100CDD104994145CADD0028C6D10F9948
:1018900008FB05700091109980B2019151462022F9
:1018A000C9E705B0BDE8F04F704700002DE9F04FE3
:1018B00083B09B461378CBB1DDE90C9ADDF8388014
:1018C0000D4606464FEA5A07541E00BFB0B2DAB2C0
:1018D00029465B46CDE9009ACDF80880FFF7D6FE91
:1018E000A3783E44002B04F10104EFD103B0BDE81E
:1018F000F08F000070B540F20044C4F202040546C7
:10190000060A20464FF48051FFF724F83046FFF7CF
:101910005BFE0120FEF7A0FF20464FF48051FFF749
:101920001DF820464FF48051FFF714F8E8B2FFF796
:101930004BFE0120FEF790FF20464FF48051BDE89A
:101940007040FFF70BB8000070B582B0062001218F
:1019500000F098F840F600043C20C4F20204009025
:1019600040F20130A4F580656E460190284631466C
:10197000FEF790FF20463146FEF78CFF20462021DF
:10198000FEF7ECFF28460421FEF7E8FF2046102171
:10199000FEF7E4FF20460821FEF7E0FF02B070BD2D
:1019A000FEE700007047000010B5C17800294EF234
:1019B0000011CEF200011CD04EF60C52CEF2000205
:1019C0001268072323EA12220F23C2F1040C23FA20
:1019D00002FE427884785FFA8CF390F800C09A4057
:1019E00004EA0E031A43120101EB0C0383F80023EF
:1019F00000E080310078012300F01F0203FA02F2B8
:101A0000C0F3421041F8202010BD000040F080607B
:101A10004EF60C5140F0FD70CEF2000108607047A8
:101A2000EFF30980BFF36F8F154B1A681EF0100F8C
:101A300008BF20ED108A20E9F04F10602DE9090061
:101A40004FF0500080F31188BFF34F8FBFF36F8FBB
:101A500001F03EFC4FF0000080F31188BDE8090062
:101A600019680868B0E8F04F1EF0100F08BFB0EC1E
:101A7000108A80F30988BFF36F8F704700BF00BFE3
:101A8000A0000020002943F63001C4F202010A68D8
:101A90000CBF22EA0000104308607047002943F69B
:101AA0004001C4F202010A680CBF22EA00001043A0
:101AB00008607047002943F64401C4F202010A6835
:101AC0000CBF22EA000010430860704743F6040C84
:101AD000C4F2020CDCF8043042F20042C0F2F4021C
:101AE000C3F3810310B5DFE803F03E02072141F2A2
:101AF0000022C0F27A0236E0DCF800E0DCF80030C8
:101B0000DCF8001003F03F03C1F388145FEA4E21B4
:101B100041F20021C0F27A0158BF1146B1FBF3F146
:101B2000DCF800206143C2F3014217E0DCF800104A
:101B3000DCF80030490241F20021C0F27A01DCF801
:101B4000004003F03F0358BF1146B1FBF3F1DCF84E
:101B50000020C4F388146143C2F30272022303EB32
:101B60004202B1FBF2F20260DCF8041044F63422C7
:101B7000C1F30311C0F60002515C036823FA01F1BE
:101B80004160DCF80430C3F38223D35C21FA03F311
:101B90008360DCF80430C3F34233D25CD140C160CF
:101BA00010BD00000288002918BF012122F0400268
:101BB00042EA8111018070470089084018BF012066
:101BC00070470000818170472DE9F04102880B8841
:101BD00002F4415C4A88B1F804E043EA0C03CC8883
:101BE0001A430D8942EA0E024E8922438F892A4305
:101BF000B1F80E8032433A4342EA08020280828BF7
:101C000022F400628283098A0182BDE8F08100002B
:101C1000074B19680868B0E8F04F80F30988BFF3F4
:101C20006F8F4FF0000080F31188704700BF00BF36
:101C3000A00000204EF21001CEF200010A68042834
:101C400022F0040208BF04320A60704780B501F038
:101C50009FFF012808BF80BDBDE8804001F014BC93
:101C6000F0B583B04FF6FF7701F072F80020002145
:101C7000F0224FF4A07300970025FFF71DF8022013
:101C800001210022022601F017FC40F21401C2F2E9
:101C90000001086060B11820CDE9007038A2002072
:101CA000182100230295FFF701FE3BA002F0B0FED1
:101CB00001201421002201F0FFFB40F21C01C2F2BE
:101CC00000010860002847F6496047F666613BA2BC
:101CD000C0F600003EA4C0F6000108BF0A4608BFD7
:101CE00004461820CDE90070002030210023029521
:101CF000FFF7DCFD204602F08BFE40F2280742F29F
:101D00000110C2F20007C0F600003AA182220023AF
:101D1000CDE9006701F03EFE42F68140C0F60000CA
:101D200036A182220023CDE9006501F033FE42F2A4
:101D30002510C0F6000034A182220023CDE9006501
:101D400001F028FE42F29910C0F6000030A1822274
:101D50000023CDE9006501F01DFE42F2B510C0F68A
:101D600000002DA182220023CDE9006501F012FEC2
:101D7000002001F059F903B0BDE8F04001F00CB8C3
:101D80004B65794E756D626572205375636365733B
:101D90007366756C210000004B65794E756D626548
:101DA000725F517565756548616E646C6520537529
:101DB000636365737366756C20210D004D657373E5
:101DC000616765205375636365737366756C210085
:101DD0004D6573736167655F517565756548616EC3
:101DE000646C65205375636365737366756C20213D
:101DF0000D0000005461736B31000000764B657973
:101E00005F5461736B0000005461736B320000001B
:101E10005461736B330000005461736B3400000035
:101E200082B04EF6885CCEF2000CDCF8002043F65F
:101E3000000142F47002C4F20201CCF800200A68EA
:101E40004FF6FF7042F001020A6000228A600B68C0
:101E5000CFF6F6601840086043F21000C2F200406E
:101E60004860086820F480200860CA6001920092EF
:101E7000086840F480300860086800F40030009082
:101E8000019801300190009818B90198B0F5A04F61
:101E9000F2D10868800354BF002001200090009810
:101EA000012844D1086C47F2000240F08050C4F28F
:101EB00000020864106840F4404010608868886040
:101EC000886840F400408860886840F4A0508860CA
:101ED00045F60820C7F240704860086840F08070FE
:101EE000086000BF08688001FCD5106840F48030AD
:101EF000106000BF5068C003FCD5106840F400308B
:101F0000106000BF50688003FCD540F20570C1F836
:101F10000004886820F003008860886840F00200B0
:101F2000886000BF886800F00C000828FAD14FF0E4
:101F300000604CF8800C02B07047000080B54FF094
:101F40008040012100F078F8012818BF80BD40F2E0
:101F50002400C2F2000001780131CAB20A2A0170DD
:101F600003D300210170FEF74FFD4FF080400121A7
:101F7000BDE8804000F052B810B540F20044C4F211
:101F800000042046012100F057F8012818BF10BDB9
:101F90002046012100F042F840F21440C4F2020051
:101FA000016881F00401016010BD000080B584B0BB
:101FB00001200121FFF772FD4FF0804000F050F842
:101FC00040F2E7310020029140F2C111ADF80C005F
:101FD00001918DF80E0001A94FF0804000F046F805
:101FE0004FF08040012100F015F84FF080400121B2
:101FF000012200F02DF84FF08040012100F012F88E
:1020000040F21C50C0F20010019001A8FFF7CCFC78
:1020100004B080BDC943018270470000C9430182FA
:10202000704700000288002918BF012122F0010238
:102030001144018070470000028A80890A4000EA4A
:10204000010018BF0122002818BF0120104070476E
:10205000002A82890CBF22EA010111438181704765
:10206000018921F0070101817047000010B540F699
:10207000FF32B0F800E0C4F2000240F2004C90429F
:10208000C4F2010C0FDCB0F1804F19D040F20042D5
:10209000C4F20002904213D040F60002C4F20002E3
:1020A00090420DD011E040F60042C4F2000290428E
:1020B00006D0604504D00022C4F20102904204D14F
:1020C0004A882EF0700342EA030E41F2004340F4C6
:1020D0008062C4F200039A4204D00C892EF440734B
:1020E00044EA030EA0F800E04B686245C3620B8827
:1020F000038504BF897A01860121818210BD000019
:1021000047F63864C0F6000403E000BF0A2000F080
:1021100029FFFEF7E9FC0028F8D00146204601F02F
:10212000FDFFF3E784B040F2180A47F638694FF62E
:10213000FF77C2F2000A0DF10F04002618250FF2F6
:102140004C08C0F6000900BFDAF8000021464FF045
:10215000FF3201F005FB0028F6D00020782142462E
:102160000023CDE900750296FFF7A0FB9DF80F2034
:10217000902078210223CDE900670295FFF73AFB12
:102180009DF80F10484601F0C9FFDDE74B65794E19
:10219000756D626572203D0040F61404C4F20204BD
:1021A000206880F0200020604FF47A7000F0DAFEA2
:1021B000F6E7000040F21444C4F20204206880F004
:1021C000040020604FF4FA6000F0CCFEF6E7000057
:1021D00010B541F20004C4F20104204640F225513A
:1021E00000F064F8012818BF10BD204600F0D0F8B8
:1021F00040F22C01C2F200010A78C0B2012A10D0CC
:102200009AB9402832D140F29200C2F20000007820
:1022100060BB0120087040F22D00C2F200000021D6
:1022200016E00D2816D102201FE00A281ED100203A
:10223000087040F22D01C2F20001097840F22E022E
:10224000C2F20002505440F29200C2F2000001219A
:1022500001700BE040F22D01C2F200010A7840F259
:102260002E03C2F200039854501C0870204640F21E
:102270002551BDE8104000F001B80000090A012214
:1022800002FA01F1C94301807047000082890029E8
:1022900018BF012122F4005242EA41318181704786
:1022A0000088084018BF012070470000C1F34212A7
:1022B0001423022A08BF1023012A08BF0C23C35A83
:1022C000008801F01F02090A23FA02F2C8401040F8
:1022D00000F001007047000070B584B00446008A29
:1022E0000D46C98820F4405008432082A0894EF64C
:1022F000F3110840A9882A896B89084310431843C1
:10230000A081A08AA98920F4407008436E46A0826B
:102310003046FFF7DBFB41F2000124F48060C4F299
:1023200001010822884208BF0C22B058B4F90C10F1
:102330000122B1F1FF3FC8BF02222B681921484397
:1023400003FA02F1B0FBF1F048F21F51C5F2EB11B4
:10235000A0FB01235A096FF0630302FB0300B4F9E9
:102360000C300326B3F1FF3FC8BF042600FA06F085
:1023700000F13200A0FB01014FF00700C8BF0F20A1
:1023800000EA511040EA0210208104B070BD000044
:1023900080886FF35F2070476FF35F218180704703
:1023A000FEE7000010B584B001200121FFF76AFBB1
:1023B0000024C4F20204204609210722FEF7B0FAE5
:1023C00020460A210722FEF7ABFA4FF4C0600090C6
:1023D00040F20230019069462046FEF75BFA102079
:1023E0000121FFF767FB4FF4E130009000204FF42C
:1023F0004021A4F57044ADF80C00CDE90101694617
:102400002046FFF769FF20460121FFF73FFF40F21A
:102410002550C0F2001000906846FFF7C5FA04B0DE
:1024200010BD000070B586B0022001210126FFF723
:1024300029FB40F20044C4F2020420460321062294
:10244000FEF76EFA204604210622FEF769FA2046BE
:1024500005210622FEF764FA4020019040F2013087
:10246000C0F2001001AD029020462946FEF712FA94
:102470003820019040F20230C0F200100290204655
:102480002946FEF707FA204640210122FEF768FAA6
:102490004FF400400121FFF701FB4FF400300290A0
:1024A0004FF0827001904FF4E020CDF8120040F21E
:1024B0000020C0F21000A4F5E434CDF80E0001A90C
:1024C0002046ADF80C60FFF77FFB20460121FFF7A7
:1024D00069FB06B070BD0000FFF7A4BFB0B541F2C4
:1024E000000504460A28C4F2010509D128460D2139
:1024F000FFF752FF28468021FFF7D2FE0028F9D0CF
:10250000E1B22846FFF748FF28468021FFF7C8FEC2
:102510000028F9D02046B0BD82B0FFF715FAFFF7CA
:1025200041FFFFF7D9FFFEF723FAFEF735F9FEF773
:10253000EBFBFFF73BFD4FF44070FFF767FA4FF6F8
:10254000FF7C00200021F0224FF4A073CDF800C0E2
:10255000FEF7B2FB40F2200C41F66140C2F2000CE3
:102560004FF0020EC0F6000005A1B4220023CDE911
:1025700000EC01F00FFA00F055FE00BFFEE700BFCF
:1025800053797374656D43726561745461736B0044
:10259000F0B581B00D4643F24C0140F2A006C2F204
:1025A0000101C2F200060F6831680446081D00F000
:1025B00055FB10B1601C0FD027E0306842F6507216
:1025C000C06AC2F201020121136801FA00F023EA95
:1025D00000001060601C18D1BDB143F22400C2F2AB
:1025E00001004168326891608A683368DA60326855
:1025F0008B6804325A60326804328A6031684861FC
:1026000001680131016001B0F0BD3068E419446037
:102610000BD340F2B000C2F2000000683168043110
:1026200001B0BDE8F04000F05DBB40F2A800C2F28E
:10263000000000683168043100F054FB42F6B070CD
:10264000C2F2010001688C4238BF046001B0F0BDE5
:1026500070B500F07DFB43F25006C2F2010630680F
:1026600018B1BDE8704000F097BB42F65474C2F256
:102670000104204600F026FB42F66875C2F201050F
:10268000284600F01FFB40F2A400C2F200000460E4
:1026900040F2B400C2F2000005600A200C210022C2
:1026A00000F00AFF00283060DBD003A100F008FC36
:1026B000BDE8704000F070BB546D72510000000026
:1026C00042F6447540F2B80A4EF6045843F2380711
:1026D00042F64076C2F20105C2F2000ACEF20008CC
:1026E0004FF08059C2F20107C2F2010615E000BFA7
:1026F00000F02EFBF868C468201D00F0AFFA3068C7
:102700000138306028680138286000F045FB206BF4
:1027100000F05AFB204600F057FB28680028E7D15C
:10272000DAF800000228F8D3C8F80090BFF34F8F02
:10273000BFF36F8FF1E7000008480068006880F37E
:1027400008884FF0000080F3148862B661B6BFF3CA
:102750004F8FBFF36F8F00DF00BF000008ED00E078
:102760002DE9F04381B040F2A408C2F20008D8F885
:1027700000200546D2680E46D46804F10409484694
:1027800000F06CFA94F8280041070CD400F0FA002D
:1027900084F828001CE000BF711B814210D3216A1D
:1027A000204688473D46A06924614719B7426760C3
:1027B000F2D9AE4201D2AF42F1D2D8F8000004E023
:1027C00040F2B400C2F200000068494600F08AFA04
:1027D000216A204601B0BDE8F043084781B00020DF
:1027E000009040F20800C2F2000000684FF0500173
:1027F00081F31188BFF36F8FBFF34F8F013001D08A
:10280000FEE700BF00980028FCD001B07047000030
:1028100084B040F2A40440F29C0940F2B40A43F2AE
:10282000500BC2F20004C2F20009C2F2000AC2F266
:10283000010B0DF1040800BF2068076817B1C068DC
:10284000066800E0002600F03BFD01F0B5F9D9F87C
:1028500000100546884209D22068016891B1C0681D
:102860004FF0FF310068FFF77BFFF5E7C9F8005034
:1028700097B1AE4210D801F061FB30462946FFF710
:102880006FFF29E0DAF80010CAF800002160C9F8EB
:10289000005001F053FB1FE00FB1002205E0DAF811
:1028A00000000068B0FA80F04209DBF80000711BFC
:1028B00000F034FB01F042FB70B94EF60450CEF24A
:1028C00000004FF080510160BFF34F8FBFF36F8F57
:1028D00002E0206800F006FADBF800004146002222
:1028E00000F03EFF0028A7D001980028F4D4039DF3
:1028F000686910B1281D00F0B1F901F05DF9D9F84F
:102900000010064688420ED22068016831B1C068C6
:102910004FF0FF310068FFF723FFF5E7DAF800100A
:10292000CAF8000021600198C9F800600138082841
:10293000D2D8DFE800F005053A236205053A230006
:1029400095F82800029BAA6940F0010185F828103B
:10295000D718294641F8047FB7422D6104D99E4219
:10296000B7D29F4203D2B4E7F31A934218D3430776
:1029700022D400F0FA0085F8280052E095F82800EB
:1029800040F00101029885F828100028A8614CD079
:102990003044294641F8040FB0422D613FF699AF0B
:1029A000DAF8000000F09EF996E795F8280000F0AC
:1029B000FE0085F828008FE70298D946C346D04626
:1029C0000F46104407E000BF301A88421DD3296A21
:1029D000284688475046A9692D6101EB000AB24597
:1029E000C5F804A0F0D9864201D28245EFD2206812
:1029F000394600F077F9C2460DE095F828008107C6
:102A0000D5D4284600F0E0F966E7D8F8000039464A
:102A1000C24600F067F9D846CB4640F29C09C2F2A4
:102A20000009296A2846884756E74FF0500080F38E
:102A30001188BFF36F8FBFF34F8F00BFFEE7000019
:102A4000F0B581B0044600F083F994F94560012E99
:102A50000FDB04F1240500BF286850B1284601F0BF
:102A6000F9F9002818BF00F07FFB70B2013E012881
:102A7000F2DCFF2684F8456000F08EF900F068F97A
:102A800094F94470012F0EDB04F11005286850B151
:102A9000284601F0DFF9002818BF00F065FB78B286
:102AA000013F0128F2DC84F8446001B0BDE8F04049
:102AB00000F072B970B5044600F002FC40F2AC01BF
:102AC000C2F20001086842F6A47EC2F2010E58B1BB
:102AD00084B304F007001138A04226BF24F0070099
:102AE00000F11003002326E040F23830C2F200006B
:102AF000C21D430700F5963318BF22F0070043F2CA
:102B00001C02C2F201020026C2E9000623F00702FD
:102B1000A2F108030B6042E902661A1A0B68CEF8AC
:102B20000020C0E9003242F6AC70C2F2010002603F
:102B3000002CCED10023012B4FF000046CDBDEF81B
:102B40000000834268D843F21C02C2F201021568F9
:102B50006C689C4207D200BF286820B144682A46AE
:102B600005469C42F8D30868854212D0D2F800C0CE
:102B70002E68E01A1128166031D3EC1862070AD0CB
:102B80004FF0500080F31188BFF36F8FBFF34F8F6A
:102B9000FEE7002440E060606B6043F21C03C2F279
:102BA000010300BF1A461B68A342FBD350681618E6
:102BB000A64203D164682044144650606668A01998
:102BC000984201D0184606E00868834203D0D3E952
:102BD000000131446160A242206018BF146042F6D7
:102BE000AC706968DEF80020C2F201000368511A77
:102BF0009942CEF8001038BF016042F6B87268689A
:102C0000C2F20102136840F0004000210CF10804F8
:102C1000C5E90010581C106001F090F9600708D059
:102C20004FF0500080F31188BFF36F8FBFF34F8FC9
:102C3000FEE7204670BD0000034642F2DD7021F041
:102C40000101C0F600004FF0807C03E903106FF033
:102C50000201A3F1440043E909127047D0E90132AF
:102C600001699A60D1F804C082688445536008BF46
:102C70004A600022026108680138086008687047ED
:102C800082B040F2100640F218070025C2F200069A
:102C9000C2F200070DF107048DF8075003E000BFF2
:102CA000052000F05FF93078357000288DF80700B6
:102CB000F6D0386821464FF0FF32002300F046FC82
:102CC000EEE700004FF0FF31024642F8081F0021F6
:102CD0004260C0E9032201607047000000210161E9
:102CE0007047000080B5D1F800C01CF1010207D088
:102CF00000F108039E465B681A686245FAD901E054
:102D0000D0F810E0DEF8042008614A609160C1F854
:102D100008E0CEF8041001680131016080BD0000B8
:102D2000D0F800C0436808619A684B608A609A686E
:102D3000996051600CF1010101607047DFF80C00EF
:102D4000016841F4700101607047000088ED00E007
:102D50004FF0500080F31188BFF36F8FBFF34F8F98
:102D600040F20800C2F2000001684A1C026001B192
:102D700070474EF60450CEF200000068000608BF0F
:102D800070474FF0500080F31188BFF36F8FBFF38F
:102D90004F8F00BFFEE7000040F20800C2F20000C3
:102DA000016839B10139016018BF7047002080F314
:102DB000118870474FF0500080F31188BFF36F8F78
:102DC000BFF34F8FFEE70000B0B5002808BFB0BDCD
:102DD00050F8041C002908D44FF0500080F31188EB
:102DE000BFF36F8FBFF34F8FFEE7A0F10804226897
:102DF0004AB14FF0500080F31188BFF36F8FBFF3DB
:102E00004F8F00BFFEE721F0004140F8041C05464B
:102E100000F056FA42F6A471C2F2010155F8040C12
:102E20000B682A461844086043F21C01C2F20101F3
:102E300008460968A142FBD34368C518A54204D1DE
:102E400052F8042C04461A4442606368E2188A422D
:102E500001D00A460AE040F2AC02C2F20002126857
:102E6000914203D0D1E9002119446160A04222605F
:102E700018BF046042F6BC70C2F201000168013163
:102E80000160BDE8B04001F059B800004EF21000FA
:102E9000CEF2000000210160816040F20401C2F224
:102EA0000001096844F6D352C1F26202A1FB02128A
:102EB0004FF0FF3101EB9211416007210160704733
:102EC000B0B5C8B14FF0000CF9B142F6D87EC2F2ED
:102ED000010E0023002202E00833402B18D00EEB35
:102EE00003046568854212D0002AF5D12268002AC1
:102EF00018BF64462246EFE74FF0500080F3118878
:102F0000BFF36F8FBFF34F8FFEE7002200E0224632
:102F1000002A18BFC2E90010B0BD000070B5154608
:102F20000E460446FFF714FF94F84400FF2804BF40
:102F3000002084F8440094F84500FF2804BF0020D6
:102F400084F84500FFF728FFA06B28B904F124009E
:102F500031462A4600F02CF92046BDE87040FFF7C4
:102F60006FBD000070B5002852D042F64871C2F221
:102F700001010A684AB14FF0500080F31188BFF395
:102F80006F8FBFF34F8F00BFFEE70546086840F222
:102F9000A0040130086043F24C00C2F20100C2F20A
:102FA0000004066820680430FFF758FE60B9206806
:102FB00042F65072C06AC2F201020121136801FA9E
:102FC00000F023EA000010602068AD19456009D3C5
:102FD00040F2B000C2F20000006821680431FFF73F
:102FE00081FE10E040F2A800C2F2000000682168F3
:102FF0000431FFF777FE42F6B070C2F201000168BB
:103000008D4238BF056000F099FF002818BF70BDE1
:103010004EF60450CEF200004FF080510160BFF335
:103020004F8FBFF36F8F70BD70B50446FFF790FEF2
:1030300040F2A006002CC2F2000608BF3468251D2D
:103040002846FFF70BFEA0B9E06A40F2B80200EB99
:103050008001C2F2000252F8211051B942F65072BA
:10306000C2F201020121136801FA00F023EA000014
:103070001060A06A18B104F11800FFF7EFFD42F6E6
:103080004C70C2F201000168013101603068844275
:1030900016D042F64070C2F20100016801390160A9
:1030A00040F2A800C2F2000001680968B1B10068EE
:1030B00042F6B071C068C2F201010068086014E015
:1030C00043F23800C2F201002946FFF729FE42F61A
:1030D0004470C2F201000168013105E042F6B070AF
:1030E000C2F201004FF0FF310160FFF755FE30687A
:1030F000844205D0206BFFF767FE2046FFF764FE91
:1031000043F21800C2F201000068E8B1306884425E
:1031100018BF70BD42F64870C2F20100006840B1AD
:103120004FF0500080F31188BFF36F8FBFF34F8FC4
:10313000FEE74EF60450CEF200004FF080510160E1
:10314000BFF34F8FBFF36F8F70BD000042F6B471B5
:10315000C2F201010968016043F24C01C2F20101AF
:10316000096841607047000043F25800C2F2010054
:10317000012101607047000078B110B50C4640F2A3
:10318000A001C2F2000109681831FFF7ABFD20462B
:103190000121BDE81040FFF7FBB94FF0500080F36C
:1031A0001188BFF36F8FBFF34F8F00BFFEE70000A2
:1031B00068B310B540F2A00CC2F2000CD0F804E0E5
:1031C000DCF80030002AC3F81CE0DEF80830DCF838
:1031D00000402362DCF80030DEF8084003F11803F9
:1031E0006360DCF80030044603F11803CEF80830C1
:1031F000DCF800309862036818BF4FF0FF310133EC
:10320000084611462360BDE81040FFF7C1B94FF0F2
:10321000500080F31188BFF36F8FBFF34F8F00BF53
:10322000FEE7000080B582B042F6A87C42F2C160A1
:10323000C2F2010C4FF0000EC0F600001EA1782271
:103240000023CDE900EC00F0A5FB012808BF00F049
:1032500035FF411C25D001281CD14FF0500080F3D0
:103260001188BFF36F8FBFF34F8F42F6B070C2F279
:1032700001004FF0FF31016043F21800C2F201007B
:103280000121016043F24C00C2F201000021016003
:1032900000F062F847F67860C0F60000006802B0FF
:1032A00080BD4FF0500080F31188BFF36F8FBFF3E4
:1032B0004F8F00BFFEE700BF49444C4500000000AF
:1032C00042F64870C2F201000168013101607047A6
:1032D00042F64870C2F20100006830B143F2580073
:1032E000C2F2010001210160704743F25800C2F2AE
:1032F00001000021016042F65070C2F20100006836
:10330000B0FA80F0C0B2C0F11F0040F2B80100EB8B
:103310008000C2F2000151F8202092B101EB800040
:10332000416800F1080249689142416001D1496851
:103330004160406840F2A001C068C2F2000108602C
:1033400070474FF0500080F31188BFF36F8FBFF3C9
:103350004F8F00BFFEE70000B0B584B04EF20040D2
:10336000CEF200004CF27021C4F20F11D0F8002907
:103370004B1C9A4209D14FF0500080F31188BFF3E3
:103380006F8FBFF34F8F00BFFEE7D0F800298A424E
:1033900009D14FF0500080F31188BFF36F8FBFF356
:1033A0004F8F00BFFEE7017842F638720291FF218D
:1033B00001700178C2F201028DF807109DF8071024
:1033C00001F05001117042F63C71C2F20101072276
:1033D0000A609DF90720B2F1FF3F0CDC062200BF16
:1033E0000A609DF80730013A5B008DF807309DF9BF
:1033F0000730002BF4D40A68032A3BD14FF4407203
:103400000A6002990170D0F8201941F47001C0F8E7
:103410002019D0F8201941F07041C0F82019FFF7A9
:1034200035FD40F20804C2F2000400252560FFF7D4
:1034300085FC4EF63470CEF20000016841F0404148
:103440000160FFF779F9FFF743FF039520684FF01C
:10345000500181F31188BFF36F8FBFF34F8F01309D
:1034600002D000BFFEE700BF03980028FCD0002078
:1034700004B0B0BD4FF0500080F31188BFF36F8FE0
:10348000BFF34F8FFEE7000080B54FF0500080F390
:103490001188BFF36F8FBFF34F8F00F093FB30B1F4
:1034A0004EF60450CEF200004FF080510160002033
:1034B00080F3118880BD0000F0B581B0E0B3A0FBBF
:1034C0000137CFBB01FB00F313F1510F34D806468F
:1034D00003F150000F461546FFF7ECFA4FF00004D9
:1034E00038B30146002F18BF50310160C0E90F67A3
:1034F0000646FFF72DFC3068D6E90F12B46302FBD5
:103500000103013901FB0201C6E90103FF20F1605B
:1035100086F8440086F8450006F11000FFF7D2FB5C
:1035200006F12400FFF7CEFBFFF736FC344686F8A1
:103530004C50204601B0F0BD4FF0500080F3118890
:10354000BFF36F8FBFF34F8FFEE700002DE9F04F01
:1035500085B00492B8B11D460446F1B1022D03D1E5
:10356000E06B012840F0A780019100F011FB00BB47
:103570000498F0B14FF0500080F31188BFF36F8FC3
:10358000BFF34F8FFEE74FF0500080F31188BFF379
:103590006F8FBFF34F8F00BFFEE7206C0028DDD098
:1035A0004FF0500080F31188BFF36F8FBFF34F8F40
:1035B000FEE7FFF7CDFBA06B022D5ED0E16B8842EA
:1035C0005BD304F11006012002AF4FF0000B0DF1A8
:1035D000100800BF0499002900F08280C00702D0C3
:1035E0003846FFF7B3FDFFF7D7FBFFF769FEFFF79C
:1035F000AFFB94F84400FF2808BF84F844B094F867
:103600004500FF2808BF84F845B0FFF7C5FB3846E2
:10361000414600F079F9002865D1FFF799FBD4F80D
:1036200038A0D4F83C90FFF7B7FBCA4516D10499EF
:103630003046FFF7A1FD2046FFF702FA00F07EFCBE
:1036400088B94EF60450CEF200004FF08051016070
:10365000BFF34F8FBFF36F8F05E000BF2046FFF72A
:10366000EFF900F06BFCFFF773FBA06B022D04D0A9
:10367000E16B88424FF00000ACD2A66B226C01993E
:103680001AB3CDB3E068FCF7B9FDE168206C22689D
:10369000091A9142E16003D2A16840420844E06007
:1036A000A81EB0FA80F040093146002E18BF012153
:1036B0000840361A2CE04FF0500080F31188BFF319
:1036C0006F8FBFF34F8F00BFFEE7206800BBA0687D
:1036D00000F056FB0021B0FA80F0A160400918E02C
:1036E000FFF75AFB04E02046FFF7AAF900F026FC9A
:1036F000002005B0BDE8F08F6068FCF77FFDD4E9DD
:103700000101226C10448842606001D3206860602F
:103710000120711CA16354F8241F79B1204600F0E8
:1037200099FBB8B14EF60450CEF200004FF0805134
:103730000160BFF34F8FBFF36F8F0BE050B94EF6B0
:103740000450CEF200004FF080510160BFF34F8F64
:10375000BFF36F8FFFF720FB012005B0BDE8F08FAE
:103760002DE9F04F85B0049298B10C46054600292A
:1037700000F0B78000F00CFAA8B9049898B14FF0A7
:10378000500080F31188BFF36F8FBFF34F8F00BFDE
:10379000FEE74FF0500080F31188BFF36F8FBFF347
:1037A0004F8F00BFFEE705F11000019005F12400E6
:1037B00000900DF108090DF1100A4FF000080CE01F
:1037C0002846FFF73DF900F0B9FBFFF7C1FAAF6BF0
:1037D000FFF7E2FA002F00F09280FFF7B9FAD5F870
:1037E00038B0BBF1000F27D02A6C5AB1D5E90201DD
:1037F0001144E960814224BF2868E860E9682046F6
:10380000FCF7FCFCABF10100A863286970B10198DA
:1038100000F020FB50B14EF60450CEF200004FF005
:1038200080510160BFF34F8FBFF36F8FFFF7B4FA82
:1038300000200126A0B963E0049850B1B8F1000F50
:1038400002D14846FFF782FC4FF00108012038B949
:1038500056E0FFF7A1FA00260020002850D000BF54
:10386000FFF79AFAFFF72CFDFFF772FA95F844007C
:10387000FF2804BF002085F8440095F84500FF2884
:1038800004BF002085F84500FFF786FA48465146F8
:1038900000F03AF800287FF493AFFFF759FAAF6BC6
:1038A000FFF77AFA2FB12846FFF7CAF800F046FB77
:1038B00093E704990098FFF75FFC2846FFF7C0F8EC
:1038C00000F03CFB00287FF488AF4EF60450CEF2A7
:1038D00000004FF080510160BFF34F8FBFF36F8F37
:1038E0007BE7286C00283FF445AF4FF0500080F391
:1038F0001188BFF36F8FBFF34F8F00BFFEE7002625
:10390000304605B0BDE8F08F70B538B30C4671B3E2
:103910000546FFF71DFA43F24C0EC2F2010EDEF827
:1039200000302268501C30D042F6B47CC2F2010C48
:103930002946D5E90050DCF80060AE4201D0834250
:103940001FD2181A82421CD9101A2060DCF800001D
:1039500000240860DEF80000486017E04FF05000D7
:1039600080F31188BFF36F8FBFF34F8FFEE74FF0E7
:10397000500080F31188BFF36F8FBFF34F8F00BFEC
:10398000FEE700202060012400E00024FFF704FA95
:10399000204670BD2DE9F04F81B097008146384632
:1039A000984692460E46FFF785F890B10546582096
:1039B000FFF780F850B158210446FCF738FC256326
:1039C00054B94FF0FF3001B0BDE8F08F2846FFF743
:1039D000FBF90024002CF4D0206B0A9D3946A52267
:1039E000FCF71EFC206B76B104F13401002200BF0D
:1039F000B35C8B54B35C1BB1092A02F10102F7D10D
:103A0000002184F83D10202D09D34FF0500080F3A1
:103A10001188BFF36F8FBFF34F8F00BFFEE700EB3E
:103A20008A00043804F1040B20F007060B9F584667
:103A3000E562A564FFF752F904F11800FFF74EF9AB
:103A4000C5F12000A06130464946424624616462C7
:103A5000FFF7F2F8002F206018BF3C60FFF778F9FD
:103A600042F64070C2F20100016840F2A006013146
:103A70000160C2F20006316843F2180A40F2B8074A
:103A8000C2F2010AC2F2000751B1DAF800000028C0
:103A90003FD13068E16AC06A884298BF346038E03C
:103AA00034600068012834D1002500BF7819FFF781
:103AB00009F91435B5F5207FF8D142F67C78C2F2C9
:103AC00001084046FFF7FEF842F69079C2F201097C
:103AD0004846FFF7F7F842F6C470C2F20100FFF75C
:103AE000F1F843F23800C2F20100FFF7EBF843F2BD
:103AF0002400C2F20100FFF7E5F840F2A800C2F28C
:103B00000000C0F8008040F2B000C2F20000C0F82F
:103B1000009042F64C70C2F20100016842F6507209
:103B2000013101602164E06AC2F2010201211368DF
:103B30008140194300EB8000116007EB80014A6867
:103B400061619368A260E3609368C2F808B0C3F84B
:103B500004B057F82010013147F82010FFF71CF986
:103B6000DAF8000078B13068E16AC06A88420AD2A7
:103B70004EF60450CEF200004FF080510160BFF3CA
:103B80004F8FBFF36F8F012001B0BDE8F08F0000B1
:103B900043F21800C2F201000068002804BF0120AF
:103BA000704742F64870C2F201000068B0FA80F037
:103BB000400940007047000043F24C00C2F201008F
:103BC000006870472DE9F04F42F64870C2F20100DC
:103BD000006848B142F6C070C2F2010001680131CC
:103BE00001600020BDE8F08F43F24C00C2F20100FA
:103BF000016811F1010EC0F800E02DD340F2A800D9
:103C0000C2F20000026812684AB14FF0500080F31F
:103C10001188BFF36F8FBFF34F8F00BFFEE740F2F5
:103C2000B003C2F2000302681F6807601A6042F620
:103C3000B472C2F2010213680133136002681268A1
:103C40001AB10068C068006801E04FF0FF3042F62A
:103C5000B072C2F20102106042F6B071C2F201010C
:103C6000086840F2B8088645C2F2000801D2002078
:103C70006EE040F2A80AC2F2000ADAF800004FF043
:103C800000090068002858D042F6507BC2F2010BB0
:103C9000002025E0F96ADBF8002001238B401A435D
:103CA000CBF8002001EB810208EB82035E687B61A8
:103CB000B468BE60FC60B468B560656058F82230D6
:103CC000013348F8223040F2A002C2F2000212682A
:103CD000D26ADAF80030914288BF0120196881B3B6
:103CE000DAF80030DB68DF683D4655F8044FA6453A
:103CF00029D3D7E902637C69B360D4F804C0FB68B8
:103D0000AC455E6008BF6360C7F814902368013B50
:103D10002360BC6A002CBDD0D7E907636268B3603A
:103D20003B6A07F118018A425E6008BF6360C7F80A
:103D30002890216801392160ACE74FF0FF34002062
:103D400005E04FF0FF3442F6B071C2F201010C60A1
:103D500040F2A001C2F200010968C96A01EB8101C9
:103D600058F82110012943F25801C2F2010188BF1D
:103D700001200968002918BF0120BDE8F08F00006C
:103D8000002804BF0020704740F2A001C2F20001E9
:103D90000968814209D04FF0500080F31188BFF3C9
:103DA0006F8FBFF34F8F00BFFEE7C16C002946D075
:103DB0004A1E0146C2644FF000003FD10A46CB6A5A
:103DC0008A6C934208BF704770B50E1D30460D4691
:103DD000FEF744FF42F6507C2946C2F2010C48B976
:103DE000C86A0123DCF8005003FA00F025EA00005D
:103DF000CCF800008B6CC3F12000CB6288610120FD
:103E0000DCF8005000FA03F22A43CCF8002040F21C
:103E1000B80C03EB8302C2F2000C0CEB82056B685A
:103E20004D619C688B60CC609C689E6066605CF8AD
:103E3000221001314CF82210BDE8704070474FF05D
:103E4000500080F31188BFF36F8FBFF34F8F00BF17
:103E5000FEE70000C068C06810B310B5D0E90713D2
:103E6000826A8B60036AD2F804E000F1180C596092
:103E70000021E64508BF5360816211680139116075
:103E800042F64871C2F20101096891B142F6C4726A
:103E9000C2F20102516882628B68C161036231E043
:103EA0004FF0500080F31188BFF36F8FBFF34F8F37
:103EB000FEE7D0E9021342698B60D2F804E0C368E0
:103EC00000F1040CE645596008BF5360116842F6E2
:103ED000507401391160C16AC2F201044FF0010E41
:103EE00022680EFA01F31A43226040F2B80201EB95
:103EF0008101C2F2000202EB8102516842618B68CB
:103F00008160C3608B68C1F808C0C3F804C0116841
:103F10000131116040F2A001C2F20001C06A0968DB
:103F2000C96A8842BDE8104091BF002043F25801A1
:103F3000C2F20101012088BF086070472DE9F04FEF
:103F400081B042F64874C2F20104206868B1FEF7FD
:103F5000FFFE206801382060206880B10024FEF751
:103F60001BFF204601B0BDE8F08F4FF0500080F3FA
:103F70001188BFF36F8FBFF34F8F00BFFEE742F68C
:103F80004070C2F2010000680028E7D042F6C47A0F
:103F9000C2F2010ADAF8001043F258080029C2F20E
:103FA000010868D042F6507B40F2B80440F2A00EFF
:103FB0004FF0000C4FF00109C2F2010BC2F20004F5
:103FC000C2F2000EDAF80C10CE68D6E90721B76A03
:103FD00091607868316A06F11805A8424A6008BF06
:103FE0007960C6F828C0386801383860D6E902021E
:103FF000716982604A68F568371DBA42686008BF17
:104000004D60086801380860F06ADBF8001009FAB2
:1040100000F21143CBF8001000EB800104EB8102A9
:1040200055687261AB68B560F360AB68AF605F60A4
:1040300054F82120013244F82120DEF80010C96A2A
:10404000884228BFC8F80090DAF800000028B9D1EB
:104050008EB140F2A800C2F200000168096819B1EF
:104060000068C068006801E04FF0FF3042F6B071B0
:10407000C2F20101086042F6C074C2F20104256870
:1040800055B10126FFF79EFD002818BFC8F8006053
:10409000013DF7D100202060D8F8000000283FF44F
:1040A0005DAF4EF60450CEF200004FF0805101603B
:1040B000BFF34F8F0124BFF36F8F50E780B582B0FD
:1040C000FEF7C6FA43F25000C2F20100006888B160
:1040D00043F2540C42F61100C2F2010C4FF0020EF2
:1040E000C0F600000BA1F0220023CDE900ECFFF7A1
:1040F00051FC00E0002000281CBF02B080BD4FF042
:10410000500080F31188BFF36F8FBFF34F8F00BF54
:10411000FEE700BF546D7220537663000FB4054B69
:1041200010B503A9044A029800F0DAF810BC5DF853
:1041300014FB0000DD2400080000002002E008C895
:10414000121F08C1002AFAD170477047002001E011
:1041500001C1121F002AFBD1704700002DE9FF5F4B
:1041600082B00021DDE90430020DDDF840B00343E8
:1041700018D044F61050A2F2FF32424315141198A1
:1041800001281FD0A5EB0B00401C5FEA000A4FF08E
:1041900000064E4FDFF83891B046504615D5CAF1AB
:1041A000000413E0119801244AA3012801D16FEA09
:1041B0000B010298119AC0E90031C0E9024206B031
:1041C000BDE8F09FCBF10000DFE704460021404A44
:1041D000491842EB0450CDE9001012E0E00707D087
:1041E00032463B4640464946FCF7D3F8804689466E
:1041F00032463B4610461946FCF7CBF806460F46BA
:104200006410002CEAD1DDE90401DDE90023BAF1F4
:10421000000F06DAFCF7BDF842464B46FCF7B9F84A
:1042200005E0FCF728F942464B46FCF724F9044622
:104230000E460022284BFCF76BFA03D84FF0FF30F4
:10424000014607E00022254B20463146FBF7FAFFE6
:10425000FCF745FA102409E0002C0ADB0A220023AF
:10426000FCF78EF9039B30321A55641E50EA0102A6
:10427000F2D1641C039AC4F111031444119A012A67
:1042800003D0012208430DD10AE0084304D00020E6
:104290004FF0110B119072E7A3EB0B056D1E0DE0B3
:1042A0005B4504DD4FF0000205F1010504E003DA8F
:1042B0004FF00002A5F10105002AECD002981199F7
:1042C000C0E90231C0E9004579E700000000144070
:1042D0000000F03F300000000000F0430000E03F2D
:1042E0002DE9FF4F95B09B468946064600250FE213
:1042F000252877D100242746F84A0121059400E0BB
:10430000044316F8013F203B01FA03F01042F7D1B5
:1043100030782A2811D06FF02F033078A0F13002C6
:10432000092A16D8059A44F0020402EB820203EB34
:1043300042021044761C0590EFE759F8042B0592D1
:10434000002A03DA504244F40054059044F0020479
:10435000761C30782E2816D116F8010F44F004048C
:104360002A280DD06FF02F023078A0F13003092BEE
:1043700009D807EB870302EB4303C718761CF3E762
:1043800059F8047B761C30786C280FD006DC4C285A
:1043900017D068280DD06A2814D104E0742810D0F2
:1043A0007A280FD10DE044F400140AE044F480149C
:1043B00001E044F440147278824202D104F5801482
:1043C000761C761C307866280BD013DC582877D002
:1043D00009DC002875D04528F6D04628F4D04728B7
:1043E0001AD19DE118E0632835D0642879D065287A
:1043F00012D195E1702873D008DC6728F1D06928C4
:104400006FD06E280DD06F2806D1B5E073282CD060
:10441000752875D0782874D05A46179990476D1C26
:1044200075E1C4F30250022809D003280DD0D9F851
:10443000001004280DD00D6009F1040967E1D9F8D6
:104440000010EA17C1E90052F6E7D9F800100D8014
:10445000F2E70D70F0E719F8041B8DF8001000204A
:104460008DF80100EA46012003E059F804AB4FF053
:10447000FF3061074FF0000102D40DE008F10101A7
:104480008846B9420FDA8045F8DB1AF8081000298F
:10449000F4D108E008F1010188468142FADB1AF8FC
:1044A00008100029F6D105985B46A0EB08072146C5
:1044B0003846179A00F094FA284400EB080507E004
:1044C0004DE029E10DE01AF8010B5A461799904783
:1044D000B8F10108F7D25B4621463846179A13E136
:1044E00042E00A220092C4F302524FF0000A022A6C
:1044F00008D059F804CB032A4FEAEC710AD00DE03A
:1045000029E02AE009F1070121F00702F2E802C1DF
:10451000914609E00FFA8CFC4FEAEC71042A03D1B2
:104520004FFA8CFC4FEAEC71002907DA0A460021A9
:10453000DCF1000C61EB02012D2202E0220504D522
:104540002B228DF80420012203E0E20701D0202273
:10455000F7E7904659E00A2102E010220DE0102111
:104560004FF0000A00910BE010224FF0000A44F0D7
:1045700004040827009203E008224FF0000A00928A
:10458000C4F30252022A05D059F804CB0021032AB1
:1045900008D009E009F1070121F00702F2E802C1A1
:1045A000914605E01FFA8CFC042A01D10CF0FF0CA7
:1045B0004FF00008220728D5702806D0009B83F012
:1045C000100353EA0A0305D00EE040228DF80420C0
:1045D000012208E05CEA010206D030228DF80420B6
:1045E0008DF8050002229046009B83F0080353EAF1
:1045F0000A030AD15CEA010201D1620705D5302223
:104600008DF804204FF001087F1E582804D034A0F4
:1046100003900EA802900DE036A0F9E753466046DD
:10462000009AFBF7ADFF84460398825C0298401E17
:10463000029002705CEA0100F0D1029806A9081A03
:1046400000F1200A600702D524F4803400E001273D
:10465000574502DDA7EB0A0000E0002000EB0A014D
:10466000009005984144401A0590E00306D45B464B
:104670002146179A059800F0B3F90544002706E093
:1046800001A85A46C05D179990476D1C7F1C47458D
:10469000F6DBE0030CD55B462146179A059800F03F
:1046A0009FF9054404E030205A46179990476D1C45
:1046B0000099481E00900029F5DC08E00298029954
:1046C0005A460078491C0291179990476D1CBAF11F
:1046D0000001AAF1010AF1DC65E1000009280100EE
:1046E0003031323334353637383961626364656668
:1046F000000000003031323334353637383941422A
:10470000434445460000000000F058F90544761C7B
:10471000307800287FF4ECAD19B02846BDE8F08F62
:10472000620700D4062709F1070222F0070CFCE813
:104730000223E14603F000485FEA080C02D00FF2C2
:10474000702C0DE05FEA045C02D50FF2682C07E0E4
:104750005FEAC47C02D00FF2602C01E0AFF2700C73
:104760004FF0FF3823F00043CDF850C065280CD03F
:1047700006DC452809D046281DD047283DD13DE01C
:10478000662818D067287ED138E00021112F01DB80
:10479000112000E0781CCDE9000106A90EA8FFF762
:1047A000DDFCDDE90F010E9A03910021009207F173
:1047B000010A04914DE04FF000400097CDE901104F
:1047C00006A90EA8FFF7CAFCDDE90F0203920E9BB3
:1047D00011990022DDF80CA00093049211B9791C04
:1047E00000EB010AB7EB0A0004D4C0F1FF3007F177
:1047F000010A0490AAEB0700019044E0012F00DABF
:1048000001270021112F01DD112000E03846CDE9FC
:10481000000106A90EA8FFF7A1FCDDE90F010E9A21
:104820000391002104910092BA4621070CD4039908
:10483000514500DA8A46BAF1010F05DD009AAAF166
:104840000101515C302908D0B84202DA10F1040F9E
:1048500006DA0121CDE9011015E0AAF10101E9E72D
:10486000002805DC049901440491AAEB000102E050
:10487000411C514500DD8A460499401A401C0190B4
:104880004FF000400290200704D40198504501DB0E
:10489000CDF8048000208DF84F0002980DF14F07ED
:1048A000B0F1004F25D02B200E9002984FF0020857
:1048B00000280CDA404202902D200E9007E00A21D9
:1048C0000298FBF747FE3031029007F8011DB8F15E
:1048D0000001A8F10108F2DC02980028EFD1791E4E
:1048E0000E980870307800F0200040F0450007F87E
:1048F000020D12A8C01B00F107081498007800B13F
:10490000012000EB0A01019801EBE0710598414498
:10491000401A401E0590E00306D45B462146179AD4
:10492000059800F05DF805441498007818B15A46CF
:10493000179990476D1CE00324D55B462146179AD2
:10494000059800F04DF805441CE00498002807DBAA
:10495000DDE90301884203DD0098405C179901E01E
:10496000179930205A469047049805F10105401CDC
:1049700004900198401E019004D12E205A461799A8
:1049800090476D1CBAF10001AAF1010ADDDC05E0D7
:1049900017F8010B5A46179990476D1CB8F10001A2
:1049A000A8F10108F4DC5B462146179A0598ABE6AE
:1049B0002D0000002B000000200000002DE9F04138
:1049C000044600251E461746880404D405E03946EF
:1049D0002020B0476D1C641EF9D52846BDE8F08143
:1049E0002DE9F041044600251E469046C80301D536
:1049F000302700E02027880404D505E041463846EA
:104A0000B0476D1C641EF9D52846BDE8F081000052
:104A100010B5044601E0FDF761FD14F8010B0449EF
:104A20000028F8D1BDE810400A20FDF757BD00006E
:104A30000000002000000000010203040102030442
:104A40000607080900000000000000000000000048
:104A500000000404040404000004000014140A000C
:104A6000000000000000000000000A0A1F0A0A1FE0
:104A70000A0A000000040E1505060C14150E0400A9
:104A8000000012150D152E2C2A1200000000040A39
:104A90000A36151529160000020201000000000068
:104AA00000000000100808040404040408081000B2
:104AB00002040408080808080404020000000004B6
:104AC000150E0E150400000000000008083E08083E
:104AD00000000000000000000000000002020100D1
:104AE00000000000003F0000000000000000000087
:104AF000000000000002000000201010080804045C
:104B00000202010000000E1111111111110E00001E
:104B10000000040604040404040E000000000E114A
:104B200011080402011F000000000E11100C1010EB
:104B3000110E00000000080C0C0A091F081C0000E0
:104B400000001F01010F1110110E000000000C12D7
:104B5000010D1311110E000000001E1008080404BE
:104B60000404000000000E11110E1111110E0000BE
:104B700000000E11111916100906000000000000B7
:104B80000400000000040000000000000004000019
:104B900000040400000010080402020408100000D1
:104BA000000000003F003F00000000000000020481
:104BB000081010080402000000000E11110804047F
:104BC0000004000000001C22292D2D1D221C0000C5
:104BD000000004040C0A0A1E1233000000000F1229
:104BE000120E1212120F000000001E11010101012D
:104BF000110E000000000F1212121212120F00000C
:104C000000001F120A0E0A02121F000000001F12ED
:104C10000A0E0A020207000000001C1201013911ED
:104C2000120C000000003312121E12121233000088
:104C300000001F0404040404041F000000003E08D8
:104C40000808080808080907000037120A060A12AF
:104C5000123700000000070202020202223F000099
:104C600000003B1B1B1B15151535000000003B12F7
:104C700016161A1A1217000000000E111111111148
:104C8000110E000000000F12120E020202070000B7
:104C900000000E1111111117190E180000000F124B
:104CA000120E0A121237000000001E110106081031
:104CB000110F000000001F1504040404040E00007E
:104CC0000000331212121212120C000000003312F4
:104CD000120A0A0C040400000000151515150E0A2E
:104CE0000A0A000000001B0A0A04040A0A1B00004A
:104CF00000001B0A0A0A0404040E000000001F0939
:104D000008040402121F00001C0404040404040428
:104D100004041C0000020204040408080810100027
:104D20000E0808080808080808080E00040A000011
:104D30000000000000000000000000000000000073
:104D40000000003F0204000000000000000000001E
:104D500000000000000C121C123C000000030202C4
:104D6000020E1212120E000000000000001C1202BF
:104D7000120C000000181010101C1212123C00003F
:104D800000000000000C121E021C00000018240489
:104D9000041E0404041E000000000000003C120C6D
:104DA000021C221C00030202020E12121237000023
:104DB0000004040000060404040E000000080800BB
:104DC000000C08080808080700030202021A0A0675
:104DD0000A1300000007040404040404041F000074
:104DE00000000000000F1515151500000000000060
:104DF000000F12121237000000000000000C121207
:104E0000120C000000000000000F1212120E020728
:104E100000000000001C1212121C103800000000DC
:104E2000001B06020207000000000000001E020C2A
:104E3000101E000000000004041E0404041C0000F6
:104E400000000000001B1212123C000000000000D5
:104E5000001B0A0A04040000000000000015150EE3
:104E60000A0A000000000000001B0A040A1B0000E0
:104E700000000000003312120C08040300000000C0
:104E8000001E0804041E000018080808080C080882
:104E9000080818000808080808080808080808088A
:104EA00006040404040804040404060016090000AF
:104EB00000000000000000000000000000000000F2
:104EC00000000000000000000000000808080808BA
:104ED000080800001818000000486C2412000000A8
:104EE00000000000000000000000002424247F12C5
:104EF00012127F12121200000000081C2A2A0A0C4B
:104F00001828282A2A1C0808000000222515151533
:104F10002A585454542200000000000C1212120AA5
:104F200076252911916E000000060604030000009A
:104F300000000000000000000040201010080808D9
:104F40000808081010204000000204080810101083
:104F500010101008080402000000000008086B1C74
:104F60001C6B08080000000000000000080808088A
:104F70007F08080808000000000000000000000092
:104F8000000000000606040300000000000000000E
:104F9000FE00000000000000000000000000000013
:104FA00000000000060600000000804040202010A5
:104FB00010080804040202000000001824424242C3
:104FC0004242424224180000000000080E0808086F
:104FD00008080808083E00000000003C4242422049
:104FE00020100804427E00000000003C42422018CD
:104FF00020404042221C00000000002030282424D1
:1050000022227E20207800000000007E0202021A88
:1050100026404042221C0000000000382402021AF0
:1050200026424242241800000000007E2222101076
:1050300008080808080800000000003C424242241A
:1050400018244242423C0000000000182442424220
:1050500064584040241C00000000000000001818A4
:105060000000000018180000000000000000000808
:1050700000000000000808040000004020100804A0
:1050800002040810204000000000000000007F0023
:1050900000007F0000000000000000020408102053
:1050A00040201008040200000000003C424246403C
:1050B00020101000181800000000001C225A55553E
:1050C00055552D42221C0000000000080818141439
:1050D000243C224242E700000000001F2222221E40
:1050E00022424242221F00000000007C4242010195
:1050F00001010142221C00000000001F2242424226
:1051000042424242221F00000000003F4212121E93
:1051100012120242423F00000000003F4212121EE3
:1051200012120202020700000000003C22220101CC
:1051300001712122221C0000000000E7424242428D
:105140007E42424242E700000000003E0808080894
:1051500008080808083E00000000007C101010102D
:10516000101010101010110F0000007722120A0EFC
:105170000A12122222770000000000070202020237
:1051800002020202427F0000000000773636363607
:105190002A2A2A2A2A6B0000000000E346464A4ACF
:1051A00052525262624700000000001C22414141FD
:1051B00041414141221C00000000003F4242424266
:1051C0003E020202020700000000001C2241414191
:1051D00041414D53321C60000000003F4242423EBC
:1051E0001212222242C700000000007C4242020448
:1051F00018204042423E00000000007F4908080895
:1052000008080808081C0000000000E7424242426B
:1052100042424242423C0000000000E74242222457
:1052200024141418080800000000006B494949497B
:105230005555362222220000000000E7422424189F
:105240001818242442E700000000007722221414DA
:1052500008080808081C00000000007E212010102B
:1052600008040442423F00000078080808080808C3
:10527000080808080808780000000202040408086A
:105280000810102020204040001E10101010101098
:105290001010101010101E00003844000000000014
:1052A00000000000000000000000000000000000FE
:1052B00000000000000000FF0006080000000000E1
:1052C0000000000000000000000000000000003CA2
:1052D0004278444242FC0000000000030202021A2D
:1052E00026424242261A000000000000000000385A
:1052F0004402020244380000000000604040407850
:105300004442424264D80000000000000000003C1B
:10531000427E0202423C0000000000F08808087E45
:1053200008080808083E0000000000000000007C9B
:1053300022221C023C42423C000000030202023ACC
:105340004642424242E700000000000C0C00000E02
:1053500008080808083E000000000030300000384F
:10536000202020202020221E0000000302020272C2
:10537000120A1612227700000000000E0808080822
:1053800008080808083E0000000000000000007F38
:105390009292929292B70000000000000000003B41
:1053A0004642424242E70000000000000000003C8C
:1053B00042424242423C0000000000000000001B4C
:1053C00026424242221E0207000000000000007830
:1053D00044424242447840E0000000000000007770
:1053E0004C040404041F0000000000000000007CC6
:1053F00042023C40423E0000000000000008083E1F
:1054000008080808083000000000000000000063E1
:105410004242424262DC000000000000000000E75F
:10542000422424140808000000000000000000EBE3
:105430004949555522220000000000000000007676
:1054400024181818246E000000000000000000E777
:105450004224241418080807000000000000007E01
:1054600022100808447E000000C0202020202010C8
:10547000202020202020C00010101010101010102C
:10548000101010101010101000060808080808105E
:1054900008080808080806000C32C20000000000D6
:1054A00000000000000000000000000000000000FC
:1054B00000000000000000000000000000000000EC
:1054C00000000000000000000000000000000000DC
:1054D00000000000000000000000000000000000CC
:1054E00060006000600060006000600060004000DC
:1054F000200020002000000000000000600060008C
:10550000600000000000000000000000600660066F
:1055100030039801880044000000000000000000F3
:10552000000000000000000000000000000000007B
:10553000000000000000000000000000000000006B
:105540001002100210021002FE07FE0708020801F6
:10555000080108010801FE07FE0704010401040117
:1055600004010000000000000000000000004000F6
:105570004000F00158034C03CC034C00580070006D
:10558000E000C001C00140034C035C034C03480130
:10559000F00040004000000000000000000000009B
:1055A0000E010A01910091009100510051003A0052
:1055B000AE03A00250045004480448044804840286
:1055C0008403000000000000000000000000000054
:1055D00038006C006C006C006C006C002C009807AC
:1055E0001C011A01330133016301E300C308C6093A
:1055F0003C07000000000000000000000C001C0040
:10560000100010000800040000000000000000006E
:10561000000000000000000000000000000000008A
:105620000000000000000000000000000004000274
:105630000001800080004000400020002000200089
:10564000200020002000200040004000800080005A
:10565000000100020004000000000000020004003D
:105660000800100010002000200040004000400012
:1056700040004000400040002000200010001000CA
:10568000080004000200000000000000000000000C
:10569000000000004000C0004000460C4E0FD0014A
:1056A000F0015E0F460C400040004000000000008A
:1056B00000000000000000000000000000000000EA
:1056C000000000000000400040004000400040009A
:1056D000FE0F40004000400040004000000000007D
:1056E00000000000000000000000000000000000BA
:1056F00000000000000000000000000000000000AA
:105700000000000000000000000000000C001C0071
:10571000100010000800040000000000000000005D
:105720000000000000000000000000000000000079
:10573000FE07000000000000000000000000000064
:105740000000000000000000000000000000000059
:105750000000000000000000000000000000000049
:105760000000000000000000000000001C001C0001
:105770001C00000000000000000000000004000603
:105780000002000300010001800080004000400092
:1057900060002000200010001000080008000C002D
:1057A00004000600020000000000000000000000ED
:1057B0000000F00098010C030C030606060606061E
:1057C000060606060606060606060C030C039801E6
:1057D000F0000000000000000000000000000000D9
:1057E000000040007C00600060006000600060001D
:1057F00060006000600060006000600060006000A9
:10580000FC03000000000000000000000000000099
:105810000000F800840102030603060300030001F0
:105820008001C0006000200010000802040206028F
:10583000FE03000000000000000000000000000067
:1058400000007800C6008601860180018001C0004A
:1058500070008001000100030003060306038601B7
:10586000F800000000000000000000000000000040
:10587000000080018001C001A001A0019001880109
:10588000880184018201FE0F800180018001800176
:10589000E007000000000000000000000000000021
:1058A0000000FC0304000400040004000400F400F1
:1058B0008C01040300030003060306038201840134
:1058C000F8000000000000000000000000000000E0
:1058D0000000E00118030C030C0004000600E601C0
:1058E00016030E0606060606060604060C02180334
:1058F000F0000000000000000000000000000000B8
:105900000000F8070C0604020401000100018000F9
:1059100080004000400040006000600060006000C7
:105920006000000000000000000000000000000017
:105930000000F8010C030606060606060C021C030E
:10594000F000C8010C0306060606060606060C0350
:10595000F001000000000000000000000000000056
:105960000000F0000C010C030602060606060606FF
:1059700006078C0678060006000300030C018C0164
:10598000780000000000000000000000000000009F
:10599000000000000000000000000000E000E00047
:1059A000E00000000000000000000000E000E00057
:1059B000E000000000000000000000000000000007
:1059C0000000000000000000000000006000600017
:1059D0000000000000000000000000000000600067
:1059E00060004000200020000000000000000000D7
:1059F00000040002000180004000200010000800A8
:105A00000400080010002000400080000001000297
:105A10000004000000000000000000000000000082
:105A2000000000000000000000000000FE07000071
:105A300000000000FE070000000000000000000061
:105A40000000000000000000000000000000000056
:105A50000400080010002000400080000001000247
:105A60000004000200018000400020001000080037
:105A70000400000000000000000000000000000022
:105A80000000E0031806040C040C0C0C0C0C0007BE
:105A9000800140004000400000000000E000E00005
:105AA000E000000000000000000000000000000016
:105AB000E00018030C02CC0564056605A605B604D3
:105AC000B604B604B604B602E4010C040C021803D2
:105AD000F0000000000000000000000000000000D6
