:020000040800F2
:10000000C0340120D9010008B91E00086D0900089C
:10001000B51E000891070008F9290008000000003B
:100020000000000000000000000000003121000876
:100030009507000800000000411F00086D2100081E
:10004000F3010008F3010008F3010008F3010008C0
:10005000F3010008F3010008F3010008F3010008B0
:10006000F3010008F3010008F3010008F3010008A0
:10007000F3010008F3010008F3010008F301000890
:10008000F3010008F3010008F3010008F301000880
:10009000F3010008F3010008F3010008F301000870
:1000A000F3010008F3010008F3010008F301000860
:1000B0002D23000859230008F3010008F30100086C
:1000C000F3010008F3010008F3010008F301000840
:1000D000F301000829280008F3010008F3010008D3
:1000E000F3010008F3010008F3010008F301000820
:1000F000F3010008F3010008F3010008F301000810
:10010000F3010008F3010008F3010008F3010008FF
:10011000F3010008F3010008F3010008F3010008EF
:10012000F3010008F3010008F3010008F3010008DF
:10013000F30100080000000000000000F3010008C7
:10014000F3010008F3010008F3010008F3010008BF
:10015000F3010008F3010008F3010008F3010008AF
:10016000F3010008F3010008F3010008F30100089F
:10017000F3010008F3010008F3010008000000008B
:1001800000000000F3010008000000000000000073
:10019000F30100080000000000000000F301000867
:1001A000000000000000000000000000F301000853
:1001B000F3010008F3010008F3010008F30100084F
:1001C000F3010008DFF80CD000F0BAFA004800474D
:1001D000712B0008C03401200648804706480047BC
:1001E000FEE7FEE7FEE7FEE7FEE7FEE7FEE7FEE7E7
:1001F000FEE7FEE711220008C501000840EA0103FE
:100200009B0703D009E008C9121F08C0042AFAD2CC
:1002100003E011F8013B00F8013B521EF9D2704790
:10022000D2B201E000F8012B491EFBD27047002238
:10023000F6E710B513460A4604461946FFF7F0FFE5
:10024000204610BD2DE9FE4F804681EA0300C00F15
:100250000C46009021F0004123F00045B8EB02006D
:10026000A94105D24046214690461C460B4602460F
:1002700023F00040104347D0270DC7F30A00C3F313
:100280000A510290401A019040286BDAC3F3130020
:1002900040F4801B0098924620B10023D2EB030A61
:1002A00063EB0B0B01985946C0F14002504600F039
:1002B00098F906460D4650465946019A00F0A0F9B5
:1002C00010EB08006141002487EA115284EAE773C9
:1002D0001A4340D0009A62B3019A012A4FEA0752AA
:1002E00015DC001B61EB02014FF0004202EA0752ED
:1002F000CDE90042001C41F5801132462B4600F04A
:10030000A0F903B0BDE8F08F40462146F9E7001B95
:1003100061EB0201001C41F5801300185B412018BD
:10032000A2F5001747EB030140EAD570B6196D41FD
:1003300011E06D084FEA360645EAC0754FEA0752EC
:10034000001B61EB0201001C41F5801149084FEAD6
:1003500030000019514132462B4603B0BDE8F04F42
:1003600000F060B90098012240000023D0EB0202A7
:1003700063EBE073009821464FEAE074B8EB0000AD
:1003800061EB0401E9E783F000435BE781F00041A2
:1003900058E72DE9FE4F81EA030404F0004421F000
:1003A000004100944FF0000B23F0004350EA010499
:1003B0005ED052EA03045BD0C3F30A54C1F30A557A
:1003C0002C44A4F2F3340194A0FB0254C1F31301B2
:1003D00041F48011C3F3130343F4801301FB02447F
:1003E00000FB034E840A970A44EA815447EA835784
:1003F000A4FB076802958D0A05FB07854FEA932C3D
:1004000004FB0C542705029D4FEA065847EA1637AD
:10041000B5EB08056EEB070C870E920E47EA8117C5
:1004200042EA8312A7FB0201B6EB0B0164EB000466
:100430002B0D43EA0C335E1844EB1C50DA46514650
:10044000E7FB0201C5F313044FEA0B3343EA1453ED
:100450004FEA0432019C43EA0603A4F10C0402941F
:10046000009CCDE900B400F0ECF803B0BDE8F08FDB
:1004700000200146F9E72DE9F04D81EA030404F07C
:10048000004B21F0004514464FF0000A23F00041D4
:1004900050EA050220D054EA01021DD0C5F30A57E4
:1004A0000246C5F31303C1F31300C1F30A5640F427
:1004B000801543F48013A7EB0608101BD64608F2FC
:1004C000FD3873EB050002D308F1010801E0921832
:1004D0005B41B8F1000F03DA00200146BDE8F08D62
:1004E00000204FF48011064684460EE0171B73EB84
:1004F000050705D3121B63EB050306434CEA010C09
:1005000049084FEA300092185B4150EA0107EDD1EB
:1005100052EA030012D082EA040083EA050108438C
:1005200005D0101BAB4106D20122002306E00022B9
:100530004FF0004302E06FF0010253101AEB060087
:100540004CEB085110EB0A0041EB0B01BDE8F04DFC
:1005500000F068B830B50B46014600202022012487
:1005600009E021FA02F59D4205D303FA02F5491B81
:1005700004FA02F52844151EA2F10102F1DC30BD97
:100580002DE9F05F0546002092469B4688460646C8
:10059000814640241BE0284641464746224600F05B
:1005A000E7F853465A46C01A914110D311461846EF
:1005B000224600F016F82D1A67EB01084F46224636
:1005C0000120002100F00DF817EB00094E41201E1C
:1005D000A4F10104DFDC484631462A464346BDE823
:1005E000F09F202A04DB203A00FA02F10020704735
:1005F0009140C2F1200320FA03F319439040704761
:10060000202A06DBCB17203A41FA02F043EAE073D6
:1006100006E041FA02F3D040C2F1200291400843C3
:100620001946704710B5141E73F1000408DA401C17
:1006300041F1000192185B411A4301D120F0010001
:1006400010BD2DE9F04D92469B4611B1B1FA81F2F1
:1006500002E0B0FA80F220329046FFF7C2FF044673
:100660000F4640EA0A0041EA0B0153465A46084346
:1006700013D0114653EA010019D0C8F14002504688
:1006800000F076F805460E46504659464246FFF7BA
:10069000A8FF084305D0012004E020463946BDE804
:1006A000F08D0020054346EAE0762C4337430A9854
:1006B0006305E40AA0EB08000022FD0A44EA47545F
:1006C0000A3002D500200146E9E701051019694109
:1006D000DDE9084500196941BDE8F04DA2E7C1F325
:1006E0000A52C1F3130140F2FF3341F480119A42E0
:1006F00002DA00200146704740F233439A42A2F2E8
:10070000334202DC524200F033B8FFF76ABF000008
:1007100030B5041E71F1000404DB4FF00044404288
:1007200064EB0101141E73F1000405DB1C464FF05D
:100730000043524263EB0403994208BF904230BD2C
:100740001CB509480090094801900546009C06E048
:10075000E06840F0010394E8070098471034AC4289
:10076000F6D3FFF733FD0000BC830008DC830008EC
:10077000202A04DB203A21FA02F00021704721FAF6
:1007800002F3D040C2F1200291400843194670475D
:10079000FEE700007047000080B5042001F0DAFC9D
:1007A00040F20800C2F2000000684DF68361C4F216
:1007B0001B31A0FB011244F6D351C1F26201A0FB30
:1007C0000101900C40F2FC02C2F20002106040F203
:1007D000F800C2F20000012202704EF21000CEF2C8
:1007E00000000268890942F002020260416001686B
:1007F00041F00101016080BD10B5044603F004FD25
:1008000001280AD02CB940F2F800C2F200000078AA
:1008100010B9204602F0D2FE00244EF2180040F239
:10082000FC01CEF20000C2F2000150F804CC0968CD
:100830004FF47A7261434A430168002304688C4292
:10084000FCD00B441B1B8C4228BF634493422146BF
:1008500028BF10BDF2E7000080B54EF2180140F24B
:10086000FC02CEF20001C2F2000251F804CC126880
:10087000002302FB00FE08680A688242FCD00344A1
:100880009B1A824228BF63447345104628BF80BD2F
:10089000F2E700002DE9F043D1F8008000234FF08B
:1008A000010C4FF0030E002410E000BFC26802EA02
:1008B0000902C260CA79C5689A402A43C2600134FD
:1008C000102C03F1020308BFBDE8F0830CFA04F614
:1008D00018EA060FF3D002680EFA03F7BA43026073
:1008E0000A796FEA0709076802FA03F5013A3D43FE
:1008F000012A0560DAD8826802EA090282604A7930
:100900008D7987689A403A4382604268B243426078
:1009100005FA04F2456892B22A434260C6E7000035
:100920001C2303EA810C6FF0030303EA510108441E
:100930000F23016A03FA0CF399430162016A02FA78
:100940000CF21143016270470069084018BF012092
:1009500070470000090481617047000081617047A1
:10096000002A08BF0904816170470000FEE700000B
:10097000B0B582B007200121012401F013FB48F239
:1009800010008DF80740002400904FF44070C4F22E
:1009900002046D46ADF8040020462946FFF77AFFB1
:1009A00040F28230009004F580602946FFF772FF24
:1009B0004EF20700009004F500602946FFF76AFF39
:1009C00002B0B0BD40F21100C2F200000178013166
:1009D000CAB2142A017038BF70472DE9F04381B0C4
:1009E00040F2130840F60004C2F20008C4F2020408
:1009F00098F8000040F21209C2F20009A4F500665E
:100A000089F8000030464FF40041FFF79DFF0028B1
:100A100043D0A4F58065284602210227FFF794FF02
:100A200000284DD030461021FFF78EFFB8B328467E
:100A30008021FFF789FFA0B328464FF40071FFF72C
:100A400083FF80B328464FF48071FFF77DFF60B3CA
:100A500020464FF40051FFF777FF40B320464FF494
:100A60008041FFF771FF20B320460221FFF76CFFA2
:100A700008B320464FF40041FFF766FFE8B1204677
:100A80000121FFF761FFD0B120460421FFF75CFF91
:100A90000027002808BF0C2712E0012710E00327D9
:100AA0000EE004270CE005270AE0062708E00727E8
:100AB00006E0082704E0092702E00A2700E00B27E8
:100AC00099F8000088F80070002808BF012F2DD089
:100AD000002808BF022F2BD0002808BF032F29D0E1
:100AE000002808BF042F27D0002808BF052F25D0D5
:100AF000002808BF062F23D0002808BF072F21D0C9
:100B0000002808BF082F1FD0002808BF092F1DD0BC
:100B1000002808BF0A2F1BD0002808BF0B2F19D0B0
:100B2000002808BF0C2F1BD10C2014E0012012E07C
:100B3000022010E003200EE004200CE005200AE073
:100B4000062008E0072006E0082004E0092002E073
:100B50000A2000E00B2040F21401C2F200010870EC
:100B600001B0BDE8F043704740F21502C2F2000246
:100B7000135C0B4204BF0020704701291CBF23EA0D
:100B800001011154012070472DE9F04F81B040F26E
:100B900052050020C2F2000535F8101000291CBFD4
:100BA000013925F8101001300C28F5D140F22C0144
:100BB000C2F2000140F26A060A78C2F200060C2076
:100BC0003070501CC2B2142A0870C0F0D68040F6B3
:100BD000000840F22D0940F2450440F2150740F2AA
:100BE000390AC4F202080020C2F20009C2F200046D
:100BF000C2F20007C2F2000A307008E000210AF8D1
:100C000000100130C1B20C29307080F0B680C0B243
:100C100019F800100B2821543BD8DFE800F006211A
:100C200015190C24291D35112D09A8F5006008E0BF
:100C3000404604212AE0A8F580604FF4007125E0C9
:100C400040464FF4004121E0A8F5006010211DE06E
:100C5000A8F58060802119E040464FF4804115E0FE
:100C6000A8F5806011E0A8F580604FF480710DE078
:100C700040464FF4005109E0404601214FF0010B7E
:100C8000FFF762FE28B90BE040460221FFF75CFE49
:100C900020B14FF0000B012103E000BF4FF0010B2A
:100CA00000213078BBF1000F3A5C09F800B002F087
:100CB000FE025A443A5401D0225C42B171B1225C26
:100CC000012A0BD13A5C42F004023A5406E03A5C45
:100CD00042F002023A540029F1D100BF1AF8002074
:100CE000042A3FF68EAFDFE802F003291C250D0031
:100CF000BBF1000F3FF485AF4FF47A7125F8101067
:100D000001217CE700297FF479AF35F81010002924
:100D10007FF477AF395C322241F0400125F8102092
:100D200028E0BBF1000F10D0395C41F010013954BC
:100D3000032164E700297FF461AF62E779B14FF4E2
:100D4000967125F81010022159E735F81010002986
:100D50007FF457AF395C41F0080139544EE735F85C
:100D6000101000297FF44DAF395C322225F8102095
:100D700041F020013954042141E701B0BDE8F08F72
:100D80002DE9F04740F20045C4F2020505F5806404
:100D9000894607462046402198469246FFF7DAFDED
:100DA00028464FF48051FFF7D5FD2A2000F050FD72
:100DB0000120FFF751FD28464FF48051FFF7CEFD8B
:100DC00020464021FFF7CAFD28464FF480513E0AD5
:100DD000FFF7C0FD304600F03BFD0120FFF73CFD72
:100DE00028464FF48051FFF7B9FD28464FF4805153
:100DF000FFF7B0FDF8B200F02BFD0120FFF72CFD4E
:100E000028464FF48051FFF7A9FD28464FF4805142
:100E10004FEA1A26FFF79EFD304600F019FD01202B
:100E2000FFF71AFD28464FF48051FFF797FD28463B
:100E30004FF48051FFF78EFD5FFA8AF000F008FD55
:100E40000120FFF709FD28464FF48051FFF786FD8A
:100E500020464021FFF77EFD28464FF48051FFF7E2
:100E600079FD2B2000F0F4FC0120FFF7F5FC28466B
:100E70004FF48051FFF772FD20464021FFF76EFDD1
:100E800028464FF480514FEA1926FFF763FD30469C
:100E900000F0DEFC0120FFF7DFFC28464FF4805114
:100EA000FFF75CFD28464FF48051FFF753FD5FFAD2
:100EB00089F000F0CDFC0120FFF7CEFC28464FF46E
:100EC0008051FFF74BFD28464FF480514FEA18261A
:100ED000FFF740FD304600F0BBFC0120FFF7BCFCF3
:100EE00028464FF48051FFF739FD28464FF48051D2
:100EF000FFF730FD5FFA88F000F0AAFC0120FFF751
:100F0000ABFC28464FF48051FFF728FD20464021D6
:100F1000FFF720FD28464FF48051FFF71BFD2C20E2
:100F200000F096FC0120FFF797FC28464FF4805113
:100F3000FFF714FD20464021BDE8F047FFF70EBD46
:100F40002DE9F04381B00E468146501E591E984649
:100F5000154682B28BB248463146FFF711FF46452F
:100F600012D2089C04E000BF0136B0B240450BD25B
:100F7000A945F9D24F4600BF204600F027FE0137B1
:100F8000B8B2A842F8D3EFE701B0BDE8F0830000A3
:100F900070B582B000F074FC0620012101F002F867
:100FA0004FF4A840009040F2013040F20044C0F2FB
:100FB0000010C4F202046E46019020463146FFF74D
:100FC00069FC402004F58065009028463146FFF713
:100FD00061FC20464FF4A841FFF7C0FC28464021A1
:100FE000FFF7BCFC20464FF48041FFF7B3FC6420C0
:100FF000FFF702FC20464FF48041FFF7AFFC64206E
:10100000FFF7FAFB20464FF48061FFF7A7FC64204E
:10101000FFF7F2FB28464021FFF79CFC20464FF4E7
:101020008051FFF797FC112000F012FC0120FFF720
:1010300013FC20464FF48051FFF790FC28464021D6
:10104000FFF78CFC7820FFF7D7FB28464021FFF7FD
:1010500081FC20464FF48051FFF77CFC362000F0E5
:10106000F7FB0120FFF7F8FB20464FF48051FFF714
:1010700075FC28464021FFF771FC20464FF4805153
:10108000FFF768FCC02000F0E3FB0120FFF7E4FB62
:1010900020464FF48051FFF761FC28464021FFF7BE
:1010A00059FC20464FF48051FFF754FC3A2000F0E1
:1010B000CFFB0120FFF7D0FB20464FF48051FFF714
:1010C0004DFC28464021FFF749FC20464FF4805153
:1010D000FFF740FC052000F0BBFB0120FFF7BCFB45
:1010E00020464FF48051FFF739FC28464021FFF796
:1010F00031FC20464FF48051FFF72CFCB22000F069
:10110000A7FB0120FFF7A8FB20464FF48051FFF713
:1011100025FC28464021FFF721FC20464FF4805152
:10112000FFF718FC0C2000F093FB0120FFF794FB65
:1011300020464FF48051FFF711FC20464FF48051B8
:10114000FFF708FC0C2000F083FB0120FFF784FB75
:1011500020464FF48051FFF701FC20464FF48051A8
:10116000FFF7F8FB002000F073FB0120FFF774FB92
:1011700020464FF48051FFF7F1FB20464FF4805199
:10118000FFF7E8FB332000F063FB0120FFF764FB6F
:1011900020464FF48051FFF7E1FB20464FF4805189
:1011A000FFF7D8FB332000F053FB0120FFF754FB7F
:1011B00020464FF48051FFF7D1FB28464021FFF72E
:1011C000C9FB20464FF48051FFF7C4FBB72000F065
:1011D0003FFB0120FFF740FB20464FF48051FFF713
:1011E000BDFB28464021FFF7B9FB20464FF4805154
:1011F000FFF7B0FB352000F02BFB0120FFF72CFBA5
:1012000020464FF48051FFF7A9FB28464021FFF705
:10121000A1FB20464FF48051FFF79CFBBB2000F060
:1012200017FB0120FFF718FB20464FF48051FFF712
:1012300095FB28464021FFF791FB20464FF4805153
:10124000FFF788FB322000F003FB0120FFF704FBCF
:1012500020464FF48051FFF781FB28464021FFF7DD
:1012600079FB20464FF48051FFF774FBC22000F059
:10127000EFFA0120FFF7F0FA20464FF48051FFF714
:101280006DFB28464021FFF769FB20464FF4805153
:10129000FFF760FB012000F0DBFA0120FFF7DCFA2A
:1012A00020464FF48051FFF759FB28464021FFF7B5
:1012B00051FB20464FF48051FFF74CFBC32000F058
:1012C000C7FA0120FFF7C8FA20464FF48051FFF714
:1012D00045FB28464021FFF741FB20464FF4805153
:1012E000FFF738FB152000F0B3FA0120FFF7B4FA3E
:1012F00020464FF48051FFF731FB28464021FFF78D
:1013000029FB20464FF48051FFF724FBC42000F056
:101310009FFA0120FFF7A0FA20464FF48051FFF713
:101320001DFB28464021FFF719FB20464FF4805152
:10133000FFF710FB202000F08BFA0120FFF78CFA5A
:1013400020464FF48051FFF709FB28464021FFF764
:1013500001FB20464FF48051FFF7FCFAC62000F055
:1013600077FA0120FFF778FA20464FF48051FFF713
:10137000F5FA28464021FFF7F1FA20464FF4805154
:10138000FFF7E8FA0F2000F063FA0120FFF764FA94
:1013900020464FF48051FFF7E1FA28464021FFF73D
:1013A000D9FA20464FF48051FFF7D4FAD02000F04C
:1013B0004FFA0120FFF750FA20464FF48051FFF713
:1013C000CDFA28464021FFF7C9FA20464FF4805154
:1013D000FFF7C0FAA42000F03BFA0120FFF73CFA27
:1013E00020464FF48051FFF7B9FA20464FF4805160
:1013F000FFF7B0FAA12000F02BFA0120FFF72CFA3A
:1014000020464FF48051FFF7A9FA28464021FFF704
:10141000A1FA20464FF48051FFF79CFAE02000F03B
:1014200017FA0120FFF718FA20464FF48051FFF712
:1014300095FA28464021FFF791FA20464FF4805153
:10144000FFF788FAD02000F003FA0120FFF704FA32
:1014500020464FF48051FFF781FA20464FF4805127
:10146000FFF778FA082000F0F3F90120FFF7F4F90C
:1014700020464FF48051FFF771FA20464FF4805117
:10148000FFF768FA0E2000F0E3F90120FFF7E4F916
:1014900020464FF48051FFF761FA20464FF4805107
:1014A000FFF758FA092000F0D3F90120FFF7D4F92B
:1014B00020464FF48051FFF751FA20464FF48051F7
:1014C000FFF748FA092000F0C3F90120FFF7C4F93B
:1014D00020464FF48051FFF741FA20464FF48051E7
:1014E000FFF738FA052000F0B3F90120FFF7B4F94F
:1014F00020464FF48051FFF731FA20464FF48051D7
:10150000FFF728FA312000F0A3F90120FFF7A4F932
:1015100020464FF48051FFF721FA20464FF48051C6
:10152000FFF718FA332000F093F90120FFF794F940
:1015300020464FF48051FFF711FA20464FF48051B6
:10154000FFF708FA482000F083F90120FFF784F93B
:1015500020464FF48051FFF701FA20464FF48051A6
:10156000FFF7F8F9172000F073F90120FFF774F97D
:1015700020464FF48051FFF7F1F920464FF4805197
:10158000FFF7E8F9142000F063F90120FFF764F990
:1015900020464FF48051FFF7E1F920464FF4805187
:1015A000FFF7D8F9152000F053F90120FFF754F99F
:1015B00020464FF48051FFF7D1F920464FF4805177
:1015C000FFF7C8F9312000F043F90120FFF744F993
:1015D00020464FF48051FFF7C1F920464FF4805167
:1015E000FFF7B8F9342000F033F90120FFF734F9A0
:1015F00020464FF48051FFF7B1F928464021FFF70C
:10160000A9F920464FF48051FFF7A4F9E12000F03A
:101610001FF90120FFF720F920464FF48051FFF712
:101620009DF928464021FFF799F920464FF4805153
:10163000FFF790F9D02000F00BF90120FFF70CF92B
:1016400020464FF48051FFF789F920464FF480512E
:10165000FFF780F9082000F0FBF80120FFF7FCF805
:1016600020464FF48051FFF779F920464FF480511E
:10167000FFF770F90E2000F0EBF80120FFF7ECF80F
:1016800020464FF48051FFF769F920464FF480510E
:10169000FFF760F9092000F0DBF80120FFF7DCF824
:1016A00020464FF48051FFF759F920464FF48051FE
:1016B000FFF750F9092000F0CBF80120FFF7CCF834
:1016C00020464FF48051FFF749F920464FF48051EE
:1016D000FFF740F9152000F0BBF80120FFF7BCF838
:1016E00020464FF48051FFF739F920464FF48051DE
:1016F000FFF730F9312000F0ABF80120FFF7ACF82C
:1017000020464FF48051FFF729F920464FF48051CD
:10171000FFF720F9332000F09BF80120FFF79CF839
:1017200020464FF48051FFF719F920464FF48051BD
:10173000FFF710F9482000F08BF80120FFF78CF834
:1017400020464FF48051FFF709F920464FF48051AD
:10175000FFF700F9172000F07BF80120FFF77CF875
:1017600020464FF48051FFF7F9F820464FF480519E
:10177000FFF7F0F8142000F06BF80120FFF76CF889
:1017800020464FF48051FFF7E9F820464FF480518E
:10179000FFF7E0F8152000F05BF80120FFF75CF898
:1017A00020464FF48051FFF7D9F820464FF480517E
:1017B000FFF7D0F8312000F04BF80120FFF74CF88C
:1017C00020464FF48051FFF7C9F820464FF480516E
:1017D000FFF7C0F8342000F03BF80120FFF73CF899
:1017E00020464FF48051FFF7B9F828464021FFF713
:1017F000B1F820464FF48051FFF7ACF8212000F0FB
:1018000027F80120FFF728F820464FF48051FFF712
:10181000A5F828464021FFF7A1F828464021FFF708
:1018200099F820464FF48051FFF794F8292000F0F2
:101830000FF80120FFF710F820464FF48051FFF712
:101840008DF828464021FFF789F802B070BD0000EE
:10185000B0B543F600040546C4F200042046022158
:1018600000F03AFC0028F9D02046294600F03AFC66
:101870002046802100F030FC0028F9D1B0BD0000E6
:10188000B0B586B002200121012500F08BFB40F2AB
:101890000044C4F2020420460D210522FFF740F85F
:1018A00020460F210522FFF73BF840F20230C0F23C
:1018B000001002904FF42040019001A92046FEF74D
:1018C000E9FF20464FF42041FFF748F84FF48040ED
:1018D000012100F073FB4FF4003002904CF2000045
:1018E000C0F2041001904FF4E020CDF812004FF444
:1018F0000070A4F5E634CDF80E0001A92046ADF83D
:101900000C5000F0F1FB2046012100F0DBFB06B09B
:10191000B0BD000040F21001C2F200010870704733
:1019200040F26B0CC2F2000C9CF80020292101321D
:10193000D3B25943090B642301FB132140F2100277
:10194000C2F20002127840F20040CBB2C4F20200B0
:1019500093428CF800104FF4806128BFFEF7FABF65
:10196000FEF7FCBF2DE9F04F87B0DDF844808346D9
:101970004FEA58074FEA18101C46914601237A0790
:1019800018BF03EB181000FB08F50BEB580001EB38
:1019900008020138531E82B29BB258460E46069189
:1019A000FFF7EEF9002D00F08D80A8F10C00C1B218
:1019B000800140EA9100C3B2052B00F28380012030
:1019C000984010F02B0F00F07D802A46A9F12000EE
:1019D0000121C0B2012D98BF0A4645F62621059285
:1019E00000EB4002C0F6000101EB0211029145F24A
:1019F0003641C0F6000101EB0011019146F6F631C7
:101A0000C0F600014FF0000A01EB80105E464FF077
:101A1000000903920090049308E04FF0000900BF12
:101A200005980AF1010A049B82454BD0032B0DD087
:101A3000012B09D063B9039844F6C271C0F60001C6
:101A400001EB800005E000BF019802E0029800E091
:101A50000098504405784FF0000815E028422046D1
:101A6000109908BF084600F0B1F809F101095FFAC2
:101A700089F0B0FBF7F101FB17000028CDD008F189
:101A80000108B8F1080FCBD0129800284FF00100E0
:101A900000FA08F0E2D0284209D00699B0B289B223
:101AA00002460B46FFF76CF9204600F08FF801362E
:101AB000B0B2A0EB0B00B842E1D106985E4601300F
:101AC0000690ADE707B0BDE8F08F0000002B08BF1F
:101AD00070472DE9F04F85B0074610981C46934695
:101AE0008A464508581E4FF000084FF00009049040
:101AF00016E000BF4FF0010940F030020F9808FBDC
:101B0000057100901098D2B2019088B251460E9B98
:101B100000260296FFF726FF08F10108A0452CD009
:101B20006FEA08002044010608D00121013801EBCA
:101B3000810102064FEA4101F8D100E00121BBFB1F
:101B4000F1F049F69A11C1F69911A0FB011202EBCE
:101B50008201B9F1000FA0EB4100CDD104994145BC
:101B6000CADD0028C6D10F9908FB057000911099B5
:101B700080B2019151462022C9E705B0BDE8F04F7F
:101B8000704700002DE9F04F83B09B461378CBB12E
:101B9000DDE90C9ADDF838800D4606464FEA5A0713
:101BA000541E00BFB0B2DAB229465B46CDE9009AB6
:101BB000CDF80880FFF7D6FEA3783E44002B04F151
:101BC0000104EFD103B0BDE8F08F000070B540F222
:101BD0000044C4F202040546060A20464FF4805130
:101BE000FEF7B8FE3046FFF733FE0120FEF734FE65
:101BF00020464FF48051FEF7B1FE20464FF480514D
:101C0000FEF7A8FEE8B2FFF723FE0120FEF724FE50
:101C100020464FF48051BDE87040FEF79FBE0000A3
:101C200070B582B00620012100F0BCF93C2040F6DE
:101C30000004009040F20120C4F20204C0F200103F
:101C4000A4F580656E46019028463146FEF722FED7
:101C500020463146FEF71EFE20462021FEF77EFE7E
:101C600028460421FEF77AFE20461021FEF776FE74
:101C700020460821FEF772FE02B070BD40F28002DD
:101C8000C2F20002135C8B4208BF7047115440F24D
:101C90007001C2F20001002241F8202070470000CC
:101CA0002DE9F04F81B040F60004C4F2020440F286
:101CB000800740F2700544F6D35940F26C0B0026C1
:101CC000C2F20007A4F58068C2F20005C1F2620901
:101CD0004FF47A7AC2F2000B12E0FEF73FFE40F2B8
:101CE0000400C2F2000001789BF8000000290CBF3C
:101CF000013801308BF800000136042E00F0D78047
:101D0000B85D0528F8D8DFE800F0034A1C31085711
:101D1000F0B2DFE800F096A59BA055F82600013050
:101D2000A0FB0912910901FB1A00312845F8260091
:101D3000F0B200F267800328DED8DFE800F0386FE9
:101D40005E6A55F826000130A0FB0912910901FBDB
:101D50001A0081087C2945F82600F0B200F2638061
:101D60000328C9D8DFE800F0235A495555F8260062
:101D700048F21F510130C5F2EB11A0FB01125109CD
:101D8000642201FB1200312845F82600F0B200F26F
:101D900051800328B0D8DFE800F00A41303CF0B2AF
:101DA00003283FF6A9AFDFE800F0023928342046C7
:101DB0002021FEF7CFFD9FE755F8260048F281016C
:101DC0000130C8F28001A0FB0112D1090902A1EB88
:101DD000D2119BF80020401A904245F82600F0B23C
:101DE00043D203283FF67BAFDFE800F002594C51A5
:101DF00020462021FEF7AEFD71E720461021FEF7B8
:101E0000A9FD79E703283FF677AFDFE800F01A294C
:101E10001F2420460821FEF79DFD6DE74046042162
:101E2000FEF798FD68E703283FF666AFDFE800F0AD
:101E300009180E1303283FF65FAFDFE800F0021128
:101E4000070C20462021FEF789FD55E7204610218A
:101E5000FEF784FD50E720460821FEF77FFD4BE7A3
:101E600040460421FEF77AFD46E703283FF637AFE8
:101E7000DFE800F0051A0212204610212DE7204667
:101E800020212AE720461021FEF764FD27E720469F
:101E90000821FEF75FFD22E7204608211DE74046A6
:101EA0000421FEF757FD1AE74046042115E701B06B
:101EB000BDE8F08FFEE700007047000010B5C17864
:101EC00000294EF20011CEF200011CD04EF60C5249
:101ED000CEF200021268072323EA12220F23C2F176
:101EE000040C23FA02FE427884785FFA8CF390F8AF
:101EF00000C09A4004EA0E031A43120101EB0C03DE
:101F000083F8002300E080310078012300F01F02F5
:101F100003FA02F2C0F3421041F8202010BD000085
:101F200040F080604EF60C5140F0FD70CEF20001A2
:101F30000860704700000000000000000000000082
:101F4000EFF30980BFF36F8F154B1A681EF0100F67
:101F500008BF20ED108A20E9F04F10602DE909003C
:101F60004FF0500080F31188BFF34F8FBFF36F8F96
:101F700001F0DAFC4FF0000080F31188BDE80900A1
:101F800019680868B0E8F04F1EF0100F08BFB0ECF9
:101F9000108A80F30988BFF36F8F704700BF00BFBE
:101FA00004010020002943F63001C4F202010A684E
:101FB0000CBF22EA0000104308607047002943F676
:101FC0004001C4F202010A680CBF22EA000010437B
:101FD00008607047002943F64401C4F202010A6810
:101FE0000CBF22EA000010430860704743F6040C5F
:101FF000C4F2020CDCF8043042F20042C0F2F402F7
:10200000C3F3810310B5DFE803F03E02072141F27C
:102010000022C0F27A0236E0DCF800E0DCF80030A2
:10202000DCF8001003F03F03C1F388145FEA4E218F
:1020300041F20021C0F27A0158BF1146B1FBF3F121
:10204000DCF800206143C2F3014217E0DCF8001025
:10205000DCF80030490241F20021C0F27A01DCF8DC
:10206000004003F03F0358BF1146B1FBF3F1DCF829
:102070000020C4F388146143C2F30272022303EB0D
:102080004202B1FBF2F20260DCF8041044F6B272D4
:10209000C1F30311C0F60002515C036823FA01F199
:1020A0004160DCF80430C3F38223D35C21FA03F3EC
:1020B0008360DCF80430C3F34233D25CD140C160AA
:1020C00010BD00000288002918BF012122F0400243
:1020D00042EA8111018070470089084018BF012041
:1020E00070470000818170472DE9F04102880B881C
:1020F00002F4415C4A88B1F804E043EA0C03CC885E
:102100001A430D8942EA0E024E8922438F892A43DF
:10211000B1F80E8032433A4342EA08020280828BD1
:1021200022F400628283098A0182BDE8F081000006
:10213000074B19680868B0E8F04F80F30988BFF3CF
:102140006F8F4FF0000080F31188704700BF00BF11
:10215000040100204EF21001CEF200010A680428AA
:1021600022F0040208BF04320A60704780B502F012
:102170004BF8012808BF80BDBDE8804001F0B0BC2D
:1021800070B582B001F010F940F28C00C2F200008C
:102190000224CDE9004042F23950C0F6000014A1FB
:1021A00082220023002601F017FE40F2240542F6A9
:1021B0000100C2F20005C0F600000FA18222002338
:1021C000CDE9004501F008FE43F2E120C0F6000031
:1021D0000BA182220023CDE9004601F0FDFD002085
:1021E00001F04EFA02B0BDE8704001F001B900BF45
:1021F0005461736B310000005461736B3200000056
:10220000764B65795F526561645461736B000000C1
:1022100082B04EF6885CCEF2000CDCF8002043F66B
:10222000000142F47002C4F20201CCF800200A68F6
:102230004FF6FF7042F001020A6000228A600B68CC
:10224000CFF6F6601840086043F21000C2F200407A
:102250004860086820F480200860CA6001920092FB
:10226000086840F480300860086800F4003000908E
:10227000019801300190009818B90198B0F5A04F6D
:10228000F2D10868800354BF00200120009000981C
:10229000012844D1086C47F2000240F08050C4F29B
:1022A00000020864106840F440401060886888604C
:1022B000886840F400408860886840F4A0508860D6
:1022C00045F60820C7F240704860086840F080700A
:1022D000086000BF08688001FCD5106840F48030B9
:1022E000106000BF5068C003FCD5106840F4003097
:1022F000106000BF50688003FCD540F20570C1F843
:102300000004886820F003008860886840F00200BC
:10231000886000BF886800F00C000828FAD14FF0F0
:1023200000604CF8800C02B07047000080B54FF0A0
:102330008040012100F09CF8012818BF80BD4FF0BB
:102340008040012100F086F8FEF71EFCFEF73AFB04
:10235000BDE88040FFF7A4BC10B540F20044C4F2D1
:1023600000042046012100F083F8012818BF10BDA9
:10237000FFF7D6FA20460121BDE8104000F06AB808
:1023800010B584B002200121FFF718FE40F200448E
:10239000C4F20004204600F07FF86321002002917F
:1023A0005921ADF80C0001918DF80E0001A92046CD
:1023B00000F078F82046012100F048F8204601217D
:1023C000012200F061F82046012100F047F840F2B8
:1023D0001D50C0F20010019001A8FFF76FFD04B07E
:1023E00010BD000080B584B001200121FFF7E6FD9B
:1023F0004FF0804000F050F840F2E73100200291A9
:102400005921ADF80C0001918DF80E0001A94FF093
:10241000804000F047F84FF08040012100F016F8AE
:102420004FF080400121012200F02EF84FF0804053
:10243000012100F013F840F21C50C0F2001001908E
:1024400001A8FFF73BFD04B080BD0000C943018235
:1024500070470000C94301827047000002880029CC
:1024600018BF012122F001021144018070470000D1
:10247000028A80890A4000EA010018BF0122002870
:1024800018BF012010407047002A82890CBF22EA41
:102490000101114381817047018921F00701018108
:1024A0007047000010B540F6FF32B0F800E0C4F20B
:1024B000000240F2004C9042C4F2010C0FDCB0F17B
:1024C000804F19D040F20042C4F20002904213D073
:1024D00040F60002C4F2000290420DD011E040F636
:1024E0000042C4F20002904206D0604504D00022AF
:1024F000C4F20102904204D14A882EF0700342EAED
:10250000030E41F2004340F48062C4F200039A4299
:1025100004D00C892EF4407344EA030EA0F800E0C6
:102520004B686245C3620B88038504BF897A0186C4
:102530000121818210BD000084B040F2280A40F2DF
:1025400084044FF000084FF6FF79C2F2000A4FF002
:10255000180BC2F20004A5A70025002649E000BF21
:10256000013501201021FEF7FFFA00284FF002008C
:102570004FF0200118BF6435FEF7F6FA00284FF03F
:102580000B004FF0200118BF4546FEF7EDFA00287A
:102590004FF0050018BF06461420D0218FA200235B
:1025A000CDE9009BCDF80880FFF7ECFAAAB296209F
:1025B000D0210523CDE90089CDF808B0FFF786FAD0
:1025C0001420E82187A20023CDE9009BCDF80880E4
:1025D000FFF7D8FAB2B29620E8210523CDE90089A9
:1025E000CDF808B0FFF772FADAF80010384602F0BA
:1025F00067F8DAF80000052852D8DFE800F0680331
:10260000233313432078AB220130C1B25143890AEE
:1026100001EB4101A0EB41002070C1B20020FFF7A7
:102620002DFB3DE0E078AB220130C1B25143890A75
:1026300001EB4101A0EB4100E070C1B20320FFF7C4
:102640001DFB2DE06078AB220130C1B25143890AF5
:1026500001EB4101A0EB41006070C1B20120FFF726
:102660000DFB1DE0A078AB220130C1B25143890AB5
:1026700001EB4101A0EB4100A070C1B20220FFF7C5
:10268000FDFA0DE00398B8210130039082B2962044
:102690000323CDE90089CDF808B0FFF717FA00BF92
:1026A0001420402139A20023CDE9009BCDF80880F9
:1026B000FFF768FABAF80020B42040210223CDE9E0
:1026C0000089CDF808B0FFF701FACAF8008014209D
:1026D000582132A20023CDE9009BCDF80880FFF7F6
:1026E00051FA2278962058210223CDE90089CDF8AD
:1026F00008B0FFF7EBF9142070212CA20023CDE9DC
:10270000009BCDF80880FFF73DFA62789620702193
:102710000223CDE90089CDF808B0FFF7D7F91420DE
:10272000882126A20023CDE9009BCDF80880FFF781
:1027300029FAA278962088210223CDE90089CDF8D4
:1027400008B0FFF7C3F91420A02120A20023CDE98F
:10275000009BCDF80880FFF715FAE2789620A021BB
:102760000223CDE90089CDF808B0FFF7AFF90020CA
:102770000821FEF7F9F900287FF4F2AE022040218B
:10278000FEF7F2F9002818BF0135EAE64B65795FDC
:102790004E756D626572203D200000004C4544314D
:1027A0005F4D6F6465203D20000000004C454432C1
:1027B0005F4D6F6465203D20000000004C454433B0
:1027C0005F4D6F6465203D20000000004C4544349F
:1027D0005F4D6F6465203D20000000004E756D3137
:1027E000203D20004E756D32203D20004B65795F05
:1027F0004E756D626572203D2025640D0A00000053
:1028000082B040F228044FF0FF35C2F2000400BF4E
:10281000002000214FF0FF322346009501F092FC8A
:102820000A2000F0CBFEF3E710B541F20004C4F239
:102830000104204640F2255100F064F8012818BF39
:1028400010BD204600F0D0F840F29001C2F2000125
:102850000A78C0B2012A10D09AB9402832D140F289
:10286000F600C2F20000007860BB0120087040F260
:102870009100C2F20000002116E00D2816D10220BE
:102880001FE00A281ED10020087040F29101C2F218
:102890000001097840F29202C2F20002505440F264
:1028A000F600C2F20000012101700BE040F291013C
:1028B000C2F200010A7840F29203C2F20003985477
:1028C000501C0870204640F22551BDE8104000F031
:1028D00001B80000090A012202FA01F1C94301808E
:1028E000704700008289002918BF012122F400529C
:1028F00042EA4131818170470088084018BF0120B9
:1029000070470000C1F342121423022A08BF1023AB
:10291000012A08BF0C23C35A008801F01F02090ACC
:1029200023FA02F2C840104000F001007047000096
:1029300070B584B00446008A0D46C98820F4405022
:1029400008432082A0894EF6F3110840A9882A89FD
:102950006B89084310431843A081A08AA98920F4F9
:10296000407008436E46A0823046FFF73FFB41F2BD
:10297000000124F48060C4F201010822884208BFEB
:102980000C22B058B4F90C100122B1F1FF3FC8BFBE
:1029900002222B681921484303FA02F1B0FBF1F03F
:1029A00048F21F51C5F2EB11A0FB01235A096FF049
:1029B000630302FB0300B4F90C300326B3F1FF3FBD
:1029C000C8BF042600FA06F000F13200A0FB0101A6
:1029D0004FF00700C8BF0F2000EA511040EA021074
:1029E000208104B070BD000080886FF35F207047C5
:1029F0006FF35F2181807047FEE7000010B584B05F
:102A000001200121FFF7CEFA0024C4F2020420467F
:102A100009210722FDF784FF20460A210722FDF73E
:102A20007FFF4FF4C060009040F202300190694691
:102A30002046FDF72FFF10200121FFF7CBFA4FF4BE
:102A4000E130009000204FF44021A4F57044ADF82F
:102A50000C00CDE9010169462046FFF769FF2046D9
:102A60000121FFF73FFF40F22550C0F20010009017
:102A70006846FFF723FA04B010BD000070B586B0B9
:102A8000022001210126FFF78DFA40F20044C4F232
:102A90000204204603210622FDF742FF20460421BE
:102AA0000622FDF73DFF204605210622FDF738FFEF
:102AB0004020019040F20130C0F2001001AD0290C0
:102AC00020462946FDF7E6FE3820019040F202300C
:102AD000C0F20010029020462946FDF7DBFE20469A
:102AE00040210122FDF73CFF4FF400400121FFF798
:102AF00065FA4FF4003002904FF0827001904FF46D
:102B0000E020CDF8120040F20020C0F21000A4F541
:102B1000E434CDF80E0001A92046ADF80C60FFF7B3
:102B2000E3FA20460121FFF7CDFA06B070BD0000A0
:102B3000FFF7A4BFB0B541F2000504460A28C4F26D
:102B4000010509D128460D21FFF752FF28468021B3
:102B5000FFF7D2FE0028F9D0E1B22846FFF748FF80
:102B600028468021FFF7C8FE0028F9D02046B0BDD6
:102B700082B0FDF711FEFFF741FFFFF7D9FFFFF726
:102B800031FCFFF74DF8FDF7F3FEFEF701FAFFF712
:102B9000F7FB4FF44070FFF7C3F90520FEF7BAFECC
:102BA0004FF6FF7C00200021F0224FF4A073CDF8F7
:102BB00000C0FEF7C5F940F2880C42F28110C2F263
:102BC000000C4FF0020EC0F6000005A1B422002355
:102BD000CDE900EC01F000F900F050FEFEE700BF87
:102BE00053797374656D43726561745461736B00DE
:102BF000F0B581B00D4643F2B00140F20416C2F2C6
:102C00000101C2F200060F6831680446081D00F099
:102C100055FB10B1601C0FD027E0306842F6B4724B
:102C2000C06AC2F201020121136801FA00F023EA2E
:102C300000001060601C18D1BDB143F28800C2F2E0
:102C400001004168326891608A683368DA603268EE
:102C50008B6804325A60326804328A603168486195
:102C600001680131016001B0F0BD3068E4194460D1
:102C70000BD340F21410C2F2000000683168043136
:102C800001B0BDE8F04000F059BB40F20C10C2F2B8
:102C9000000000683168043100F050FB43F214007A
:102CA000C2F2010001688C4238BF046001B0F0BD7F
:102CB00070B500F079FB43F2B406C2F20106306849
:102CC00018B1BDE8704000F093BB42F6B874C2F290
:102CD0000104204600F022FB42F6CC75C2F2010549
:102CE000284600F01BFB40F20810C2F2000004600E
:102CF00040F21810C2F20000056005200C210022ED
:102D000000F006FF00283060DBD003A100F004FCD7
:102D1000BDE8704000F06CBB546D725100000000C3
:102D200042F6A87540F21C1A4EF6045843F29C076E
:102D300042F6A476C2F20105C2F2000ACEF2000801
:102D40004FF08059C2F20107C2F2010615E000BF40
:102D500000F02AFBF868C468201D00F0AFFA306864
:102D60000138306028680138286000F041FB206B92
:102D700000F056FB204600F053FB28680028E7D1FE
:102D8000DAF800000228F8D3C8F80090BFF34F8F9C
:102D9000BFF36F8FF1E7000008480068006880F318
:102DA00008884FF0000080F3148862B661B6BFF364
:102DB0004F8FBFF36F8F00DF00BF000008ED00E012
:102DC0002DE9F04381B040F20818C2F20008D8F8AB
:102DD00000200546D2680E46D46804F1040948462E
:102DE00000F06CFA94F8280041070CD400F0FA00C7
:102DF00084F828001CE000BF711B814210D3216AB7
:102E0000204688473D46A06924614719B74267605C
:102E1000F2D9AE4201D2AF42F1D2D8F8000004E0BC
:102E200040F21810C2F200000068494600F086FA2D
:102E3000216A204601B0BDE8F043084781B0002078
:102E4000009040F20C00C2F2000000684FF0500108
:102E500081F31188BFF36F8FBFF34F8F013001D023
:102E6000FEE700BF00980028FCD001B070470000CA
:102E700084B040F2081440F2001940F2181A43F2EC
:102E8000B40BC2F20004C2F20009C2F2000AC2F29C
:102E9000010B0DF1040800BF2068076817B1C06876
:102EA000066800E0002600F037FD01F0C1F9D9F80E
:102EB00000100546884209D22068016891B1C068B7
:102EC0004FF0FF310068FFF77BFFF5E7C9F80050CE
:102ED00097B1AE4210D801F003FB30462946FFF708
:102EE0006FFF29E0DAF80010CAF800002160C9F885
:102EF000005001F0F5FA1FE00FB1002205E0DAF80A
:102F000000000068B0FA80F04209DBF80000711B95
:102F100000F030FB01F0E4FA70B94EF60450CEF246
:102F200000004FF080510160BFF34F8FBFF36F8FF0
:102F300002E0206800F002FADBF8000041460022BF
:102F400000F030FE0028A7D001980028F4D4039D9B
:102F5000686910B1281D00F0B1F901F069F9D9F8DC
:102F60000010064688420ED22068016831B1C06860
:102F70004FF0FF310068FFF723FFF5E7DAF80010A4
:102F8000CAF8000021600198C9F8006001380828DB
:102F9000D2D8DFE800F005053A236205053A2300A0
:102FA00095F82800029BAA6940F0010185F82810D5
:102FB000D718294641F8047FB7422D6104D99E42B3
:102FC000B7D29F4203D2B4E7F31A934218D3430710
:102FD00022D400F0FA0085F8280052E095F8280085
:102FE00040F00101029885F828100028A8614CD013
:102FF0003044294641F8040FB0422D613FF699AFA5
:10300000DAF8000000F09AF996E795F8280000F049
:10301000FE0085F828008FE70298D946C346D046BF
:103020000F46104407E000BF301A88421DD3296ABA
:10303000284688475046A9692D6101EB000AB24530
:10304000C5F804A0F0D9864201D28245EFD22068AB
:10305000394600F073F9C2460DE095F82800810763
:10306000D5D4284600F0DCF966E7D8F800003946E8
:10307000C24600F063F9D846CB4640F20019C2F2CE
:103080000009296A2846884756E74FF0500080F328
:103090001188BFF36F8FBFF34F8F00BFFEE70000B3
:1030A000F0B581B0044600F07FF994F94560012E37
:1030B0000FDB04F1240500BF286850B1284601F059
:1030C0009BF9002818BF00F07BFB70B2013E01287D
:1030D000F2DCFF2684F8456000F08AF900F064F91C
:1030E00094F94470012F0EDB04F11005286850B1EB
:1030F000284601F081F9002818BF00F061FB78B282
:10310000013F0128F2DC84F8446001B0BDE8F040E2
:1031100000F06EB970B5044600F0FEFB40F21011ED
:10312000C2F20001086843F2080EC2F2010E58B163
:1031300084B304F007001138A04226BF24F0070032
:1031400000F11003002326E040F29C30C2F20000A0
:10315000C21D430700F5963318BF22F0070043F263
:103160008002C2F201020026C2E9000623F0070233
:10317000A2F108030B6042E902661A1A0B68CEF846
:103180000020C0E9003243F21000C2F201000260E8
:10319000002CCED10023012B4FF000046CDBDEF8B5
:1031A0000000834268D843F28002C2F2010215682F
:1031B0006C689C4207D200BF286820B144682A4648
:1031C00005469C42F8D30868854212D0D2F800C068
:1031D0002E68E01A1128166031D3EC1862070AD065
:1031E0004FF0500080F31188BFF36F8FBFF34F8F04
:1031F000FEE7002440E060606B6043F28003C2F2AF
:10320000010300BF1A461B68A342FBD3506816187F
:10321000A64203D164682044144650606668A01931
:10322000984201D0184606E00868834203D0D3E9EB
:10323000000131446160A242206018BF146043F273
:1032400010006968DEF80020C2F201000368511A1C
:103250009942CEF8001038BF016043F21C02686842
:10326000C2F20102136840F0004000210CF1080492
:10327000C5E90010581C106001F032F9600708D051
:103280004FF0500080F31188BFF36F8FBFF34F8F63
:10329000FEE7204670BD0000034642F63D6021F087
:1032A0000101C0F600004FF0807C03E903106FF0CD
:1032B0000201A3F1440043E909127047D0E9013249
:1032C00001699A60D1F804C082688445536008BFE0
:1032D0004A60002202610868013808600868704787
:1032E00082B040F2140440F22405C2F20004C2F29B
:1032F0000005002603E000BF0A2000F05FF92278F5
:10330000002A14BF26700022002AF5D02868002168
:103310000323009600F05EFEEEE700004FF0FF3161
:10332000024642F8081F00214260C0E90322016002
:1033300070470000002101617047000080B5D1F89E
:1033400000C01CF1010207D000F108039E465B6833
:103350001A686245FAD901E0D0F810E0DEF80420DE
:1033600008614A609160C1F808E0CEF80410016875
:103370000131016080BD0000D0F800C043680861E1
:103380009A684B608A609A68996051600CF10101FB
:1033900001607047DFF80C00016841F470010160C2
:1033A0007047000088ED00E04FF0500080F3118876
:1033B000BFF36F8FBFF34F8F40F20C00C2F20000DB
:1033C00001684A1C026001B170474EF60450CEF20B
:1033D00000000068000608BF70474FF0500080F3FF
:1033E0001188BFF36F8FBFF34F8F00BFFEE7000060
:1033F00040F20C00C2F20000016839B101390160ED
:1034000018BF7047002080F3118870474FF05000BC
:1034100080F31188BFF36F8FBFF34F8FFEE700007B
:10342000B0B5002808BFB0BD50F8041C002908D46E
:103430004FF0500080F31188BFF36F8FBFF34F8FB1
:10344000FEE7A0F1080422684AB14FF0500080F373
:103450001188BFF36F8FBFF34F8F00BFFEE721F0DE
:10346000004140F8041C054600F056FA43F20801FA
:10347000C2F2010155F8040C0B682A461844086092
:1034800043F28001C2F2010108460968A142FBD360
:103490004368C518A54204D152F8042C04461A44C6
:1034A00042606368E2188A4201D00A460AE040F2AC
:1034B0001012C2F200021268914203D0D1E9002139
:1034C00019446160A042226018BF046043F22000EA
:1034D000C2F20100016801310160BDE8B04000F0B6
:1034E000FFBF00004EF21000CEF20000002101608C
:1034F000816040F20801C2F20001096844F6D3522B
:10350000C1F26202A1FB02124FF0FF3101EB9211F6
:103510004160072101607047B0B5C8B14FF0000CA1
:10352000F9B143F23C0EC2F2010E0023002202E088
:103530000833402B18D00EEB03046568854212D087
:10354000002AF5D12268002A18BF64462246EFE718
:103550004FF0500080F31188BFF36F8FBFF34F8F90
:10356000FEE7002200E02246002A18BFC2E9001050
:10357000B0BD000070B515460E460446FFF714FFB7
:1035800094F84400FF2804BF002084F8440094F815
:103590004500FF2804BF002084F84500FFF728FFFE
:1035A000A06B28B904F1240031462A4600F02CF91A
:1035B0002046BDE87040FFF773BD000070B50028DD
:1035C00052D042F6AC71C2F201010A684AB14FF022
:1035D000500080F31188BFF36F8FBFF34F8F00BF90
:1035E000FEE70546086840F204140130086043F223
:1035F000B000C2F20100C2F2000406682068043084
:10360000FFF75CFE60B9206842F6B472C06AC2F28D
:1036100001020121136801FA00F023EA00001060A2
:103620002068AD19456009D340F21410C2F20000C1
:10363000006821680431FFF781FE10E040F20C10B1
:10364000C2F20000006821680431FFF777FE43F200
:103650001400C2F2010001688D4238BF056000F01D
:103660003FFF002818BF70BD4EF60450CEF2000098
:103670004FF080510160BFF34F8FBFF36F8F70BD6C
:1036800070B50446FFF790FE40F20416002CC2F21B
:10369000000608BF3468251D2846FFF70FFEA0B9B5
:1036A000E06A40F21C1200EB8001C2F2000252F804
:1036B000211051B942F6B472C2F20102012113681D
:1036C00001FA00F023EA00001060A06A18B104F1CA
:1036D0001800FFF7F3FD42F6B070C2F20100016876
:1036E000013101603068844216D042F6A470C2F203
:1036F000010001680139016040F20C10C2F20000C3
:1037000001680968B1B1006843F21401C068C2F2EF
:1037100001010068086014E043F29C00C2F201005D
:103720002946FFF729FE42F6A870C2F2010001689F
:10373000013105E043F21400C2F201004FF0FF3105
:103740000160FFF755FE3068844205D0206BFFF71B
:1037500067FE2046FFF764FE43F27C00C2F20100E0
:103760000068E8B13068844218BF70BD42F6AC70A2
:10377000C2F20100006840B14FF0500080F31188A0
:10378000BFF36F8FBFF34F8FFEE74EF60450CEF2BC
:1037900000004FF080510160BFF34F8FBFF36F8F78
:1037A00070BD000043F21801C2F201010968016016
:1037B00043F2B001C2F201010968416070470000A4
:1037C00043F2BC00C2F20100012101607047000019
:1037D00078B110B50C4640F20411C2F2000109683C
:1037E0001831FFF7ABFD20460121BDE81040FFF77F
:1037F000FFB94FF0500080F31188BFF36F8FBFF314
:103800004F8F00BFFEE7000068B310B540F2041C04
:10381000C2F2000CD0F804E0DCF80030002AC3F853
:103820001CE0DEF80830DCF800402362DCF80030F1
:10383000DEF8084003F118036360DCF8003004464A
:1038400003F11803CEF80830DCF800309862036802
:1038500018BF4FF0FF310133084611462360BDE821
:103860001040FFF7C5B94FF0500080F31188BFF347
:103870006F8FBFF34F8F00BFFEE7000080B582B0AF
:1038800043F20C0C42F62150C2F2010C4FF0000E34
:10389000C0F600001EA178220023CDE900EC00F064
:1038A0009BFA012808BF00F0DBFE411C25D001284F
:1038B0001CD14FF0500080F31188BFF36F8FBFF31E
:1038C0004F8F43F21400C2F201004FF0FF3101604C
:1038D00043F27C00C2F201000121016043F2B0001A
:1038E000C2F201000021016000F062F848F2B83035
:1038F000C0F60000006802B080BD4FF0500080F3B9
:103900001188BFF36F8FBFF34F8F00BFFEE700BF7B
:1039100049444C450000000042F6AC70C2F2010080
:10392000016801310160704742F6AC70C2F20100DB
:10393000006830B143F2BC00C2F201000121016015
:10394000704743F2BC00C2F201000021016042F660
:10395000B470C2F201000068B0FA80F0C0B2C0F1E9
:103960001F0040F21C1100EB8000C2F2000151F870
:10397000202092B101EB8000416800F10802496803
:103980009142416001D149684160406840F20411B0
:10399000C068C2F20001086070474FF0500080F329
:1039A0001188BFF36F8FBFF34F8F00BFFEE700009A
:1039B000B0B584B04EF20040CEF200004CF270215F
:1039C000C4F20F11D0F800294B1C9A4209D14FF0D4
:1039D000500080F31188BFF36F8FBFF34F8F00BF8C
:1039E000FEE7D0F800298A4209D14FF0500080F359
:1039F0001188BFF36F8FBFF34F8F00BFFEE70178D1
:103A000042F69C720291FF2101700178C2F201021C
:103A10008DF807109DF8071001F05001117042F663
:103A2000A071C2F2010107220A609DF90720B2F1DC
:103A3000FF3F0CDC062200BF0A609DF80730013A08
:103A40005B008DF807309DF90730002BF4D40A682D
:103A5000032A3BD14FF440720A6002990170D0F8FA
:103A6000201941F47001C0F82019D0F8201941F054
:103A70007041C0F82019FFF735FD40F20C04C2F286
:103A8000000400252560FFF785FC4EF63470CEF269
:103A90000000016841F040410160FFF77DF9FFF748
:103AA00043FF039520684FF0500181F31188BFF365
:103AB0006F8FBFF34F8F013002D000BFFEE700BF12
:103AC00003980028FCD0002004B0B0BD4FF0500097
:103AD00080F31188BFF36F8FBFF34F8FFEE70000B5
:103AE00080B54FF0500080F31188BFF36F8FBFF3A4
:103AF0004F8F00F0A3FB30B14EF60450CEF2000021
:103B00004FF080510160002080F3118880BD0000DB
:103B1000F0B581B0E0B3A0FB0137CFBB01FB00F3F0
:103B200013F1510F34D8064603F150000F461546E5
:103B3000FFF7F0FA4FF0000438B30146002F18BF2A
:103B400050310160C0E90F670646FFF72DFC306871
:103B5000D6E90F12B46302FB0103013901FB020134
:103B6000C6E90103FF20F16086F8440086F84500AD
:103B700006F11000FFF7D2FB06F12400FFF7CEFBA1
:103B8000FFF736FC344686F84C50204601B0F0BDB5
:103B90004FF0500080F31188BFF36F8FBFF34F8F4A
:103BA000FEE700002DE9F04F85B0049298B10C4675
:103BB0000546002900F0B78000F026FBA8B904985C
:103BC00098B14FF0500080F31188BFF36F8FBFF3AF
:103BD0004F8F00BFFEE74FF0500080F31188BFF316
:103BE0006F8FBFF34F8F00BFFEE705F1100001900C
:103BF00005F1240000900DF108090DF1100A4FF0B5
:103C000000080CE02846FFF74BFA00F069FCFFF7CC
:103C1000CBFBAF6BFFF7ECFB002F00F09280FFF7C0
:103C2000C3FBD5F838B0BBF1000F27D02A6C5AB1CE
:103C3000D5E902011144E960814224BF2868E860A7
:103C4000E9682046FCF7DAFAABF10100A8632869BD
:103C500070B1019800F0D0FB50B14EF60450CEF296
:103C600000004FF080510160BFF34F8FBFF36F8FA3
:103C7000FFF7BEFB00200126A0B963E0049850B115
:103C8000B8F1000F02D14846FFF78CFD4FF0010854
:103C9000012038B956E0FFF7ABFB002600200028D2
:103CA00050D000BFFFF7A4FBFFF736FEFFF77CFB09
:103CB00095F84400FF2804BF002085F8440095F8DB
:103CC0004500FF2804BF002085F84500FFF790FB62
:103CD0004846514600F03AF800287FF493AFFFF7CA
:103CE00063FBAF6BFFF784FB2FB12846FFF7D8F9D2
:103CF00000F0F6FB93E704990098FFF769FD28466A
:103D0000FFF7CEF900F0ECFB00287FF488AF4EF609
:103D10000450CEF200004FF080510160BFF34F8F8E
:103D2000BFF36F8F7BE7286C00283FF445AF4FF05F
:103D3000500080F31188BFF36F8FBFF34F8F00BF28
:103D4000FEE70026304605B0BDE8F08F70B538B309
:103D50000C4671B30546FFF727FB43F2B00EC2F2E3
:103D6000010EDEF800302268501C30D043F2180CEF
:103D7000C2F2010C2946D5E90050DCF80060AE42E1
:103D800001D083421FD2181A82421CD9101A206017
:103D9000DCF8000000240860DEF80000486017E04E
:103DA0004FF0500080F31188BFF36F8FBFF34F8F38
:103DB000FEE74FF0500080F31188BFF36F8FBFF321
:103DC0004F8F00BFFEE700202060012400E00024A8
:103DD000FFF70EFB204670BD2DE9F04F81B0970034
:103DE00081463846984692460E46FFF793F990B1C1
:103DF00005465820FFF78EF950B158210446FCF7CC
:103E000016FA256354B94FF0FF3001B0BDE8F08FCA
:103E10002846FFF705FB0024002CF4D0206B0A9DF8
:103E20003946A522FCF7FCF9206B76B104F1340188
:103E3000002200BFB35C8B54B35C1BB1092A02F1B2
:103E40000102F7D1002184F83D10202D09D34FF055
:103E5000500080F31188BFF36F8FBFF34F8F00BF07
:103E6000FEE700EB8A00043804F1040B20F007069B
:103E70000B9F5846E562A564FFF75CFA04F1180051
:103E8000FFF758FAC5F12000A06130464946424686
:103E900024616462FFF700FA002F206018BF3C60C5
:103EA000FFF782FA42F6A470C2F20100016840F204
:103EB000041601310160C2F20006316843F27C0A47
:103EC00040F21C17C2F2010AC2F2000751B1DAF83F
:103ED000000000283FD13068E16AC06A884298BF7C
:103EE000346038E034600068012834D1002500BF18
:103EF0007819FFF713FA1435B5F5207FF8D142F69B
:103F0000E078C2F201084046FFF708FA42F6F47979
:103F1000C2F201094846FFF701FA43F22800C2F253
:103F20000100FFF7FBF943F29C00C2F20100FFF72A
:103F3000F5F943F28800C2F20100FFF7EFF940F211
:103F40000C10C2F20000C0F8008040F21410C2F25F
:103F50000000C0F8009042F6B070C2F201000168A3
:103F600042F6B472013101602164E06AC2F20102DA
:103F7000012113688140194300EB8000116007EBB9
:103F800080014A6861619368A260E3609368C2F847
:103F900008B0C3F804B057F82010013147F82010DA
:103FA000FFF726FADAF8000078B13068E16AC06AF3
:103FB00088420AD24EF60450CEF200004FF08051F3
:103FC0000160BFF34F8FBFF36F8F012001B0BDE8D9
:103FD000F08F00002DE9F04149B14FF0500080F31F
:103FE0001188BFF36F8FBFF34F8F00BFFEE738B369
:103FF000DDF818801D46144607460E46FFF7D4F933
:1040000032463846B8F1000F04D000EB8201096D4A
:10401000C8F80010831893F854100227042D83F871
:10402000547000F2768023464FF00108DFE805F077
:1040300020031B18110000EB8202176D3B4316E0B2
:104040004FF0500080F31188BFF36F8FBFF34F8F95
:10405000FEE7022904D14FF0000801290AD06CE0E4
:1040600000EB820203E000EB8202136D0133136563
:10407000012962D1D0E902734269BB605668C36806
:10408000011D8E425F6008BF5360136842F6B4762C
:10409000013B1360D0E90AC2C2F20106012735686C
:1040A00097402F43376040F21C1602EB8207C2F2A2
:1040B000000606EB87056C684561A3688460C360F1
:1040C000A368A160596056F82700BCF1000F00F109
:1040D000010046F8270008D04FF0500080F3118807
:1040E000BFF36F8FBFF34F8FFEE740F20410C2F2B1
:1040F00000000068C06A82421FD94EF60450CEF21A
:1041000000004FF080510160BFF34F8FBFF36F8FFE
:1041100013E043F2B002C2F2010212684AB14FF05A
:10412000500080F31188BFF36F8FBFF34F8F00BF34
:10413000FEE74FF0010801299CD0FFF759F94046EE
:10414000BDE8F08148B14FF0500080F31188BFF313
:104150006F8FBFF34F8F00BFFEE72DE9F0411E4682
:10416000154604460F46FFF71FF940F20418C2F245
:104170000008D8F80000204490F8540002281CD011
:10418000D8F80000012200EB8400016DB9430165FD
:10419000D8F800100698214481F8542068B1012114
:1041A000FEF726FD4EF60450CEF200004FF080518F
:1041B0000160BFF34F8FBFF36F8FFFF719F9FFF760
:1041C000F3F82EB1D8F8000000EB8400006D3060E9
:1041D000D8F800000026204490F85410002002294E
:1041E00007D1D8F80010012601EB84010A6DAA431B
:1041F0000A65D8F80010214481F85400FFF7F8F858
:104200003046BDE8F081000043F27C00C2F20100BC
:104210000068002804BF0120704742F6AC70C2F26B
:1042200001000068B0FA80F04009400070470000CB
:1042300043F2B000C2F20100006870472DE9F04F70
:1042400042F6AC70C2F20100006848B143F22400AB
:10425000C2F201000168013101600020BDE8F08F69
:1042600043F2B000C2F20100016811F1010EC0F882
:1042700000E02DD340F20C10C2F200000268126878
:104280004AB14FF0500080F31188BFF36F8FBFF336
:104290004F8F00BFFEE740F21413C2F20003026822
:1042A0001F6807601A6043F21802C2F20102136825
:1042B00001331360026812681AB10068C0680068B0
:1042C00001E04FF0FF3043F21402C2F2010210602D
:1042D00043F21401C2F20101086840F21C1886453D
:1042E000C2F2000801D200206EE040F20C1AC2F2C5
:1042F000000ADAF800004FF000090068002858D0E2
:1043000042F6B47BC2F2010B002025E0F96ADBF82B
:10431000002001238B401A43CBF8002001EB8102DF
:1043200008EB82035E687B61B468BE60FC60B468C1
:10433000B560656058F82230013348F8223040F209
:104340000412C2F200021268D26ADAF80030914216
:1043500088BF0120196881B3DAF80030DB68DF68B4
:104360003D4655F8044FA64529D3D7E902637C6939
:10437000B360D4F804C0FB68AC455E6008BF6360FE
:10438000C7F814902368013B2360BC6A002CBDD0A1
:10439000D7E907636268B3603B6A07F118018A4294
:1043A0005E6008BF6360C7F828902168013921600A
:1043B000ACE74FF0FF34002005E04FF0FF3443F24C
:1043C0001401C2F201010C6040F20411C2F20001BA
:1043D0000968C96A01EB810158F82110012943F2EB
:1043E000BC01C2F2010188BF01200968002918BF81
:1043F0000120BDE8F08F0000C068C06810B310B5A0
:10440000D0E90713826A8B60036AD2F804E000F1F6
:10441000180C59600021E64508BF5360816211689D
:104420000139116042F6AC71C2F20101096891B123
:1044300043F22802C2F20102516882628B68C161B4
:10444000036231E04FF0500080F31188BFF36F8FAB
:10445000BFF34F8FFEE7D0E9021342698B60D2F8B9
:1044600004E0C36800F1040CE645596008BF5360DE
:10447000116842F6B47401391160C16AC2F20104D4
:104480004FF0010E22680EFA01F31A43226040F247
:104490001C1201EB8101C2F2000202EB81025168A1
:1044A00042618B688160C3608B68C1F808C0C3F843
:1044B00004C011680131116040F20411C2F2000120
:1044C000C06A0968C96A8842BDE8104091BF0020EF
:1044D00043F2BC01C2F20101012088BF08607047AD
:1044E0002DE9F04F81B042F6AC74C2F201042068AD
:1044F00068B1FEF759FF206801382060206880B15C
:104500000024FEF775FF204601B0BDE8F08F4FF0A4
:10451000500080F31188BFF36F8FBFF34F8F00BF40
:10452000FEE742F6A470C2F2010000680028E7D05E
:1045300043F2280AC2F2010ADAF8001043F2BC087A
:104540000029C2F2010868D042F6B47B40F21C1484
:1045500040F2041E4FF0000C4FF00109C2F2010BB3
:10456000C2F20004C2F2000EDAF80C10CE68D6E9EE
:104570000721B76A91607868316A06F11805A84288
:104580004A6008BF7960C6F828C0386801383860CA
:10459000D6E90202716982604A68F568371DBA423D
:1045A000686008BF4D60086801380860F06ADBF891
:1045B000001009FA00F21143CBF8001000EB800163
:1045C00004EB810255687261AB68B560F360AB685B
:1045D000AF605F6054F82120013244F82120DEF8FA
:1045E0000010C96A884228BFC8F80090DAF80000B5
:1045F0000028B9D18EB140F20C10C2F2000001685F
:10460000096819B10068C068006801E04FF0FF3028
:1046100043F21401C2F20101086043F22404C2F221
:104620000104256855B10126FFF708FE002818BFD0
:10463000C8F80060013DF7D100202060D8F80000E4
:1046400000283FF45DAF4EF60450CEF200004FF06C
:1046500080510160BFF34F8F0124BFF36F8F50E78C
:1046600080B582B0FEF724FB43F2B400C2F2010031
:10467000006888B143F2B80C42F67160C2F2010CD6
:104680004FF01F0EC0F600000BA1F0220023CDE971
:1046900000ECFFF7A1FB00E0002000281CBF02B0E7
:1046A00080BD4FF0500080F31188BFF36F8FBFF3D0
:1046B0004F8F00BFFEE700BF546D7220537663003A
:1046C0000FB4054B10B503A9044A029800F0DAF8BC
:1046D00010BC5DF814FB0000352B00080000002022
:1046E00002E008C8121F08C1002AFAD170477047BB
:1046F000002001E001C1121F002AFBD17047000019
:104700002DE9FF5F82B00021DDE90430020DDDF804
:1047100040B0034318D044F61050A2F2FF32424397
:104720001514119801281FD0A5EB0B00401C5FEA5F
:10473000000A4FF000064E4FDFF83891B046504661
:1047400015D5CAF1000413E0119801244AA30128E9
:1047500001D16FEA0B010298119AC0E90031C0E95A
:10476000024206B0BDE8F09FCBF10000DFE704464F
:104770000021404A491842EB0450CDE9001012E0F4
:10478000E00707D032463B4640464946FBF701FE6C
:104790008046894632463B4610461946FBF7F9FDEE
:1047A00006460F466410002CEAD1DDE90401DDE97C
:1047B0000023BAF1000F06DAFBF7EBFD42464B4649
:1047C000FBF7E7FD05E0FBF756FE42464B46FBF7DD
:1047D00052FE04460E460022284BFBF799FF03D8F1
:1047E0004FF0FF30014607E00022254B20463146BE
:1047F000FBF728FDFBF773FF102409E0002C0ADB10
:104800000A220023FBF7BCFE039B30321A55641EBC
:1048100050EA0102F2D1641C039AC4F1110314445A
:10482000119A012A03D0012208430DD10AE008435E
:1048300004D000204FF0110B119072E7A3EB0B0591
:104840006D1E0DE05B4504DD4FF0000205F1010532
:1048500004E003DA4FF00002A5F10105002AECD0D4
:1048600002981199C0E90231C0E9004579E70000DA
:10487000000014400000F03F300000000000F04352
:104880000000E03F2DE9FF4F95B09B468946064664
:1048900000250FE2252877D100242746F84A012178
:1048A000059400E0044316F8013F203B01FA03F0B1
:1048B0001042F7D130782A2811D06FF02F033078CA
:1048C000A0F13002092A16D8059A44F0020402EB3E
:1048D000820203EB42021044761C0590EFE759F880
:1048E000042B0592002A03DA504244F40054059048
:1048F00044F00204761C30782E2816D116F8010FE9
:1049000044F004042A280DD06FF02F023078A0F173
:104910003003092B09D807EB870302EB4303C718C1
:10492000761CF3E759F8047B761C30786C280FD09E
:1049300006DC4C2817D068280DD06A2814D104E072
:10494000742810D07A280FD10DE044F400140AE046
:1049500044F4801401E044F440147278824202D19D
:1049600004F58014761C761C307866280BD013DC96
:10497000582877D009DC002875D04528F6D046287D
:10498000F4D047281AD19DE118E0632835D0642877
:1049900079D0652812D195E1702873D008DC67289A
:1049A000F1D069286FD06E280DD06F2806D1B5E000
:1049B00073282CD0752875D0782874D05A4617994A
:1049C00090476D1C75E1C4F30250022809D00328FA
:1049D0000DD0D9F8001004280DD00D6009F104099C
:1049E00067E1D9F80010EA17C1E90052F6E7D9F8F3
:1049F00000100D80F2E70D70F0E719F8041B8DF838
:104A0000001000208DF80100EA46012003E059F86B
:104A100004AB4FF0FF3061074FF0000102D40DE00E
:104A200008F101018846B9420FDA8045F8DB1AF82F
:104A300008100029F4D108E008F1010188468142FC
:104A4000FADB1AF808100029F6D105985B46A0EBAE
:104A5000080721463846179A00F094FA284400EBDC
:104A6000080507E04DE029E10DE01AF8010B5A4670
:104A700017999047B8F10108F7D25B4621463846AE
:104A8000179A13E142E00A220092C4F302524FF057
:104A9000000A022A08D059F804CB032A4FEAEC7125
:104AA0000AD00DE029E02AE009F1070121F0070210
:104AB000F2E802C1914609E00FFA8CFC4FEAEC7172
:104AC000042A03D14FFA8CFC4FEAEC71002907DA73
:104AD0000A460021DCF1000C61EB02012D2202E00C
:104AE000220504D52B228DF80420012203E0E207E1
:104AF00001D02022F7E7904659E00A2102E0102277
:104B00000DE010214FF0000A00910BE010224FF051
:104B1000000A44F004040827009203E008224FF042
:104B2000000A0092C4F30252022A05D059F804CBBD
:104B30000021032A08D009E009F1070121F007024A
:104B4000F2E802C1914605E01FFA8CFC042A01D16B
:104B50000CF0FF0C4FF00008220728D5702806D073
:104B6000009B83F0100353EA0A0305D00EE04022B5
:104B70008DF80420012208E05CEA010206D0302210
:104B80008DF804208DF8050002229046009B83F0EA
:104B9000080353EA0A030AD15CEA010201D1620761
:104BA00005D530228DF804204FF001087F1E5828CB
:104BB00004D034A003900EA802900DE036A0F9E7CF
:104BC00053466046009AFBF7DBFC84460398825C00
:104BD0000298401E029002705CEA0100F0D1029837
:104BE00006A9081A00F1200A600702D524F48034CF
:104BF00000E00127574502DDA7EB0A0000E0002096
:104C000000EB0A01009005984144401A0590E0032A
:104C100006D45B462146179A059800F0B3F905447F
:104C2000002706E001A85A46C05D179990476D1C01
:104C30007F1C4745F6DBE0030CD55B462146179AFF
:104C4000059800F09FF9054404E030205A46179972
:104C500090476D1C0099481E00900029F5DC08E083
:104C6000029802995A460078491C02911799904778
:104C70006D1CBAF10001AAF1010AF1DC65E1000046
:104C80000928010030313233343536373839616222
:104C900063646566000000003031323334353637E6
:104CA00038394142434445460000000000F058F9BD
:104CB0000544761C307800287FF4ECAD19B0284606
:104CC000BDE8F08F620700D4062709F1070222F041
:104CD000070CFCE80223E14603F000485FEA080CF9
:104CE00002D00FF2702C0DE05FEA045C02D50FF2E7
:104CF000682C07E05FEAC47C02D00FF2602C01E070
:104D0000AFF2700C4FF0FF3823F00043CDF850C0E5
:104D100065280CD006DC452809D046281DD0472838
:104D20003DD13DE0662818D067287ED138E00021CB
:104D3000112F01DB112000E0781CCDE9000106A94C
:104D40000EA8FFF7DDFCDDE90F010E9A03910021AB
:104D5000009207F1010A04914DE04FF000400097E6
:104D6000CDE9011006A90EA8FFF7CAFCDDE90F0284
:104D700003920E9B11990022DDF80CA0009304927F
:104D800011B9791C00EB010AB7EB0A0004D4C0F199
:104D9000FF3007F1010A0490AAEB0700019044E0FC
:104DA000012F00DA01270021112F01DD112000E081
:104DB0003846CDE9000106A90EA8FFF7A1FCDDE900
:104DC0000F010E9A0391002104910092BA46210727
:104DD0000CD40399514500DA8A46BAF1010F05DD7A
:104DE000009AAAF10101515C302908D0B84202DAD8
:104DF00010F1040F06DA0121CDE9011015E0AAF146
:104E00000101E9E7002805DC049901440491AAEBBB
:104E1000000102E0411C514500DD8A460499401A18
:104E2000401C01904FF000400290200704D40198EC
:104E3000504501DBCDF8048000208DF84F0002982A
:104E40000DF14F07B0F1004F25D02B200E900298A6
:104E50004FF0020800280CDA404202902D200E90FC
:104E600007E00A210298FBF775FB3031029007F842
:104E7000011DB8F10001A8F10108F2DC0298002838
:104E8000EFD1791E0E980870307800F0200040F0C5
:104E9000450007F8020D12A8C01B00F1070814987E
:104EA000007800B1012000EB0A01019801EBE071EC
:104EB00005984144401A401E0590E00306D45B4625
:104EC0002146179A059800F05DF80544149800787B
:104ED00018B15A46179990476D1CE00324D55B46DC
:104EE0002146179A059800F04DF805441CE00498F7
:104EF000002807DBDDE90301884203DD0098405C00
:104F0000179901E0179930205A469047049805F107
:104F10000105401C04900198401E019004D12E20F0
:104F20005A46179990476D1CBAF10001AAF1010A7F
:104F3000DDDC05E017F8010B5A46179990476D1C08
:104F4000B8F10001A8F10108F4DC5B462146179A8C
:104F50000598ABE62D0000002B00000020000000AB
:104F60002DE9F041044600251E461746880404D466
:104F700005E039462020B0476D1C641EF9D528464F
:104F8000BDE8F0812DE9F041044600251E4690461B
:104F9000C80301D5302700E02027880404D505E0A8
:104FA00041463846B0476D1C641EF9D52846BDE819
:104FB000F08100000000010203040102030406075F
:104FC00008090000000000000000000000000000D0
:104FD0000404040404000004000014140A00000087
:104FE00000000000000000000A0A1F0A0A1F0A0A47
:104FF000000000040E1505060C14150E0400000038
:1050000012150D152E2C2A1200000000040A0A3673
:105010001515291600000202010000000000000022
:105020000000100808040404040408081000020426
:105030000408080808080404020000000004150E13
:105040000E150400000000000008083E08080000DB
:10505000000000000000000000000202010000004B
:105060000000003F00000000000000000000000001
:1050700000000002000000201010080804040202D2
:10508000010000000E1111111111110E000000009D
:10509000040604040404040E000000000E111108AC
:1050A0000402011F000000000E11100C1010110E60
:1050B00000000000080C0C0A091F081C000000007A
:1050C0001F01010F1110110E000000000C12010D44
:1050D0001311110E000000001E100808040404043F
:1050E000000000000E11110E1111110E0000000041
:1050F0000E1111191610090600000000000004002E
:105100000000000400000000000000040000000493
:10511000040000001008040202040810000000004F
:1051200000003F003F0000000000000002040810E3
:1051300010080402000000000E111108040400040D
:10514000000000001C22292D2D1D221C0000000043
:1051500004040C0A0A1E1233000000000F12120E83
:105160001212120F000000001E1101010101110EA8
:10517000000000000F1212121212120F00000000A5
:105180001F120A0E0A02121F000000001F120A0E50
:105190000A020207000000001C1201013911120C62
:1051A000000000003312121E121212330000000021
:1051B0001F0404040404041F000000003E08080843
:1051C000080808080907000037120A060A121237F1
:1051D00000000000070202020202223F000000005D
:1051E0003B1B1B1B15151535000000003B12161646
:1051F0001A1A1217000000000E1111111111110ED0
:10520000000000000F12120E020202070000000050
:105210000E1111111117190E180000000F12120EA5
:105220000A121237000000001E1101060810110FAB
:10523000000000001F1504040404040E0000000018
:10524000331212121212120C000000003312120A52
:105250000A0C040400000000151515150E0A0A0AB0
:10526000000000001B0A0A04040A0A1B00000000D8
:105270001B0A0A0A0404040E000000001F090804A7
:105280000402121F00001C040404040404040404A7
:105290001C000002020404040808081010000E0894
:1052A00008080808080808080E00040A00000000A2
:1052B00000000000000000000000000000000000EE
:1052C000003F020400000000000000000000000099
:1052D0000000000C121C123C000000030202020E2F
:1052E0001212120E000000000000001C1202120C2C
:1052F000000000181010101C1212123C00000000D8
:105300000000000C121E021C000000182404041EE1
:105310000404041E000000000000003C120C021CEB
:10532000221C00030202020E1212123700000004B7
:10533000040000060404040E000000080800000C2D
:1053400008080808080700030202021A0A060A13DE
:1053500000000007040404040404041F000000000B
:105360000000000F15151515000000000000000FCB
:1053700012121237000000000000000C1212120C72
:10538000000000000000000F1212120E02070000C1
:105390000000001C1212121C103800000000001B3C
:1053A00006020207000000000000001E020C101E92
:1053B000000000000004041E0404041C000000009F
:1053C0000000001B1212123C000000000000001B35
:1053D0000A0A04040000000000000015150E0A0A65
:1053E000000000000000001B0A040A1B000000006F
:1053F0000000003312120C08040300000000001E1D
:105400000804041E000018080808080C080808080A
:10541000180008080808080808080808080806040A
:105420000404040804040404060016090000000033
:10543000000000000000000000000000000000006C
:105440000000000000000000000808080808080824
:1054500000001818000000486C2412000000000032
:105460000000000000000000002424247F1212121B
:105470007F12121200000000081C2A2A0A0C1828A9
:10548000282A2A1C080800000022251515152A586C
:105490005454542200000000000C1212120A762507
:1054A0002911916E000000060604030000000000B0
:1054B0000000000000000040201010080808080844
:1054C00008101020400000020408081010101010EE
:1054D0001008080402000000000008086B1C1C6B88
:1054E00008080000000000000000080808087F0805
:1054F0000808080000000000000000000000000094
:105500000000060604030000000000000000FE008A
:10551000000000000000000000000000000000008B
:105520000000060600000000804040202010100807
:1055300008040402020000000018244242424242D1
:10554000424224180000000000080E08080808085D
:105550000808083E00000000003C424242202010A3
:105560000804427E00000000003C42422018204017
:105570004042221C00000000002030282424222267
:105580007E20207800000000007E0202021A2640E1
:105590004042221C0000000000382402021A264269
:1055A0004242241800000000007E22221010080849
:1055B0000808080800000000003C42424224182469
:1055C0004242423C0000000000182442424264581B
:1055D0004040241C000000000000000018180000DB
:1055E0000000181800000000000000000008000083
:1055F0000000000808040000004020100804020415
:105600000810204000000000000000007F000000A3
:105610007F0000000000000000020408102040206D
:105620001008040200000000003C424246402010E6
:105630001000181800000000001C225A555555553E
:105640002D42221C00000000000808181414243CFD
:10565000224242E700000000001F2222221E2242B6
:105660004242221F00000000007C42420101010171
:105670000142221C00000000001F2242424242421E
:105680004242221F00000000003F4212121E12126E
:105690000242423F00000000003F4212121E12125E
:1056A0000202020700000000003C222201010171F9
:1056B0002122221C0000000000E7424242427E42BA
:1056C000424242E700000000003E080808080808BF
:1056D0000808083E00000000007C10101010101098
:1056E00010101010110F0000007722120A0E0A127B
:1056F00012222277000000000007020202020202CA
:105700000202427F000000000077363636362A2A31
:105710002A2A2A6B0000000000E346464A4A5252F9
:105720005262624700000000001C22414141414199
:105730004141221C00000000003F424242423E0222
:105740000202020700000000001C224141414141C9
:105750004D53321C60000000003F4242423E121294
:10576000222242C700000000007C424202041820AE
:105770004042423E00000000007F49080808080837
:105780000808081C0000000000E742424242424272
:105790004242423C0000000000E74242222424141E
:1057A0001418080800000000006B49494949555584
:1057B000362222220000000000E742242418181894
:1057C000242442E700000000007722221414080875
:1057D0000808081C00000000007E212010100804AA
:1057E0000442423F0000007808080808080808083A
:1057F00008080808780000000202040408080810DD
:10580000102020204040001E10101010101010100A
:10581000101010101E0000384400000000000000AE
:105820000000000000000000000000000000000078
:105830000000000000FF000608000000000000005B
:10584000000000000000000000000000003C427862
:10585000444242FC0000000000030202021A2642F9
:105860004242261A000000000000000000384402F6
:10587000020244380000000000604040407844428A
:10588000424264D80000000000000000003C427E5C
:105890000202423C0000000000F08808087E080870
:1058A0000808083E0000000000000000007C2222E2
:1058B0001C023C42423C000000030202023A464203
:1058C000424242E700000000000C0C00000E0808F5
:1058D0000808083E0000000000303000003820209A
:1058E00020202020221E0000000302020272120A61
:1058F0001612227700000000000E080808080808A9
:105900000808083E0000000000000000007F92929E
:10591000929292B70000000000000000003B464257
:10592000424242E70000000000000000003C42420A
:105930004242423C0000000000000000001B2642E2
:105940004242221E0207000000000000007844428C
:105950004242447840E000000000000000774C0420
:105960000404041F0000000000000000007C42024C
:105970003C40423E0000000000000008083E0808CD
:1059800008080830000000000000000000634242E8
:10599000424262DC000000000000000000E74224F8
:1059A00024140808000000000000000000EB494932
:1059B0005555222200000000000000000076241847
:1059C0001818246E000000000000000000E74224C8
:1059D000241418080807000000000000007E2210B0
:1059E0000808447E000000C0202020202010202035
:1059F00020202020C00010101010101010101010C7
:105A000010101010101000060808080808100808E8
:105A10000808080806000C32C20000000000000060
:105A20000000000000000000000000000000000076
:105A30000000000000000000000000000000000066
:105A40000000000000000000000000000000000056
:105A500000000000000000000000000000006000E6
:105A60006000600060006000600060004000200096
:105A700020002000000000000000600060006000C6
:105A80000000000000000000000060066006300317
:105A900098018800440000000000000000000000A1
:105AA00000000000000000000000000000000000F6
:105AB00000000000000000000000000000001002D4
:105AC000100210021002FE07FE070802080108017A
:105AD00008010801FE07FE07040104010401040196
