:020000040800F2
:1000000070340120D9010008B1160008510400081D
:10001000AD16000875020008552000080000000019
:10002000000000000000000000000000211900088E
:100030007902000800000000311700085D1900086F
:10004000F3010008F3010008F3010008F3010008C0
:10005000F3010008F3010008F3010008F3010008B0
:10006000F3010008F3010008F3010008F3010008A0
:10007000F3010008F3010008F3010008F301000890
:10008000F3010008F3010008F3010008F301000880
:10009000F3010008F3010008F3010008F301000870
:1000A000F3010008F3010008F3010008F301000860
:1000B0001D1B0008F3010008F3010008F30100080C
:1000C000F3010008F3010008F3010008F301000840
:1000D000F3010008991E0008F3010008F30100086D
:1000E000F3010008F3010008F3010008F301000820
:1000F000F3010008F3010008F3010008F301000810
:10010000F3010008F3010008F3010008F3010008FF
:10011000F3010008F3010008F3010008F3010008EF
:10012000F3010008F3010008F3010008F3010008DF
:10013000F30100080000000000000000F3010008C7
:10014000F3010008F3010008F3010008F3010008BF
:10015000F3010008F3010008F3010008F3010008AF
:10016000F3010008F3010008F3010008F30100089F
:10017000F3010008F3010008F3010008000000008B
:1001800000000000F3010008000000000000000073
:10019000F30100080000000000000000F301000867
:1001A000000000000000000000000000F301000853
:1001B000F3010008F3010008F3010008F30100084F
:1001C000F3010008DFF80CD000F03CF800480047CD
:1001D00091210008703401200648804706480047F6
:1001E000FEE7FEE7FEE7FEE7FEE7FEE7FEE7FEE7E7
:1001F000FEE7FEE7011A0008C501000840EA010316
:100200009B0703D009E008C9121F08C0042AFAD2CC
:1002100003E011F8013B00F8013B521EF9D2704790
:10022000D2B201E000F8012B491EFBD27047002238
:10023000F6E710B513460A4604461946FFF7F0FFE5
:10024000204610BD1CB5094800900948019005469C
:10025000009C06E0E06840F0010394E8070098473E
:100260001034AC42F6D3FFF7B1FF00000071000874
:1002700020710008FEE700007047000080B50420F0
:1002800001F060FB40F20400C2F2000000684DF68D
:100290008361C4F21B31A0FB011244F6D351C1F2B9
:1002A0006201A0FB0101900C40F2AC02C2F200021C
:1002B000106040F2A800C2F20000012202704EF26B
:1002C0001000CEF200000268890942F002020260CA
:1002D0004160016841F00101016080BD10B5044634
:1002E00003F09EFA01280AD02CB940F2A800C2F20D
:1002F0000000007810B9204602F06CFC00244EF299
:10030000180040F2AC01CEF20000C2F2000150F839
:1003100004CC09684FF47A7261434A4301680023B0
:1003200004688C42FCD00B441B1B8C4228BF6344E6
:100330009342214628BF10BDF2E7000080B54EF27F
:10034000180140F2AC02CEF20001C2F2000251F8F4
:1003500004CC1268002302FB00FE08680A6882428F
:10036000FCD003449B1A824228BF63447345104665
:1003700028BF80BDF2E700002DE9F043D1F80080EE
:1003800000234FF0010C4FF0030E002410E000BFDB
:10039000C26802EA0902C260CA79C5689A402A4363
:1003A000C2600134102C03F1020308BFBDE8F083E2
:1003B0000CFA04F618EA060FF3D002680EFA03F7F7
:1003C000BA4302600A796FEA0709076802FA03F57F
:1003D000013A3D43012A0560DAD8826802EA09023F
:1003E00082604A798D7987689A403A438260426890
:1003F000B243426005FA04F2456892B22A43426071
:10040000C6E700001C2303EA810C6FF0030303EA34
:10041000510108440F23016A03FA0CF39943016266
:10042000016A02FA0CF21143016270470069084048
:1004300018BF012070470000090481617047000067
:1004400081617047002A08BF09048161704700007C
:10045000FEE70000B0B582B007200121012401F0C1
:1004600099F948F210008DF80740002400904FF4ED
:100470004070C4F202046D46ADF8040020462946DF
:10048000FFF77AFF40F28230009004F58060294641
:10049000FFF772FF4EF20700009004F50060294656
:1004A000FFF76AFF02B0B0BD40F21000C2F20000D8
:1004B00001780131CAB2142A017038BF70472DE9A2
:1004C000F04381B040F2110940F600040021C2F26D
:1004D0000009C4F20204017099F8000040F2120809
:1004E000C2F20008A4F5006688F8000030464FF418
:1004F0000041FFF79BFF002843D0A4F58065284604
:1005000002210227FFF792FF00284DD0304610212C
:10051000FFF78CFFB8B328468021FFF787FFA0B311
:1005200028464FF40071FFF781FF80B328464FF44F
:100530008071FFF77BFF60B320464FF40051FFF757
:1005400075FF40B320464FF48041FFF76FFF20B3A3
:1005500020460221FFF76AFF08B320464FF400410E
:10056000FFF764FFE8B120460121FFF75FFFD0B13C
:1005700020460421FFF75AFF0027002808BF0C2758
:1005800012E0012710E003270EE004270CE0052706
:100590000AE0062708E0072706E0082704E0092705
:1005A00002E00A2700E00B2789F8007047B998F8A5
:1005B000000000281EBF40F21301C2F200010870C3
:1005C00001B0BDE8F04370472DE9F04740F2004527
:1005D000C4F2020505F5806489460746204640219D
:1005E00098469246FFF728FF28464FF48051FFF7C0
:1005F00023FF2A2000F050FD0120FFF79FFE284630
:100600004FF48051FFF71CFF20464021FFF718FFF1
:1006100028464FF480513E0AFFF70EFF304600F0A7
:100620003BFD0120FFF78AFE28464FF48051FFF77B
:1006300007FF28464FF48051FFF7FEFEF8B200F0A6
:100640002BFD0120FFF77AFE28464FF48051FFF77B
:10065000F7FE28464FF480514FEA1A26FFF7ECFECA
:10066000304600F019FD0120FFF768FE28464FF4E0
:100670008051FFF7E5FE28464FF48051FFF7DCFE7E
:100680005FFA8AF000F008FD0120FFF757FE2846C8
:100690004FF48051FFF7D4FE20464021FFF7CCFEF7
:1006A00028464FF48051FFF7C7FE2B2000F0F4FCE2
:1006B0000120FFF743FE28464FF48051FFF7C0FEAC
:1006C00020464021FFF7BCFE28464FF480514FEAF8
:1006D0001926FFF7B1FE304600F0DEFC0120FFF7DF
:1006E0002DFE28464FF48051FFF7AAFE28464FF40E
:1006F0008051FFF7A1FE5FFA89F000F0CDFC0120E8
:10070000FFF71CFE28464FF48051FFF799FE28465C
:100710004FF480514FEA1826FFF78EFE304600F066
:10072000BBFC0120FFF70AFE28464FF48051FFF77B
:1007300087FE28464FF48051FFF77EFE5FFA88F06F
:1007400000F0AAFC0120FFF7F9FD28464FF4805184
:10075000FFF776FE20464021FFF76EFE28464FF455
:100760008051FFF769FE2C2000F096FC0120FFF776
:10077000E5FD28464FF48051FFF762FE20464021F8
:10078000BDE8F047FFF75CBE2DE9F04381B00E46AF
:100790008146501E591E9846154682B28BB2484675
:1007A0003146FFF711FF464512D2089C04E000BF16
:1007B0000136B0B240450BD2A945F9D24F4600BF31
:1007C000204600F0FFFD0137B8B2A842F8D3EFE7AA
:1007D00001B0BDE8F083000070B582B000F074FC99
:1007E0000620012100F0D6FF4FF4A840009040F20F
:1007F000013040F20044C0F20010C4F202046E4620
:10080000019020463146FFF7B7FD402004F5806592
:10081000009028463146FFF7AFFD20464FF4A8412F
:10082000FFF70EFE28464021FFF70AFE20464FF450
:100830008041FFF701FE6420FFF750FD20464FF492
:100840008041FFF7FDFD6420FFF748FD20464FF48F
:100850008061FFF7F5FD6420FFF740FD2846402149
:10086000FFF7EAFD20464FF48051FFF7E5FD112028
:1008700000F012FC0120FFF761FD20464FF480518B
:10088000FFF7DEFD28464021FFF7DAFD7820FFF76D
:1008900025FD28464021FFF7CFFD20464FF480512B
:1008A000FFF7CAFD362000F0F7FB0120FFF746FDF9
:1008B00020464FF48051FFF7C3FD28464021FFF743
:1008C000BFFD20464FF48051FFF7B6FDC02000F079
:1008D000E3FB0120FFF732FD20464FF48051FFF784
:1008E000AFFD28464021FFF7A7FD20464FF4805179
:1008F000FFF7A2FD3A2000F0CFFB0120FFF71EFD1D
:1009000020464FF48051FFF79BFD28464021FFF71A
:1009100097FD20464FF48051FFF78EFD052000F033
:10092000BBFB0120FFF70AFD20464FF48051FFF783
:1009300087FD28464021FFF77FFD20464FF4805178
:10094000FFF77AFDB22000F0A7FB0120FFF7F6FCCD
:1009500020464FF48051FFF773FD28464021FFF7F2
:100960006FFD20464FF48051FFF766FD0C2000F02C
:1009700093FB0120FFF7E2FC20464FF48051FFF784
:100980005FFD20464FF48051FFF756FD0C2000F02C
:1009900083FB0120FFF7D2FC20464FF48051FFF784
:1009A0004FFD20464FF48051FFF746FD002000F038
:1009B00073FB0120FFF7C2FC20464FF48051FFF784
:1009C0003FFD20464FF48051FFF736FD332000F005
:1009D00063FB0120FFF7B2FC20464FF48051FFF784
:1009E0002FFD20464FF48051FFF726FD332000F005
:1009F00053FB0120FFF7A2FC20464FF48051FFF784
:100A00001FFD28464021FFF717FD20464FF4805177
:100A1000FFF712FDB72000F03FFB0120FFF78EFC2F
:100A200020464FF48051FFF70BFD28464021FFF789
:100A300007FD20464FF48051FFF7FEFC352000F003
:100A40002BFB0120FFF77AFC20464FF48051FFF783
:100A5000F7FC28464021FFF7EFFC20464FF4805179
:100A6000FFF7EAFCBB2000F017FB0120FFF766FC54
:100A700020464FF48051FFF7E3FC28464021FFF762
:100A8000DFFC20464FF48051FFF7D6FC322000F007
:100A900003FB0120FFF752FC20464FF48051FFF783
:100AA000CFFC28464021FFF7C7FC20464FF4805179
:100AB000FFF7C2FCC22000F0EFFA0120FFF73EFC76
:100AC00020464FF48051FFF7BBFC28464021FFF73A
:100AD000B7FC20464FF48051FFF7AEFC012000F038
:100AE000DBFA0120FFF72AFC20464FF48051FFF784
:100AF000A7FC28464021FFF79FFC20464FF4805179
:100B0000FFF79AFCC32000F0C7FA0120FFF716FC9C
:100B100020464FF48051FFF793FC28464021FFF711
:100B20008FFC20464FF48051FFF786FC152000F023
:100B3000B3FA0120FFF702FC20464FF48051FFF783
:100B40007FFC28464021FFF777FC20464FF4805178
:100B5000FFF772FCC42000F09FFA0120FFF7EEFBC4
:100B600020464FF48051FFF76BFC28464021FFF7E9
:100B700067FC20464FF48051FFF75EFC202000F018
:100B80008BFA0120FFF7DAFB20464FF48051FFF784
:100B900057FC28464021FFF74FFC20464FF4805178
:100BA000FFF74AFCC62000F077FA0120FFF7C6FBEA
:100BB00020464FF48051FFF743FC28464021FFF7C1
:100BC0003FFC20464FF48051FFF736FC0F2000F029
:100BD00063FA0120FFF7B2FB20464FF48051FFF784
:100BE0002FFC28464021FFF727FC20464FF4805178
:100BF000FFF722FCD02000F04FFA0120FFF79EFB08
:100C000020464FF48051FFF71BFC28464021FFF798
:100C100017FC20464FF48051FFF70EFCA42000F093
:100C20003BFA0120FFF78AFB20464FF48051FFF783
:100C300007FC20464FF48051FFF7FEFBA12000F097
:100C40002BFA0120FFF77AFB20464FF48051FFF783
:100C5000F7FB28464021FFF7EFFB20464FF4805179
:100C6000FFF7EAFBE02000F017FA0120FFF766FB30
:100C700020464FF48051FFF7E3FB28464021FFF761
:100C8000DFFB20464FF48051FFF7D6FBD02000F069
:100C900003FA0120FFF752FB20464FF48051FFF783
:100CA000CFFB20464FF48051FFF7C6FB082000F031
:100CB000F3F90120FFF742FB20464FF48051FFF784
:100CC000BFFB20464FF48051FFF7B6FB0E2000F02B
:100CD000E3F90120FFF732FB20464FF48051FFF784
:100CE000AFFB20464FF48051FFF7A6FB092000F030
:100CF000D3F90120FFF722FB20464FF48051FFF784
:100D00009FFB20464FF48051FFF796FB092000F02F
:100D1000C3F90120FFF712FB20464FF48051FFF783
:100D20008FFB20464FF48051FFF786FB052000F033
:100D3000B3F90120FFF702FB20464FF48051FFF783
:100D40007FFB20464FF48051FFF776FB312000F007
:100D5000A3F90120FFF7F2FA20464FF48051FFF784
:100D60006FFB20464FF48051FFF766FB332000F005
:100D700093F90120FFF7E2FA20464FF48051FFF784
:100D80005FFB20464FF48051FFF756FB482000F0F0
:100D900083F90120FFF7D2FA20464FF48051FFF784
:100DA0004FFB20464FF48051FFF746FB172000F021
:100DB00073F90120FFF7C2FA20464FF48051FFF784
:100DC0003FFB20464FF48051FFF736FB142000F024
:100DD00063F90120FFF7B2FA20464FF48051FFF784
:100DE0002FFB20464FF48051FFF726FB152000F023
:100DF00053F90120FFF7A2FA20464FF48051FFF784
:100E00001FFB20464FF48051FFF716FB312000F006
:100E100043F90120FFF792FA20464FF48051FFF783
:100E20000FFB20464FF48051FFF706FB342000F003
:100E300033F90120FFF782FA20464FF48051FFF783
:100E4000FFFA28464021FFF7F7FA20464FF4805179
:100E5000FFF7F2FAE12000F01FF90120FFF76EFA28
:100E600020464FF48051FFF7EBFA28464021FFF768
:100E7000E7FA20464FF48051FFF7DEFAD02000F069
:100E80000BF90120FFF75AFA20464FF48051FFF783
:100E9000D7FA20464FF48051FFF7CEFA082000F031
:100EA000FBF80120FFF74AFA20464FF48051FFF784
:100EB000C7FA20464FF48051FFF7BEFA0E2000F02B
:100EC000EBF80120FFF73AFA20464FF48051FFF784
:100ED000B7FA20464FF48051FFF7AEFA092000F030
:100EE000DBF80120FFF72AFA20464FF48051FFF784
:100EF000A7FA20464FF48051FFF79EFA092000F030
:100F0000CBF80120FFF71AFA20464FF48051FFF783
:100F100097FA20464FF48051FFF78EFA152000F023
:100F2000BBF80120FFF70AFA20464FF48051FFF783
:100F300087FA20464FF48051FFF77EFA312000F007
:100F4000ABF80120FFF7FAF920464FF48051FFF784
:100F500077FA20464FF48051FFF76EFA332000F005
:100F60009BF80120FFF7EAF920464FF48051FFF784
:100F700067FA20464FF48051FFF75EFA482000F0F0
:100F80008BF80120FFF7DAF920464FF48051FFF784
:100F900057FA20464FF48051FFF74EFA172000F021
:100FA0007BF80120FFF7CAF920464FF48051FFF784
:100FB00047FA20464FF48051FFF73EFA142000F024
:100FC0006BF80120FFF7BAF920464FF48051FFF784
:100FD00037FA20464FF48051FFF72EFA152000F023
:100FE0005BF80120FFF7AAF920464FF48051FFF784
:100FF00027FA20464FF48051FFF71EFA312000F007
:101000004BF80120FFF79AF920464FF48051FFF783
:1010100017FA20464FF48051FFF70EFA342000F003
:101020003BF80120FFF78AF920464FF48051FFF783
:1010300007FA28464021FFF7FFF920464FF4805178
:10104000FFF7FAF9212000F027F80120FFF776F9E1
:1010500020464FF48051FFF7F3F928464021FFF76F
:10106000EFF928464021FFF7E7F920464FF4805179
:10107000FFF7E2F9292000F00FF80120FFF75EF9F1
:1010800020464FF48051FFF7DBF928464021FFF757
:10109000D7F902B070BD0000B0B543F600040546B4
:1010A000C4F200042046022100F00EFC0028F9D012
:1010B0002046294600F00EFC2046802100F004FC6A
:1010C0000028F9D1B0BD0000B0B586B002200121E2
:1010D000012500F05FFB40F20044C4F20204204608
:1010E0000D210522FFF78EF920460F210522FFF77B
:1010F00089F940F20230C0F2001002904FF4204013
:10110000019001A92046FFF737F920464FF420410E
:10111000FFF796F94FF48040012100F047FB4FF4B0
:10112000003002904CF20000C0F2041001904FF425
:10113000E020CDF812004FF40070A4F5E634CDF8AD
:101140000E0001A92046ADF80C5000F0C5FB20466A
:10115000012100F0AFFB06B0B0BD00002DE9F04F5B
:1011600087B0DDF8448083464FEA58074FEA1810ED
:101170001C46914601237A0718BF03EB181000FBA9
:1011800008F50BEB580001EB08020138531E82B240
:101190009BB258460E460691FFF716FA002D00F056
:1011A0008D80A8F10C00C1B2800140EA9100C3B269
:1011B000052B00F283800120984010F02B0F00F0E7
:1011C0007D802A46A9F120000121C0B2012D98BFDF
:1011D0000A4644F26A71059200EB4002C0F6000133
:1011E00001EB0211029144F27A11C0F6000101EB09
:1011F0000011019145F63A11C0F600014FF0000AC6
:1012000001EB80105E464FF00009039200900493BA
:1012100008E04FF0000900BF05980AF1010A049B9D
:1012200082454BD0032B0DD0012B09D063B9039815
:1012300043F60651C0F6000101EB800005E000BF57
:10124000019802E0029800E00098504405784FF0C1
:10125000000815E028422046109908BF084600F013
:10126000B1F809F101095FFA89F0B0FBF7F101FB70
:1012700017000028CDD008F10108B8F1080FCBD035
:10128000129800284FF0010000FA08F0E2D028423E
:1012900009D00699B0B289B202460B46FFF794F91D
:1012A000204600F08FF80136B0B2A0EB0B00B84238
:1012B000E1D106985E4601300690ADE707B0BDE883
:1012C000F08F0000002B08BF70472DE9F04F85B06C
:1012D000074610981C4693468A464508581E4FF00C
:1012E00000084FF00009049016E000BF4FF001091C
:1012F00040F030020F9808FB057100901098D2B2B0
:10130000019088B251460E9B00260296FFF726FFF9
:1013100008F10108A0452CD06FEA0800204401061E
:1013200008D00121013801EB810102064FEA410199
:10133000F8D100E00121BBFBF1F049F69A11C1F6AA
:101340009911A0FB011202EB8201B9F1000FA0EB91
:101350004100CDD104994145CADD0028C6D10F997D
:1013600008FB05700091109980B20191514620222E
:10137000C9E705B0BDE8F04F704700002DE9F04F18
:1013800083B09B461378CBB1DDE90C9ADDF8388049
:101390000D4606464FEA5A07541E00BFB0B2DAB2F5
:1013A00029465B46CDE9009ACDF80880FFF7D6FEC6
:1013B000A3783E44002B04F10104EFD103B0BDE853
:1013C000F08F000070B540F20044C4F202040546FC
:1013D000060A20464FF48051FFF72EF83046FFF7FB
:1013E0005BFE0120FEF7AAFF20464FF48051FFF775
:1013F00027F820464FF48051FFF71EF8E8B2FFF7B8
:101400004BFE0120FEF79AFF20464FF48051BDE8C5
:101410007040FFF715B8000070B582B006200121BA
:1014200000F0B8F93C2040F60004009040F20120A2
:10143000C4F20204C0F20010A4F580656E4601906B
:1014400028463146FEF798FF20463146FEF794FFC6
:1014500020462021FEF7F4FF28460421FEF7F0FF86
:1014600020461021FEF7ECFF20460821FEF7E8FF9A
:1014700002B070BD40F23002C2F20002135C8B4237
:1014800008BF7047115440F22001C2F2000100224F
:1014900041F82020704700002DE9F04F81B040F660
:1014A0000004C4F2020440F2300740F2200544F682
:1014B000D35940F21C0B0026C2F20007A4F5806845
:1014C000C2F20005C1F262094FF47A7AC2F2000B4F
:1014D00012E0FEF7B5FF40F20000C2F20000017812
:1014E0009BF8000000290CBF013801308BF8000088
:1014F0000136042E00F0D780B85D0528F8D8DFE863
:1015000000F0034A1C310857F0B2DFE800F096A55E
:101510009BA055F826000130A0FB0912910901FBA0
:101520001A00312845F82600F0B200F2678003283F
:10153000DED8DFE800F0386F5E6A55F8260001302B
:10154000A0FB0912910901FB1A0081087C2945F8CA
:101550002600F0B200F263800328C9D8DFE800F06B
:10156000235A495555F8260048F21F510130C5F25B
:10157000EB11A0FB01125109642201FB120031287A
:1015800045F82600F0B200F251800328B0D8DFE819
:1015900000F00A41303CF0B203283FF6A9AFDFE883
:1015A00000F00239283420462021FEF745FF9FE74E
:1015B00055F8260048F281010130C8F28001A0FBF5
:1015C0000112D1090902A1EBD2119BF80020401AA7
:1015D000904245F82600F0B243D203283FF67BAF95
:1015E000DFE800F002594C5120462021FEF724FF8D
:1015F00071E720461021FEF71FFF79E703283FF629
:1016000077AFDFE800F01A291F2420460821FEF7F3
:1016100013FF6DE740460421FEF70EFF68E703283D
:101620003FF666AFDFE800F009180E1303283FF617
:101630005FAFDFE800F00211070C20462021FEF723
:10164000FFFE55E720461021FEF7FAFE50E7204640
:101650000821FEF7F5FE4BE740460421FEF7F0FEB9
:1016600046E703283FF637AFDFE800F0051A02121D
:10167000204610212DE7204620212AE72046102170
:10168000FEF7DAFE27E720460821FEF7D5FE22E71F
:10169000204608211DE740460421FEF7CDFE1AE74B
:1016A0004046042115E701B0BDE8F08FFEE70000D9
:1016B0007047000010B5C17800294EF20011CEF23B
:1016C00000011CD04EF60C52CEF200021268072325
:1016D00023EA12220F23C2F1040C23FA02FE4278FD
:1016E00084785FFA8CF390F800C09A4004EA0E0305
:1016F0001A43120101EB0C0383F8002300E0803150
:101700000078012300F01F0203FA02F2C0F3421036
:1017100041F8202010BD000040F080604EF60C51D2
:1017200040F0FD70CEF2000108607047000000003C
:10173000EFF30980BFF36F8F154B1A681EF0100F7F
:1017400008BF20ED108A20E9F04F10602DE9090054
:101750004FF0500080F31188BFF34F8FBFF36F8FAE
:1017600001F0EEFB4FF0000080F31188BDE80900A6
:1017700019680868B0E8F04F1EF0100F08BFB0EC11
:10178000108A80F30988BFF36F8F704700BF00BFD6
:10179000B4000020002943F63001C4F202010A68B7
:1017A0000CBF22EA0000104308607047002943F68E
:1017B0004001C4F202010A680CBF22EA0000104393
:1017C00008607047002943F64401C4F202010A6828
:1017D0000CBF22EA000010430860704743F6040C77
:1017E000C4F2020CDCF8043042F20042C0F2F4020F
:1017F000C3F3810310B5DFE803F03E02072141F295
:101800000022C0F27A0236E0DCF800E0DCF80030BA
:10181000DCF8001003F03F03C1F388145FEA4E21A7
:1018200041F20021C0F27A0158BF1146B1FBF3F139
:10183000DCF800206143C2F3014217E0DCF800103D
:10184000DCF80030490241F20021C0F27A01DCF8F4
:10185000004003F03F0358BF1146B1FBF3F1DCF841
:101860000020C4F388146143C2F30272022303EB25
:101870004202B1FBF2F20260DCF8041043F6F642D9
:10188000C1F30311C0F60002515C036823FA01F1B1
:101890004160DCF80430C3F38223D35C21FA03F304
:1018A0008360DCF80430C3F34233D25CD140C160C2
:1018B00010BD00000288002918BF012122F040025B
:1018C00042EA8111018070470089084018BF012059
:1018D00070470000818170472DE9F04102880B8834
:1018E00002F4415C4A88B1F804E043EA0C03CC8876
:1018F0001A430D8942EA0E024E8922438F892A43F8
:10190000B1F80E8032433A4342EA08020280828BE9
:1019100022F400628283098A0182BDE8F08100001E
:10192000074B19680868B0E8F04F80F30988BFF3E7
:101930006F8F4FF0000080F31188704700BF00BF29
:10194000B40000204EF21001CEF200010A68042813
:1019500022F0040208BF04320A60704780B501F02B
:101960005FFF012808BF80BDBDE8804001F0C4BB17
:1019700070B582B001F024F840F23C00C2F20000E1
:101980000224CDE9004041F69940C0F6000014A1C0
:1019900082220023002601F02BFD40F2140541F6BF
:1019A0007160C2F20005C0F600000FA18222002380
:1019B000CDE9004501F01CFD42F6F900C0F600003B
:1019C0000BA182220023CDE9004601F011FD002089
:1019D00001F062F902B0BDE8704001F015B800BF37
:1019E0005461736B310000005461736B320000006E
:1019F000764B65795F526561645461736B000000DA
:101A000082B04EF6885CCEF2000CDCF8002043F683
:101A1000000142F47002C4F20201CCF800200A680E
:101A20004FF6FF7042F001020A6000228A600B68E4
:101A3000CFF6F6601840086043F21000C2F2004092
:101A40004860086820F480200860CA600192009213
:101A5000086840F480300860086800F400300090A6
:101A6000019801300190009818B90198B0F5A04F85
:101A7000F2D10868800354BF002001200090009834
:101A8000012844D1086C47F2000240F08050C4F2B3
:101A900000020864106840F4404010608868886064
:101AA000886840F400408860886840F4A0508860EE
:101AB00045F60820C7F240704860086840F0807022
:101AC000086000BF08688001FCD5106840F48030D1
:101AD000106000BF5068C003FCD5106840F40030AF
:101AE000106000BF50688003FCD540F20570C1F85B
:101AF0000004886820F003008860886840F00200D5
:101B0000886000BF886800F00C000828FAD14FF008
:101B100000604CF8800C02B07047000080B54FF0B8
:101B20008040012100F054F8012818BF80BD4FF01B
:101B30008040012100F03EF8FEF7B6FCBDE8804091
:101B4000FFF7AABC80B584B001200121FFF72EFE6B
:101B50004FF0804000F050F840F2E7310020029151
:101B60005921ADF80C0001918DF80E0001A94FF03C
:101B7000804000F047F84FF08040012100F016F857
:101B80004FF080400121012200F02EF84FF08040FC
:101B9000012100F013F840F21C50C0F20010019037
:101BA00001A8FFF787FD04B080BD0000C943018292
:101BB00070470000C9430182704700000288002975
:101BC00018BF012122F0010211440180704700007A
:101BD000028A80890A4000EA010018BF0122002819
:101BE00018BF012010407047002A82890CBF22EAEA
:101BF0000101114381817047018921F007010181B1
:101C00007047000010B540F6FF32B0F800E0C4F2B3
:101C1000000240F2004C9042C4F2010C0FDCB0F123
:101C2000804F19D040F20042C4F20002904213D01B
:101C300040F60002C4F2000290420DD011E040F6DE
:101C40000042C4F20002904206D0604504D0002257
:101C5000C4F20102904204D14A882EF0700342EA95
:101C6000030E41F2004340F48062C4F200039A4242
:101C700004D00C892EF4407344EA030EA0F800E06F
:101C80004B686245C3620B88038504BF897A01866D
:101C90000121818210BD000084B040F2180640F29C
:101CA00034094FF6FF75C2F2000600274FF01808FE
:101CB000C2F200090FF2881A0FF2941B68A416E012
:101CC000FFF7D8FB1420402155A20023CDE900588E
:101CD0000297FFF753FB3288B42040210223CDE95D
:101CE0000075CDF80880FFF7EDFA376017E030682F
:101CF0000428E7D8DFE800F013647484030099F83F
:101D00000300AB220130C1B25143890A01EB41010A
:101D1000A0EB410089F80300C1B20320D0E71420F2
:101D2000582143A20023CDE900580297FFF726FB74
:101D300099F80020962058210223CDE90075CDF8AE
:101D40000880FFF7BFFA1420702152460023CDE926
:101D500000580297FFF712FB99F801209620702196
:101D60000223CDE90075CDF80880FFF7ABFA142007
:101D700088215A460023CDE900580297FFF7FEFA62
:101D800099F80220962088210223CDE90075CDF82C
:101D90000880FFF797FA1420A02122460023CDE9FE
:101DA00000580297FFF7EAFA99F803209620A0213D
:101DB0000223CDE90075CDF80880FFF783FA96E796
:101DC00099F80000AB220130C1B25143890A01EBFE
:101DD0004101A0EB410089F80000C1B200206FE78B
:101DE00099F80100AB220130C1B25143890A01EBDD
:101DF0004101A0EB410089F80100C1B201205FE779
:101E000099F80200AB220130C1B25143890A01EBBB
:101E10004101A0EB410089F80200C1B202204FE766
:101E20004B65795F4E756D626572203D2000000044
:101E30004C4544315F4D6F6465203D20000000003B
:101E40004C4544325F4D6F6465203D20000000002A
:101E50004C4544335F4D6F6465203D200000000019
:101E60004C4544345F4D6F6465203D200000000008
:101E700082B040F218044FF0FF35C2F2000400BFF8
:101E8000002000214FF0FF322346009501F066FC50
:101E90000A2000F09FFEF3E710B541F20004C4F2FF
:101EA0000104204640F2255100F05EF8012818BFD9
:101EB00010BD204600F0CAF840F24001C2F2000115
:101EC0000A78C0B2012A10D09AB9402832D140F223
:101ED000A600C2F20000007860BB0120087040F24A
:101EE0004100C2F20000002116E00D2816D10220A8
:101EF0001FE00A281ED10020087040F24101C2F202
:101F00000001097840F24202C2F20002505440F24D
:101F1000A600C2F20000012101700BE040F2410175
:101F2000C2F200010A7840F24203C2F20003985460
:101F3000501C0870204640F22551BDE8104000F0CA
:101F400001B80000090A012202FA01F1C943018027
:101F5000704700008289002918BF012122F4005235
:101F600042EA413181817047C1F342121423022AAF
:101F700008BF1023012A08BF0C23C35A008801F0B0
:101F80001F02090A23FA02F2C840104000F00100C3
:101F90007047000070B584B00446008A0D46C988B9
:101FA00020F4405008432082A0894EF6F3110840E7
:101FB000A9882A896B89084310431843A081A08A05
:101FC000A98920F4407008436E46A0823046FFF78E
:101FD00005FC41F2000124F48060C4F201010822F2
:101FE000884208BF0C22B058B4F90C100122B1F19C
:101FF000FF3FC8BF02222B681921484303FA02F1B0
:10200000B0FBF1F048F21F51C5F2EB11A0FB012328
:102010005A096FF0630302FB0300B4F90C30032686
:10202000B3F1FF3FC8BF042600FA06F000F132000A
:10203000A0FB01014FF00700C8BF0F2000EA5110BC
:1020400040EA0210208104B070BD000080886FF368
:102050005F207047FEE7000010B584B00120012129
:10206000FFF798FB0024C4F202042046092107224E
:10207000FEF7C8F920460A210722FEF7C3F94FF4FC
:10208000C060009040F20230019069462046FEF7A1
:1020900073F910200121FFF795FB4FF4E130009018
:1020A00000204FF44021A4F57044ADF80C00CDE9B8
:1020B000010169462046FFF76DFF20460121FFF729
:1020C00049FF40F22550C0F2001000906846FFF72B
:1020D000F1FA04B010BD000070B586B002200121F5
:1020E0000126FFF757FB40F20044C4F202042046E9
:1020F00003210622FEF786F9204604210622FEF778
:1021000081F9204605210622FEF77CF94020019046
:1021100040F20130C0F2001001AD02902046294685
:10212000FEF72AF93820019040F20230C0F2001088
:10213000029020462946FEF71FF920464021012241
:10214000FEF780F94FF400400121FFF72FFB4FF419
:10215000003002904FF0827001904FF4E020CDF8F3
:10216000120040F20020C0F21000A4F5E434CDF8D3
:102170000E0001A92046ADF80C60FFF7ADFB20462C
:102180000121FFF797FB06B070BD0000FFF7A4BF69
:1021900082B0FEF773F8FFF75FFFFFF7F7FFFFF777
:1021A000D1FCFFF739F9FEF755F9FEF715FB4FF4AF
:1021B0004070FFF7B1FA4FF6FF7C00200021F022BB
:1021C0004FF4A073CDF800C0FEF7DEFA40F2380CF1
:1021D00041F67110C2F2000C4FF0020EC0F6000082
:1021E00005A1B4220023CDE900EC01F001F900F0D3
:1021F00051FE00BFFEE700BF53797374656D4372F3
:102200006561745461736B00F0B581B00D4643F2A3
:10221000600140F2B406C2F20101C2F200060F688A
:1022200031680446081D00F055FB10B1601C0FD04A
:1022300027E0306842F66472C06AC2F201020121EE
:10224000136801FA00F023EA00001060601C18D146
:10225000BDB143F23800C2F20100416832689160BA
:102260008A683368DA6032688B6804325A60326890
:1022700004328A603168486101680131016001B04F
:10228000F0BD3068E41944600BD340F2C400C2F2E0
:10229000000000683168043101B0BDE8F04000F092
:1022A00059BB40F2BC00C2F2000000683168043142
:1022B00000F050FB42F6C470C2F2010001688C428B
:1022C00038BF046001B0F0BD70B500F079FB43F297
:1022D0006406C2F20106306818B1BDE8704000F033
:1022E00093BB42F66874C2F20104204600F022FB60
:1022F00042F67C75C2F20105284600F01BFB40F255
:10230000B800C2F20000046040F2C800C2F200004F
:10231000056005200C21002200F006FF0028306037
:10232000DBD003A100F004FCBDE8704000F06CBB02
:10233000546D72510000000042F6587540F2CC0A0C
:102340004EF6045843F24C0742F65476C2F20105A9
:10235000C2F2000ACEF200084FF08059C2F2010723
:10236000C2F2010615E000BF00F02AFBF868C4685D
:10237000201D00F0AFFA306801383060286801385D
:10238000286000F041FB206B00F056FB204600F077
:1023900053FB28680028E7D1DAF800000228F8D3B8
:1023A000C8F80090BFF34F8FBFF36F8FF1E70000C5
:1023B00008480068006880F308884FF0000080F348
:1023C000148862B661B6BFF34F8FBFF36F8F00DF23
:1023D00000BF000008ED00E02DE9F04381B040F2BD
:1023E000B808C2F20008D8F800200546D2680E46A8
:1023F000D46804F10409484600F06CFA94F8280007
:1024000041070CD400F0FA0084F828001CE000BF5B
:10241000711B814210D3216A204688473D46A0693E
:1024200024614719B7426760F2D9AE4201D2AF4288
:10243000F1D2D8F8000004E040F2C800C2F2000077
:102440000068494600F086FA216A204601B0BDE8DE
:10245000F043084781B00020009040F20800C2F22B
:10246000000000684FF0500181F31188BFF36F8FB7
:10247000BFF34F8F013001D0FEE700BF0098002866
:10248000FCD001B07047000084B040F2B80440F2C4
:10249000B00940F2C80A43F2640BC2F20004C2F26F
:1024A0000009C2F2000AC2F2010B0DF1040800BFDC
:1024B0002068076817B1C068066800E0002600F0D1
:1024C00037FD01F0C1F9D9F800100546884209D25C
:1024D0002068016891B1C0684FF0FF310068FFF7D4
:1024E0007BFFF5E7C9F8005097B1AE4210D801F074
:1024F00003FB30462946FFF76FFF29E0DAF80010AA
:10250000CAF800002160C9F8005001F0F5FA1FE098
:102510000FB1002205E0DAF800000068B0FA80F0A0
:102520004209DBF80000711B00F030FB01F0E4FA17
:1025300070B94EF60450CEF200004FF080510160A9
:10254000BFF34F8FBFF36F8F02E0206800F002FAF5
:10255000DBF800004146002200F030FE0028A7D042
:1025600001980028F4D4039D686910B1281D00F07B
:10257000B1F901F069F9D9F80010064688420ED287
:102580002068016831B1C0684FF0FF310068FFF783
:1025900023FFF5E7DAF80010CAF80000216001987F
:1025A000C9F8006001380828D2D8DFE800F0050536
:1025B0003A236205053A230095F82800029BAA6990
:1025C00040F0010185F82810D718294641F8047F0A
:1025D000B7422D6104D99E42B7D29F4203D2B4E7DD
:1025E000F31A934218D3430722D400F0FA0085F877
:1025F000280052E095F8280040F00101029885F883
:1026000028100028A8614CD03044294641F8040F16
:10261000B0422D613FF699AFDAF8000000F09AF968
:1026200096E795F8280000F0FE0085F828008FE76F
:102630000298D946C346D0460F46104407E000BF73
:10264000301A88421DD3296A284688475046A9690E
:102650002D6101EB000AB245C5F804A0F0D986420D
:1026600001D28245EFD22068394600F073F9C246A4
:102670000DE095F828008107D5D4284600F0DCF954
:1026800066E7D8F800003946C24600F063F9D8463C
:10269000CB4640F2B009C2F20009296A28468847B1
:1026A00056E74FF0500080F31188BFF36F8FBFF3F0
:1026B0004F8F00BFFEE70000F0B581B0044600F088
:1026C0007FF994F94560012E0FDB04F1240500BF6A
:1026D000286850B1284601F09BF9002818BF00F087
:1026E0007BFB70B2013E0128F2DCFF2684F84560D6
:1026F00000F08AF900F064F994F94470012F0EDBC0
:1027000004F11005286850B1284601F081F900282D
:1027100018BF00F061FB78B2013F0128F2DC84F8B9
:10272000446001B0BDE8F04000F06EB970B50446F9
:1027300000F0FEFB40F2C001C2F20001086842F660
:10274000B87EC2F2010E58B184B304F0070011380C
:10275000A04226BF24F0070000F11003002326E06A
:1027600040F24C30C2F20000C21D430700F5963320
:1027700018BF22F0070043F23002C2F20102002625
:10278000C2E9000623F00702A2F108030B6042E948
:1027900002661A1A0B68CEF80020C0E9003242F631
:1027A000C070C2F201000260002CCED10023012BC8
:1027B0004FF000046CDBDEF80000834268D843F27F
:1027C0003002C2F2010215686C689C4207D200BF59
:1027D000286820B144682A4605469C42F8D3086818
:1027E000854212D0D2F800C02E68E01A1128166077
:1027F00031D3EC1862070AD04FF0500080F31188F3
:10280000BFF36F8FBFF34F8FFEE7002440E060609F
:102810006B6043F23003C2F2010300BF1A461B682B
:10282000A342FBD350681618A64203D16468204423
:10283000144650606668A019984201D0184606E018
:102840000868834203D0D3E9000131446160A242A9
:10285000206018BF146042F6C0706968DEF800207E
:10286000C2F201000368511A9942CEF8001038BF35
:10287000016042F6CC726868C2F20102136840F04F
:10288000004000210CF10804C5E90010581C10603C
:1028900001F032F9600708D04FF0500080F3118842
:1028A000BFF36F8FBFF34F8FFEE7204670BD000070
:1028B000034642F2554021F00101C0F600004FF0FE
:1028C000807C03E903106FF00201A3F1440043E9A7
:1028D00009127047D0E9013201699A60D1F804C049
:1028E00082688445536008BF4A600022026108681C
:1028F000013808600868704782B040F2130440F263
:102900001405C2F20004C2F20005002603E000BF75
:102910000A2000F05FF92278002A14BF26700022F6
:10292000002AF5D0286800210323009600F05EFEFF
:10293000EEE700004FF0FF31024642F8081F002189
:102940004260C0E90322016070470000002101617C
:102950007047000080B5D1F800C01CF1010207D01B
:1029600000F108039E465B681A686245FAD901E0E7
:10297000D0F810E0DEF8042008614A609160C1F8E8
:1029800008E0CEF8041001680131016080BD00004C
:10299000D0F800C0436808619A684B608A609A6802
:1029A000996051600CF1010101607047DFF80C0083
:1029B000016841F4700101607047000088ED00E09B
:1029C0004FF0500080F31188BFF36F8FBFF34F8F2C
:1029D00040F20800C2F2000001684A1C026001B126
:1029E00070474EF60450CEF200000068000608BFA3
:1029F00070474FF0500080F31188BFF36F8FBFF323
:102A00004F8F00BFFEE7000040F20800C2F2000056
:102A1000016839B10139016018BF7047002080F3A7
:102A2000118870474FF0500080F31188BFF36F8F0B
:102A3000BFF34F8FFEE70000B0B5002808BFB0BD60
:102A400050F8041C002908D44FF0500080F311887E
:102A5000BFF36F8FBFF34F8FFEE7A0F1080422682A
:102A60004AB14FF0500080F31188BFF36F8FBFF36E
:102A70004F8F00BFFEE721F0004140F8041C0546DF
:102A800000F056FA42F6B871C2F2010155F8040C92
:102A90000B682A461844086043F23001C2F2010173
:102AA00008460968A142FBD34368C518A54204D172
:102AB00052F8042C04461A4442606368E2188A42C1
:102AC00001D00A460AE040F2C002C2F200021268D7
:102AD000914203D0D1E9002119446160A0422260F3
:102AE00018BF046042F6D070C2F2010001680131E3
:102AF0000160BDE8B04000F0FFBF00004EF21000E2
:102B0000CEF2000000210160816040F20401C2F2B7
:102B10000001096844F6D352C1F26202A1FB02121D
:102B20004FF0FF3101EB92114160072101607047C6
:102B3000B0B5C8B14FF0000CF9B142F6EC7EC2F26C
:102B4000010E0023002202E00833402B18D00EEBC8
:102B500003046568854212D0002AF5D12268002A54
:102B600018BF64462246EFE74FF0500080F311880B
:102B7000BFF36F8FBFF34F8FFEE7002200E02246C6
:102B8000002A18BFC2E90010B0BD000070B515469C
:102B90000E460446FFF714FF94F84400FF2804BFD4
:102BA000002084F8440094F84500FF2804BF00206A
:102BB00084F84500FFF728FFA06B28B904F1240032
:102BC00031462A4600F02CF92046BDE87040FFF758
:102BD00073BD000070B5002852D042F65C71C2F29D
:102BE00001010A684AB14FF0500080F31188BFF329
:102BF0006F8FBFF34F8F00BFFEE70546086840F2B6
:102C0000B4040130086043F26000C2F20100C2F275
:102C10000004066820680430FFF75CFE60B9206895
:102C200042F66472C06AC2F201020121136801FA1D
:102C300000F023EA000010602068AD19456009D358
:102C400040F2C400C2F20000006821680431FFF7BE
:102C500081FE10E040F2BC00C2F200000068216872
:102C60000431FFF777FE42F6C470C2F2010001683A
:102C70008D4238BF056000F03FFF002818BF70BDCF
:102C80004EF60450CEF200004FF080510160BFF3C9
:102C90004F8FBFF36F8F70BD70B50446FFF790FE86
:102CA00040F2B406002CC2F2000608BF3468251DAD
:102CB0002846FFF70FFEA0B9E06A40F2CC0200EB15
:102CC0008001C2F2000252F8211051B942F664723A
:102CD000C2F201020121136801FA00F023EA0000A8
:102CE0001060A06A18B104F11800FFF7F3FD42F676
:102CF0006070C2F2010001680131016030688442F5
:102D000016D042F65470C2F2010001680139016028
:102D100040F2BC00C2F2000001680968B1B100686D
:102D200042F6C471C068C2F201010068086014E094
:102D300043F24C00C2F201002946FFF729FE42F699
:102D40005870C2F201000168013105E042F6C4701A
:102D5000C2F201004FF0FF310160FFF755FE30680D
:102D6000844205D0206BFFF767FE2046FFF764FE24
:102D700043F22C00C2F201000068E8B130688442DE
:102D800018BF70BD42F65C70C2F20100006840B12D
:102D90004FF0500080F31188BFF36F8FBFF34F8F58
:102DA000FEE74EF60450CEF200004FF08051016075
:102DB000BFF34F8FBFF36F8F70BD000042F6C87135
:102DC000C2F201010968016043F26001C2F201012F
:102DD000096841607047000043F26C00C2F20100D4
:102DE000012101607047000078B110B50C4640F237
:102DF000B401C2F2000109681831FFF7ABFD2046AB
:102E00000121BDE81040FFF7FFB94FF0500080F3FB
:102E10001188BFF36F8FBFF34F8F00BFFEE7000035
:102E200068B310B540F2B40CC2F2000CD0F804E064
:102E3000DCF80030002AC3F81CE0DEF80830DCF8CB
:102E400000402362DCF80030DEF8084003F118038C
:102E50006360DCF80030044603F11803CEF8083054
:102E6000DCF800309862036818BF4FF0FF3101337F
:102E7000084611462360BDE81040FFF7C5B94FF082
:102E8000500080F31188BFF36F8FBFF34F8F00BFE7
:102E9000FEE7000080B582B042F6BC7C42F23930D9
:102EA000C2F2010C4FF0000EC0F600001EA1782205
:102EB0000023CDE900EC00F09BFA012808BF00F0E8
:102EC000DBFE411C25D001281CD14FF0500080F3BF
:102ED0001188BFF36F8FBFF34F8F42F6C470C2F2F9
:102EE00001004FF0FF31016043F22C00C2F20100FB
:102EF0000121016043F26000C2F201000021016083
:102F000000F062F847F2FC00C0F60000006802B072
:102F100080BD4FF0500080F31188BFF36F8FBFF377
:102F20004F8F00BFFEE700BF49444C450000000042
:102F300042F65C70C2F20100016801310160704725
:102F400042F65C70C2F20100006830B143F26C00DE
:102F5000C2F2010001210160704743F26C00C2F22D
:102F600001000021016042F66470C2F201000068B5
:102F7000B0FA80F0C0B2C0F11F0040F2CC0100EB0B
:102F80008000C2F2000151F8202092B101EB8000D4
:102F9000416800F1080249689142416001D14968E5
:102FA0004160406840F2B401C068C2F200010860AC
:102FB00070474FF0500080F31188BFF36F8FBFF35D
:102FC0004F8F00BFFEE70000B0B584B04EF2004066
:102FD000CEF200004CF27021C4F20F11D0F800299B
:102FE0004B1C9A4209D14FF0500080F31188BFF377
:102FF0006F8FBFF34F8F00BFFEE7D0F800298A42E2
:1030000009D14FF0500080F31188BFF36F8FBFF3E9
:103010004F8F00BFFEE7017842F64C720291FF210C
:1030200001700178C2F201028DF807109DF80710B7
:1030300001F05001117042F65071C2F201010722F5
:103040000A609DF90720B2F1FF3F0CDC062200BFA9
:103050000A609DF80730013A5B008DF807309DF952
:103060000730002BF4D40A68032A3BD14FF4407296
:103070000A6002990170D0F8201941F47001C0F87B
:103080002019D0F8201941F07041C0F82019FFF73D
:1030900035FD40F20804C2F2000400252560FFF768
:1030A00085FC4EF63470CEF20000016841F04041DC
:1030B0000160FFF77DF9FFF743FF039520684FF0AC
:1030C000500181F31188BFF36F8FBFF34F8F013031
:1030D00002D000BFFEE700BF03980028FCD000200C
:1030E00004B0B0BD4FF0500080F31188BFF36F8F74
:1030F000BFF34F8FFEE7000080B54FF0500080F324
:103100001188BFF36F8FBFF34F8F00F0A3FB30B177
:103110004EF60450CEF200004FF0805101600020C6
:1031200080F3118880BD0000F0B581B0E0B3A0FB52
:103130000137CFBB01FB00F313F1510F34D8064622
:1031400003F150000F461546FFF7F0FA4FF0000468
:1031500038B30146002F18BF50310160C0E90F6736
:103160000646FFF72DFC3068D6E90F12B46302FB68
:103170000103013901FB0201C6E90103FF20F160EF
:1031800086F8440086F8450006F11000FFF7D2FBF0
:1031900006F12400FFF7CEFBFFF736FC344686F835
:1031A0004C50204601B0F0BD4FF0500080F3118824
:1031B000BFF36F8FBFF34F8FFEE700002DE9F04F95
:1031C00085B0049298B10C460546002900F0B780FE
:1031D00000F026FBA8B9049898B14FF0500080F396
:1031E0001188BFF36F8FBFF34F8F00BFFEE74FF023
:1031F000500080F31188BFF36F8FBFF34F8F00BF74
:10320000FEE705F11000019005F1240000900DF19A
:1032100008090DF1100A4FF000080CE02846FFF7EE
:103220004BFA00F069FCFFF7CBFBAF6BFFF7ECFB51
:10323000002F00F09280FFF7C3FBD5F838B0BBF148
:10324000000F27D02A6C5AB1D5E902011144E96078
:10325000814224BF2868E860E9682046FCF7CEFF79
:10326000ABF10100A863286970B1019800F0D0FBB0
:1032700050B14EF60450CEF200004FF08051016084
:10328000BFF34F8FBFF36F8FFFF7BEFB0020012608
:10329000A0B963E0049850B1B8F1000F02D14846DC
:1032A000FFF78CFD4FF00108012038B956E0FFF719
:1032B000ABFB00260020002850D000BFFFF7A4FB86
:1032C000FFF736FEFFF77CFB95F84400FF2804BFAC
:1032D000002085F8440095F84500FF2804BF002031
:1032E00085F84500FFF790FB4846514600F03AF854
:1032F00000287FF493AFFFF763FBAF6BFFF784FB0E
:103300002FB12846FFF7D8F900F0F6FB93E70499B0
:103310000098FFF769FD2846FFF7CEF900F0ECFBB7
:1033200000287FF488AF4EF60450CEF200004FF034
:1033300080510160BFF34F8FBFF36F8F7BE7286C25
:1033400000283FF445AF4FF0500080F31188BFF3E1
:103350006F8FBFF34F8F00BFFEE70026304605B0EA
:10336000BDE8F08F70B538B30C4671B30546FFF772
:1033700027FB43F2600EC2F2010EDEF80030226835
:10338000501C30D042F6C87CC2F2010C2946D5E967
:103390000050DCF80060AE4201D083421FD2181A00
:1033A00082421CD9101A2060DCF80000002408605A
:1033B000DEF80000486017E04FF0500080F31188FD
:1033C000BFF36F8FBFF34F8FFEE74FF0500080F3D6
:1033D0001188BFF36F8FBFF34F8F00BFFEE7002050
:1033E0002060012400E00024FFF70EFB204670BDA2
:1033F0002DE9F04F81B097008146384698469246B5
:103400000E46FFF793F990B105465820FFF78EF965
:1034100050B158210446FCF70AFF256354B94FF018
:10342000FF3001B0BDE8F08F2846FFF705FB002410
:10343000002CF4D0206B0A9D3946A522FCF7F0FE43
:10344000206B76B104F13401002200BFB35C8B54D1
:10345000B35C1BB1092A02F10102F7D1002184F803
:103460003D10202D09D34FF0500080F31188BFF399
:103470006F8FBFF34F8F00BFFEE700EB8A00043869
:1034800004F1040B20F007060B9F5846E562A56483
:10349000FFF75CFA04F11800FFF758FAC5F12000B5
:1034A000A06130464946424624616462FFF700FA53
:1034B000002F206018BF3C60FFF782FA42F654707C
:1034C000C2F20100016840F2B40601310160C2F2AB
:1034D0000006316843F22C0A40F2CC07C2F2010A1E
:1034E000C2F2000751B1DAF8000000283FD130687D
:1034F000E16AC06A884298BF346038E0346000688E
:10350000012834D1002500BF7819FFF713FA1435CC
:10351000B5F5207FF8D142F69078C2F20108404616
:10352000FFF708FA42F6A479C2F201094846FFF70C
:1035300001FA42F6D870C2F20100FFF7FBF943F23C
:103540004C00C2F20100FFF7F5F943F23800C2F275
:103550000100FFF7EFF940F2BC00C2F20000C0F832
:10356000008040F2C400C2F20000C0F8009042F6B1
:103570006070C2F20100016842F6647201310160BC
:103580002164E06AC2F201020121136881401943FB
:1035900000EB8000116007EB80014A68616193686D
:1035A000A260E3609368C2F808B0C3F804B057F8AB
:1035B0002010013147F82010FFF726FADAF8000052
:1035C00078B13068E16AC06A88420AD24EF6045087
:1035D000CEF200004FF080510160BFF34F8FBFF378
:1035E0006F8F012001B0BDE8F08F00002DE9F041A0
:1035F00049B14FF0500080F31188BFF36F8FBFF3D4
:103600004F8F00BFFEE738B3DDF818801D46144623
:1036100007460E46FFF7D4F932463846B8F1000F98
:1036200004D000EB8201096DC8F80010831893F8EC
:1036300054100227042D83F8547000F2768023463C
:103640004FF00108DFE805F020031B18110000EB24
:103650008202176D3B4316E04FF0500080F3118853
:10366000BFF36F8FBFF34F8FFEE7022904D14FF0F6
:10367000000801290AD06CE000EB820203E000EBB5
:103680008202136D01331365012962D1D0E90273FF
:103690004269BB605668C368011D8E425F6008BF07
:1036A0005360136842F66476013B1360D0E90AC2A6
:1036B000C2F201060127356897402F43376040F278
:1036C000CC0602EB8207C2F2000606EB87056C68A7
:1036D0004561A3688460C360A368A160596056F81F
:1036E0002700BCF1000F00F1010046F8270008D0C8
:1036F0004FF0500080F31188BFF36F8FBFF34F8FEF
:10370000FEE740F2B400C2F200000068C06A8242E4
:103710001FD94EF60450CEF200004FF080510160E8
:10372000BFF34F8FBFF36F8F13E043F26002C2F21B
:10373000010212684AB14FF0500080F31188BFF3C4
:103740006F8FBFF34F8F00BFFEE74FF001080129D5
:103750009CD0FFF759F94046BDE8F08148B14FF0E1
:10376000500080F31188BFF36F8FBFF34F8F00BFFE
:10377000FEE72DE9F0411E46154604460F46FFF7C9
:103780001FF940F2B408C2F20008D8F80000204443
:1037900090F8540002281CD0D8F80000012200EB59
:1037A0008400016DB9430165D8F8001006982144E2
:1037B00081F8542068B10121FEF726FD4EF6045031
:1037C000CEF200004FF080510160BFF34F8FBFF386
:1037D0006F8FFFF719F9FFF7F3F82EB1D8F8000053
:1037E00000EB8400006D3060D8F800000026204413
:1037F00090F854100020022907D1D8F800100126B3
:1038000001EB84010A6DAA430A65D8F8001021442F
:1038100081F85400FFF7F8F83046BDE8F081000069
:1038200043F22C00C2F201000068002804BF01200E
:10383000704742F65C70C2F201000068B0FA80F096
:10384000400940007047000043F26000C2F20100EE
:10385000006870472DE9F04F42F65C70C2F201003B
:10386000006848B142F6D470C2F20100016801312B
:1038700001600020BDE8F08F43F26000C2F2010059
:10388000016811F1010EC0F800E02DD340F2BC0038
:10389000C2F20000026812684AB14FF0500080F393
:1038A0001188BFF36F8FBFF34F8F00BFFEE740F269
:1038B000C403C2F2000302681F6807601A6042F680
:1038C000C872C2F201021368013313600268126801
:1038D0001AB10068C068006801E04FF0FF3042F69E
:1038E000C472C2F20102106042F6C471C2F2010158
:1038F000086840F2CC088645C2F2000801D20020D8
:103900006EE040F2BC0AC2F2000ADAF800004FF0A2
:1039100000090068002858D042F6647BC2F2010B0F
:10392000002025E0F96ADBF8002001238B401A43D0
:10393000CBF8002001EB810208EB82035E687B611B
:10394000B468BE60FC60B468B560656058F8223049
:10395000013348F8223040F2B402C2F20002126889
:10396000D26ADAF80030914288BF0120196881B329
:10397000DAF80030DB68DF683D4655F8044FA645AD
:1039800029D3D7E902637C69B360D4F804C0FB682B
:10399000AC455E6008BF6360C7F814902368013BC4
:1039A0002360BC6A002CBDD0D7E907636268B360AE
:1039B0003B6A07F118018A425E6008BF6360C7F87E
:1039C0002890216801392160ACE74FF0FF340020D6
:1039D00005E04FF0FF3442F6C471C2F201010C6001
:1039E00040F2B401C2F200010968C96A01EB810129
:1039F00058F82110012943F26C01C2F2010188BF7D
:103A000001200968002918BF0120BDE8F08F0000DF
:103A1000C068C06810B310B5D0E90713826A8B6024
:103A2000036AD2F804E000F1180C59600021E64561
:103A300008BF5360816211680139116042F65C7100
:103A4000C2F20101096891B142F6D872C2F20102D4
:103A5000516882628B68C161036231E04FF05000AF
:103A600080F31188BFF36F8FBFF34F8FFEE7D0E96C
:103A7000021342698B60D2F804E0C36800F1040CC1
:103A8000E645596008BF5360116842F66474013915
:103A90001160C16AC2F201044FF0010E22680EFAF1
:103AA00001F31A43226040F2CC0201EB8101C2F221
:103AB000000202EB8102516842618B688160C36041
:103AC0008B68C1F808C0C3F804C0116801311160E7
:103AD00040F2B401C2F20001C06A0968C96A8842B2
:103AE000BDE8104091BF002043F26C01C2F2010119
:103AF000012088BF086070472DE9F04F81B042F681
:103B00005C74C2F20104206868B1FEF759FF2068B6
:103B100001382060206880B10024FEF775FF204640
:103B200001B0BDE8F08F4FF0500080F31188BFF373
:103B30006F8FBFF34F8F00BFFEE742F65470C2F2A3
:103B4000010000680028E7D042F6D87AC2F2010AE4
:103B5000DAF8001043F26C080029C2F2010868D0BC
:103B600042F6647B40F2CC0440F2B40E4FF0000CFD
:103B70004FF00109C2F2010BC2F20004C2F2000EC2
:103B8000DAF80C10CE68D6E90721B76A9160786838
:103B9000316A06F11805A8424A6008BF7960C6F884
:103BA00028C0386801383860D6E90202716982603D
:103BB0004A68F568371DBA42686008BF4D600868FA
:103BC00001380860F06ADBF8001009FA00F21143CE
:103BD000CBF8001000EB800104EB810255687261A4
:103BE000AB68B560F360AB68AF605F6054F82120EC
:103BF000013244F82120DEF80010C96A884228BF4B
:103C0000C8F80090DAF800000028B9D18EB140F26F
:103C1000BC00C2F200000168096819B10068C06800
:103C2000006801E04FF0FF3042F6C471C2F20101BA
:103C3000086042F6D474C2F20104256855B1012629
:103C4000FFF708FE002818BFC8F80060013DF7D153
:103C500000202060D8F8000000283FF45DAF4EF649
:103C60000450CEF200004FF080510160BFF34F8F3F
:103C70000124BFF36F8F50E780B582B0FEF724FBBD
:103C800043F26400C2F20100006888B143F2680C9C
:103C900042F28940C2F2010C4FF01F0EC0F6000044
:103CA0000BA1F0220023CDE900ECFFF7A1FB00E01F
:103CB000002000281CBF02B080BD4FF0500080F3F0
:103CC0001188BFF36F8FBFF34F8F00BFFEE700BFB8
:103CD000546D72205376630002E008C8121F08C1B9
:103CE000002AFAD170477047002001E001C1121F7D
:103CF000002AFBD17047000000000102030401020A
:103D0000030406070809000000000000000000008E
:103D10000000000004040404040000040000141463
:103D20000A00000000000000000000000A0A1F0A4C
:103D30000A1F0A0A000000040E1505060C14150ED1
:103D40000400000012150D152E2C2A120000000090
:103D5000040A0A36151529160000020201000000A7
:103D6000000000000000100808040404040408080F
:103D700010000204040808080808040402000000F7
:103D80000004150E0E150400000000000008083E97
:103D9000080800000000000000000000000002020F
:103DA000010000000000003F0000000000000000D3
:103DB00000000000000000020000002010100808B1
:103DC00004040202010000000E1111111111110E64
:103DD00000000000040604040404040E00000000B7
:103DE0000E1111080402011F000000000E11100C3A
:103DF0001010110E00000000080C0C0A091F081C0E
:103E0000000000001F01010F1110110E0000000042
:103E10000C12010D1311110E000000001E100808F5
:103E200004040404000000000E11110E1111110E03
:103E3000000000000E111119161009060000000004
:103E40000000040000000004000000000000000466
:103E5000000000040400000010080402020408101E
:103E60000000000000003F003F00000000000000D4
:103E70000204081010080402000000000E111108CE
:103E800004040004000000001C22292D2D1D221C0A
:103E90000000000004040C0A0A1E12330000000097
:103EA0000F12120E1212120F000000001E1101015B
:103EB0000101110E000000000F1212121212120F57
:103EC000000000001F120A0E0A02121F000000006C
:103ED0001F120A0E0A020207000000001C12010154
:103EE0003911120C000000003312121E121212338C
:103EF000000000001F0404040404041F000000006C
:103F00003E080808080808080907000037120A06D2
:103F10000A12123700000000070202020202223FCA
:103F2000000000003B1B1B1B151515350000000091
:103F30003B1216161A1A1217000000000E1111116A
:103F40001111110E000000000F12120E02020207E2
:103F5000000000000E1111111117190E18000000B9
:103F60000F12120E0A121237000000001E11010675
:103F70000810110F000000001F1504040404040EB3
:103F800000000000331212121212120C0000000086
:103F90003312120A0A0C040400000000151515154E
:103FA0000E0A0A0A000000001B0A0A04040A0A1B7F
:103FB000000000001B0A0A0A0404040E00000000AE
:103FC0001F0908040402121F00001C040404040456
:103FD000040404041C00000202040404080808107D
:103FE00010000E0808080808080808080E00040A4F
:103FF00000000000000000000000000000000000C1
:1040000000000000003F020400000000000000006B
:10401000000000000000000C121C123C0000000315
:104020000202020E1212120E000000000000001C1C
:104030001202120C000000181010101C1212123C78
:10404000000000000000000C121E021C00000018FE
:104050002404041E0404041E000000000000003CB0
:10406000120C021C221C00030202020E1212123752
:1040700000000004040000060404040E0000000810
:104080000800000C08080808080700030202021ACA
:104090000A060A1300000007040404040404041FB1
:1040A000000000000000000F1515151500000000AD
:1040B0000000000F12121237000000000000000C78
:1040C0001212120C000000000000000F1212120E5B
:1040D000020700000000001C1212121C1038000021
:1040E0000000001B06020207000000000000001E86
:1040F000020C101E000000000004041E0404041C36
:10410000000000000000001B1212123C0000000022
:104110000000001B0A0A0404000000000000001553
:10412000150E0A0A000000000000001B0A040A1B0A
:10413000000000000000003312120C08040300000D
:104140000000001E0804041E000018080808080CDF
:1041500008080808180008080808080808080808D7
:1041600008080604040404080404040406001609EC
:10417000000000000000000000000000000000003F
:104180000000000000000000000000000008080817
:104190000808080800001818000000486C241200E5
:1041A00000000000000000000000000000242424A3
:1041B0007F1212127F12121200000000081C2A2A1D
:1041C0000A0C1828282A2A1C080800000022251595
:1041D00015152A585454542200000000000C1212E5
:1041E000120A76252911916E0000000606040300CC
:1041F0000000000000000000000000402010100837
:1042000008080808081010204000000204080810E0
:104210001010101010080804020000000000080828
:104220006B1C1C6B08080000000000000000080860
:1042300008087F08080808000000000000000000CF
:10424000000000000000060604030000000000005B
:104250000000FE0000000000000000000000000060
:104260000000000000000606000000008040402022
:104270002010100808040402020000000018244264
:1042800042424242424224180000000000080E0848
:10429000080808080808083E00000000003C4242E8
:1042A000422020100804427E00000000003C4242F0
:1042B000201820404042221C00000000002030282E
:1042C000242422227E20207800000000007E0202AA
:1042D000021A26404042221C00000000003824023E
:1042E000021A26424242241800000000007E2222C8
:1042F000101008080808080800000000003C4242AE
:10430000422418244242423C00000000001824428B
:10431000424264584040241C00000000000000009D
:10432000181800000000181800000000000000002D
:1043300000080000000000080804000000402010F1
:1043400008040204081020400000000000000000E3
:104350007F0000007F000000000000000002040851
:10436000102040201008040200000000003C4242DF
:10437000464020101000181800000000001C225AAF
:10438000555555552D42221C000000000008081804
:104390001414243C224242E700000000001F2222A5
:1043A000221E22424242221F00000000007C4242A4
:1043B000010101010142221C00000000001F2242F5
:1043C000424242424242221F00000000003F42128D
:1043D000121E12120242423F00000000003F421231
:1043E000121E12120202020700000000003C2222EC
:1043F000010101712122221C0000000000E742425D
:1044000042427E42424242E700000000003E08086D
:10441000080808080808083E00000000007C10108A
:104420001010101010101010110F00000077221241
:104430000A0E0A1212222277000000000007020270
:10444000020202020202427F0000000000773636BC
:1044500036362A2A2A2A2A6B0000000000E3464644
:104460004A4A52525262624700000000001C224138
:10447000414141414141221C00000000003F4242B5
:1044800042423E020202020700000000001C2241DC
:10449000414141414D53321C60000000003F424207
:1044A000423E1212222242C700000000007C42421B
:1044B000020418204042423E00000000007F4908EC
:1044C000080808080808081C0000000000E742422D
:1044D000424242424242423C0000000000E7424267
:1044E000222424141418080800000000006B494915
:1044F00049495555362222220000000000E7422497
:1045000024181818242442E7000000000077222213
:10451000141408080808081C00000000007E212070
:10452000101008040442423F000000780808080800
:1045300008080808080808087800000002020404B7
:1045400008080810102020204040001E10101010F5
:1045500010101010101010101E0000384400000041
:10456000000000000000000000000000000000004B
:10457000000000000000000000FF0006080000002E
:10458000000000000000000000000000000000002B
:10459000003C4278444242FC00000000000302025A
:1045A000021A26424242261A0000000000000000C3
:1045B000003844020202443800000000006040401D
:1045C00040784442424264D80000000000000000ED
:1045D000003C427E0202423C0000000000F08808DD
:1045E000087E08080808083E0000000000000000DF
:1045F000007C22221C023C42423C000000030202DA
:10460000023A4642424242E700000000000C0C0021
:10461000000E08080808083E0000000000303000C6
:104620000038202020202020221E0000000302024B
:104630000272120A1612227700000000000E08080B
:10464000080808080808083E0000000000000000F4
:10465000007F9292929292B700000000000000004A
:10466000003B4642424242E70000000000000000DA
:10467000003C42424242423C000000000000000078
:10468000001B26424242221E0207000000000000DA
:10469000007844424242447840E0000000000000BC
:1046A00000774C040404041F000000000000000018
:1046B000007C42023C40423E000000000000000836
:1046C000083E08080808083000000000000000004C
:1046D00000634242424262DC000000000000000031
:1046E00000E7422424140808000000000000000035
:1046F00000EB49495555222200000000000000004F
:10470000007624181818246E000000000000000035
:1047100000E74224241418080807000000000000E5
:10472000007E22100808447E000000C020202020C7
:104730002010202020202020C00010101010101069
:1047400010101010101010101010000608080808A3
:10475000081008080808080806000C32C20000000B
:104760000000000000000000000000000000000049
:104770000000000000000000000000000000000039
:104780000000000000000000000000000000000029
:104790000000000000000000000000000000000019
:1047A0000000600060006000600060006000600069
:1047B00040002000200020000000000000006000F9
:1047C00060006000000000000000000000006006C3
:1047D00060063003980188004400000000000000DB
:1047E00000000000000000000000000000000000C9
:1047F00000000000000000000000000000000000B9
:1048000000001002100210021002FE07FE0708024C
:104810000801080108010801FE07FE070401040160
:10482000040104010000000000000000000000007E
:1048300040004000F00158034C03CC034C005800EA
:104840007000E000C001C00140034C035C034C0356
:104850004801F0004000400000000000000000009F
:1048600000000E010A0191009100910051005100D9
:104870003A00AE03A002500450044804480448041F
:10488000840284030000000000000000000000001B
:10489000000038006C006C006C006C006C002C0098
:1048A00098071C011A01330133016301E300C308B7
:1048B000C6093C07000000000000000000000C00DA
:1048C0001C001000100008000400000000000000A0
:1048D00000000000000000000000000000000000D8
:1048E00000000000000000000000000000000004C4
:1048F00000020001800080004000400020002000F5
:104900002000200020002000200040004000800007
:10491000800000010002000400000000000002000E
:10492000040008001000100020002000400040009B
:1049300040004000400040004000200020001000E7
:104940001000080004000200000000000000000049
:104950000000000000004000C0004000460C4E0F68
:10496000D001F0015E0F460C400040004000000006
:104970000000000000000000000000000000000037
:104980000000000000000000400040004000400027
:104990004000FE0F4000400040004000400000008A
:1049A0000000000000000000000000000000000007
:1049B00000000000000000000000000000000000F7
:1049C00000000000000000000000000000000C00DB
:1049D0001C0010001000080004000000000000008F
:1049E00000000000000000000000000000000000C7
:1049F0000000FE07000000000000000000000000B2
:104A000000000000000000000000000000000000A6
:104A10000000000000000000000000000000000096
:104A200000000000000000000000000000001C006A
:104A30001C001C000000000000000000000000043A
:104A40000006000200030001000180008000400019
:104A50004000600020002000100010000800080046
:104A60000C0004000600020000000000000000002E
:104A700000000000F00098010C030C030606060677
:104A80000606060606060606060606060C030C03C0
:104A90009801F0000000000000000000000000008D
:104AA0000000000040007C006000600060006000CA
:104AB00060006000600060006000600060006000F6
:104AC0006000FC0300000000000000000000000087
:104AD00000000000F800840102030603060300033F
:104AE00000018001C00060002000100008020402E4
:104AF0000602FE03000000000000000000000000AD
:104B0000000000007800C600860186018001800157
:104B1000C0007000800100010003000306030603CB
:104B20008601F80000000000000000000000000006
:104B30000000000080018001C001A001A0019001DF
:104B40008801880184018201FE0F800180018001BB
:104B50008001E007000000000000000000000000ED
:104B600000000000FC030400040004000400040032
:104B7000F4008C0104030003000306030603820112
:104B80008401F800000000000000000000000000A8
:104B900000000000E00118030C030C0004000600F4
:104BA000E60116030E0606060606060604060C02B5
:104BB0001803F000000000000000000000000000EA
:104BC00000000000F8070C060402040100010001C7
:104BD00080008000400040004000600060006000F5
:104BE0006000600000000000000000000000000005
:104BF00000000000F8010C030606060606060C027B
:104C00001C03F000C8010C0306060606060606068D
:104C10000C03F00100000000000000000000000094
:104C200000000000F0000C010C0306020606060658
:104C3000060606078C0678060006000300030C0132
:104C40008C0178000000000000000000000000005F
:104C50000000000000000000000000000000E00074
:104C6000E000E00000000000000000000000E000A4
:104C7000E000E00000000000000000000000000074
:104C800000000000000000000000000000006000C4
:104C900060000000000000000000000000000000B4
:104CA00060006000400020002000000000000000C4
:104CB00000000004000200018000400020001000FD
:104CC00008000400080010002000400080000001DF
:104CD00000020004000000000000000000000000CE
:104CE0000000000000000000000000000000FE07BF
:104CF000000000000000FE070000000000000000AF
:104D000000000000000000000000000000000000A3
:104D10000000040008001000200040008000000196
:104D2000000200040002000180004000200010008A
:104D30000800040000000000000000000000000067
:104D400000000000E0031806040C040C0C0C0C0C12
:104D50000007800140004000400000000000E0002B
:104D6000E000E00000000000000000000000000083
:104D70000000E00018030C02CC0564056605A605DA
:104D8000B604B604B604B604B602E4010C040C0280
:104D90001803F00000000000000000000000000008
:104DA00000000000600060005000D0009000900003
:104DB000880088010801F8010403040304020202C8
:104DC00002060F0F000000000000000000000000BD
:104DD00000000000FE008C030C030C030C030C030A
:104DE0008C01FC000C030C020C060C060C060C06D5
:104DF0000C03FE01000000000000000000000000A5
:104E000000000000E00318030C060C040404060074
:104E10000600060006000600060006040C040C024C
:104E20001803F00000000000000000000000000077
:104E3000000000007F008C010C030C030C060C0624
:104E40000C060C060C060C060C060C060C030C03D8
:104E50008C017F0000000000000000000000000046
:104E600000000000FF030603060406040600860097
:104E70008600FE0086008600860006000604060402
:104E80000602FF0300000000000000000000000018
:104E900000000000FF030603060406040600860067
:104EA0008600FE00860086008600060006000600DA
:104EB00006001F00000000000000000000000000CD
:104EC00000000000F00018010C020C0204020600B1
:104ED000060006000600C60F060306030C030C03BB
:104EE0001803F000000000000000000000000000B7
:104EF000000000000F0F0606060606060606060658
:104F00000606FE0706060606060606060606060648
:104F100006060F0F00000000000000000000000067
:104F200000000000FC0360006000600060006000A2
:104F30006000600060006000600060006000600071
:104F40006000FC0300000000000000000000000002
:104F500000000000F807C000C000C000C000C00092
:104F6000C000C000C000C000C000C000C000C00041
:104F7000C000C000C60066003C0000000000000049
:104F800000000000CF038601C60046002600160080
:104F900036002E006E004600C6008600860106011F
:104FA00006038F0700000000000000000000000062
:104FB000000000001F0006000600060006000600B4
:104FC00006000600060006000600060006040604A9
:104FD0000602FF03000000000000000000000000C7
:104FE000000000000707860386038E038E034E032E
:104FF0004E034A035A035A033A033203320332037D
:1050000012038707000000000000000000000000FD
:10501000000000008E0F0C021C021C02340234023D
:10502000640264024402C40284028403840304030D
:1050300004031F0200000000000000000000000048
:1050400000000000F00098010C030C0206060606A2
:105050000606060606060606060606060C020C03EB
:105060009801F000000000000000000000000000B7
:1050700000000000FF0006030606060606060606F8
:1050800006068603FE00060006000600060006006F
:1050900006001F00000000000000000000000000EB
:1050A00000000000F00098010C030C020606060642
:1050B0000606060606060606060676064C02CC031B
:1050C0009801F000800700030000000000000000CD
:1050D00000000000FF010603060606060606060697
:1050E0000603FE004600C60086008601060306038E
:1050F00006060F0E00000000000000000000000087
:1051000000000000F8020C030602060206000E0072
:105110003C00F800E00380030007020602060606D2
:105120000C03F0010000000000000000000000007F
:1051300000000000FE076204610861086000600072
:10514000600060006000600060006000600060005F
:105150006000F801000000000000000000000000F6
:10516000000000001E070C020C020C020C020C02D4
:105170000C020C020C020C020C020C020C020C02BF
:105180001801F00000000000000000000000000016
:10519000000000000F070602040104010C010C01CD
:1051A000880088009800980050005000700030007F
:1051B00020002000000000000000000000000000AF
:1051C00000000000F70E6204420446044604640234
:1051D0006402E402E4029C029C01980198018801A7
:1051E00088008800000000000000000000000000AF
:1051F000000000009E070C01080118019000B0009B
:105200006000200060006000D0009000880108016C
:1052100004038E07000000000000000000000000F2
:10522000000000000F0F060404020C020801180120
:10523000B800B000700060006000600060006000B6
:105240006000F80100000000000000000000000005
:1052500000000000FC070C02060302018001800030
:1052600040004000200020001000180008040C043A
:105270000402FE0300000000000000000000E00344
:10528000200020002000200020002000200020001E
:10529000200020002000200020002000200020000E
:1052A000200020002000E0030000000000000000BB
:1052B00000000400040008000800100010001000A6
:1052C0002000200040004000C0008000800000015D
:1052D00000010002000200020004000000007C0047
:1052E00040004000400040004000400040004000BE
:1052F00040004000400040004000400040004000AE
:105300004000400040007C00000000006000900071
:105310000801000000000000000000000000000084
:10532000000000000000000000000000000000007D
:10533000000000000000000000000000000000006D
:10534000000000000000000000000000000000005D
:10535000000000000000000000000000000000004D
:105360000000000000000000FF0F00000000180017
:1053700060000000000000000000000000000000CD
:10538000000000000000000000000000000000001D
:10539000000000000000000000000000000000000D
:1053A0000000000000000000000000000000F0010C
:1053B0000C030C030003E0031C030E0306030603A7
:1053C0008E0B7C0E000000000000000000000000BA
:1053D000000008000E000C000C000C000C00CC01BA
:1053E0003C031C060C060C060C060C060C060C02F4
:1053F0001C03E401000000000000000000000000A9
:105400000000000000000000000000000000F000AC
:105410008C018C01860106000600060006020C02C3
:105420000C01F0000000000000000000000000007F
:1054300000000002C0030003000300030003780320
:105440008C030C030603060306030603060304038A
:105450008C07780100000000000000000000000040
:105460000000000000000000000000000000E0015B
:10547000180308020C060C06FC070C000C001804AC
:105480001802E00100000000000000000000000021
:1054900000000000C0036006300630003000FE014E
:1054A000300030003000300030003000300030007C
:1054B0003000FC01000000000000000000000000BF
:1054C0000000000000000000000000000000F007E5
:1054D000D8068C018C018C019801F8000C00FC00AE
:1054E000CC03060306038E03F80000000000000052
:1054F000000008000E000C000C000C000C00EC0179
:105500001C030C030C030C030C030C030C030C0313
:105510000C039E07000000000000000000000000D7
:1055200000000000600060000000000040007C00FF
:10553000600060006000600060006000600060006B
:105540006000FC03000000000000000000000000FC
:1055500000000000C001C001000000000001F001D7
:105560008001800180018001800180018001800133
:10557000800180018001CC007C0000000000000060
:10558000000008000E000C000C000C000C008C0346
:105590008C008C004C006C005C008C008C010C01B9
:1055A0000C039E0700000000000000000000000047
:1055B000000040007C00600060006000600060004F
:1055C00060006000600060006000600060006000DB
:1055D0006000FC030000000000000000000000006C
:1055E000000000000000000000000000000037077D
:1055F000EE066606660666066606660666066606C3
:105600006606FF0F00000000000000000000000020
:105610000000000000000000000000000000EE019B
:105620001C030C030C030C030C030C030C030C03F2
:105630000C039E07000000000000000000000000B6
:105640000000000000000000000000000000F0006A
:1056500098010C03060606060606060606060C0357
:105660000C03F0000000000000000000000000003B
:105670000000000000000000000000000000EE013B
:105680001C030C060C060C060C060C060C060C0380
:105690001C03EC010C000C003E00000000000000A8
:1056A0000000000000000000000000000000780280
:1056B0008C030C0306030603060306030603040318
:1056C0008C03780300030003C00700000000000003
:1056D00000000000000000000000000000009F0328
:1056E000580638061800180018001800180018008E
:1056F0001800FF0000000000000000000000000093
:105700000000000000000000000000000000F003A6
:105710001C030C020C023800F000C0030403040355
:105720008C03FC01000000000000000000000000ED
:105730000000000000002000200030003000FE01CA
:1057400030003000300030003000300030003002D7
:105750003002E00100000000000000000000000036
:1057600000000000000000000000000008028E039E
:105770000C030C030C030C030C030C030C030C03B1
:105780009C077801000000000000000000000000FD
:1057900000000000000000000000000000001E07E4
:1057A0000C020801080118019000B000B000600070
:1057B0006000200000000000000000000000000069
:1057C0000000000000000000000000000000F70ED4
:1057D0006204460464026402EC029C019801980190
:1057E0009801080000000000000000000000000018
:1057F0000000000000000000000000000000BC07E6
:1058000018011001B00060006000E0009000080185
:1058100008039E07000000000000000000000000D8
:1058200000000000000000000000000000009E07D3
:1058300008010801080190009000B00060006000BD
:1058400060002000200024001C0000000000000078
:105850000000000000000000000000000000FC014B
:105860008401C400440060002000300018020802D7
:105870000C03FC0100000000000000000000000319
:105880008000800080008000800080008000800018
:1058900040002000400080008000800080008000E8
:1058A00080008000800000030000400040004000B5
:1058B00040004000400040004000400040004000E8
:1058C00040004000400040004000400040004000D8
:1058D00040004000400040004000000000000C007C
:1058E0001000100010001000100010001000100038
:1058F00020004000200010001000100010001000D8
:105900001000100010000C00000000001C00220419
:10591000C20480030000000000000000000000003E
:105920000000000000000000000000000000000077
:105930000000000000000000000000000000000067
:105940000000000000000000000000000000000057
:105950000000000000000000000000000000000047
:105960000000000000000000000000000000000037
:105970000000000000000000000000000000000027
:1059800000000000C001C001C001C001C001C00191
:10599000C0018000800080008000800080008000C6
:1059A00000000000000000008001C003C00380016F
:1059B00000000000000000000000000000000000E7
:1059C000E01CE01CF01E700E38071803080184006C
:1059D00000000000000000000000000000000000C7
:1059E00000000000000000000000000000000000B7
:1059F00000000000000000000000000000000000A7
:105A000000000000000020102010201020102010A6
:105A1000FE7FFE7F100810081008100810081008FC
:105A20001008FE7FFE7F0804080408040804080428
:105A30000000000000000000000000000000000066
:105A4000000000010001C007601910311831183939
:105A5000183938017001E001C0038007000F001DF4
:105A6000003900311C311C310C310C11180DE007CC
:105A70000001000100010000000000000000000023
:105A80000000000000001C1036186308630C63045B
:105A90006304630263026301361D9C3780228063C6
:105AA0004063406320632063306310221836081C73
:105AB00000000000000000000000000000000000E6
:105AC000000000000000F00098018C018C018C01A6
:105AD0008C018C00CC007800183E1C083608320877
