:020000040800F2
:1000000030380120D9010008DD29000891120008CC
:10001000D92900082509000859330008000000000C
:10002000000000000000000000000000212D00087A
:10003000E50B000800000000212B00085D2D0008E2
:10004000F3010008F3010008F3010008F3010008C0
:10005000F3010008F3010008F3010008F3010008B0
:10006000F3010008F3010008F3010008F3010008A0
:10007000F3010008F3010008F3010008F301000890
:10008000F3010008F3010008F3010008F301000880
:10009000F3010008F3010008F3010008F301000870
:1000A000F3010008F3010008F3010008F301000860
:1000B0001D2F0008492F0008F3010008F301000874
:1000C000F3010008F3010008F3010008F301000840
:1000D000F301000889310008F3010008F30100086A
:1000E000F3010008F3010008F3010008F301000820
:1000F000F3010008F3010008F3010008F301000810
:10010000F3010008F3010008F3010008F3010008FF
:10011000F3010008F3010008F3010008F3010008EF
:10012000F3010008F3010008F3010008F3010008DF
:10013000F30100080000000000000000F3010008C7
:10014000F3010008F3010008F3010008F3010008BF
:10015000F3010008F3010008F3010008F3010008AF
:10016000F3010008F3010008F3010008F30100089F
:10017000F3010008F3010008F3010008000000008B
:1001800000000000F3010008000000000000000073
:10019000F30100080000000000000000F301000867
:1001A000000000000000000000000000F301000853
:1001B000F3010008F3010008F3010008F30100084F
:1001C000F3010008DFF80CD000F0C0FA0048004747
:1001D000653500083038012006488047064800474A
:1001E000FEE7FEE7FEE7FEE7FEE7FEE7FEE7FEE7E7
:1001F000FEE7FEE7012E0008C501000840EA010302
:100200009B0703D009E008C9121F08C0042AFAD2CC
:1002100003E011F8013B00F8013B521EF9D2704790
:10022000D2B201E000F8012B491EFBD27047002238
:10023000F6E710B513460A4604461946FFF7F0FFE5
:10024000204610BD421C10F8011B0029FBD1801A6A
:1002500070472DE9FE4F804681EA0300C00F0C462F
:10026000009021F0004123F00045B8EB0200A941C5
:1002700005D24046214690461C460B46024623F0D6
:100280000040104347D0270DC7F30A00C3F30A51BB
:100290000290401A019040286BDAC3F3130040F437
:1002A000801B0098924620B10023D2EB030A63EB37
:1002B0000B0B01985946C0F14002504600F098F9E6
:1002C00006460D4650465946019A00F0A0F910EB3B
:1002D00008006141002487EA115284EAE7731A4357
:1002E00040D0009A62B3019A012A4FEA075215DC06
:1002F000001B61EB02014FF0004202EA0752CDE918
:100300000042001C41F5801132462B4600F0A0F956
:1003100003B0BDE8F08F40462146F9E7001B61EBD2
:100320000201001C41F5801300185B412018A2F562
:10033000001747EB030140EAD570B6196D4111E093
:100340006D084FEA360645EAC0754FEA0752001BB2
:1003500061EB0201001C41F5801149084FEA3000B1
:100360000019514132462B4603B0BDE8F04F00F072
:1003700060B90098012240000023D0EB020263EB39
:10038000E073009821464FEAE074B8EB000061EB9F
:100390000401E9E783F000435BE781F0004158E79F
:1003A0002DE9FE4F81EA030404F0004421F00041EE
:1003B00000944FF0000B23F0004350EA01045ED09C
:1003C00052EA03045BD0C3F30A54C1F30A552C4428
:1003D000A4F2F3340194A0FB0254C1F3130141F4DD
:1003E0008011C3F3130343F4801301FB024400FBA9
:1003F000034E840A970A44EA815447EA8357A4FBD0
:10040000076802958D0A05FB07854FEA932C04FBCC
:100410000C542705029D4FEA065847EA1637B5EBFC
:1004200008056EEB070C870E920E47EA811742EA29
:100430008312A7FB0201B6EB0B0164EB00042B0D4A
:1004400043EA0C335E1844EB1C50DA465146E7FB96
:100450000201C5F313044FEA0B3343EA14534FEA86
:100460000432019C43EA0603A4F10C040294009CAC
:10047000CDE900B400F0ECF803B0BDE8F08F002047
:100480000146F9E72DE9F04D81EA030404F0004B41
:1004900021F0004514464FF0000A23F0004150EAD5
:1004A000050220D054EA01021DD0C5F30A570246C6
:1004B000C5F31303C1F31300C1F30A5640F48015CA
:1004C00043F48013A7EB0608101BD64608F2FD384C
:1004D00073EB050002D308F1010801E092185B41BB
:1004E000B8F1000F03DA00200146BDE8F08D0020CE
:1004F0004FF48011064684460EE0171B73EB050788
:1005000005D3121B63EB050306434CEA010C4908B3
:100510004FEA300092185B4150EA0107EDD152EAF0
:10052000030012D082EA040083EA0501084305D0E3
:10053000101BAB4106D20122002306E000224FF03F
:10054000004302E06FF0010253101AEB06004CEB7F
:10055000085110EB0A0041EB0B01BDE8F04D00F033
:1005600068B830B50B46014600202022012409E07E
:1005700021FA02F59D4205D303FA02F5491B04FA5C
:1005800002F52844151EA2F10102F1DC30BD2DE96F
:10059000F05F0546002092469B4688460646814607
:1005A00040241BE0284641464746224600F0E6F834
:1005B00053465A46C01A914110D311461846224656
:1005C00000F016F82D1A67EB01084F46224601206D
:1005D000002100F00DF817EB00094E41201EA4F198
:1005E0000104DFDC484631462A464346BDE8F09F19
:1005F000202A04DB203A00FA02F1002070479140E3
:10060000C2F1200320FA03F3194390407047202AD7
:1006100006DBCB17203A41FA02F043EAE07306E02A
:1006200041FA02F3D040C2F120029140084319463A
:10063000704710B5141E73F1000408DA401C41F134
:10064000000192185B411A4301D120F0010010BD56
:100650002DE9F04D92469B4611B1B1FA81F202E0CC
:10066000B0FA80F220329046FFF7C2FF04460F46F0
:1006700040EA0A0041EA0B0153465A46084313D0A8
:10068000114653EA010019D0C8F14002504600F06B
:1006900075F805460E46504659464246FFF7A8FFF4
:1006A000084305D0012004E020463946BDE8F08D1E
:1006B0000020054346EAE0762C4337430A98630559
:1006C000E40AA0EB08000022FD0A44EA47540A307D
:1006D00002D500200146E9E7010510196941DDE96D
:1006E000084500196941BDE8F04DA2E7C1F30A527F
:1006F000C1F3130140F2FF3341F480119A4202DA50
:1007000000200146704740F233439A42A2F233423E
:1007100002DC524200F032B8FFF76ABF30B5041E67
:1007200071F1000404DB4FF00044404264EB01012E
:10073000141E73F1000405DB1C464FF000435242C7
:1007400063EB0403994208BF904230BD1CB50948D1
:100750000090094801900546009C06E0E06840F0E2
:10076000010394E8070098471034AC42F6D3FFF732
:100770002DFD0000708E0008908E0008202A04DBFA
:10078000203A21FA02F00021704721FA02F3D0400A
:10079000C2F12002914008431946704770B58C1889
:1007A00010F8015B15F0070301D110F8013B2A1185
:1007B00006D110F8012B03E010F8016B01F8016B72
:1007C0005B1EF9D12B0705D40023521E0DD401F86E
:1007D000013BFAE710F8013BCB1A921C03E013F837
:1007E000015B01F8015B521EF9D5A142D8D300206C
:1007F00070BD00008268002922F0010218BF01329A
:100800008260704780B542F2043CC4F2010CDCF80F
:10081000002043F2E003CFF6FC7302EA030ED0E9B6
:100820000031D0E9022043EA0E0319431143084383
:10083000CCF8000080BD00008268002922F480729C
:1008400018BF02F58072826070470000826800293C
:1008500022F4007218BF02F5007282607047000037
:1008600010B542684FF6FF63CFF6FF4302EA030C70
:100870000B680A7943EA0C0343EA02224260826869
:100880004FF2FD73CCF2FF0302EA030E0A69D1E9CD
:1008900002C342EA0E024C791A4342EA0C0242EACF
:1008A00044028260C26A097D22F470020139C9B231
:1008B00042EA0151C16210BDB0B501EB410C4FF0ED
:1008C000100E092988BFACF11E0C88BF4FF00C0E2A
:1008D00050F80E40072505FA0CF5AC4303FA0CF36B
:1008E00023432C256FF0400440F80E300D2A38BF0A
:1008F000302538BF6FF0220402EB8203072A3CBF89
:1009000034256FF004041A1943591F249440A3435B
:10091000914019434151B0BD816841F080418160EF
:1009200070470000FEE700000268002922F0010283
:1009300018BF013202607047016821F001010160B7
:100940000021016041608160C160016146F20F4198
:10095000C4F2020188424FF02101416120DC46F2DD
:100960006F01C4F2020188423EDC46F23F01C4F24C
:10097000020188426BDC46F21001C4F20201884297
:1009800000F0BA8046F22801C4F20201884240F029
:10099000F38046F20800C4F202004FF47461EAE00A
:1009A00046F26F41C4F20201884238DC46F23F4110
:1009B000C4F2020188425EDC46F21041C4F2020138
:1009C000884200F09F8046F22841C4F2020188422A
:1009D00001BF46F20800C4F202004FF47461C0F88F
:1009E000001408BF7047C7E046F29F01C4F202013D
:1009F000884257DC46F27001C4F20201884200F0DE
:100A0000898046F28801C4F20201884240F0B48035
:100A100046F20800C4F2020040F640717FE046F260
:100A20009F41C4F20201884252DC46F27041C4F296
:100A30000201884277D046F28841C4F2020188421E
:100A400040F09A8046F20C4040F640716EE046F26B
:100A50004001C4F2020188426DD046F25801C4F24E
:100A60000201884240F0888046F20800C4F2020089
:100A70004FF074617FE046F24041C4F202018842C7
:100A800060D046F25841C4F20201884201BF46F2EA
:100A90000800C4F202004FF07461C0F8001408BFEF
:100AA000704769E046F2A001C4F20201884252D0C8
:100AB00046F2B801C4F20201884201BF46F20800C2
:100AC000C4F202004FF03D51416008BF704753E04F
:100AD00046F2A041C4F20201884245D046F2B84134
:100AE000C4F20201884218BF704746F20C40C4F2BB
:100AF00002004FF03D513EE046F20800C4F2020011
:100B00003D2138E046F20800C4F202003D21C0F861
:100B10000014704746F20800C4F202003D21C2F200
:100B200000014160704746F20C403D21C4F20200D2
:100B3000C2F200011FE046F20800C4F202004FF4C6
:100B4000741118E046F20800C4F202004FF4741168
:100B5000C0F80014704746F208000021C4F20200F9
:100B6000C2F23D014160704746F20C400021C4F2E0
:100B70000200C2F23D010160704700002DE9F04F14
:100B8000026848F23F03CFF21C03D1F800901A40EC
:100B9000D1E9038E01F1140C9CE8F01042EA09023D
:100BA00042EA080222432A4332438B6A3A43D1E99C
:100BB0000DAB42EA0C021A4342EA0A0242EA0B0275
:100BC00002604269D1E90B3722F007021A433A4327
:100BD0004261C0F804E04A6882608968C160BDE88B
:100BE000F08F00007047000080B5042002F0AAF8E2
:100BF00040F2E020C2F2000000684DF68361C4F2CA
:100C00001B31A0FB011244F6D351C1F26201A0FBDB
:100C10000101900C40F26442C2F20002106040F206
:100C20006040C2F20000012202704EF21000CEF2CB
:100C300000000268890942F0020202604160016816
:100C400041F00101016080BD10B5044603F0DEFFF4
:100C500001280AD02CB940F26040C2F200000078AE
:100C600010B9204603F0ACF900244EF2180040F20F
:100C70006441CEF20000C2F2000150F804CC0968D1
:100C80004FF47A7261434A430168002304688C423E
:100C9000FCD00B441B1B8C4228BF6344934221466B
:100CA00028BF10BDF2E7000080B54EF2180140F2F7
:100CB0006442CEF20001C2F2000251F804CC126884
:100CC000002302FB00FE08680A688242FCD003444D
:100CD0009B1A824228BF63447345104628BF80BDDB
:100CE000F2E700002DE9F04F83B040F2E428C2F2B1
:100CF0000008D8F8000040F26849C2F20009017803
:100D000099F800208A420BD3FF2A04BF4A1E89F8B3
:100D1000002099F800208A4224BF002189F80010A1
:100D2000446847F6FF7600200021F02238234FF672
:100D3000FF7A0096002500F043FD00204FF48871F3
:100D4000F0224FF4A073009600F03AFD2020012716
:100D5000CDE900600020182122464FF47843029725
:100D60004FF0180B00F054FA48F66B62C0F6000220
:100D700000204FF490714FF4784300960297CDF81D
:100D800004B000F045FA00203821F0224FF48873B7
:100D9000009500F015FD99F80050042D20D8002092
:100DA0006FF0130447F67C55D8F80010461C214418
:100DB000CB6999F8001006EB0612401A0BEB4202C1
:100DC00018BF0120029091B2052018220095CDF89D
:100DD00004A001F0BBFA1C34052E3046E4D126E015
:100DE000C5EBC5006FF0830101EB8006012747F6D4
:100DF0007C5400BFD8F80010EA193144CB6999F847
:100E00000010053A07EB0710511A0BEB400018BF12
:100E10000121029181B2052018220094CDF804A08E
:100E200001F094FA0137062F06F11C06E2D103B057
:100E3000BDE8F08F0138032844D843D8DFE800F03C
:100E400002430B2D40F26840C2F2000001780139E4
:100E50000170FFF747BF40F2684140F2E42CC2F254
:100E60000001C2F2000C0878DCF80030C0EBC000D2
:100E700003EB8002107B66282ED0652822D15069B2
:100E800000B340F26C40C2F2000003605069CCF83D
:100E9000000000200870FFF725BF40F26C40C2F24E
:100EA0000000016871B18B6940F2E422C2F20002D5
:100EB000036040F268401160C2F20000002101703E
:100EC000FFF710BF704740F26840C2F2000001789F
:100ED00001310170FFF706BF1169002908BF704793
:100EE000906808472DE9F04F83B01C461546202A2C
:100EF000019102900BD0182D05D0102D0CD110238C
:100F00004FF0200806E018234FF0480802E02023A5
:100F10004FF08008012603E000264FF00008002370
:100F20000298C1184A1E019992B20B44013B9BB230
:100F300000F066FB002E53D00127B8F1010F98BFD7
:100F4000B84640F2F12ADDF808B0CDF800804FF045
:100F50000008C2F2000A4FF0000906E04FF0000955
:100F6000009808F1010880453AD0002616E000BF3D
:100F70001AF80810084220460C9908BF084601F0EC
:100F800055FA09F101095FFA89F0B0FBF5F101FBAF
:100F900015000028E2D00136082EE1D00D98002877
:100FA00007FA06F0E4D01AF8081008420AD00199AE
:100FB0001FFA8BF089B202460B4600F021FB204657
:100FC00001F034FA0BF1010B02991FFA8BF0401A71
:100FD000A842E0D10198DDF808B001300190BFE7E8
:100FE00003B0BDE8F08F000010B58AB04FF48070F8
:100FF000012101F0DFFD4FF48030002401906846AC
:10100000029400940394FFF7FDFB089406940520D6
:10101000049442F200048DF8240040F20110C4F25E
:101020000104ADF8140004A92046FFF719FC20467E
:10103000012101220323FFF73FFC20460021022269
:101040000323FFF739FC2046022103220323FFF785
:1010500033FC2046032104220323FFF72DFC204606
:10106000082105220323FFF727FC20460121FFF773
:10107000EDFB20460121FFF7DFFB20460121FFF7B2
:10108000B9FB2046FFF748FC0AB010BDF0B58FB0A1
:10109000032001210324012701F074FD8DF8044091
:1010A00000240F20C4F202046D4600900026204662
:1010B00029468DF8076000F03FF804F58060294666
:1010C00000F03AF8FFF790FF46F27044C4F20204D1
:1010D0002046FFF731FC4FF48000012101F052FD62
:1010E0000520CDE9036040F2E430C2F20000029036
:1010F0004FF4005008904FF4806006904FF48070D9
:10110000099042F24C00C4F2010001904FF40060DB
:1011100007904FF480300A90694620460096CDE94A
:101120000B670D960E960596FFF728FD20460121C8
:10113000FFF7FAFB0FB0F0BD2DE9F043D1F80080C6
:1011400000234FF0010C4FF0030E002410E000BF0D
:10115000C26802EA0902C260CA79C5689A402A4395
:10116000C2600134102C03F1020308BFBDE8F08314
:101170000CFA04F618EA060FF3D002680EFA03F729
:10118000BA4302600A796FEA0709076802FA03F5B1
:10119000013A3D43012A0560DAD8826802EA090271
:1011A00082604A798D7987689A403A4382604268C2
:1011B000B243426005FA04F2456892B22A434260A3
:1011C000C6E700001C2303EA810C6FF0030303EA67
:1011D000510108440F23016A03FA0CF39943016299
:1011E000016A02FA0CF2114301627047006908407B
:1011F00018BF01207047000009048161704700009A
:1012000081617047002A08BF0904816170470000AE
:101210002DE9F04F83B0DDF838A0DDE90C8B0546F1
:1012200010461E4614468946FFF70CF8F02294F942
:101230000010A2EB0010B1F1FF3F4FEA500018DDA3
:10124000A1B105444FEA5B07013C00BFA8B2CAB296
:1012500049463346CDE9008BCDF808A000F0C2FF27
:10126000A1783D44002904F10104EFD103B0BDE8A9
:10127000F08F284480B249465A462346CDE900689B
:10128000CDF808A001F062F803B0BDE8F08F0000CF
:10129000FEE70000B0B582B007200121012401F073
:1012A00071FC48F210008DF80740002400904FF4C4
:1012B0004070C4F202046D46ADF804002046294691
:1012C000FFF73AFF40F28230009004F58060294633
:1012D000FFF732FF4EF20700009004F50060294648
:1012E000FFF72AFF02B0B0BD40F27330C2F2000037
:1012F00001780131CAB2142A017038BF70472DE954
:10130000F04381B040F2743940F600040021C2F28B
:101310000009C4F20204017099F8000040F2753827
:10132000C2F20008A4F5006688F8000030464FF4C9
:101330000041FFF75BFF002843D0A4F580652846F5
:1013400002210227FFF752FF00284DD0304610211E
:10135000FFF74CFFB8B328468021FFF747FFA0B343
:1013600028464FF40071FFF741FF80B328464FF441
:101370008071FFF73BFF60B320464FF40051FFF749
:1013800035FF40B320464FF48041FFF72FFF20B3D5
:1013900020460221FFF72AFF08B320464FF4004100
:1013A000FFF724FFE8B120460121FFF71FFFD0B16E
:1013B00020460421FFF71AFF0027002808BF0C274A
:1013C00012E0012710E003270EE004270CE00527B8
:1013D0000AE0062708E0072706E0082704E00927B7
:1013E00002E00A2700E00B2789F8007047B998F857
:1013F000000000281EBF40F27631C2F200010870E2
:1014000001B0BDE8F04370472DE9F04F81B040F2E4
:10141000B2350020C2F2000535F8101000291CBFBB
:10142000013925F8101001300C28F5D140F28C312B
:10143000C2F2000140F2CA360A78C2F200060C205D
:101440003070501CC2B2142A0870C0F0D68040F62A
:10145000000840F28D3940F2A53440F2773740F26F
:10146000993AC4F202080020C2F20009C2F2000454
:10147000C2F20007C2F2000A307008E000210AF848
:1014800000100130C1B20C29307080F0B680C0B2BB
:1014900019F800100B2821543BD8DFE800F0062192
:1014A00015190C24291D35112D09A8F5006008E037
:1014B000404604212AE0A8F580604FF4007125E041
:1014C00040464FF4004121E0A8F5006010211DE0E6
:1014D000A8F58060802119E040464FF4804115E076
:1014E000A8F5806011E0A8F580604FF480710DE0F0
:1014F00040464FF4005109E0404601214FF0010BF6
:10150000FFF774FE28B90BE040460221FFF76EFE9C
:1015100020B14FF0000B012103E000BF4FF0010BA1
:1015200000213078BBF1000F3A5C09F800B002F0FE
:10153000FE025A443A5401D0225C42B171B1225C9D
:10154000012A0BD13A5C42F004023A5406E03A5CBC
:1015500042F002023A540029F1D100BF1AF80020EB
:10156000042A3FF68EAFDFE802F003291C250D00A8
:10157000BBF1000F3FF485AF4FF47A7125F81010DE
:1015800001217CE700297FF479AF35F8101000299C
:101590007FF477AF395C322241F0400125F810200A
:1015A00028E0BBF1000F10D0395C41F01001395434
:1015B000032164E700297FF461AF62E779B14FF45A
:1015C000967125F81010022159E735F810100029FE
:1015D0007FF457AF395C41F0080139544EE735F8D4
:1015E000101000297FF44DAF395C322225F810200D
:1015F00041F020013954042141E701B0BDE8F08FEA
:101600002DE9F04740F20045C4F2020505F580647B
:10161000894607462046402198469246FFF7ECFD52
:1016200028464FF48051FFF7E7FD2A2000F050FDD7
:101630000120FFF739FB28464FF48051FFF7E0FD0A
:1016400020464021FFF7DCFD28464FF480513E0A3A
:10165000FFF7D2FD304600F03BFD0120FFF724FBF1
:1016600028464FF48051FFF7CBFD28464FF48051B8
:10167000FFF7C2FDF8B200F02BFD0120FFF714FBCD
:1016800028464FF48051FFF7BBFD28464FF48051A8
:101690004FEA1A26FFF7B0FD304600F019FD012091
:1016A000FFF702FB28464FF48051FFF7A9FD2846BB
:1016B0004FF48051FFF7A0FD5FFA8AF000F008FDBB
:1016C0000120FFF7F1FA28464FF48051FFF798FD0B
:1016D00020464021FFF790FD28464FF48051FFF748
:1016E0008BFD2B2000F0F4FC0120FFF7DDFA2846EB
:1016F0004FF48051FFF784FD20464021FFF780FD25
:1017000028464FF480514FEA1926FFF775FD304601
:1017100000F0DEFC0120FFF7C7FA28464FF48051A5
:10172000FFF76EFD28464FF48051FFF765FD5FFA25
:1017300089F000F0CDFC0120FFF7B6FA28464FF4FF
:101740008051FFF75DFD28464FF480514FEA18267F
:10175000FFF752FD304600F0BBFC0120FFF7A4FA72
:1017600028464FF48051FFF74BFD28464FF4805137
:10177000FFF742FD5FFA88F000F0AAFC0120FFF7B6
:1017800093FA28464FF48051FFF73AFD2046402156
:10179000FFF732FD28464FF48051FFF72DFD2C2036
:1017A00000F096FC0120FFF77FFA28464FF48051A5
:1017B000FFF726FD20464021BDE8F047FFF720BD9A
:1017C0002DE9F04381B00E468146501E591E9846C1
:1017D000154682B28BB248463146FFF711FF4645A7
:1017E00012D2089C04E000BF0136B0B240450BD2D3
:1017F000A945F9D24F4600BF204600F017FE013739
:10180000B8B2A842F8D3EFE701B0BDE8F08300001A
:1018100070B582B000F074FC0620012101F0B2F92D
:101820004FF4A840009040F2013040F20044C0F272
:101830000010C4F202046E46019020463146FFF7C4
:101840007BFC402004F58065009028463146FFF778
:1018500073FC20464FF4A841FFF7D2FC28464021F4
:10186000FFF7CEFC20464FF48041FFF7C5FC642013
:10187000FFF7EAF920464FF48041FFF7C1FC6420EE
:10188000FFF7E2F920464FF48061FFF7B9FC6420CE
:10189000FFF7DAF928464021FFF7AEFC20464FF467
:1018A0008051FFF7A9FC112000F012FC0120FFF786
:1018B000FBF920464FF48051FFF7A2FC2846402157
:1018C000FFF79EFC7820FFF7BFF928464021FFF77D
:1018D00093FC20464FF48051FFF78EFC362000F039
:1018E000F7FB0120FFF7E0F920464FF48051FFF7A6
:1018F00087FC28464021FFF783FC20464FF48051A7
:10190000FFF77AFCC02000F0E3FB0120FFF7CCF9E1
:1019100020464FF48051FFF773FC28464021FFF723
:101920006BFC20464FF48051FFF766FC3A2000F034
:10193000CFFB0120FFF7B8F920464FF48051FFF7A5
:101940005FFC28464021FFF75BFC20464FF48051A6
:10195000FFF752FC052000F0BBFB0120FFF7A4F9C4
:1019600020464FF48051FFF74BFC28464021FFF7FB
:1019700043FC20464FF48051FFF73EFCB22000F0BC
:10198000A7FB0120FFF790F920464FF48051FFF7A5
:1019900037FC28464021FFF733FC20464FF48051A6
:1019A000FFF72AFC0C2000F093FB0120FFF77CF9E5
:1019B00020464FF48051FFF723FC20464FF480511E
:1019C000FFF71AFC0C2000F083FB0120FFF76CF9F5
:1019D00020464FF48051FFF713FC20464FF480510E
:1019E000FFF70AFC002000F073FB0120FFF75CF911
:1019F00020464FF48051FFF703FC20464FF48051FE
:101A0000FFF7FAFB332000F063FB0120FFF74CF9EE
:101A100020464FF48051FFF7F3FB20464FF48051EE
:101A2000FFF7EAFB332000F053FB0120FFF73CF9FE
:101A300020464FF48051FFF7E3FB28464021FFF793
:101A4000DBFB20464FF48051FFF7D6FBB72000F0B8
:101A50003FFB0120FFF728F920464FF48051FFF7A4
:101A6000CFFB28464021FFF7CBFB20464FF48051A7
:101A7000FFF7C2FB352000F02BFB0120FFF714F924
:101A800020464FF48051FFF7BBFB28464021FFF76B
:101A9000B3FB20464FF48051FFF7AEFBBB2000F0B4
:101AA00017FB0120FFF700F920464FF48051FFF7A4
:101AB000A7FB28464021FFF7A3FB20464FF48051A7
:101AC000FFF79AFB322000F003FB0120FFF7ECF850
:101AD00020464FF48051FFF793FB28464021FFF743
:101AE0008BFB20464FF48051FFF786FBC22000F0AD
:101AF000EFFA0120FFF7D8F820464FF48051FFF7A6
:101B00007FFB28464021FFF77BFB20464FF48051A6
:101B1000FFF772FB012000F0DBFA0120FFF7C4F8A9
:101B200020464FF48051FFF76BFB28464021FFF71A
:101B300063FB20464FF48051FFF75EFBC32000F0AB
:101B4000C7FA0120FFF7B0F820464FF48051FFF7A5
:101B500057FB28464021FFF753FB20464FF48051A6
:101B6000FFF74AFB152000F0B3FA0120FFF79CF8BD
:101B700020464FF48051FFF743FB28464021FFF7F2
:101B80003BFB20464FF48051FFF736FBC42000F0AA
:101B90009FFA0120FFF788F820464FF48051FFF7A5
:101BA0002FFB28464021FFF72BFB20464FF48051A6
:101BB000FFF722FB202000F08BFA0120FFF774F8DA
:101BC00020464FF48051FFF71BFB28464021FFF7CA
:101BD00013FB20464FF48051FFF70EFBC62000F0A8
:101BE00077FA0120FFF760F820464FF48051FFF7A5
:101BF00007FB28464021FFF703FB20464FF48051A6
:101C0000FFF7FAFA0F2000F063FA0120FFF74CF813
:101C100020464FF48051FFF7F3FA28464021FFF7A2
:101C2000EBFA20464FF48051FFF7E6FAD02000F09F
:101C30004FFA0120FFF738F820464FF48051FFF7A4
:101C4000DFFA28464021FFF7DBFA20464FF48051A7
:101C5000FFF7D2FAA42000F03BFA0120FFF724F8A6
:101C600020464FF48051FFF7CBFA20464FF48051C5
:101C7000FFF7C2FAA12000F02BFA0120FFF714F8B9
:101C800020464FF48051FFF7BBFA28464021FFF76A
:101C9000B3FA20464FF48051FFF7AEFAE02000F08F
:101CA00017FA0120FFF700F820464FF48051FFF7A4
:101CB000A7FA28464021FFF7A3FA20464FF48051A7
:101CC000FFF79AFAD02000F003FA0120FEF7ECFFAC
:101CD00020464FF48051FFF793FA20464FF480518D
:101CE000FFF78AFA082000F0F3F90120FEF7DCFF85
:101CF00020464FF48051FFF783FA20464FF480517D
:101D0000FFF77AFA0E2000F0E3F90120FEF7CCFF8E
:101D100020464FF48051FFF773FA20464FF480516C
:101D2000FFF76AFA092000F0D3F90120FEF7BCFFA3
:101D300020464FF48051FFF763FA20464FF480515C
:101D4000FFF75AFA092000F0C3F90120FEF7ACFFB3
:101D500020464FF48051FFF753FA20464FF480514C
:101D6000FFF74AFA052000F0B3F90120FEF79CFFC7
:101D700020464FF48051FFF743FA20464FF480513C
:101D8000FFF73AFA312000F0A3F90120FEF78CFFAB
:101D900020464FF48051FFF733FA20464FF480512C
:101DA000FFF72AFA332000F093F90120FEF77CFFB9
:101DB00020464FF48051FFF723FA20464FF480511C
:101DC000FFF71AFA482000F083F90120FEF76CFFB4
:101DD00020464FF48051FFF713FA20464FF480510C
:101DE000FFF70AFA172000F073F90120FEF75CFFF5
:101DF00020464FF48051FFF703FA20464FF48051FC
:101E0000FFF7FAF9142000F063F90120FEF74CFF08
:101E100020464FF48051FFF7F3F920464FF48051EC
:101E2000FFF7EAF9152000F053F90120FEF73CFF17
:101E300020464FF48051FFF7E3F920464FF48051DC
:101E4000FFF7DAF9312000F043F90120FEF72CFF0B
:101E500020464FF48051FFF7D3F920464FF48051CC
:101E6000FFF7CAF9342000F033F90120FEF71CFF18
:101E700020464FF48051FFF7C3F928464021FFF771
:101E8000BBF920464FF48051FFF7B6F9E12000F08E
:101E90001FF90120FEF708FF20464FF48051FFF79D
:101EA000AFF928464021FFF7ABF920464FF48051A7
:101EB000FFF7A2F9D02000F00BF90120FEF7F4FEA5
:101EC00020464FF48051FFF79BF920464FF4805194
:101ED000FFF792F9082000F0FBF80120FEF7E4FE7E
:101EE00020464FF48051FFF78BF920464FF4805184
:101EF000FFF782F90E2000F0EBF80120FEF7D4FE88
:101F000020464FF48051FFF77BF920464FF4805173
:101F1000FFF772F9092000F0DBF80120FEF7C4FE9C
:101F200020464FF48051FFF76BF920464FF4805163
:101F3000FFF762F9092000F0CBF80120FEF7B4FEAC
:101F400020464FF48051FFF75BF920464FF4805153
:101F5000FFF752F9152000F0BBF80120FEF7A4FEB0
:101F600020464FF48051FFF74BF920464FF4805143
:101F7000FFF742F9312000F0ABF80120FEF794FEA4
:101F800020464FF48051FFF73BF920464FF4805133
:101F9000FFF732F9332000F09BF80120FEF784FEB2
:101FA00020464FF48051FFF72BF920464FF4805123
:101FB000FFF722F9482000F08BF80120FEF774FEAD
:101FC00020464FF48051FFF71BF920464FF4805113
:101FD000FFF712F9172000F07BF80120FEF764FEEE
:101FE00020464FF48051FFF70BF920464FF4805103
:101FF000FFF702F9142000F06BF80120FEF754FE01
:1020000020464FF48051FFF7FBF820464FF48051F3
:10201000FFF7F2F8152000F05BF80120FEF744FE10
:1020200020464FF48051FFF7EBF820464FF48051E3
:10203000FFF7E2F8312000F04BF80120FEF734FE04
:1020400020464FF48051FFF7DBF820464FF48051D3
:10205000FFF7D2F8342000F03BF80120FEF724FE11
:1020600020464FF48051FFF7CBF828464021FFF778
:10207000C3F820464FF48051FFF7BEF8212000F04E
:1020800027F80120FEF710FE20464FF48051FFF79D
:10209000B7F828464021FFF7B3F828464021FFF75C
:1020A000ABF820464FF48051FFF7A6F8292000F046
:1020B0000FF80120FEF7F8FD20464FF48051FFF79E
:1020C0009FF828464021FFF79BF802B070BD000042
:1020D000B0B543F600040546C4F2000420460221D0
:1020E00000F0EAFD0028F9D02046294600F0ECFD7A
:1020F0002046802100F0E0FD0028F9D1B0BD0000AD
:10210000B0B586B002200121012500F03BFD40F270
:102110000044C4F2020420460D210522FFF752F8C4
:1021200020460F210522FFF74DF840F20230C0F2A1
:10213000001002904FF42040019001A92046FEF7C4
:10214000FBFF20464FF42041FFF75AF84FF4804040
:10215000012100F023FD4FF4003002904CF200000A
:10216000C0F2041001904FF4E020CDF812004FF4BB
:102170000070A4F5E634CDF80E0001A92046ADF8B4
:102180000C5000F0A3FD2046012100F08BFD06B0AD
:10219000B0BD000040F2F021C2F2000108707047AB
:1021A00040F2CB3CC2F2000C9CF800202921013205
:1021B000D3B25943090B642301FB132140F2F022EF
:1021C000C2F20002127840F20040CBB2C4F2020028
:1021D00093428CF800104FF4806128BFFFF70CB8D1
:1021E000FFF70EB82DE9F04F87B0DDF84480834645
:1021F0004FEA58074FEA18101C46914601237A0708
:1022000018BF03EB181000FB08F50BEB580001EBAF
:1022100008020138531E82B29BB258460E46069100
:10222000FFF7EEF9002D00F08D80A8F10C00C1B28F
:10223000800140EA9100C3B2052B00F283800120A7
:10224000984010F02B0F00F07D802A46A9F1200065
:102250000121C0B2012D98BF0A4646F22A410592DB
:1022600000EB4002C0F6000101EB0211029145F6BD
:102270003A61C0F6000101EB0011019147F2FA51F9
:10228000C0F600014FF0000A01EB80105E464FF0EF
:10229000000903920090049308E04FF0000900BF8A
:1022A00005980AF1010A049B82454BD0032B0DD0FF
:1022B000012B09D063B9039845F6C611C0F6000199
:1022C00001EB800005E000BF019802E0029800E009
:1022D0000098504405784FF0000815E02842204649
:1022E000109908BF084600F0A1F809F101095FFA4A
:1022F00089F0B0FBF7F101FB17000028CDD008F101
:102300000108B8F1080FCBD0129800284FF0010057
:1023100000FA08F0E2D0284209D00699B0B289B29A
:1023200002460B46FFF76CF9204600F07FF80136B5
:10233000B0B2A0EB0B00B842E1D106985E46013086
:102340000690ADE707B0BDE8F08F00002DE9F04F33
:1023500085B01C469346202A0746049114D0BBF151
:10236000180F08D0BBF1100F18D14FF010094FF023
:102370002008002010E044F600704FF018094FF0DC
:102380004808C0F2030007E04BF680704FF02009C8
:102390004FF08008C0F20A00039005E0002003908F
:1023A0004FF000084FF000092078E0B34FF0000A2A
:1023B000214625E04CF24141CFF6FF71C0B25E23C9
:1023C00010FB03100399104400FB081040F2F121A8
:1023D000C2F20001424601F05DF80EAE049968CEEB
:1023E000B8B25A46CDE90056FEF77CFD0AF102016B
:1023F0005FFA81FA14F80A004F4454FA81F190B15F
:1024000000F15F02D2B2082A02D84A78A02AD1D8B5
:1024100000F15002D2B2472AE8D84A78A12AE5D37F
:102420004BF6BF61C8E705B0BDE8F08F70B540F26C
:102430000044C4F202040546060A20464FF48051C7
:10244000FEF7DAFE3046FFF743FE0120FEF72CFCD4
:1024500020464FF48051FEF7D3FE20464FF48051C2
:10246000FEF7CAFEE8B2FFF733FE0120FEF71CFCC0
:1024700020464FF48051BDE87040FEF7C1BE000019
:1024800070B582B00620012100F07CFB3C2040F6B4
:102490000004009040F20120C4F20204C0F20010D7
:1024A000A4F580656E46019028463146FEF744FE4D
:1024B00020463146FEF740FE20462021FEF7A0FED2
:1024C00028460421FEF79CFE20461021FEF798FEC8
:1024D00020460821FEF794FE02B070BD2DE9F04FB2
:1024E00081B040F60004C4F2020440F2E03740F24A
:1024F000D03544F6D35940F2CC3B0026C2F2000757
:10250000A4F58068C2F20005C1F262094FF47A7A3C
:10251000C2F2000B12E0FEF773FE40F23C00C2F282
:10252000000001789BF8000000290CBF0138013041
:102530008BF800000136042E00F0D780B85D052826
:10254000F8D8DFE800F0034A1C310857F0B2DFE8A2
:1025500000F096A59BA055F826000130A0FB0912BB
:10256000910901FB1A00312845F82600F0B200F26B
:1025700067800328DED8DFE800F0386F5E6A55F820
:1025800026000130A0FB0912910901FB1A00810805
:102590007C2945F82600F0B200F263800328C9D8F0
:1025A000DFE800F0235A495555F8260048F21F513C
:1025B0000130C5F2EB11A0FB01125109642201FBAD
:1025C0001200312845F82600F0B200F251800328AD
:1025D000B0D8DFE800F00A41303CF0B203283FF603
:1025E000A9AFDFE800F00239283420462021FEF7A9
:1025F00003FE9FE755F8260048F281010130C8F23A
:102600008001A0FB0112D1090902A1EBD2119BF8B4
:102610000020401A904245F82600F0B243D2032829
:102620003FF67BAFDFE800F002594C5120462021F5
:10263000FEF7E2FD71E720461021FEF7DDFD79E7A8
:1026400003283FF677AFDFE800F01A291F24204661
:102650000821FEF7D1FD6DE740460421FEF7CCFDD1
:1026600068E703283FF666AFDFE800F009180E13AD
:1026700003283FF65FAFDFE800F00211070C2046A9
:102680002021FEF7BDFD55E720461021FEF7B8FDDD
:1026900050E720460821FEF7B3FD4BE740460421F2
:1026A000FEF7AEFD46E703283FF637AFDFE800F060
:1026B000051A0212204610212DE7204620212AE784
:1026C00020461021FEF798FD27E720460821FEF757
:1026D00093FD22E7204608211DE740460421FEF72E
:1026E0008BFD1AE74046042115E701B0BDE8F08FE5
:1026F00070B582B00420012100F044FA08200121C5
:1027000000F040FA41F20400009040F2013040F63F
:102710000004C0F20010C4F202046D46019020468D
:102720002946FEF709FD04F5806630462946FEF786
:1027300003FD20464FF480510122FEF763FD0A207D
:10274000FEF7B2FA304604210122FEF75BFD0A20B3
:10275000FEF7AAFA02B070BDB0B540F60004C4F2AC
:10276000020404F58065284604210122FEF74AFD93
:102770000A20FEF799FA20464FF480510122FEF715
:1027800041FD0A20FEF790FA28460421FEF72EFDAF
:1027900005460A20FEF788FA20464FF480510022B1
:1027A000FEF730FD0A20FEF77FFA2846B0BD000094
:1027B0002DE9F04140F60005C4F202050446002769
:1027C0004FF0800805F5806628FA07F000EA040259
:1027D00030460421FEF716FD0A20FEF765FA28466A
:1027E0004FF480510122FEF70DFD0A20FEF75CFA3E
:1027F00028464FF480510022FEF704FD0A20FEF720
:1028000053FA0137082FDFD1BDE8F081B0B540F6AB
:102810000004C4F2020404F5806528460421012264
:10282000FEF7F0FC0A20FEF73FFA20464FF48051F5
:102830000122FEF7E7FC0A20FEF736FA28460421BB
:102840000022FEF7DFFC0A20FEF72EFA20464FF4A6
:1028500080510022FEF7D6FC0A20BDE8B040FEF70A
:1028600023BA0000B0B540F60004C4F202042046CA
:102870004FF480510022FEF7C5FC0A20FEF714FA3F
:1028800004F58065284604210022FEF7BBFC0A20DF
:10289000FEF70AFA20464FF480510122FEF7B2FCFF
:1028A0000A20FEF701FA284604210122FEF7AAFCBD
:1028B0000A20BDE8B040FEF7F7B9000080B5FFF789
:1028C00017FFFFF7A3FFD020FFF772FFFFF744FFCA
:1028D0006B20FFF76DFFFFF73FFF8020FFF768FFDA
:1028E000FFF73AFFFFF7BEFF6420FEF7ADF9FFF7F1
:1028F0008DFFD020FFF75CFFFFF72EFF6B20FFF767
:1029000057FFFFF729FF0120FFF752FFFFF724FFD2
:10291000FFF7A8FFFFF77AFFD020FFF749FFFFF787
:102920001BFF6C20FFF744FFFFF716FF0020FFF7A7
:102930003FFFFFF711FFFFF795FFFFF767FFD0207D
:10294000FFF736FFFFF708FF1920FFF731FFFFF70A
:1029500003FF0720FFF72CFFFFF7FEFEFFF782FFC4
:10296000FFF754FFD020FFF723FFFFF7F5FE1A20F3
:10297000FFF71EFFFFF7F0FE0620FFF719FFFFF736
:10298000EBFEFFF76FFFFFF741FFD020FFF710FFCF
:10299000FFF7E2FE1B20FFF70BFFFFF7DDFE18201D
:1029A000FFF706FFFFF7D8FEFFF75CFFFFF72EFFEC
:1029B000D020FFF7FDFEFFF7CFFE1C20FFF7F8FE4B
:1029C000FFF7CAFE1820FFF7F3FEFFF7C5FEBDE8CC
:1029D0008040FFF747BF0000FEE70000704700009F
:1029E00080B582B00420012100F0CCF84FF4607073
:1029F000009040F20130C0F20010019040F600005B
:102A0000C4F202006946FEF797FB00F003F802B03B
:102A100080BD000010B586B00120012100F0B2F8A1
:102A20000024C4F20204204605210522FEF7CAFB59
:102A3000204606210522FEF7C5FB20460721052278
:102A4000FEF7C0FB40F20230C0F200100290E0201E
:102A5000019001A92046FEF76FFB4FF48050012141
:102A600000F0A8F80020ADF80C0002904FF0827042
:102A700001904FF4E020CDF8120040F20020C0F2A7
:102A80001800A4F55044CDF80E0001A9204600F02E
:102A90001DF92046012100F005F906B010BD000027
:102AA00010B5C17800294EF20011CEF200011CD001
:102AB0004EF60C52CEF200021268072323EA1222CD
:102AC0000F23C2F1040C23FA02FE427884785FFAE5
:102AD0008CF390F800C09A4004EA0E031A431201E6
:102AE00001EB0C0383F8002300E080310078012320
:102AF00000F01F0203FA02F2C0F3421041F8202056
:102B000010BD000040F080604EF60C5140F0FD70AA
:102B1000CEF20001086070470000000000000000D5
:102B2000EFF30980BFF36F8F154B1A681EF0100F7B
:102B300008BF20ED108A20E9F04F10602DE9090050
:102B40004FF0500080F31188BFF34F8FBFF36F8FAA
:102B500001F0ECFB4FF0000080F31188BDE80900A4
:102B600019680868B0E8F04F1EF0100F08BFB0EC0D
:102B7000108A80F30988BFF36F8F704700BF00BFD2
:102B800074040020002943F63001C4F202010A68EF
:102B90000CBF22EA0000104308607047002943F68A
:102BA0004001C4F202010A680CBF22EA000010438F
:102BB00008607047002943F64401C4F202010A6824
:102BC0000CBF22EA000010430860704743F6040C73
:102BD000C4F2020CDCF8043042F20042C0F2F4020B
:102BE000C3F3810310B5DFE803F03E02072141F291
:102BF0000022C0F27A0236E0DCF800E0DCF80030B7
:102C0000DCF8001003F03F03C1F388145FEA4E21A3
:102C100041F20021C0F27A0158BF1146B1FBF3F135
:102C2000DCF800206143C2F3014217E0DCF8001039
:102C3000DCF80030490241F20021C0F27A01DCF8F0
:102C4000004003F03F0358BF1146B1FBF3F1DCF83D
:102C50000020C4F388146143C2F30272022303EB21
:102C60004202B1FBF2F20260DCF8041045F6B61243
:102C7000C1F30311C0F60002515C036823FA01F1AD
:102C80004160DCF80430C3F38223D35C21FA03F300
:102C90008360DCF80430C3F34233D25CD140C160BE
:102CA00010BD00000288002918BF012122F0400257
:102CB00042EA8111018070470089084018BF012055
:102CC0007047000080897047818170472DE9F0418D
:102CD00002880B8802F4415C4A88B1F804E043EAB8
:102CE0000C03CC881A430D8942EA0E024E89224316
:102CF0008F892A43B1F80E8032433A4342EA0802F0
:102D00000280828B22F400628283098A0182BDE8FC
:102D1000F081000000000000000000000000000042
:102D2000074B19680868B0E8F04F80F30988BFF3D3
:102D30006F8F4FF0000080F31188704700BF00BF15
:102D4000740400204EF21001CEF200010A6804283B
:102D500022F0040208BF04320A60704780B501F017
:102D600055FF012808BF80BDBDE8804001F0BABB17
:102D700070B582B001F01AF840F2F430C2F20000EF
:102D80000224CDE9004043F22910C0F6000014A14E
:102D900082220023002601F021FD40F2843543F217
:102DA0006110C2F20005C0F600000FA182220023CC
:102DB000CDE9004501F012FD43F6E540C0F6000004
:102DC0000BA182220023CDE9004601F007FD00207F
:102DD00001F058F902B0BDE8704001F00BB800BF37
:102DE0005461736B310000005461736B320000005A
:102DF000764B65795F526561645461736B000000C6
:102E000082B04EF6885CCEF2000CDCF8002043F66F
:102E1000000142F47002C4F20201CCF800200A68FA
:102E20004FF6FF7042F001020A6000228A600B68D0
:102E3000CFF6F6601840086043F21000C2F200407E
:102E40004860086820F480200860CA6001920092FF
:102E5000086840F480300860086800F40030009092
:102E6000019801300190009818B90198B0F5A04F71
:102E7000F2D10868800354BF002001200090009820
:102E8000012844D1086C47F2000240F08050C4F29F
:102E900000020864106840F4404010608868886050
:102EA000886840F400408860886840F4A0508860DA
:102EB00045F60820C7F240704860086840F080700E
:102EC000086000BF08688001FCD5106840F48030BD
:102ED000106000BF5068C003FCD5106840F400309B
:102EE000106000BF50688003FCD540F20570C1F847
:102EF0000004886820F003008860886840F00200C1
:102F0000886000BF886800F00C000828FAD14FF0F4
:102F100000604CF8800C02B07047000080B54FF0A4
:102F20008040012100F09CF8012818BF80BD4FF0BF
:102F30008040012100F086F8FEF766FAFEF7D4F92A
:102F4000BDE88040FFF7CABA10B540F20044C4F2B1
:102F500000042046012100F083F8012818BF10BDAD
:102F6000FFF71EF920460121BDE8104000F06AB8C5
:102F700010B584B002200121FFF710FE40F200449A
:102F8000C4F20004204600F07FF863210020029183
:102F90005921ADF80C0001918DF80E0001A92046D1
:102FA00000F078F82046012100F048F82046012181
:102FB000012200F061F82046012100F047F840F2BC
:102FC0001D50C0F20010019001A8FFF769FD04B088
:102FD00010BD000080B584B001200121FFF7DEFDA7
:102FE0004FF0804000F050F840F2E73100200291AD
:102FF0005921ADF80C0001918DF80E0001A94FF098
:10300000804000F047F84FF08040012100F016F8B2
:103010004FF080400121012200F02EF84FF0804057
:10302000012100F013F840F21C50C0F20010019092
:1030300001A8FFF735FD04B080BD0000C94301823F
:1030400070470000C94301827047000002880029D0
:1030500018BF012122F001021144018070470000D5
:10306000028A80890A4000EA010018BF0122002874
:1030700018BF012010407047002A82890CBF22EA45
:103080000101114381817047018921F0070101810C
:103090007047000010B540F6FF32B0F800E0C4F20F
:1030A000000240F2004C9042C4F2010C0FDCB0F17F
:1030B000804F19D040F20042C4F20002904213D077
:1030C00040F60002C4F2000290420DD011E040F63A
:1030D0000042C4F20002904206D0604504D00022B3
:1030E000C4F20102904204D14A882EF0700342EAF1
:1030F000030E41F2004340F48062C4F200039A429E
:1031000004D00C892EF4407344EA030EA0F800E0CA
:103110004B686245C3620B88038504BF897A0186C8
:103120000121818210BD000040F28835C2F2000505
:1031300006A4002629680029FCD0204601F0C2FF21
:103140002878FDF777FE2E60F4E700BF4B65795FC6
:103150004E756D626572203D2025640D0A000000E9
:1031600082B040F288344FF0FF35C2F2000400BF55
:10317000002000214FF0FF322346009501F0E4FCCF
:103180000A2000F01DFFF3E710B541F20004C4F27D
:103190000104204640F2255100F064F8012818BFD0
:1031A00010BD204600F0D0F840F2F831C2F2000124
:1031B0000A78C0B2012A10D09AB9402832D140F220
:1031C0005E40C2F20000007860BB0120087040F24F
:1031D000F930C2F20000002116E00D2816D10220BD
:1031E0001FE00A281ED10020087040F2F931C2F217
:1031F0000001097840F2FA32C2F20002505440F263
:103200005E40C2F20000012101700BE040F2F93192
:10321000C2F200010A7840F2FA33C2F20003985475
:10322000501C0870204640F22551BDE8104000F0C7
:1032300001B80000090A012202FA01F1C943018024
:10324000704700008289002918BF012122F4005232
:1032500042EA4131818170470088084018BF01204F
:1032600070470000C1F342121423022A08BF102342
:10327000012A08BF0C23C35A008801F01F02090A63
:1032800023FA02F2C840104000F00100704700002D
:1032900070B584B00446008A0D46C98820F44050B9
:1032A00008432082A0894EF6F3110840A9882A8994
:1032B0006B89084310431843A081A08AA98920F490
:1032C000407008436E46A0823046FFF77FFC41F213
:1032D000000124F48060C4F201010822884208BF82
:1032E0000C22B058B4F90C100122B1F1FF3FC8BF55
:1032F00002222B681921484303FA02F1B0FBF1F0D6
:1033000048F21F51C5F2EB11A0FB01235A096FF0DF
:10331000630302FB0300B4F90C300326B3F1FF3F53
:10332000C8BF042600FA06F000F13200A0FB01013C
:103330004FF00700C8BF0F2000EA511040EA02100A
:10334000208104B070BD000080886FF35F2070475B
:103350006FF35F2181807047FEE7000010B584B0F5
:1033600001200121FFF70EFC0024C4F202042046D4
:1033700009210722FDF726FF20460A210722FDF733
:1033800021FF4FF4C060009040F202300190694686
:103390002046FDF7D1FE10200121FFF70BFC4FF472
:1033A000E130009000204FF44021A4F57044ADF8C6
:1033B0000C00CDE9010169462046FFF769FF204670
:1033C0000121FFF73FFF40F22550C0F200100090AE
:1033D0006846FFF765FB04B010BD000070B586B00D
:1033E000022001210126FFF7CDFB40F20044C4F288
:1033F0000204204603210622FDF7E4FE20460421B4
:103400000622FDF7DFFE204605210622FDF7DAFE43
:103410004020019040F20130C0F2001001AD029056
:1034200020462946FDF788FE3820019040F2023000
:10343000C0F20010029020462946FDF77DFE20468E
:1034400040210122FDF7DEFE4FF400400121FFF78D
:10345000A5FB4FF4003002904FF0827001904FF4C2
:10346000E020CDF8120040F20020C0F21000A4F5D8
:10347000E434CDF80E0001A92046ADF80C60FFF74A
:1034800025FC20460121FFF70DFC06B070BD0000B1
:10349000FFF7A4BFF0B581B040F20044C4F20204CB
:1034A00015460E460746204640210022FDF7AAFE9B
:1034B000032000F01DF8C7F3074000F019F8C7F328
:1034C000072000F015F8F8B200F012F845B1013EFF
:1034D0000020013D00F00CF8002D06F8010FF7D197
:1034E00020464021012201B0BDE8F040FDF78ABE30
:1034F000B0B543F600440546C4F20004204602215C
:10350000FFF7DAFB0028F9D020462946FFF7DCFB5D
:1035100020460121FFF7D0FB0028F9D02046FFF715
:10352000D1FBC0B2B0BD0000B0B541F20005044609
:103530000A28C4F2010509D128460D21FFF708FF2A
:1035400028468021FFF788FE0028F9D0E1B22846FE
:10355000FFF7FEFE28468021FFF77EFE0028F9D007
:103560002046B0BD82B0FDF73FFBFFF7A7F9FFF79C
:10357000F5FEFDF78BFDFFF733FAFFF72BFDFEF7A6
:103580007FFFFDF787FEFFF783FFFEF741F9FFF7A7
:10359000EFFC4FF44070FFF7B5FA1420FEF7FAFD88
:1035A0004FF0000C00200021F0224FF4A073CDF862
:1035B00000C0FEF705F9FDF795FB40F2F03C42F63E
:1035C0007150C2F2000C4FF0020EC0F6000005A1CF
:1035D000B4220023CDE900EC01F000F900F050FE28
:1035E000FEE700BF53797374656D4372656174546F
:1035F00061736B00F0B581B00D4643F2204140F29B
:103600007446C2F20101C2F200060F683168044636
:10361000081D00F055FB10B1601C0FD027E030688A
:1036200043F22432C06AC2F201020121136801FA96
:1036300000F023EA00001060601C18D1BDB143F215
:10364000F830C2F201004168326891608A683368DC
:10365000DA6032688B6804325A60326804328A60F9
:103660003168486101680131016001B0F0BD306826
:10367000E41944600BD340F28440C2F200000068B9
:103680003168043101B0BDE8F04000F059BB40F2B0
:103690007C40C2F2000000683168043100F050FB49
:1036A00043F28430C2F2010001688C4238BF0460EA
:1036B00001B0F0BD70B500F079FB43F22446C2F2D0
:1036C0000106306818B1BDE8704000F093BB43F2CA
:1036D0002834C2F20104204600F022FB43F23C35BC
:1036E000C2F20105284600F01BFB40F27840C2F20E
:1036F0000000046040F28840C2F20000056005202E
:103700000C21002200F006FF00283060DBD003A16E
:1037100000F004FCBDE8704000F06CBB546D7251C9
:103720000000000043F2183540F28C4A4EF604586F
:1037300043F20C4743F21436C2F20105C2F2000A0A
:10374000CEF200084FF08059C2F20107C2F2010622
:1037500015E000BF00F02AFBF868C468201D00F0E7
:10376000AFFA30680138306028680138286000F00E
:1037700041FB206B00F056FB204600F053FB28680D
:103780000028E7D1DAF800000228F8D3C8F8009042
:10379000BFF34F8FBFF36F8FF1E700000848006859
:1037A000006880F308884FF0000080F3148862B648
:1037B00061B6BFF34F8FBFF36F8F00DF00BF000014
:1037C00008ED00E02DE9F04381B040F27848C2F204
:1037D0000008D8F800200546D2680E46D46804F1E7
:1037E0000409484600F06CFA94F8280041070CD40C
:1037F00000F0FA0084F828001CE000BF711B814231
:1038000010D3216A204688473D46A06924614719A4
:10381000B7426760F2D9AE4201D2AF42F1D2D8F8D6
:10382000000004E040F28840C2F20000006849460F
:1038300000F086FA216A204601B0BDE8F04308474F
:1038400081B00020009040F2E820C2F20000006841
:103850004FF0500181F31188BFF36F8FBFF34F8F8B
:10386000013001D0FEE700BF00980028FCD001B075
:103870007047000084B040F2784440F2704940F252
:10388000884A43F2244BC2F20004C2F20009C2F299
:10389000000AC2F2010B0DF1040800BF206807689E
:1038A00017B1C068066800E0002600F037FD01F09F
:1038B000C1F9D9F800100546884209D2206801688C
:1038C00091B1C0684FF0FF310068FFF77BFFF5E76B
:1038D000C9F8005097B1AE4210D801F003FB304652
:1038E0002946FFF76FFF29E0DAF80010CAF8000058
:1038F0002160C9F8005001F0F5FA1FE00FB1002275
:1039000005E0DAF800000068B0FA80F04209DBF860
:103910000000711B00F030FB01F0E4FA70B94EF6C4
:103920000450CEF200004FF080510160BFF34F8F82
:10393000BFF36F8F02E0206800F002FADBF80000AE
:103940004146002200F030FE0028A7D00198002850
:10395000F4D4039D686910B1281D00F0B1F901F09D
:1039600069F9D9F80010064688420ED2206801682D
:1039700031B1C0684FF0FF310068FFF723FFF5E772
:10398000DAF80010CAF8000021600198C9F8006058
:1039900001380828D2D8DFE800F005053A2362058F
:1039A000053A230095F82800029BAA6940F001011E
:1039B00085F82810D718294641F8047FB7422D61B1
:1039C00004D99E42B7D29F4203D2B4E7F31A93427E
:1039D00018D3430722D400F0FA0085F8280052E0FB
:1039E00095F8280040F00101029885F82810002879
:1039F000A8614CD03044294641F8040FB0422D61F3
:103A00003FF699AFDAF8000000F09AF996E795F8DA
:103A1000280000F0FE0085F828008FE70298D946BC
:103A2000C346D0460F46104407E000BF301A884214
:103A30001DD3296A284688475046A9692D6101EBA4
:103A4000000AB245C5F804A0F0D9864201D28245E9
:103A5000EFD22068394600F073F9C2460DE095F8C0
:103A600028008107D5D4284600F0DCF966E7D8F8AD
:103A700000003946C24600F063F9D846CB4640F212
:103A80007049C2F20009296A2846884756E74FF074
:103A9000500080F31188BFF36F8FBFF34F8F00BFCB
:103AA000FEE70000F0B581B0044600F07FF994F91C
:103AB0004560012E0FDB04F1240500BF286850B1DA
:103AC000284601F09BF9002818BF00F07BFB70B27C
:103AD000013E0128F2DCFF2684F8456000F08AF9F7
:103AE00000F064F994F94470012F0EDB04F1100525
:103AF000286850B1284601F081F9002818BF00F06D
:103B000061FB78B2013F0128F2DC84F8446001B027
:103B1000BDE8F04000F06EB970B5044600F0FEFB61
:103B200040F28041C2F20001086843F2783EC2F2DE
:103B3000010E58B184B304F007001138A04226BF2B
:103B400024F0070000F11003002326E040F20C707F
:103B5000C2F20000C21D430700F5963318BF22F0E1
:103B6000070043F2F032C2F201020026C2E9000669
:103B700023F00702A2F108030B6042E902661A1A59
:103B80000B68CEF80020C0E9003243F28030C2F268
:103B900001000260002CCED10023012B4FF0000465
:103BA0006CDBDEF80000834268D843F2F032C2F2E8
:103BB000010215686C689C4207D200BF286820B1DA
:103BC00044682A4605469C42F8D30868854212D0CC
:103BD000D2F800C02E68E01A1128166031D3EC1814
:103BE00062070AD04FF0500080F31188BFF36F8F47
:103BF000BFF34F8FFEE7002440E060606B6043F24C
:103C0000F033C2F2010300BF1A461B68A342FBD384
:103C100050681618A64203D16468204414465060C8
:103C20006668A019984201D0184606E008688342E9
:103C300003D0D3E9000131446160A242206018BF83
:103C4000146043F280306968DEF80020C2F201009F
:103C50000368511A9942CEF8001038BF016043F250
:103C60008C326868C2F20102136840F00040002103
:103C70000CF10804C5E90010581C106001F032F97D
:103C8000600708D04FF0500080F31188BFF36F8FAA
:103C9000BFF34F8FFEE7204670BD0000034643F69A
:103CA000410021F00101C0F600004FF0807C03E9E3
:103CB00003106FF00201A3F1440043E909127047B9
:103CC000D0E9013201699A60D1F804C08268844564
:103CD000536008BF4A60002202610868013808602A
:103CE0000868704782B040F2763440F28435C2F200
:103CF0000004C2F20005002603E000BF0A2000F025
:103D00005FF92278002A14BF26700022002AF5D01D
:103D1000286800210323009600F05EFEEEE7000015
:103D20004FF0FF31024642F8081F00214260C0E90F
:103D3000032201607047000000210161704700000C
:103D400080B5D1F800C01CF1010207D000F10803D2
:103D50009E465B681A686245FAD901E0D0F810E027
:103D6000DEF8042008614A609160C1F808E0CEF8EE
:103D7000041001680131016080BD0000D0F800C06E
:103D8000436808619A684B608A609A6899605160DC
:103D90000CF1010101607047DFF80C00016841F48B
:103DA000700101607047000088ED00E04FF05000A6
:103DB00080F31188BFF36F8FBFF34F8F40F2E8207D
:103DC000C2F2000001684A1C026001B170474EF661
:103DD0000450CEF200000068000608BF70474FF0A4
:103DE000500080F31188BFF36F8FBFF34F8F00BF78
:103DF000FEE7000040F2E820C2F20000016839B19D
:103E00000139016018BF7047002080F311887047A6
:103E10004FF0500080F31188BFF36F8FBFF34F8FC7
:103E2000FEE70000B0B5002808BFB0BD50F8041C84
:103E3000002908D44FF0500080F31188BFF36F8F32
:103E4000BFF34F8FFEE7A0F1080422684AB14FF09C
:103E5000500080F31188BFF36F8FBFF34F8F00BF07
:103E6000FEE721F0004140F8041C054600F056FA38
:103E700043F27831C2F2010155F8040C0B682A466E
:103E80001844086043F2F031C2F2010108460968A3
:103E9000A142FBD34368C518A54204D152F8042CB3
:103EA00004461A4442606368E2188A4201D00A4616
:103EB0000AE040F28042C2F200021268914203D04E
:103EC000D1E9002119446160A042226018BF04605A
:103ED00043F29030C2F20100016801310160BDE897
:103EE000B04000F0FFBF00004EF21000CEF2000024
:103EF00000210160816040F2E021C2F20001096806
:103F000044F6D352C1F26202A1FB02124FF0FF311C
:103F100001EB92114160072101607047B0B5C8B153
:103F20004FF0000CF9B143F2AC3EC2F2010E002397
:103F3000002202E00833402B18D00EEB0304656822
:103F4000854212D0002AF5D12268002A18BF6446A3
:103F50002246EFE74FF0500080F31188BFF36F8FD8
:103F6000BFF34F8FFEE7002200E02246002A18BF71
:103F7000C2E90010B0BD000070B515460E460446FB
:103F8000FFF714FF94F84400FF2804BF002084F8D2
:103F9000440094F84500FF2804BF002084F8450041
:103FA000FFF728FFA06B28B904F1240031462A4608
:103FB00000F02CF92046BDE87040FFF773BD00000B
:103FC00070B5002852D043F21C31C2F201010A68D8
:103FD0004AB14FF0500080F31188BFF36F8FBFF3E9
:103FE0004F8F00BFFEE70546086840F27444013079
:103FF000086043F22040C2F20100C2F200040668E9
:1040000020680430FFF75CFE60B9206843F2243278
:10401000C06AC2F201020121136801FA00F023EA2A
:10402000000010602068AD19456009D340F284405B
:10403000C2F20000006821680431FFF781FE10E041
:1040400040F27C40C2F20000006821680431FFF7B2
:1040500077FE43F28430C2F2010001688D4238BF1E
:10406000056000F03FFF002818BF70BD4EF60450F9
:10407000CEF200004FF080510160BFF34F8FBFF3CD
:104080006F8F70BD70B50446FFF790FE40F2744626
:10409000002CC2F2000608BF3468251D2846FFF731
:1040A0000FFEA0B9E06A40F28C4200EB8001C2F240
:1040B000000252F8211051B943F22432C2F2010237
:1040C0000121136801FA00F023EA00001060A06AE1
:1040D00018B104F11800FFF7F3FD43F22030C2F2EB
:1040E00001000168013101603068844216D043F25A
:1040F0001430C2F2010001680139016040F27C40D5
:10410000C2F2000001680968B1B1006843F284316D
:10411000C068C2F201010068086014E043F20C407C
:10412000C2F201002946FFF729FE43F21830C2F21D
:1041300001000168013105E043F28430C2F2010060
:104140004FF0FF310160FFF755FE3068844205D023
:10415000206BFFF767FE2046FFF764FE43F2EC306A
:10416000C2F201000068E8B13068844218BF70BD37
:1041700043F21C30C2F20100006840B14FF0500021
:1041800080F31188BFF36F8FBFF34F8FFEE74EF6BA
:104190000450CEF200004FF080510160BFF34F8F0A
:1041A000BFF36F8F70BD000043F28831C2F201018E
:1041B0000968016043F22041C2F2010109684160CF
:1041C0007047000043F22C40C2F20100012101605F
:1041D0007047000078B110B50C4640F27441C2F24D
:1041E000000109681831FFF7ABFD20460121BDE849
:1041F0001040FFF7FFB94FF0500080F31188BFF374
:104200006F8FBFF34F8F00BFFEE7000068B310B59C
:1042100040F2744CC2F2000CD0F804E0DCF800303C
:10422000002AC3F81CE0DEF80830DCF80040236206
:10423000DCF80030DEF8084003F118036360DCF8B6
:104240000030044603F11803CEF80830DCF80030E3
:104250009862036818BF4FF0FF31013308461146DA
:104260002360BDE81040FFF7C5B94FF0500080F360
:104270001188BFF36F8FBFF34F8F00BFFEE70000C1
:1042800080B582B043F27C3C43F22570C2F2010C4F
:104290004FF0000EC0F600001EA178220023CDE9E9
:1042A00000EC00F09BFA012808BF00F0DBFE411C87
:1042B00025D001281CD14FF0500080F31188BFF3A6
:1042C0006F8FBFF34F8F43F28430C2F201004FF083
:1042D000FF31016043F2EC30C2F2010001210160C4
:1042E00043F22040C2F201000021016000F062F8B8
:1042F00048F66C60C0F60000006802B080BD4FF068
:10430000500080F31188BFF36F8FBFF34F8F00BF52
:10431000FEE700BF49444C450000000043F21C305A
:10432000C2F20100016801310160704743F21C30A4
:10433000C2F20100006830B143F22C40C2F2010029
:1043400001210160704743F22C40C2F201000021BC
:10435000016043F22430C2F201000068B0FA80F03C
:10436000C0B2C0F11F0040F28C4100EB8000C2F2ED
:10437000000151F8202092B101EB8000416800F16A
:10438000080249689142416001D149684160406832
:1043900040F27441C068C2F20001086070474FF0FB
:1043A000500080F31188BFF36F8FBFF34F8F00BFB2
:1043B000FEE70000B0B584B04EF20040CEF200003F
:1043C0004CF27021C4F20F11D0F800294B1C9A4214
:1043D00009D14FF0500080F31188BFF36F8FBFF306
:1043E0004F8F00BFFEE7D0F800298A4209D14FF075
:1043F000500080F31188BFF36F8FBFF34F8F00BF62
:10440000FEE7017843F20C320291FF21017001783E
:10441000C2F201028DF807109DF8071001F050015B
:10442000117043F21031C2F2010107220A609DF9B6
:104430000720B2F1FF3F0CDC062200BF0A609DF8A6
:104440000730013A5B008DF807309DF90730002BEB
:10445000F4D40A68032A3BD14FF440720A600299EF
:104460000170D0F8201941F47001C0F82019D0F87B
:10447000201941F07041C0F82019FFF735FD40F2D6
:10448000E824C2F2000400252560FFF785FC4EF603
:104490003470CEF20000016841F040410160FFF746
:1044A0007DF9FFF743FF039520684FF0500181F33A
:1044B0001188BFF36F8FBFF34F8F013002D000BF61
:1044C000FEE700BF03980028FCD0002004B0B0BD78
:1044D0004FF0500080F31188BFF36F8FBFF34F8F01
:1044E000FEE7000080B54FF0500080F31188BFF365
:1044F0006F8FBFF34F8F00F0A3FB30B14EF6045027
:10450000CEF200004FF080510160002080F311884E
:1045100080BD0000F0B581B0E0B3A0FB0137CFBB98
:1045200001FB00F313F1510F34D8064603F150009C
:104530000F461546FFF7F0FA4FF0000438B3014676
:10454000002F18BF50310160C0E90F670646FFF722
:104550002DFC3068D6E90F12B46302FB0103013968
:1045600001FB0201C6E90103FF20F16086F8440067
:1045700086F8450006F11000FFF7D2FB06F1240093
:10458000FFF7CEFBFFF736FC344686F84C5020464A
:1045900001B0F0BD4FF0500080F31188BFF36F8F72
:1045A000BFF34F8FFEE700002DE9F04F85B0049276
:1045B00098B10C460546002900F0B78000F026FBB4
:1045C000A8B9049898B14FF0500080F31188BFF358
:1045D0006F8FBFF34F8F00BFFEE74FF0500080F3A7
:1045E0001188BFF36F8FBFF34F8F00BFFEE705F158
:1045F0001000019005F1240000900DF108090DF163
:10460000100A4FF000080CE02846FFF74BFA00F0C4
:1046100069FCFFF7CBFBAF6BFFF7ECFB002F00F063
:104620009280FFF7C3FBD5F838B0BBF1000F27D05D
:104630002A6C5AB1D5E902011144E960814224BFD4
:104640002868E860E9682046FBF7D8FDABF1010077
:10465000A863286970B1019800F0D0FB50B14EF604
:104660000450CEF200004FF080510160BFF34F8F35
:10467000BFF36F8FFFF7BEFB00200126A0B963E0F8
:10468000049850B1B8F1000F02D14846FFF78CFDF5
:104690004FF00108012038B956E0FFF7ABFB0026C8
:1046A0000020002850D000BFFFF7A4FBFFF736FE24
:1046B000FFF77CFB95F84400FF2804BF002085F835
:1046C000440095F84500FF2804BF002085F8450008
:1046D000FFF790FB4846514600F03AF800287FF477
:1046E00093AFFFF763FBAF6BFFF784FB2FB1284657
:1046F000FFF7D8F900F0F6FB93E704990098FFF76D
:1047000069FD2846FFF7CEF900F0ECFB00287FF4A6
:1047100088AF4EF60450CEF200004FF08051016099
:10472000BFF34F8FBFF36F8F7BE7286C00283FF4F8
:1047300045AF4FF0500080F31188BFF36F8FBFF388
:104740004F8F00BFFEE70026304605B0BDE8F08F72
:1047500070B538B30C4671B30546FFF727FB43F23B
:10476000204EC2F2010EDEF800302268501C30D01C
:1047700043F2883CC2F2010C2946D5E90050DCF82E
:104780000060AE4201D083421FD2181A82421CD967
:10479000101A2060DCF8000000240860DEF8000039
:1047A000486017E04FF0500080F31188BFF36F8F1F
:1047B000BFF34F8FFEE74FF0500080F31188BFF337
:1047C0006F8FBFF34F8F00BFFEE7002020600124F2
:1047D00000E00024FFF70EFB204670BD2DE9F04FEE
:1047E00081B0970081463846984692460E46FFF7BC
:1047F00093F990B105465820FFF78EF950B1582132
:104800000446FBF714FD256354B94FF0FF3001B0A7
:10481000BDE8F08F2846FFF705FB0024002CF4D0FC
:10482000206B0A9D3946A522FBF7FAFC206B76B176
:1048300004F13401002200BFB35C8B54B35C1BB1A4
:10484000092A02F10102F7D1002184F83D10202D40
:1048500009D34FF0500080F31188BFF36F8FBFF37F
:104860004F8F00BFFEE700EB8A00043804F1040B11
:1048700020F007060B9F5846E562A564FFF75CFA37
:1048800004F11800FFF758FAC5F12000A061304686
:104890004946424624616462FFF700FA002F206017
:1048A00018BF3C60FFF782FA43F21430C2F20100F5
:1048B000016840F2744601310160C2F200063168BD
:1048C00043F2EC3A40F28C47C2F2010AC2F200070E
:1048D00051B1DAF8000000283FD13068E16AC06ABF
:1048E000884298BF346038E034600068012834D1D1
:1048F000002500BF7819FFF713FA1435B5F5207FAE
:10490000F8D143F25038C2F201084046FFF708FAE6
:1049100043F26439C2F201094846FFF701FA43F253
:104920009830C2F20100FFF7FBF943F20C40C2F2EB
:104930000100FFF7F5F943F2F830C2F20100FFF78A
:10494000EFF940F27C40C2F20000C0F8008040F273
:104950008440C2F20000C0F8009043F22030C2F25E
:104960000100016843F22432013101602164E06AF0
:10497000C2F20102012113688140194300EB80005B
:10498000116007EB80014A6861619368A260E3608F
:104990009368C2F808B0C3F804B057F8201001318A
:1049A00047F82010FFF726FADAF8000078B13068EF
:1049B000E16AC06A88420AD24EF60450CEF2000084
:1049C0004FF080510160BFF34F8FBFF36F8F012015
:1049D00001B0BDE8F08F00002DE9F04149B14FF082
:1049E000500080F31188BFF36F8FBFF34F8F00BF6C
:1049F000FEE738B3DDF818801D46144607460E461C
:104A0000FFF7D4F932463846B8F1000F04D000EB76
:104A10008201096DC8F80010831893F8541002271A
:104A2000042D83F8547000F2768023464FF001087D
:104A3000DFE805F020031B18110000EB8202176D60
:104A40003B4316E04FF0500080F31188BFF36F8FA7
:104A5000BFF34F8FFEE7022904D14FF00008012970
:104A60000AD06CE000EB820203E000EB8202136DDF
:104A700001331365012962D1D0E902734269BB6039
:104A80005668C368011D8E425F6008BF536013689B
:104A900043F22436013B1360D0E90AC2C2F2010698
:104AA0000127356897402F43376040F28C4602EB70
:104AB0008207C2F2000606EB87056C684561A368B1
:104AC0008460C360A368A160596056F82700BCF1F8
:104AD000000F00F1010046F8270008D04FF0500009
:104AE00080F31188BFF36F8FBFF34F8FFEE740F263
:104AF0007440C2F200000068C06A82421FD94EF6BC
:104B00000450CEF200004FF080510160BFF34F8F90
:104B1000BFF36F8F13E043F22042C2F2010212682A
:104B20004AB14FF0500080F31188BFF36F8FBFF38D
:104B30004F8F00BFFEE74FF0010801299CD0FFF71F
:104B400059F94046BDE8F08148B14FF0500080F37C
:104B50001188BFF36F8FBFF34F8F00BFFEE72DE9C2
:104B6000F0411E46154604460F46FFF71FF940F276
:104B70007448C2F20008D8F80000204490F85400AD
:104B800002281CD0D8F80000012200EB8400016D3F
:104B9000B9430165D8F800100698214481F85420E3
:104BA00068B10121FEF726FD4EF60450CEF200005A
:104BB0004FF080510160BFF34F8FBFF36F8FFFF74E
:104BC00019F9FFF7F3F82EB1D8F8000000EB8400D4
:104BD000006D3060D8F800000026204490F8541092
:104BE0000020022907D1D8F80010012601EB84012A
:104BF0000A6DAA430A65D8F80010214481F85400D0
:104C0000FFF7F8F83046BDE8F081000043F2EC30E1
:104C1000C2F201000068002804BF0120704743F27F
:104C20001C30C2F201000068B0FA80F04009400078
:104C30007047000043F22040C2F201000068704754
:104C40002DE9F04F43F21C30C2F20100006848B178
:104C500043F29430C2F2010001680131016000208A
:104C6000BDE8F08F43F22040C2F20100016811F16B
:104C7000010EC0F800E02DD340F27C40C2F20000EB
:104C8000026812684AB14FF0500080F31188BFF3F8
:104C90006F8FBFF34F8F00BFFEE740F28443C2F235
:104CA000000302681F6807601A6043F28832C2F28C
:104CB0000102136801331360026812681AB10068B8
:104CC000C068006801E04FF0FF3043F28432C2F266
:104CD0000102106043F28431C2F20101086840F21F
:104CE0008C488645C2F2000801D200206EE040F2F6
:104CF0007C4AC2F2000ADAF800004FF000090068AE
:104D0000002858D043F2243BC2F2010B002025E0DA
:104D1000F96ADBF8002001238B401A43CBF800200E
:104D200001EB810208EB82035E687B61B468BE60C0
:104D3000FC60B468B560656058F82230013348F80B
:104D4000223040F27442C2F200021268D26ADAF8EB
:104D50000030914288BF0120196881B3DAF8003031
:104D6000DB68DF683D4655F8044FA64529D3D7E9EF
:104D700002637C69B360D4F804C0FB68AC455E6034
:104D800008BF6360C7F814902368013B2360BC6AC6
:104D9000002CBDD0D7E907636268B3603B6A07F1B6
:104DA00018018A425E6008BF6360C7F828902168D6
:104DB00001392160ACE74FF0FF34002005E04FF0EF
:104DC000FF3443F28431C2F201010C6040F27441BD
:104DD000C2F200010968C96A01EB810158F821108B
:104DE000012943F22C41C2F2010188BF0120096868
:104DF000002918BF0120BDE8F08F0000C068C0681E
:104E000010B310B5D0E90713826A8B60036AD2F839
:104E100004E000F1180C59600021E64508BF53601A
:104E2000816211680139116043F21C31C2F2010143
:104E3000096891B143F29832C2F20102516882626C
:104E40008B68C161036231E04FF0500080F311883C
:104E5000BFF36F8FBFF34F8FFEE7D0E902134269B4
:104E60008B60D2F804E0C36800F1040CE645596099
:104E700008BF5360116843F2243401391160C16ADC
:104E8000C2F201044FF0010E22680EFA01F31A4338
:104E9000226040F28C4201EB8101C2F2000202EB7F
:104EA0008102516842618B688160C3608B68C1F880
:104EB00008C0C3F804C011680131116040F27441A8
:104EC000C2F20001C06A0968C96A8842BDE81040A0
:104ED00091BF002043F22C41C2F20101012088BFA2
:104EE000086070472DE9F04F81B043F21C34C2F2E4
:104EF0000104206868B1FEF759FF2068013820607E
:104F0000206880B10024FEF775FF204601B0BDE89F
:104F1000F08F4FF0500080F31188BFF36F8FBFF315
:104F20004F8F00BFFEE743F21430C2F20100006869
:104F30000028E7D043F2983AC2F2010ADAF80010EA
:104F400043F22C480029C2F2010868D043F2243B06
:104F500040F28C4440F2744E4FF0000C4FF00109C7
:104F6000C2F2010BC2F20004C2F2000EDAF80C1019
:104F7000CE68D6E90721B76A91607868316A06F190
:104F80001805A8424A6008BF7960C6F828C038688A
:104F900001383860D6E90202716982604A68F568B2
:104FA000371DBA42686008BF4D6008680138086064
:104FB000F06ADBF8001009FA00F21143CBF8001098
:104FC00000EB800104EB810255687261AB68B5604B
:104FD000F360AB68AF605F6054F82120013244F8A1
:104FE0002120DEF80010C96A884228BFC8F8009066
:104FF000DAF800000028B9D18EB140F27C40C2F24C
:1050000000000168096819B10068C068006801E023
:105010004FF0FF3043F28431C2F20101086043F2E5
:105020009434C2F20104256855B10126FFF708FE49
:10503000002818BFC8F80060013DF7D100202060AB
:10504000D8F8000000283FF45DAF4EF60450CEF2D1
:1050500000004FF080510160BFF34F8F0124BFF378
:105060006F8F50E780B582B0FEF724FB43F22440F7
:10507000C2F20100006888B143F2284C43F6750083
:10508000C2F2010C4FF01F0EC0F600000BA1F0227F
:105090000023CDE900ECFFF7A1FB00E00020002891
:1050A0001CBF02B080BD4FF0500080F31188BFF3E9
:1050B0006F8FBFF34F8F00BFFEE700BF546D7220AC
:1050C000537663000FB4054B10B503A9044A029848
:1050D00000F0DAF810BC5DF814FB00002935000878
:1050E0000000002002E008C8121F08C1002AFAD1FF
:1050F00070477047002001E001C1121F002AFBD158
:10510000704700002DE9FF5F82B00021DDE9043027
:10511000020DDDF840B0034318D044F61050A2F25F
:10512000FF3242431514119801281FD0A5EB0B0044
:10513000401C5FEA000A4FF000064E4FDFF838913E
:10514000B046504615D5CAF1000413E01198012469
:105150004AA3012801D16FEA0B010298119AC0E914
:105160000031C0E9024206B0BDE8F09FCBF100007B
:10517000DFE704460021404A491842EB0450CDE9DC
:10518000001012E0E00707D032463B464046494651
:10519000FBF706F98046894632463B4610461946DB
:1051A000FBF7FEF806460F466410002CEAD1DDE955
:1051B0000401DDE90023BAF1000F06DAFBF7F0F88D
:1051C00042464B46FBF7ECF805E0FBF75BF942463D
:1051D0004B46FBF757F904460E460022284BFBF7D7
:1051E0009DFA03D84FF0FF30014607E00022254B1F
:1051F00020463146FBF72DF8FBF778FA102409E03A
:10520000002C0ADB0A220023FBF7C1F9039B303292
:105210001A55641E50EA0102F2D1641C039AC4F1CB
:1052200011031444119A012A03D0012208430DD11D
:105230000AE0084304D000204FF0110B119072E7F0
:10524000A3EB0B056D1E0DE05B4504DD4FF0000286
:1052500005F1010504E003DA4FF00002A5F10105B4
:10526000002AECD002981199C0E90231C0E900454A
:1052700079E70000000014400000F03F300000001B
:105280000000F0430000E03F2DE9FF4F95B09B4642
:105290008946064600250FE2252877D100242746B7
:1052A000F84A0121059400E0044316F8013F203B31
:1052B00001FA03F01042F7D130782A2811D06FF0AC
:1052C0002F033078A0F13002092A16D8059A44F04D
:1052D000020402EB820203EB42021044761C0590AA
:1052E000EFE759F8042B0592002A03DA504244F400
:1052F0000054059044F00204761C30782E2816D114
:1053000016F8010F44F004042A280DD06FF02F0284
:105310003078A0F13003092B09D807EB870302EBA3
:105320004303C718761CF3E759F8047B761C3078E2
:105330006C280FD006DC4C2817D068280DD06A28BE
:1053400014D104E0742810D07A280FD10DE044F471
:1053500000140AE044F4801401E044F4401472782C
:10536000824202D104F58014761C761C30786628BF
:105370000BD013DC582877D009DC002875D04528DD
:10538000F6D04628F4D047281AD19DE118E06328CA
:1053900035D0642879D0652812D195E1702873D072
:1053A00008DC6728F1D069286FD06E280DD06F28EF
:1053B00006D1B5E073282CD0752875D0782874D024
:1053C0005A46179990476D1C75E1C4F302500228A4
:1053D00009D003280DD0D9F8001004280DD00D6095
:1053E00009F1040967E1D9F80010EA17C1E9005290
:1053F000F6E7D9F800100D80F2E70D70F0E719F824
:10540000041B8DF8001000208DF80100EA460120F1
:1054100003E059F804AB4FF0FF3061074FF0000193
:1054200002D40DE008F101018846B9420FDA804547
:10543000F8DB1AF808100029F4D108E008F101019E
:1054400088468142FADB1AF808100029F6D105983F
:105450005B46A0EB080721463846179A00F094FAFD
:10546000284400EB080507E04DE029E10DE01AF8BB
:10547000010B5A4617999047B8F10108F7D25B46DD
:1054800021463846179A13E142E00A220092C4F3FB
:1054900002524FF0000A022A08D059F804CB032A1E
:1054A0004FEAEC710AD00DE029E02AE009F107018A
:1054B00021F00702F2E802C1914609E00FFA8CFCE4
:1054C0004FEAEC71042A03D14FFA8CFC4FEAEC71DD
:1054D000002907DA0A460021DCF1000C61EB020129
:1054E0002D2202E0220504D52B228DF80420012272
:1054F00003E0E20701D02022F7E7904659E00A21B5
:1055000002E010220DE010214FF0000A00910BE0A4
:1055100010224FF0000A44F004040827009203E030
:1055200008224FF0000A0092C4F30252022A05D06A
:1055300059F804CB0021032A08D009E009F107013A
:1055400021F00702F2E802C1914605E01FFA8CFC47
:10555000042A01D10CF0FF0C4FF00008220728D5D7
:10556000702806D0009B83F0100353EA0A0305D08D
:105570000EE040228DF80420012208E05CEA0102DE
:1055800006D030228DF804208DF8050002229046C6
:10559000009B83F0080353EA0A030AD15CEA010284
:1055A00001D1620705D530228DF804204FF00108A3
:1055B0007F1E582804D034A003900EA802900DE05E
:1055C00036A0F9E753466046009AFAF7E0FF8446B2
:1055D0000398825C0298401E029002705CEA01000F
:1055E000F0D1029806A9081A00F1200A600702D536
:1055F00024F4803400E00127574502DDA7EB0A00C0
:1056000000E0002000EB0A01009005984144401A98
:105610000590E00306D45B462146179A059800F0F2
:10562000B3F90544002706E001A85A46C05D179962
:1056300090476D1C7F1C4745F6DBE0030CD55B46AD
:105640002146179A059800F09FF9054404E03020A0
:105650005A46179990476D1C0099481E00900029E2
:10566000F5DC08E0029802995A460078491C02913C
:10567000179990476D1CBAF10001AAF1010AF1DCFB
:1056800065E1000009280100303132333435363706
:10569000383961626364656600000000303132337E
:1056A000343536373839414243444546000000001E
:1056B00000F058F90544761C307800287FF4ECADF2
:1056C00019B02846BDE8F08F620700D4062709F11B
:1056D000070222F0070CFCE80223E14603F0004831
:1056E0005FEA080C02D00FF2702C0DE05FEA045C58
:1056F00002D50FF2682C07E05FEAC47C02D00FF2FB
:10570000602C01E0AFF2700C4FF0FF3823F0004343
:10571000CDF850C065280CD006DC452809D04628B5
:105720001DD047283DD13DE0662818D067287ED19E
:1057300038E00021112F01DB112000E0781CCDE9B9
:10574000000106A90EA8FFF7DDFCDDE90F010E9AA6
:1057500003910021009207F1010A04914DE04FF0FE
:1057600000400097CDE9011006A90EA8FFF7CAFC7A
:10577000DDE90F0203920E9B11990022DDF80CA0C7
:105780000093049211B9791C00EB010AB7EB0A00EF
:1057900004D4C0F1FF3007F1010A0490AAEB07001E
:1057A000019044E0012F00DA01270021112F01DDD3
:1057B000112000E03846CDE9000106A90EA8FFF748
:1057C000A1FCDDE90F010E9A0391002104910092E2
:1057D000BA4621070CD40399514500DA8A46BAF13A
:1057E000010F05DD009AAAF10101515C302908D0B2
:1057F000B84202DA10F1040F06DA0121CDE90110F6
:1058000015E0AAF10101E9E7002805DC049901444B
:105810000491AAEB000102E0411C514500DD8A46DB
:105820000499401A401C01904FF00040029020075C
:1058300004D40198504501DBCDF8048000208DF898
:105840004F0002980DF14F07B0F1004F25D02B20EB
:105850000E9002984FF0020800280CDA40420290A5
:105860002D200E9007E00A210298FAF77AFE3031D7
:10587000029007F8011DB8F10001A8F10108F2DC5F
:1058800002980028EFD1791E0E980870307800F049
:10589000200040F0450007F8020D12A8C01B00F1DF
:1058A00007081498007800B1012000EB0A01019864
:1058B00001EBE07105984144401A401E0590E00359
:1058C00006D45B462146179A059800F05DF805441A
:1058D0001498007818B15A46179990476D1CE00348
:1058E00024D55B462146179A059800F04DF80544EB
:1058F0001CE00498002807DBDDE90301884203DD92
:105900000098405C179901E0179930205A4690475B
:10591000049805F10105401C04900198401E019077
:1059200004D12E205A46179990476D1CBAF10001F8
:10593000AAF1010ADDDC05E017F8010B5A461799B8
:1059400090476D1CB8F10001A8F10108F4DC5B463A
:105950002146179A0598ABE62D0000002B000000A9
:10596000200000002DE9F041044600251E461746A0
:10597000880404D405E039462020B0476D1C641E1D
:10598000F9D52846BDE8F0812DE9F041044600250F
:105990001E469046C80301D5302700E02027880422
:1059A00004D505E041463846B0476D1C641EF9D564
:1059B0002846BDE8F0810000000001020304010256
:1059C00003040607080900000000000000000000B2
:1059D0000000000004040404040000040000141487
:1059E0000A00000000000000000000000A0A1F0A70
:1059F0000A1F0A0A000000040E1505060C14150EF5
:105A00000400000012150D152E2C2A1200000000B3
:105A1000040A0A36151529160000020201000000CA
:105A20000000000000001008080404040404080832
:105A3000100002040408080808080404020000001A
:105A40000004150E0E150400000000000008083EBA
:105A50000808000000000000000000000000020232
:105A6000010000000000003F0000000000000000F6
:105A700000000000000000020000002010100808D4
:105A800004040202010000000E1111111111110E87
:105A900000000000040604040404040E00000000DA
:105AA0000E1111080402011F000000000E11100C5D
:105AB0001010110E00000000080C0C0A091F081C31
:105AC000000000001F01010F1110110E0000000066
:105AD0000C12010D1311110E000000001E10080819
