:020000040800F2
:10000000D8340120D90100083D1A0008B10B0008BE
:10001000391A000891070008A92100080000000013
:10002000000000000000000000000000C11C0008EB
:100030009507000800000000C11A0008FD1C000818
:10004000F3010008F3010008F3010008F3010008C0
:10005000F3010008F3010008F3010008F3010008B0
:10006000F3010008F3010008F3010008F3010008A0
:10007000F3010008F3010008F3010008F301000890
:10008000F3010008F3010008F3010008F301000880
:10009000F3010008F3010008F3010008F301000870
:1000A000F3010008F3010008F3010008F301000860
:1000B000F3010008E91E0008F3010008F30100083D
:1000C000F3010008F3010008F3010008F301000840
:1000D000F3010008D91F0008F3010008F30100082C
:1000E000F3010008F3010008F3010008F301000820
:1000F000F3010008F3010008F3010008F301000810
:10010000F3010008F3010008F3010008F3010008FF
:10011000F3010008F3010008F3010008F3010008EF
:10012000F3010008F3010008F3010008F3010008DF
:10013000F30100080000000000000000F3010008C7
:10014000F3010008F3010008F3010008F3010008BF
:10015000F3010008F3010008F3010008F3010008AF
:10016000F3010008F3010008F3010008F30100089F
:10017000F3010008F3010008F3010008000000008B
:1001800000000000F3010008000000000000000073
:10019000F30100080000000000000000F301000867
:1001A000000000000000000000000000F301000853
:1001B000F3010008F3010008F3010008F30100084F
:1001C000F3010008DFF80CD000F0BAFA004800474D
:1001D000B5230008D8340120064880470648004768
:1001E000FEE7FEE7FEE7FEE7FEE7FEE7FEE7FEE7E7
:1001F000FEE7FEE7CD1D0008C501000840EA010347
:100200009B0703D009E008C9121F08C0042AFAD2CC
:1002100003E011F8013B00F8013B521EF9D2704790
:10022000D2B201E000F8012B491EFBD27047002238
:10023000F6E710B513460A4604461946FFF7F0FFE5
:10024000204610BD2DE9FE4F804681EA0300C00F15
:100250000C46009021F0004123F00045B8EB02006D
:10026000A94105D24046214690461C460B4602460F
:1002700023F00040104347D0270DC7F30A00C3F313
:100280000A510290401A019040286BDAC3F3130020
:1002900040F4801B0098924620B10023D2EB030A61
:1002A00063EB0B0B01985946C0F14002504600F039
:1002B00098F906460D4650465946019A00F0A0F9B5
:1002C00010EB08006141002487EA115284EAE773C9
:1002D0001A4340D0009A62B3019A012A4FEA0752AA
:1002E00015DC001B61EB02014FF0004202EA0752ED
:1002F000CDE90042001C41F5801132462B4600F04A
:10030000A0F903B0BDE8F08F40462146F9E7001B95
:1003100061EB0201001C41F5801300185B412018BD
:10032000A2F5001747EB030140EAD570B6196D41FD
:1003300011E06D084FEA360645EAC0754FEA0752EC
:10034000001B61EB0201001C41F5801149084FEAD6
:1003500030000019514132462B4603B0BDE8F04F42
:1003600000F060B90098012240000023D0EB0202A7
:1003700063EBE073009821464FEAE074B8EB0000AD
:1003800061EB0401E9E783F000435BE781F00041A2
:1003900058E72DE9FE4F81EA030404F0004421F000
:1003A000004100944FF0000B23F0004350EA010499
:1003B0005ED052EA03045BD0C3F30A54C1F30A557A
:1003C0002C44A4F2F3340194A0FB0254C1F31301B2
:1003D00041F48011C3F3130343F4801301FB02447F
:1003E00000FB034E840A970A44EA815447EA835784
:1003F000A4FB076802958D0A05FB07854FEA932C3D
:1004000004FB0C542705029D4FEA065847EA1637AD
:10041000B5EB08056EEB070C870E920E47EA8117C5
:1004200042EA8312A7FB0201B6EB0B0164EB000466
:100430002B0D43EA0C335E1844EB1C50DA46514650
:10044000E7FB0201C5F313044FEA0B3343EA1453ED
:100450004FEA0432019C43EA0603A4F10C0402941F
:10046000009CCDE900B400F0ECF803B0BDE8F08FDB
:1004700000200146F9E72DE9F04D81EA030404F07C
:10048000004B21F0004514464FF0000A23F00041D4
:1004900050EA050220D054EA01021DD0C5F30A57E4
:1004A0000246C5F31303C1F31300C1F30A5640F427
:1004B000801543F48013A7EB0608101BD64608F2FC
:1004C000FD3873EB050002D308F1010801E0921832
:1004D0005B41B8F1000F03DA00200146BDE8F08D62
:1004E00000204FF48011064684460EE0171B73EB84
:1004F000050705D3121B63EB050306434CEA010C09
:1005000049084FEA300092185B4150EA0107EDD1EB
:1005100052EA030012D082EA040083EA050108438C
:1005200005D0101BAB4106D20122002306E00022B9
:100530004FF0004302E06FF0010253101AEB060087
:100540004CEB085110EB0A0041EB0B01BDE8F04DFC
:1005500000F068B830B50B46014600202022012487
:1005600009E021FA02F59D4205D303FA02F5491B81
:1005700004FA02F52844151EA2F10102F1DC30BD97
:100580002DE9F05F0546002092469B4688460646C8
:10059000814640241BE0284641464746224600F05B
:1005A000E7F853465A46C01A914110D311461846EF
:1005B000224600F016F82D1A67EB01084F46224636
:1005C0000120002100F00DF817EB00094E41201E1C
:1005D000A4F10104DFDC484631462A464346BDE823
:1005E000F09F202A04DB203A00FA02F10020704735
:1005F0009140C2F1200320FA03F319439040704761
:10060000202A06DBCB17203A41FA02F043EAE073D6
:1006100006E041FA02F3D040C2F1200291400843C3
:100620001946704710B5141E73F1000408DA401C17
:1006300041F1000192185B411A4301D120F0010001
:1006400010BD2DE9F04D92469B4611B1B1FA81F2F1
:1006500002E0B0FA80F220329046FFF7C2FF044673
:100660000F4640EA0A0041EA0B0153465A46084346
:1006700013D0114653EA010019D0C8F14002504688
:1006800000F076F805460E46504659464246FFF7BA
:10069000A8FF084305D0012004E020463946BDE804
:1006A000F08D0020054346EAE0762C4337430A9854
:1006B0006305E40AA0EB08000022FD0A44EA47545F
:1006C0000A3002D500200146E9E701051019694109
:1006D000DDE9084500196941BDE8F04DA2E7C1F325
:1006E0000A52C1F3130140F2FF3341F480119A42E0
:1006F00002DA00200146704740F233439A42A2F2E8
:10070000334202DC524200F033B8FFF76ABF000008
:1007100030B5041E71F1000404DB4FF00044404288
:1007200064EB0101141E73F1000405DB1C464FF05D
:100730000043524263EB0403994208BF904230BD2C
:100740001CB509480090094801900546009C06E048
:10075000E06840F0010394E8070098471034AC4289
:10076000F6D3FFF733FD0000B4480008D448000872
:10077000202A04DB203A21FA02F00021704721FAF6
:1007800002F3D040C2F1200291400843194670475D
:10079000FEE700007047000080B5042001F0A2FAD7
:1007A00040F20400C2F2000000684DF68361C4F21A
:1007B0001B31A0FB011244F6D351C1F26201A0FB30
:1007C0000101900C40F21012C2F20002106040F2DF
:1007D0000C10C2F20000012202704EF21000CEF2A4
:1007E00000000268890942F002020260416001686B
:1007F00041F00101016080BD10B5044603F0F2F83C
:1008000001280AD02CB940F20C10C2F20000007886
:1008100010B9204602F0D0FA00244EF2180040F23F
:100820001011CEF20000C2F2000150F804CC0968A9
:100830004FF47A7261434A430168002304688C4292
:10084000FCD00B441B1B8C4228BF634493422146BF
:1008500028BF10BDF2E7000080B54EF2180140F24B
:100860001012CEF20001C2F2000251F804CC12685C
:10087000002302FB00FE08680A688242FCD00344A1
:100880009B1A824228BF63447345104628BF80BD2F
:10089000F2E700002DE9F04F89B01546202A0746FF
:1008A0000593039112D0182D07D0102D18D11020C8
:1008B000049020200290002010E01820049048208E
:1008C000029044F60070C0F2030007E0202004907C
:1008D000802002904BF68070C0F20A00019003E085
:1008E0000020CDE90100049005980078002800F070
:1008F000F0800399DDE9128B0139009140F2100676
:1009000005990024C2F200060DE000BF0698059A82
:10091000811CCCB2105D079F049B00281F4452FA33
:1009200081F100F0D68000F15F02D2B2082AC2B293
:10093000069407971AD84B78A12B17D35E2012FB89
:10094000003043F6BF31401ADDE9011200FB02100E
:10095000314601F0C7FC202D2CD0182D26D0102DAB
:100960002DD110204FF0200927E000BF5030C0B239
:100970004728CBD84878A128C8D35E2112FB0100B4
:1009800044F24111401ADDE9011200FB0210314628
:1009900001F0A8FC202D56D0182D50D0079F102D07
:1009A00057D110204FF02009012456E018204FF0B5
:1009B000480902E020204FF08009012403E00024D0
:1009C0004FF0000900203918009A013910448AB20A
:1009D000039983B2B8B200F00FFA002C96D0B9F1A7
:1009E000010F4FF0010098BF8146CDF82090002400
:1009F0004FF0000907E000BF4FF0000908980134EC
:100A000084423FF483AF4F4609F108094FF0000AD2
:100A1000305D20FA0AF0C007404608BF584600F093
:100A2000B5FF0137F8B2B0FBF5F101FB1500002866
:100A3000E2D00AF1010ABAF1080FE9D1DEE7182085
:100A40004FF0480902E020204FF08009079F012461
:100A500003E000244FF0000900203918009A013902
:100A600010448AB2039983B2B8B200F0C5F9002CE1
:100A70003FF44CAFB9F1010F4FF0010098BF814630
:100A8000CDF8209000274FF0000906E04FF0000954
:100A90000898013787423FF439AF4C4609F10809FD
:100AA0004FF0000AF05D20FA0AF0C007404608BF88
:100AB000584600F06BFF0134E0B2B0FBF5F101FBEA
:100AC00015000028E2D00AF1010ABAF1080FE9D1B5
:100AD000DEE709B0BDE8F08F2DE9F043D1F80080E2
:100AE00000234FF0010C4FF0030E002410E000BF74
:100AF000C26802EA0902C260CA79C5689A402A43FC
:100B0000C2600134102C03F1020308BFBDE8F0837A
:100B10000CFA04F618EA060FF3D002680EFA03F78F
:100B2000BA4302600A796FEA0709076802FA03F517
:100B3000013A3D43012A0560DAD8826802EA0902D7
:100B400082604A798D7987689A403A438260426828
:100B5000B243426005FA04F2456892B22A43426009
:100B6000C6E700001C2303EA810C6FF0030303EACD
:100B7000510108440F23016A03FA0CF399430162FF
:100B8000016A02FA0CF211430162704700690840E1
:100B900018BF012070470000090481617047000000
:100BA00081617047002A08BF090481617047000015
:100BB000FEE70000B0B582B007200121012400F05B
:100BC000B1FF48F210008DF80740002400904FF468
:100BD0004070C4F202046D46ADF804002046294678
:100BE000FFF77AFF40F28230009004F580602946DA
:100BF000FFF772FF4EF20700009004F500602946EF
:100C0000FFF76AFF05200121002202F07FFB40F27E
:100C10009401C2F20001086008B102B0B0BD02A0A8
:100C200003F020FE02B0B0BD4B65795F517565756C
:100C30006548616E646C6520437265617465204629
:100C400061696C210D000000B0B540F20044C4F2AF
:100C50000204A4F5806528464FF40041FFF796FF93
:100C600088B90A2002F0A8F828464FF40041FFF79F
:100C70008DFF002800F0908028464FF40041FFF7D8
:100C800085FF0028F8D028461021FFF77FFF78B9AC
:100C90000A2002F091F828461021FFF777FF00287C
:100CA00000F07F8028461021FFF770FF0028F9D060
:100CB00020464FF40071FFF769FF80B90A2002F067
:100CC0007BF820464FF40071FFF760FF00286DD0DD
:100CD00020464FF40071FFF759FF0028F8D0204656
:100CE0004FF48071FFF752FF88B90A2002F064F8D0
:100CF00020464FF48071FFF749FF00285BD000BF0A
:100D000020464FF48071FFF741FF0028F8D02046BD
:100D1000022100F055F800281CBF0520B0BD204678
:100D2000802100F04DF800281CBF0620B0BD04F55E
:100D3000806420464FF4005100F042F800281CBFA8
:100D40000720B0BD20464FF4804100F039F800285C
:100D50001CBF0820B0BD20464FF4004100F030F821
:100D600000281CBF0920B0BD2046022100F028F851
:100D700000281CBF0A20B0BD2046012100F020F849
:100D800000281CBF0B20B0BD2046042100F018F83D
:100D9000002818BF0C20B0BD0A2002F00DF8012079
:100DA000B0BD0A2002F008F80220B0BD0A2002F00F
:100DB00003F80320B0BD0A2001F0FEFF0420B0BDFF
:100DC000B0B50C460546FFF7E1FE68B90A2001F010
:100DD000F3FF28462146FFF7D9FE38B128462146C1
:100DE000FFF7D4FE0028F9D00020B0BD0A2001F0A2
:100DF000E3FF0120B0BD00002DE9F04740F20045BF
:100E0000C4F2020505F58064894607462046402164
:100E100098469246FFF7C0FE28464FF48051FFF7F0
:100E2000BBFE2A2000F050FD0120FFF715FD2846EB
:100E30004FF48051FFF7B4FE20464021FFF7B0FE8B
:100E400028464FF480513E0AFFF7A6FE304600F0D8
:100E50003BFD0120FFF700FD28464FF48051FFF7CE
:100E60009FFE28464FF48051FFF796FEF8B200F03F
:100E70002BFD0120FFF7F0FC28464FF48051FFF7CF
:100E80008FFE28464FF480514FEA1A26FFF784FE62
:100E9000304600F019FD0120FFF7DEFC28464FF434
:100EA0008051FFF77DFE28464FF48051FFF774FE16
:100EB0005FFA8AF000F008FD0120FFF7CDFC28461C
:100EC0004FF48051FFF76CFE20464021FFF764FE8F
:100ED00028464FF48051FFF75FFE2B2000F0F4FC12
:100EE0000120FFF7B9FC28464FF48051FFF758FE68
:100EF00020464021FFF754FE28464FF480514FEA28
:100F00001926FFF749FE304600F0DEFC0120FFF70E
:100F1000A3FC28464FF48051FFF742FE28464FF4C9
:100F20008051FFF739FE5FFA89F000F0CDFC012017
:100F3000FFF792FC28464FF48051FFF731FE284618
:100F40004FF480514FEA1826FFF726FE304600F096
:100F5000BBFC0120FFF780FC28464FF48051FFF7CF
:100F60001FFE28464FF48051FFF716FE5FFA88F007
:100F700000F0AAFC0120FFF76FFC28464FF48051D7
:100F8000FFF70EFE20464021FFF706FE28464FF4ED
:100F90008051FFF701FE2C2000F096FC0120FFF7A6
:100FA0005BFC28464FF48051FFF7FAFD20464021B4
:100FB000BDE8F047FFF7F4BD2DE9F04381B00E46E0
:100FC0008146501E591E9846154682B28BB248463D
:100FD0003146FFF711FF464512D2089C04E000BFDE
:100FE0000136B0B240450BD2A945F9D24F4600BFF9
:100FF000204600F0CBFC0137B8B2A842F8D3EFE7A7
:1010000001B0BDE8F083000070B582B000F074FC60
:101010000620012100F086FD4FF4A840009040F228
:10102000013040F20044C0F20010C4F202046E46E7
:10103000019020463146FFF74FFD402004F58065C2
:10104000009028463146FFF747FD20464FF4A8415F
:10105000FFF7A6FD28464021FFF7A2FD20464FF4EA
:101060008041FFF799FD6420FFF7C6FB20464FF44F
:101070008041FFF795FD6420FFF7BEFB20464FF44B
:101080008061FFF78DFD6420FFF7B6FB2846402105
:10109000FFF782FD20464FF48051FFF77DFD1120C0
:1010A00000F012FC0120FFF7D7FB20464FF48051DF
:1010B000FFF776FD28464021FFF772FD7820FFF705
:1010C0009BFB28464021FFF767FD20464FF48051E7
:1010D000FFF762FD362000F0F7FB0120FFF7BCFBB5
:1010E00020464FF48051FFF75BFD28464021FFF773
:1010F00057FD20464FF48051FFF74EFDC02000F011
:10110000E3FB0120FFF7A8FB20464FF48051FFF7D7
:1011100047FD28464021FFF73FFD20464FF4805110
:10112000FFF73AFD3A2000F0CFFB0120FFF794FBD8
:1011300020464FF48051FFF733FD28464021FFF74A
:101140002FFD20464FF48051FFF726FD052000F0CB
:10115000BBFB0120FFF780FB20464FF48051FFF7D7
:101160001FFD28464021FFF717FD20464FF4805110
:10117000FFF712FDB22000F0A7FB0120FFF76CFB88
:1011800020464FF48051FFF70BFD28464021FFF722
:1011900007FD20464FF48051FFF7FEFC0C2000F0C5
:1011A00093FB0120FFF758FB20464FF48051FFF7D7
:1011B000F7FC20464FF48051FFF7EEFC0C2000F0C6
:1011C00083FB0120FFF748FB20464FF48051FFF7D7
:1011D000E7FC20464FF48051FFF7DEFC002000F0D2
:1011E00073FB0120FFF738FB20464FF48051FFF7D7
:1011F000D7FC20464FF48051FFF7CEFC332000F09F
:1012000063FB0120FFF728FB20464FF48051FFF7D6
:10121000C7FC20464FF48051FFF7BEFC332000F09E
:1012200053FB0120FFF718FB20464FF48051FFF7D6
:10123000B7FC28464021FFF7AFFC20464FF4805111
:10124000FFF7AAFCB72000F03FFB0120FFF704FBEB
:1012500020464FF48051FFF7A3FC28464021FFF7BA
:101260009FFC20464FF48051FFF796FC352000F09C
:101270002BFB0120FFF7F0FA20464FF48051FFF7D7
:101280008FFC28464021FFF787FC20464FF4805111
:10129000FFF782FCBB2000F017FB0120FFF7DCFA10
:1012A00020464FF48051FFF77BFC28464021FFF792
:1012B00077FC20464FF48051FFF76EFC322000F09F
:1012C00003FB0120FFF7C8FA20464FF48051FFF7D7
:1012D00067FC28464021FFF75FFC20464FF4805111
:1012E000FFF75AFCC22000F0EFFA0120FFF7B4FA32
:1012F00020464FF48051FFF753FC28464021FFF76A
:101300004FFC20464FF48051FFF746FC012000F0CF
:10131000DBFA0120FFF7A0FA20464FF48051FFF7D7
:101320003FFC28464021FFF737FC20464FF4805110
:10133000FFF732FCC32000F0C7FA0120FFF78CFA58
:1013400020464FF48051FFF72BFC28464021FFF741
:1013500027FC20464FF48051FFF71EFC152000F0BB
:10136000B3FA0120FFF778FA20464FF48051FFF7D7
:1013700017FC28464021FFF70FFC20464FF4805110
:10138000FFF70AFCC42000F09FFA0120FFF764FA7F
:1013900020464FF48051FFF703FC28464021FFF719
:1013A000FFFB20464FF48051FFF7F6FB202000F0B2
:1013B0008BFA0120FFF750FA20464FF48051FFF7D7
:1013C000EFFB28464021FFF7E7FB20464FF4805112
:1013D000FFF7E2FBC62000F077FA0120FFF73CFAA6
:1013E00020464FF48051FFF7DBFB28464021FFF7F2
:1013F000D7FB20464FF48051FFF7CEFB0F2000F0C3
:1014000063FA0120FFF728FA20464FF48051FFF7D6
:10141000C7FB28464021FFF7BFFB20464FF4805111
:10142000FFF7BAFBD02000F04FFA0120FFF714FAC3
:1014300020464FF48051FFF7B3FB28464021FFF7C9
:10144000AFFB20464FF48051FFF7A6FBA42000F02D
:101450003BFA0120FFF700FA20464FF48051FFF7D6
:101460009FFB20464FF48051FFF796FBA12000F030
:101470002BFA0120FFF7F0F920464FF48051FFF7D7
:101480008FFB28464021FFF787FB20464FF4805111
:10149000FFF782FBE02000F017FA0120FFF7DCF9EC
:1014A00020464FF48051FFF77BFB28464021FFF791
:1014B00077FB20464FF48051FFF76EFBD02000F001
:1014C00003FA0120FFF7C8F920464FF48051FFF7D7
:1014D00067FB20464FF48051FFF75EFB082000F0C9
:1014E000F3F90120FFF7B8F920464FF48051FFF7D8
:1014F00057FB20464FF48051FFF74EFB0E2000F0C3
:10150000E3F90120FFF7A8F920464FF48051FFF7D7
:1015100047FB20464FF48051FFF73EFB092000F0C7
:10152000D3F90120FFF798F920464FF48051FFF7D7
:1015300037FB20464FF48051FFF72EFB092000F0C7
:10154000C3F90120FFF788F920464FF48051FFF7D7
:1015500027FB20464FF48051FFF71EFB052000F0CB
:10156000B3F90120FFF778F920464FF48051FFF7D7
:1015700017FB20464FF48051FFF70EFB312000F09F
:10158000A3F90120FFF768F920464FF48051FFF7D7
:1015900007FB20464FF48051FFF7FEFA332000F09E
:1015A00093F90120FFF758F920464FF48051FFF7D7
:1015B000F7FA20464FF48051FFF7EEFA482000F08A
:1015C00083F90120FFF748F920464FF48051FFF7D7
:1015D000E7FA20464FF48051FFF7DEFA172000F0BB
:1015E00073F90120FFF738F920464FF48051FFF7D7
:1015F000D7FA20464FF48051FFF7CEFA142000F0BE
:1016000063F90120FFF728F920464FF48051FFF7D6
:10161000C7FA20464FF48051FFF7BEFA152000F0BC
:1016200053F90120FFF718F920464FF48051FFF7D6
:10163000B7FA20464FF48051FFF7AEFA312000F0A0
:1016400043F90120FFF708F920464FF48051FFF7D6
:10165000A7FA20464FF48051FFF79EFA342000F09D
:1016600033F90120FFF7F8F820464FF48051FFF7D7
:1016700097FA28464021FFF78FFA20464FF4805111
:10168000FFF78AFAE12000F01FF90120FFF7E4F8E4
:1016900020464FF48051FFF783FA28464021FFF798
:1016A0007FFA20464FF48051FFF776FAD02000F001
:1016B0000BF90120FFF7D0F820464FF48051FFF7D7
:1016C0006FFA20464FF48051FFF766FA082000F0C9
:1016D000FBF80120FFF7C0F820464FF48051FFF7D8
:1016E0005FFA20464FF48051FFF756FA0E2000F0C3
:1016F000EBF80120FFF7B0F820464FF48051FFF7D8
:101700004FFA20464FF48051FFF746FA092000F0C7
:10171000DBF80120FFF7A0F820464FF48051FFF7D7
:101720003FFA20464FF48051FFF736FA092000F0C7
:10173000CBF80120FFF790F820464FF48051FFF7D7
:101740002FFA20464FF48051FFF726FA152000F0BB
:10175000BBF80120FFF780F820464FF48051FFF7D7
:101760001FFA20464FF48051FFF716FA312000F09F
:10177000ABF80120FFF770F820464FF48051FFF7D7
:101780000FFA20464FF48051FFF706FA332000F09D
:101790009BF80120FFF760F820464FF48051FFF7D7
:1017A000FFF920464FF48051FFF7F6F9482000F08A
:1017B0008BF80120FFF750F820464FF48051FFF7D7
:1017C000EFF920464FF48051FFF7E6F9172000F0BB
:1017D0007BF80120FFF740F820464FF48051FFF7D7
:1017E000DFF920464FF48051FFF7D6F9142000F0BE
:1017F0006BF80120FFF730F820464FF48051FFF7D7
:10180000CFF920464FF48051FFF7C6F9152000F0BC
:101810005BF80120FFF720F820464FF48051FFF7D6
:10182000BFF920464FF48051FFF7B6F9312000F0A0
:101830004BF80120FFF710F820464FF48051FFF7D6
:10184000AFF920464FF48051FFF7A6F9342000F09D
:101850003BF80120FFF700F820464FF48051FFF7D6
:101860009FF928464021FFF797F920464FF4805111
:10187000FFF792F9212000F027F80120FEF7ECFF96
:1018800020464FF48051FFF78BF928464021FFF79F
:1018900087F928464021FFF77FF920464FF4805111
:1018A000FFF77AF9292000F00FF80120FEF7D4FFA6
:1018B00020464FF48051FFF773F928464021FFF787
:1018C0006FF902B070BD0000B0B543F600040546E4
:1018D000C4F200042046022100F0BEF90028F9D02D
:1018E0002046294600F0C0F92046802100F0B4F9D6
:1018F0000028F9D1B0BD0000B0B586B002200121AA
:10190000012500F00FF940F20044C4F20204204621
:101910000D210522FFF726F920460F210522FFF7AA
:1019200021F940F20230C0F2001002904FF4204042
:10193000019001A92046FFF7CFF820464FF420413F
:10194000FFF72EF94FF48040012100F0F7F84FF433
:10195000003002904CF20000C0F2041001904FF4ED
:10196000E020CDF812004FF40070A4F5E634CDF875
:101970000E0001A92046ADF80C5000F077F9204682
:10198000012100F05FF906B0B0BD000070B540F273
:101990000044C4F202040546060A20464FF4805172
:1019A000FFF7FAF83046FFF78FFF0120FEF754FFEC
:1019B00020464FF48051FFF7F3F820464FF4805152
:1019C000FFF7EAF8E8B2FFF77FFF0120FEF744FFD8
:1019D00020464FF48051BDE87040FFF7E1B80000A9
:1019E00070B582B00620012100F09CF840F600049A
:1019F0003C20C4F20204009040F20130A4F580655E
:101A00006E46019028463146FFF766F8204631467B
:101A1000FFF762F820462021FFF7C2F8284604218C
:101A2000FFF7BEF820461021FFF7BAF8204608213C
:101A3000FFF7B6F802B070BDFEE700007047000087
:101A400010B5C17800294EF20011CEF200011CD071
:101A50004EF60C52CEF200021268072323EA12223D
:101A60000F23C2F1040C23FA02FE427884785FFA55
:101A70008CF390F800C09A4004EA0E031A43120156
:101A800001EB0C0383F8002300E080310078012390
:101A900000F01F0203FA02F2C0F3421041F82020C6
:101AA00010BD000040F080604EF60C5140F0FD701B
:101AB000CEF2000108607047000000000000000046
:101AC000EFF30980BFF36F8F154B1A681EF0100FEC
:101AD00008BF20ED108A20E9F04F10602DE90900C1
:101AE0004FF0500080F31188BFF34F8FBFF36F8F1B
:101AF00001F018FB4FF0000080F31188BDE80900E9
:101B000019680868B0E8F04F1EF0100F08BFB0EC7D
:101B1000108A80F30988BFF36F8F704700BF00BF42
:101B200018010020002943F63001C4F202010A68BE
:101B30000CBF22EA0000104308607047002943F6FA
:101B40004001C4F202010A680CBF22EA00001043FF
:101B500008607047002943F64401C4F202010A6894
:101B60000CBF22EA000010430860704743F6040CE3
:101B7000C4F2020CDCF8043042F20042C0F2F4027B
:101B8000C3F3810310B5DFE803F03E02072141F201
:101B90000022C0F27A0236E0DCF800E0DCF8003027
:101BA000DCF8001003F03F03C1F388145FEA4E2114
:101BB00041F20021C0F27A0158BF1146B1FBF3F1A6
:101BC000DCF800206143C2F3014217E0DCF80010AA
:101BD000DCF80030490241F20021C0F27A01DCF861
:101BE000004003F03F0358BF1146B1FBF3F1DCF8AE
:101BF0000020C4F388146143C2F30272022303EB92
:101C00004202B1FBF2F20260DCF8041044F68802F2
:101C1000C1F30311C0F60002515C036823FA01F11D
:101C20004160DCF80430C3F38223D35C21FA03F370
:101C30008360DCF80430C3F34233D25CD140C1602E
:101C400010BD00000288002918BF012122F04002C7
:101C500042EA8111018070470089084018BF0120C5
:101C60007047000080897047818170472DE9F041FD
:101C700002880B8802F4415C4A88B1F804E043EA28
:101C80000C03CC881A430D8942EA0E024E89224386
:101C90008F892A43B1F80E8032433A4342EA080260
:101CA0000280828B22F400628283098A0182BDE86D
:101CB000F0810000000000000000000000000000B3
:101CC000074B19680868B0E8F04F80F30988BFF344
:101CD0006F8F4FF0000080F31188704700BF00BF86
:101CE000180100204EF21001CEF200010A6804280B
:101CF00022F0040208BF04320A60704780B501F088
:101D000071FE012808BF80BDBDE8804001F0E6BA41
:101D100070B582B000F046FF0120002103220026AA
:101D200001F0F4FA40F29805C2F20005286080B193
:101D30001CA002F097FD40F20800C2F200000188EA
:101D40004FF6FF741AA300201822CDE90064FEF7B5
:101D5000A1FD286800210022002301F021FB40F2B0
:101D6000A00541F63D70C2F200050224C0F6000055
:101D700012A182220023CDE9004501F035FD41F694
:101D8000BD70C0F600000FA182220023CDE90046FD
:101D900001F02AFD002001F071F802B0BDE87040AA
:101DA00000F024BFB4B4BDA8B3C9B9A60D000000AB
:101DB000B4B4BDA8B3C9B9A6000000005461736BE8
:101DC000310000005461736B3300000082B04EF6A6
:101DD000885CCEF2000CDCF8002043F6000142F4EF
:101DE0007002C4F20201CCF800200A684FF6FF70BE
:101DF00042F001020A6000228A600B68CFF6F660AA
:101E00001840086043F21000C2F2004048600868C1
:101E100020F480200860CA6001920092086840F4B3
:101E200080300860086800F40030009001980130AC
:101E30000190009818B90198B0F5A04FF2D1086848
:101E4000800354BF0020012000900098012844D155
:101E5000086C47F2000240F08050C4F200020864AF
:101E6000106840F44040106088688860886840F4DA
:101E700000408860886840F4A050886045F60820DB
:101E8000C7F240704860086840F08070086000BF8A
:101E900008688001FCD5106840F48030106000BFF5
:101EA0005068C003FCD5106840F40030106000BFDB
:101EB00050688003FCD540F20570C1F800048868C2
:101EC00020F003008860886840F00200886000BF4E
:101ED000886800F00C000828FAD14FF000604CF838
:101EE000800C02B07047000010B540F20044C4F20C
:101EF00000042046012100F015F8012818BF10BD8C
:101F00002046012100F00AF840F21440C4F2020019
:101F1000016881F00401016010BD0000C943018225
:101F200070470000028A80890A4000EA010018BF59
:101F30000122002818BF01201040704782B040F2F3
:101F4000080644F6980540F29807C2F200064FF0E2
:101F50001C084FF6FF794FF0000A15A4C0F60005E3
:101F6000C2F2000709E000BF386800210022002308
:101F700001F016FA642000F01FFFFEF765FE01284D
:101F8000F2D130881822B0F58C7F28BFA6F80080E7
:101F9000318800202346CDE900A9FEF77BFC30887C
:101FA000012118303080284601F0E2FFDCE700BF55
:101FB000D2BBB0B4CFC2B0B4BCFC000040F6140435
:101FC000C4F20204206880F0200020604FF47A7090
:101FD00000F0F2FEF6E7000010B541F20004C4F292
:101FE0000104204640F2255100F064F8012818BF92
:101FF00010BD204600F0D0F840F2A401C2F200016A
:102000000A78C0B2012A10D09AB9402832D140F2E1
:102010000A10C2F20000007860BB0120087040F294
:10202000A500C2F20000002116E00D2816D1022002
:102030001FE00A281ED10020087040F2A501C2F25C
:102040000001097840F2A602C2F20002505440F2A8
:102050000A10C2F20000012101700BE040F2A5015C
:10206000C2F200010A7840F2A603C2F200039854BB
:10207000501C0870204640F22551BDE8104000F089
:1020800001B80000090A012202FA01F1C9430180E6
:10209000704700008289002918BF012122F40052F4
:1020A00042EA4131818170470088084018BF012011
:1020B00070470000C1F342121423022A08BF102304
:1020C000012A08BF0C23C35A008801F01F02090A25
:1020D00023FA02F2C840104000F0010070470000EF
:1020E00070B584B00446008A0D46C98820F440507B
:1020F00008432082A0894EF6F3110840A9882A8956
:102100006B89084310431843A081A08AA98920F451
:10211000407008436E46A0823046FFF727FD41F22B
:10212000000124F48060C4F201010822884208BF43
:102130000C22B058B4F90C100122B1F1FF3FC8BF16
:1021400002222B681921484303FA02F1B0FBF1F097
:1021500048F21F51C5F2EB11A0FB01235A096FF0A1
:10216000630302FB0300B4F90C300326B3F1FF3F15
:10217000C8BF042600FA06F000F13200A0FB0101FE
:102180004FF00700C8BF0F2000EA511040EA0210CC
:10219000208104B070BD000080886FF35F2070471D
:1021A0006FF35F2181807047FEE7000010B584B0B7
:1021B00001200121FFF7B6FC0024C4F202042046EE
:1021C00009210722FEF7CEFC20460A210722FEF74E
:1021D000C9FC4FF4C060009040F2023001906946A3
:1021E0002046FEF779FC10200121FFF7B3FC4FF4E5
:1021F000E130009000204FF44021A4F57044ADF888
:102200000C00CDE9010169462046FFF769FF204631
:102210000121FFF73FFF40F22550C0F2001000906F
:102220006846FFF70DFC04B010BD000070B586B025
:10223000022001210126FFF775FC40F20044C4F2A0
:102240000204204603210622FEF78CFC20460421CE
:102250000622FEF787FC204605210622FEF782FCB7
:102260004020019040F20130C0F2001001AD029018
:1022700020462946FEF730FC3820019040F202301B
:10228000C0F20010029020462946FEF725FC2046A9
:1022900040210122FEF786FC4FF400400121FFF7A8
:1022A0004DFC4FF4003002904FF0827001904FF4DB
:1022B000E020CDF8120040F20020C0F21000A4F59A
:1022C000E434CDF80E0001A92046ADF80C60FFF70C
:1022D000CDFC20460121FFF7B5FC06B070BD000023
:1022E000FFF7A4BFF0B581B040F20044C4F202048D
:1022F00015460E460746204640210022FEF752FCB6
:10230000032000F01DF8C7F3074000F019F8C7F3E9
:10231000072000F015F8F8B200F012F845B1013EC0
:102320000020013D00F00CF8002D06F8010FF7D158
:1023300020464021012201B0BDE8F040FEF732BC4A
:10234000B0B543F600440546C4F20004204602211D
:10235000FFF782FC0028F9D020462946FFF784FCCD
:1023600020460121FFF778FC0028F9D02046FFF72E
:1023700079FCC0B2B0BD0000B0B541F20005044622
:102380000A28C4F2010509D128460D21FFF708FFEC
:1023900028468021FFF788FE0028F9D0E1B22846C0
:1023A000FFF7FEFE28468021FFF77EFE0028F9D0C9
:1023B0002046B0BD82B0FEF7EFF9FFF711FBFFF743
:1023C000F5FEFFF78DFFFEF7F5FBFEF71DFE4FF460
:1023D0004070FFF767FB4FF6FF7C00200021F022E2
:1023E0004FF4A073CDF800C0FEF7E6FD40F29C0C60
:1023F00041F61150C2F2000C4FF0020EC0F6000080
:1024000005A1B4220023CDE900EC01F0EDF900F0C4
:1024100033FE00BFFEE700BF53797374656D4372EE
:102420006561745461736B00F0B581B00D4643F281
:10243000C40140F21816C2F20101C2F200060F6890
:1024400031680446081D00F055FB10B1601C0FD028
:1024500027E0306842F6C872C06AC2F20102012168
:10246000136801FA00F023EA00001060601C18D124
:10247000BDB143F29C00C2F2010041683268916034
:102480008A683368DA6032688B6804325A6032686E
:1024900004328A603168486101680131016001B02D
:1024A000F0BD3068E41944600BD340F22810C2F24A
:1024B000000000683168043101B0BDE8F04000F070
:1024C0003BBB40F22010C2F20000006831680431CA
:1024D00000F032FB43F22800C2F2010001688C4296
:1024E00038BF046001B0F0BD70B500F05BFB43F293
:1024F000C806C2F20106306818B1BDE8704000F0AD
:1025000075BB42F6CC74C2F20104204600F004FB15
:1025100042F6E075C2F20105284600F0FDFA40F2ED
:102520001C10C2F20000046040F22C10C2F2000045
:1025300005600A200C21002200F0E8FE002830602F
:10254000DBD003A100F0E6FBBDE8704000F04EBB1D
:10255000546D72510000000042F6BC7540F2301A12
:102560004EF6045843F2B00742F6B876C2F20105BF
:10257000C2F2000ACEF200084FF08059C2F2010701
:10258000C2F2010615E000BF00F00CFBF868C46859
:10259000201D00F0AFFA306801383060286801383B
:1025A000286000F023FB206B00F038FB204600F091
:1025B00035FB28680028E7D1DAF800000228F8D3B4
:1025C000C8F80090BFF34F8FBFF36F8FF1E70000A3
:1025D00008480068006880F308884FF0000080F326
:1025E000148862B661B6BFF34F8FBFF36F8F00DF01
:1025F00000BF000008ED00E02DE9F04381B040F29B
:102600001C18C2F20008D8F800200546D2680E4611
:10261000D46804F10409484600F06CFA94F82800E4
:1026200041070CD400F0FA0084F828001CE000BF39
:10263000711B814210D3216A204688473D46A0691C
:1026400024614719B7426760F2D9AE4201D2AF4266
:10265000F1D2D8F8000004E040F22C10C2F20000E1
:102660000068494600F068FA216A204601B0BDE8DA
:10267000F043084781B00020009040F20C00C2F205
:10268000000000684FF0500181F31188BFF36F8F95
:10269000BFF34F8F013001D0FEE700BF0098002844
:1026A000FCD001B07047000084B040F21C1440F22E
:1026B000141940F22C1A43F2C80BC2F20004C2F201
:1026C0000009C2F2000AC2F2010B0DF1040800BFBA
:1026D0002068076817B1C068066800E0002600F0AF
:1026E00019FD01F093F9D9F800100546884209D286
:1026F0002068016891B1C0684FF0FF310068FFF7B2
:102700007BFFF5E7C9F8005097B1AE4210D801F051
:102710003FFB30462946FFF76FFF29E0DAF800104B
:10272000CAF800002160C9F8005001F031FB1FE039
:102730000FB1002205E0DAF800000068B0FA80F07E
:102740004209DBF80000711B00F012FB01F020FBD6
:1027500070B94EF60450CEF200004FF08051016087
:10276000BFF34F8FBFF36F8F02E0206800F0E4F9F2
:10277000DBF800004146002200F01CFF0028A7D033
:1027800001980028F4D4039D686910B1281D00F059
:10279000B1F901F03BF9D9F80010064688420ED293
:1027A0002068016831B1C0684FF0FF310068FFF761
:1027B00023FFF5E7DAF80010CAF80000216001985D
:1027C000C9F8006001380828D2D8DFE800F0050514
:1027D0003A236205053A230095F82800029BAA696E
:1027E00040F0010185F82810D718294641F8047FE8
:1027F000B7422D6104D99E42B7D29F4203D2B4E7BB
:10280000F31A934218D3430722D400F0FA0085F854
:10281000280052E095F8280040F00101029885F860
:1028200028100028A8614CD03044294641F8040FF4
:10283000B0422D613FF699AFDAF8000000F07CF964
:1028400096E795F8280000F0FE0085F828008FE74D
:102850000298D946C346D0460F46104407E000BF51
:10286000301A88421DD3296A284688475046A969EC
:102870002D6101EB000AB245C5F804A0F0D98642EB
:1028800001D28245EFD22068394600F055F9C246A0
:102890000DE095F828008107D5D4284600F0BEF950
:1028A00066E7D8F800003946C24600F045F9D84638
:1028B000CB4640F21419C2F20009296A284688471B
:1028C00056E74FF0500080F31188BFF36F8FBFF3CE
:1028D0004F8F00BFFEE70000F0B581B0044600F066
:1028E00061F994F94560012E0FDB04F1240500BF66
:1028F000286850B1284601F0D7F9002818BF00F029
:102900005DFB70B2013E0128F2DCFF2684F84560D1
:1029100000F06CF900F046F994F94470012F0EDBD9
:1029200004F11005286850B1284601F0BDF90028CF
:1029300018BF00F043FB78B2013F0128F2DC84F8B5
:10294000446001B0BDE8F04000F050B970B50446F5
:1029500000F0E0FB40F22411C2F20001086843F2EB
:102960001C0EC2F2010E58B184B304F007001138F6
:10297000A04226BF24F0070000F11003002326E048
:1029800040F2B030C2F20000C21D430700F596339A
:1029900018BF22F0070043F29402C2F2010200269F
:1029A000C2E9000623F00702A2F108030B6042E926
:1029B00002661A1A0B68CEF80020C0E9003243F212
:1029C0002400C2F201000260002CCED10023012BB2
:1029D0004FF000046CDBDEF80000834268D843F25D
:1029E0009402C2F2010215686C689C4207D200BFD3
:1029F000286820B144682A4605469C42F8D30868F6
:102A0000854212D0D2F800C02E68E01A1128166054
:102A100031D3EC1862070AD04FF0500080F31188D0
:102A2000BFF36F8FBFF34F8FFEE7002440E060607D
:102A30006B6043F29403C2F2010300BF1A461B68A5
:102A4000A342FBD350681618A64203D16468204401
:102A5000144650606668A019984201D0184606E0F6
:102A60000868834203D0D3E9000131446160A24287
:102A7000206018BF146043F224006968DEF800206B
:102A8000C2F201000368511A9942CEF8001038BF13
:102A9000016043F230026868C2F20102136840F03C
:102AA000004000210CF10804C5E90010581C10601A
:102AB00001F06EF9600708D04FF0500080F31188E4
:102AC000BFF36F8FBFF34F8FFEE7204670BD00004E
:102AD000034642F2756021F00101C0F600004FF09C
:102AE000807C03E903106FF00201A3F1440043E985
:102AF00009127047D0E9013201699A60D1F804C027
:102B000082688445536008BF4A60002202610868F9
:102B100001380860086870474FF0FF31024642F8FC
:102B2000081F00214260C0E90322016070470000D5
:102B3000002101617047000080B5D1F800C01CF190
:102B4000010207D000F108039E465B681A686245DF
:102B5000FAD901E0D0F810E0DEF8042008614A60FC
:102B60009160C1F808E0CEF80410016801310160FD
:102B700080BD0000D0F800C0436808619A684B60CF
:102B80008A609A68996051600CF101010160704798
:102B9000DFF80C00016841F470010160704700002B
:102BA00088ED00E04FF0500080F31188BFF36F8F85
:102BB000BFF34F8F40F20C00C2F2000001684A1CC4
:102BC000026001B170474EF60450CEF2000000687A
:102BD000000608BF70474FF0500080F31188BFF324
:102BE0006F8FBFF34F8F00BFFEE7000040F20C0075
:102BF000C2F20000016839B10139016018BF7047A5
:102C0000002080F3118870474FF0500080F3118846
:102C1000BFF36F8FBFF34F8FFEE70000B0B5002802
:102C200008BFB0BD50F8041C002908D44FF0500074
:102C300080F31188BFF36F8FBFF34F8FFEE7A0F1D2
:102C4000080422684AB14FF0500080F31188BFF3A6
:102C50006F8FBFF34F8F00BFFEE721F0004140F8B8
:102C6000041C054600F056FA43F21C01C2F20101B1
:102C700055F8040C0B682A461844086043F2940186
:102C8000C2F2010108460968A142FBD34368C51896
:102C9000A54204D152F8042C04461A4442606368E9
:102CA000E2188A4201D00A460AE040F22412C2F237
:102CB00000021268914203D0D1E9002119446160F9
:102CC000A042226018BF046043F23400C2F2010047
:102CD000016801310160BDE8B04001F059B8000061
:102CE0004EF21000CEF2000000210160816040F23F
:102CF0000401C2F20001096844F6D352C1F2620233
:102D0000A1FB02124FF0FF3101EB9211416007214C
:102D100001607047B0B5C8B14FF0000CF9B143F293
:102D2000500EC2F2010E0023002202E00833402BB5
:102D300018D00EEB03046568854212D0002AF5D145
:102D40002268002A18BF64462246EFE74FF0500081
:102D500080F31188BFF36F8FBFF34F8FFEE7002220
:102D600000E02246002A18BFC2E90010B0BD0000F2
:102D700070B515460E460446FFF714FF94F844005C
:102D8000FF2804BF002084F8440094F84500FF2881
:102D900004BF002084F84500FFF728FFA06B28B986
:102DA00004F1240031462A4600F02CF92046BDE803
:102DB0007040FFF791BD000070B5002852D042F678
:102DC000C071C2F201010A684AB14FF0500080F3AD
:102DD0001188BFF36F8FBFF34F8F00BFFEE705462B
:102DE000086840F218140130086043F2C400C2F2CF
:102DF0000100C2F20004066820680430FFF77AFE82
:102E000060B9206842F6C872C06AC2F201020121AC
:102E1000136801FA00F023EA000010602068AD1981
:102E2000456009D340F22810C2F200000068216812
:102E30000431FFF781FE10E040F22010C2F20000E2
:102E4000006821680431FFF777FE43F22800C2F2E0
:102E5000010001688D4238BF056000F099FF00282D
:102E600018BF70BD4EF60450CEF200004FF08051F6
:102E70000160BFF34F8FBFF36F8F70BD70B5044615
:102E8000FFF790FE40F21816002CC2F2000608BFB1
:102E90003468251D2846FFF72DFEA0B9E06A40F2F0
:102EA000301200EB8001C2F2000252F8211051B939
:102EB00042F6C872C2F201020121136801FA00F061
:102EC00023EA00001060A06A18B104F11800FFF7AF
:102ED00011FE42F6C470C2F20100016801310160C6
:102EE0003068844216D042F6B870C2F20100016820
:102EF0000139016040F22010C2F200000168096847
:102F0000B1B1006843F22801C068C2F20101006853
:102F1000086014E043F2B000C2F201002946FFF756
:102F200029FE42F6BC70C2F201000168013105E0E1
:102F300043F22800C2F201004FF0FF310160FFF7B9
:102F400055FE3068844205D0206BFFF767FE2046AF
:102F5000FFF764FE43F29000C2F201000068E8B19E
:102F60003068844218BF70BD42F6C070C2F20100E2
:102F7000006840B14FF0500080F31188BFF36F8FAD
:102F8000BFF34F8FFEE74EF60450CEF200004FF035
:102F900080510160BFF34F8FBFF36F8F70BD000092
:102FA00043F22C01C2F201010968016043F2C4013D
:102FB000C2F20101096841607047000043F2D0008D
:102FC000C2F20100012101607047000078B110B524
:102FD0000C4640F21811C2F2000109681831FFF7DF
:102FE000ABFD20460121BDE81040FFF71DBA4FF0B0
:102FF000500080F31188BFF36F8FBFF34F8F00BF76
:10300000FEE7000068B310B540F2181CC2F2000CD5
:10301000D0F804E0DCF80030002AC3F81CE0DEF849
:103020000830DCF800402362DCF80030DEF80840AD
:1030300003F118036360DCF80030044603F1180361
:10304000CEF80830DCF800309862036818BF4FF003
:10305000FF310133084611462360BDE81040FFF7F9
:10306000E3B94FF0500080F31188BFF36F8FBFF3C7
:103070004F8F00BFFEE7000080B582B043F2200C06
:1030800042F25950C2F2010C4FF0000EC0F600009F
:103090001EA178220023CDE900EC00F0A5FB012859
:1030A00008BF00F035FF411C25D001281CD14FF08E
:1030B000500080F31188BFF36F8FBFF34F8F43F23F
:1030C0002800C2F201004FF0FF31016043F290008E
:1030D000C2F201000121016043F2C400C2F201000A
:1030E0000021016000F062F844F6B000C0F6000074
:1030F000006802B080BD4FF0500080F31188BFF32C
:103100006F8FBFF34F8F00BFFEE700BF49444C45B0
:103110000000000042F6C070C2F2010001680131F7
:103120000160704742F6C070C2F20100006830B121
:1031300043F2D000C2F2010001210160704743F266
:10314000D000C2F201000021016042F6C870C2F254
:1031500001000068B0FA80F0C0B2C0F11F0040F278
:10316000301100EB8000C2F2000151F8202092B132
:1031700001EB8000416800F108024968914241601A
:1031800001D149684160406840F21811C068C2F23C
:103190000001086070474FF0500080F31188BFF3C2
:1031A0006F8FBFF34F8F00BFFEE70000B0B584B054
:1031B0004EF20040CEF200004CF27021C4F20F112A
:1031C000D0F800294B1C9A4209D14FF0500080F3EF
:1031D0001188BFF36F8FBFF34F8F00BFFEE7D0F8AA
:1031E00000298A4209D14FF0500080F31188BFF3C3
:1031F0006F8FBFF34F8F00BFFEE7017842F6B072CA
:103200000291FF2101700178C2F201028DF80710CE
:103210009DF8071001F05001117042F6B471C2F22E
:10322000010107220A609DF90720B2F1FF3F0CDC83
:10323000062200BF0A609DF80730013A5B008DF856
:1032400007309DF90730002BF4D40A68032A3BD1DC
:103250004FF440720A6002990170D0F8201941F4CD
:103260007001C0F82019D0F8201941F07041C0F861
:103270002019FFF735FD40F20C04C2F200040025CE
:103280002560FFF785FC4EF63470CEF20000016831
:1032900041F040410160FFF79BF9FFF743FF0395C1
:1032A00020684FF0500181F31188BFF36F8FBFF397
:1032B0004F8F013002D000BFFEE700BF0398002807
:1032C000FCD0002004B0B0BD4FF0500080F3118856
:1032D000BFF36F8FBFF34F8FFEE7000080B54FF055
:1032E000500080F31188BFF36F8FBFF34F8F00F052
:1032F00093FB30B14EF60450CEF200004FF08051F7
:103300000160002080F3118880BD0000F0B581B01D
:10331000E0B3A0FB0137CFBB01FB00F313F1510F6A
:1033200034D8064603F150000F461546FFF70EFB52
:103330004FF0000438B30146002F18BF5031016030
:10334000C0E90F670646FFF72DFC3068D6E90F127B
:10335000B46302FB0103013901FB0201C6E9010369
:10336000FF20F16086F8440086F8450006F1100061
:10337000FFF7D2FB06F12400FFF7CEFBFFF736FC88
:10338000344686F84C50204601B0F0BD4FF0500056
:1033900080F31188BFF36F8FBFF34F8FFEE70000FC
:1033A0002DE9F04F85B00492B8B11D460446F1B145
:1033B000022D03D1E06B012840F0A780019100F0BD
:1033C00011FB00BB0498F0B14FF0500080F311885E
:1033D000BFF36F8FBFF34F8FFEE74FF0500080F3C6
:1033E0001188BFF36F8FBFF34F8F00BFFEE7206CD4
:1033F0000028DDD04FF0500080F31188BFF36F8FAD
:10340000BFF34F8FFEE7FFF7CDFBA06B022D5ED021
:10341000E16B88425BD304F11006012002AF4FF04C
:10342000000B0DF1100800BF0499002900F0828004
:10343000C00702D03846FFF7B3FDFFF7D7FBFFF711
:1034400069FEFFF7AFFB94F84400FF2808BF84F83B
:1034500044B094F84500FF2808BF84F845B0FFF752
:10346000C5FB3846414600F079F9002865D1FFF7E1
:1034700099FBD4F838A0D4F83C90FFF7B7FBCA45C5
:1034800016D104993046FFF7A1FD2046FFF724FA34
:1034900000F07EFC88B94EF60450CEF200004FF0EA
:1034A00080510160BFF34F8FBFF36F8F05E000BF06
:1034B0002046FFF711FA00F06BFCFFF773FBA06BDF
:1034C000022D04D0E16B88424FF00000ACD2A66B15
:1034D000226C01991AB3CDB3E068FCF78FFEE16866
:1034E000206C2268091A9142E16003D2A16840422F
:1034F0000844E060A81EB0FA80F040093146002E72
:1035000018BF01210840361A2CE04FF0500080F31C
:103510001188BFF36F8FBFF34F8F00BFFEE72068A6
:1035200000BBA06800F056FB0021B0FA80F0A1605B
:10353000400918E0FFF75AFB04E02046FFF7CCF9FA
:1035400000F026FC002005B0BDE8F08F6068FCF7B5
:1035500055FED4E90101226C10448842606001D319
:10356000206860600120711CA16354F8241F79B1A8
:10357000204600F099FBB8B14EF60450CEF20000A0
:103580004FF080510160BFF34F8FBFF36F8F0BE09F
:1035900050B94EF60450CEF200004FF08051016059
:1035A000BFF34F8FBFF36F8FFFF720FB012005B0F4
:1035B000BDE8F08F2DE9F04F85B0049298B10C462C
:1035C0000546002900F0B78000F00CFAA8B904986D
:1035D00098B14FF0500080F31188BFF36F8FBFF3A5
:1035E0004F8F00BFFEE74FF0500080F31188BFF30C
:1035F0006F8FBFF34F8F00BFFEE705F11000019002
:1036000005F1240000900DF108090DF1100A4FF0AA
:1036100000080CE02846FFF75FF900F0B9FBFFF760
:10362000C1FAAF6BFFF7E2FA002F00F09280FFF7CC
:10363000B9FAD5F838B0BBF1000F27D02A6C5AB1CF
:10364000D5E902011144E960814224BF2868E8609D
:10365000E9682046FCF7D2FDABF10100A8632869B8
:1036600070B1019800F020FB50B14EF60450CEF23C
:1036700000004FF080510160BFF34F8FBFF36F8F99
:10368000FFF7B4FA00200126A0B963E0049850B116
:10369000B8F1000F02D14846FFF782FC4FF0010855
:1036A000012038B956E0FFF7A1FA002600200028D3
:1036B00050D000BFFFF79AFAFFF72CFDFFF772FA20
:1036C00095F84400FF2804BF002085F8440095F8D1
:1036D0004500FF2804BF002085F84500FFF786FA63
:1036E0004846514600F03AF800287FF493AFFFF7C0
:1036F00059FAAF6BFFF77AFA2FB12846FFF7ECF8CB
:1037000000F046FB93E704990098FFF75FFC28461A
:10371000FFF7E2F800F03CFB00287FF488AF4EF69C
:103720000450CEF200004FF080510160BFF34F8F84
:10373000BFF36F8F7BE7286C00283FF445AF4FF055
:10374000500080F31188BFF36F8FBFF34F8F00BF1E
:10375000FEE70026304605B0BDE8F08F70B538B3FF
:103760000C4671B30546FFF71DFA43F2C40EC2F2D0
:10377000010EDEF800302268501C30D043F22C0CD1
:10378000C2F2010C2946D5E90050DCF80060AE42D7
:1037900001D083421FD2181A82421CD9101A20600D
:1037A000DCF8000000240860DEF80000486017E044
:1037B0004FF0500080F31188BFF36F8FBFF34F8F2E
:1037C000FEE74FF0500080F31188BFF36F8FBFF317
:1037D0004F8F00BFFEE700202060012400E000249E
:1037E000FFF704FA204670BD2DE9F04F81B0970035
:1037F00081463846984692460E46FFF7A7F890B1A4
:1038000005465820FFF7A2F850B158210446FCF7AE
:103810000EFD256354B94FF0FF3001B0BDE8F08FC5
:103820002846FFF7FBF90024002CF4D0206B0A9DFA
:103830003946A522FCF7F4FC206B76B104F1340183
:10384000002200BFB35C8B54B35C1BB1092A02F1A8
:103850000102F7D1002184F83D10202D09D34FF04B
:10386000500080F31188BFF36F8FBFF34F8F00BFFD
:10387000FEE700EB8A00043804F1040B20F0070691
:103880000B9F5846E562A564FFF752F904F1180052
:10389000FFF74EF9C5F12000A06130464946424687
:1038A00024616462FFF714F9002F206018BF3C60A8
:1038B000FFF778F942F6B870C2F20100016840F2F1
:1038C000181601310160C2F20006316843F2900A15
:1038D00040F23017C2F2010AC2F2000751B1DAF821
:1038E000000000283FD13068E16AC06A884298BF72
:1038F000346038E034600068012834D1002500BF0E
:103900007819FFF709F91435B5F5207FF8D142F69B
:10391000F478C2F201084046FFF7FEF843F20809C6
:10392000C2F201094846FFF7F7F843F23C00C2F241
:103930000100FFF7F1F843F2B000C2F20100FFF717
:10394000EBF843F29C00C2F20100FFF7E5F840F209
:103950002010C2F20000C0F8008040F22810C2F22D
:103960000000C0F8009042F6C470C2F20100016885
:1039700042F6C872013101602164E06AC2F20102BC
:10398000012113688140194300EB8000116007EBAF
:1039900080014A6861619368A260E3609368C2F83D
:1039A00008B0C3F804B057F82010013147F82010D0
:1039B000FFF71CF9DAF8000078B13068E16AC06AF4
:1039C00088420AD24EF60450CEF200004FF08051E9
:1039D0000160BFF34F8FBFF36F8F012001B0BDE8CF
:1039E000F08F000043F29000C2F20100006800284E
:1039F00004BF0120704742F6C070C2F201000068A7
:103A0000B0FA80F0400940007047000043F2C40063
:103A1000C2F20100006870472DE9F04F42F6C07015
:103A2000C2F20100006848B143F23800C2F201005E
:103A30000168013101600020BDE8F08F43F2C4004D
:103A4000C2F20100016811F1010EC0F800E02DD3AF
:103A500040F22010C2F20000026812684AB14FF032
:103A6000500080F31188BFF36F8FBFF34F8F00BFFB
:103A7000FEE740F22813C2F2000302681F680760E5
:103A80001A6043F22C02C2F2010213680133136080
:103A9000026812681AB10068C068006801E04FF05F
:103AA000FF3043F22802C2F20102106043F2280103
:103AB000C2F20101086840F230188645C2F20008DF
:103AC00001D200206EE040F2201AC2F2000ADAF8B9
:103AD00000004FF000090068002858D042F6C87B6B
:103AE000C2F2010B002025E0F96ADBF80020012377
:103AF0008B401A43CBF8002001EB810208EB8203D4
:103B00005E687B61B468BE60FC60B468B560656087
:103B100058F82230013348F8223040F21812C2F22D
:103B200000021268D26ADAF80030914288BF0120A0
:103B3000196881B3DAF80030DB68DF683D4655F874
:103B4000044FA64529D3D7E902637C69B360D4F852
:103B500004C0FB68AC455E6008BF6360C7F81490A2
:103B60002368013B2360BC6A002CBDD0D7E9076302
:103B70006268B3603B6A07F118018A425E6008BF61
:103B80006360C7F82890216801392160ACE74FF0E5
:103B9000FF34002005E04FF0FF3443F22801C2F269
:103BA00001010C6040F21811C2F200010968C96AF3
:103BB00001EB810158F82110012943F2D001C2F232
:103BC000010188BF01200968002918BF0120BDE854
:103BD000F08F0000002804BF0020704740F2181149
:103BE000C2F200010968814209D04FF0500080F311
:103BF0001188BFF36F8FBFF34F8F00BFFEE7C16C1B
:103C0000002946D04A1E0146C2644FF000003FD151
:103C10000A46CB6A8A6C934208BF704770B50E1D86
:103C200030460D46FEF766FF42F6C87C2946C2F2D2
:103C3000010C48B9C86A0123DCF8005003FA00F00F
:103C400025EA0000CCF800008B6CC3F12000CB62A9
:103C500088610120DCF8005000FA03F22A43CCF816
:103C6000002040F2301C03EB8302C2F2000C0CEB8C
:103C700082056B684D619C688B60CC609C689E601F
:103C800066605CF8221001314CF82210BDE87040EB
:103C900070474FF0500080F31188BFF36F8FBFF370
:103CA0004F8F00BFFEE70000C068C06810B310B5BA
:103CB000D0E90713826A8B60036AD2F804E000F14E
:103CC000180C59600021E64508BF536081621168F5
:103CD0000139116042F6C071C2F20101096891B167
:103CE00043F23C02C2F20102516882628B68C161F8
:103CF000036231E04FF0500080F31188BFF36F8F03
:103D0000BFF34F8FFEE7D0E9021342698B60D2F810
:103D100004E0C36800F1040CE645596008BF536035
:103D2000116842F6C87401391160C16AC2F2010417
:103D30004FF0010E22680EFA01F31A43226040F29E
:103D4000301201EB8101C2F2000202EB81025168E4
:103D500042618B688160C3608B68C1F808C0C3F89A
:103D600004C011680131116040F21811C2F2000163
:103D7000C06A0968C96A8842BDE8104091BF002046
:103D800043F2D001C2F20101012088BF08607047F0
:103D90002DE9F04F81B042F6C074C2F201042068F0
:103DA00068B1FEF7FFFE206801382060206880B10E
:103DB0000024FEF71BFF204601B0BDE8F08F4FF056
:103DC000500080F31188BFF36F8FBFF34F8F00BF98
:103DD000FEE742F6B870C2F2010000680028E7D0A2
:103DE00043F23C0AC2F2010ADAF8001043F2D008AA
:103DF0000029C2F2010868D042F6C87B40F23014B4
:103E000040F2181E4FF0000C4FF00109C2F2010BF6
:103E1000C2F20004C2F2000EDAF80C10CE68D6E945
:103E20000721B76A91607868316A06F11805A842DF
:103E30004A6008BF7960C6F828C038680138386021
:103E4000D6E90202716982604A68F568371DBA4294
:103E5000686008BF4D60086801380860F06ADBF8E8
:103E6000001009FA00F21143CBF8001000EB8001BA
:103E700004EB810255687261AB68B560F360AB68B2
:103E8000AF605F6054F82120013244F82120DEF851
:103E90000010C96A884228BFC8F80090DAF800000C
:103EA0000028B9D18EB140F22010C2F200000168A2
:103EB000096819B10068C068006801E04FF0FF3080
:103EC00043F22801C2F20101086043F23804C2F251
:103ED0000104256855B10126FFF79EFD002818BF93
:103EE000C8F80060013DF7D100202060D8F800003C
:103EF00000283FF45DAF4EF60450CEF200004FF0C4
:103F000080510160BFF34F8F0124BFF36F8F50E7E3
:103F100080B582B0FEF7E8FA43F2C800C2F20100B1
:103F2000006888B143F2CC0C42F2A960C2F2010CE5
:103F30004FF0020EC0F600000BA1F0220023CDE9E5
:103F400000ECFFF751FC00E0002000281CBF02B08D
:103F500080BD4FF0500080F31188BFF36F8FBFF327
:103F60004F8F00BFFEE700BF546D72205376630091
:103F70000FB4054B10B503A9044A029800F0DAF813
:103F800010BC5DF814FB000079230008000000203D
:103F900002E008C8121F08C1002AFAD17047704712
:103FA000002001E001C1121F002AFBD17047000070
:103FB0002DE9FF5F82B00021DDE90430020DDDF85C
:103FC00040B0034318D044F61050A2F2FF324243EF
:103FD0001514119801281FD0A5EB0B00401C5FEAB7
:103FE000000A4FF000064E4FDFF83891B0465046B9
:103FF00015D5CAF1000413E0119801244AA3012841
:1040000001D16FEA0B010298119AC0E90031C0E9B1
:10401000024206B0BDE8F09FCBF10000DFE70446A6
:104020000021404A491842EB0450CDE9001012E04B
:10403000E00707D032463B4640464946FCF7A9F91F
:104040008046894632463B4610461946FCF7A1F9A0
:1040500006460F466410002CEAD1DDE90401DDE9D3
:104060000023BAF1000F06DAFCF793F942464B46FB
:10407000FCF78FF905E0FCF7FEF942464B46FCF7EA
:10408000FAF904460E460022284BFCF741FB03D800
:104090004FF0FF30014607E00022254B2046314615
:1040A000FCF7D0F8FCF71BFB102409E0002C0ADB1E
:1040B0000A220023FCF764FA039B30321A55641E6F
:1040C00050EA0102F2D1641C039AC4F111031444B2
:1040D000119A012A03D0012208430DD10AE00843B6
:1040E00004D000204FF0110B119072E7A3EB0B05E9
:1040F0006D1E0DE05B4504DD4FF0000205F101058A
:1041000004E003DA4FF00002A5F10105002AECD02B
:1041100002981199C0E90231C0E9004579E7000031
:10412000000014400000F03F300000000000F043A9
:104130000000E03F2DE9FF4F95B09B4689460646BB
:1041400000250FE2252877D100242746F84A0121CF
:10415000059400E0044316F8013F203B01FA03F008
:104160001042F7D130782A2811D06FF02F03307821
:10417000A0F13002092A16D8059A44F0020402EB95
:10418000820203EB42021044761C0590EFE759F8D7
:10419000042B0592002A03DA504244F4005405909F
:1041A00044F00204761C30782E2816D116F8010F40
:1041B00044F004042A280DD06FF02F023078A0F1CB
:1041C0003003092B09D807EB870302EB4303C71819
:1041D000761CF3E759F8047B761C30786C280FD0F6
:1041E00006DC4C2817D068280DD06A2814D104E0CA
:1041F000742810D07A280FD10DE044F400140AE09E
:1042000044F4801401E044F440147278824202D1F4
:1042100004F58014761C761C307866280BD013DCED
:10422000582877D009DC002875D04528F6D04628D4
:10423000F4D047281AD19DE118E0632835D06428CE
:1042400079D0652812D195E1702873D008DC6728F1
:10425000F1D069286FD06E280DD06F2806D1B5E057
:1042600073282CD0752875D0782874D05A461799A1
:1042700090476D1C75E1C4F30250022809D0032851
:104280000DD0D9F8001004280DD00D6009F10409F3
:1042900067E1D9F80010EA17C1E90052F6E7D9F84A
:1042A00000100D80F2E70D70F0E719F8041B8DF88F
:1042B000001000208DF80100EA46012003E059F8C3
:1042C00004AB4FF0FF3061074FF0000102D40DE066
:1042D00008F101018846B9420FDA8045F8DB1AF887
:1042E00008100029F4D108E008F101018846814254
:1042F000FADB1AF808100029F6D105985B46A0EB06
:10430000080721463846179A00F094FA284400EB33
:10431000080507E04DE029E10DE01AF8010B5A46C7
:1043200017999047B8F10108F7D25B462146384605
:10433000179A13E142E00A220092C4F302524FF0AE
:10434000000A022A08D059F804CB032A4FEAEC717C
:104350000AD00DE029E02AE009F1070121F0070267
:10436000F2E802C1914609E00FFA8CFC4FEAEC71C9
:10437000042A03D14FFA8CFC4FEAEC71002907DACA
:104380000A460021DCF1000C61EB02012D2202E063
:10439000220504D52B228DF80420012203E0E20738
:1043A00001D02022F7E7904659E00A2102E01022CE
:1043B0000DE010214FF0000A00910BE010224FF0A9
:1043C000000A44F004040827009203E008224FF09A
:1043D000000A0092C4F30252022A05D059F804CB15
:1043E0000021032A08D009E009F1070121F00702A2
:1043F000F2E802C1914605E01FFA8CFC042A01D1C3
:104400000CF0FF0C4FF00008220728D5702806D0CA
:10441000009B83F0100353EA0A0305D00EE040220C
:104420008DF80420012208E05CEA010206D0302267
:104430008DF804208DF8050002229046009B83F041
:10444000080353EA0A030AD15CEA010201D16207B8
:1044500005D530228DF804204FF001087F1E582822
:1044600004D034A003900EA802900DE036A0F9E726
:1044700053466046009AFCF783F884460398825CB2
:104480000298401E029002705CEA0100F0D102988E
:1044900006A9081A00F1200A600702D524F4803426
:1044A00000E00127574502DDA7EB0A0000E00020ED
:1044B00000EB0A01009005984144401A0590E00382
:1044C00006D45B462146179A059800F0B3F90544D7
:1044D000002706E001A85A46C05D179990476D1C59
:1044E0007F1C4745F6DBE0030CD55B462146179A57
:1044F000059800F09FF9054404E030205A461799CA
:1045000090476D1C0099481E00900029F5DC08E0DA
:10451000029802995A460078491C029117999047CF
:104520006D1CBAF10001AAF1010AF1DC65E100009D
:104530000928010030313233343536373839616279
:10454000636465660000000030313233343536373D
:1045500038394142434445460000000000F058F914
:104560000544761C307800287FF4ECAD19B028465D
:10457000BDE8F08F620700D4062709F1070222F098
:10458000070CFCE80223E14603F000485FEA080C50
:1045900002D00FF2702C0DE05FEA045C02D50FF23E
:1045A000682C07E05FEAC47C02D00FF2602C01E0C7
:1045B000AFF2700C4FF0FF3823F00043CDF850C03D
:1045C00065280CD006DC452809D046281DD0472890
:1045D0003DD13DE0662818D067287ED138E0002123
:1045E000112F01DB112000E0781CCDE9000106A9A4
:1045F0000EA8FFF7DDFCDDE90F010E9A0391002103
:10460000009207F1010A04914DE04FF0004000973D
:10461000CDE9011006A90EA8FFF7CAFCDDE90F02DB
:1046200003920E9B11990022DDF80CA000930492D6
:1046300011B9791C00EB010AB7EB0A0004D4C0F1F0
:10464000FF3007F1010A0490AAEB0700019044E053
:10465000012F00DA01270021112F01DD112000E0D8
:104660003846CDE9000106A90EA8FFF7A1FCDDE957
:104670000F010E9A0391002104910092BA4621077E
:104680000CD40399514500DA8A46BAF1010F05DDD1
:10469000009AAAF10101515C302908D0B84202DA2F
:1046A00010F1040F06DA0121CDE9011015E0AAF19D
:1046B0000101E9E7002805DC049901440491AAEB13
:1046C000000102E0411C514500DD8A460499401A70
:1046D000401C01904FF000400290200704D4019844
:1046E000504501DBCDF8048000208DF84F00029882
:1046F0000DF14F07B0F1004F25D02B200E900298FE
:104700004FF0020800280CDA404202902D200E9053
:1047100007E00A210298FBF71DFF3031029007F8ED
:10472000011DB8F10001A8F10108F2DC029800288F
:10473000EFD1791E0E980870307800F0200040F01C
:10474000450007F8020D12A8C01B00F107081498D5
:10475000007800B1012000EB0A01019801EBE07143
:1047600005984144401A401E0590E00306D45B467C
:104770002146179A059800F05DF8054414980078D2
:1047800018B15A46179990476D1CE00324D55B4633
:104790002146179A059800F04DF805441CE004984E
:1047A000002807DBDDE90301884203DD0098405C57
:1047B000179901E0179930205A469047049805F15F
:1047C0000105401C04900198401E019004D12E2048
:1047D0005A46179990476D1CBAF10001AAF1010AD7
:1047E000DDDC05E017F8010B5A46179990476D1C60
:1047F000B8F10001A8F10108F4DC5B462146179AE4
:104800000598ABE62D0000002B0000002000000002
:104810002DE9F041044600251E461746880404D4BD
:1048200005E039462020B0476D1C641EF9D52846A6
:10483000BDE8F0812DE9F041044600251E46904672
:10484000C80301D5302700E02027880404D505E0FF
:1048500041463846B0476D1C641EF9D52846BDE870
:10486000F081000010B5044601E0FDF785FD14F865
:10487000010B04490028F8D1BDE810400A20FDF7DB
:104880007BBD0000000000200000000001020304C6
:1048900001020304060708094B65795F4E756D62D6
:1048A00065723A202564B0B4CFC20D0A0000000042
:1048B0001F000000D8480008000000201000000081
:1048C000903F0008E848000810000020C8340100AC
:1048D000A03F000800000000000000000095BA0A98
:0848E0001C000000AAAAAAAA0C
:04000005080001C529
:00000001FF
