:020000040800F2
:10000000E0340120D90100088117000851040008DC
:100010007D170008750200087D2000080000000020
:10002000000000000000000000000000011A0008AD
:100030007902000800000000011800083D1A0008BD
:10004000F3010008F3010008F3010008F3010008C0
:10005000F3010008F3010008F3010008F3010008B0
:10006000F3010008F3010008F3010008F3010008A0
:10007000F3010008F3010008F3010008F301000890
:10008000F3010008F3010008F3010008F301000880
:10009000F3010008F3010008F3010008F301000870
:1000A000F3010008F3010008F3010008F301000860
:1000B000F3010008451C0008F3010008F3010008E3
:1000C000F3010008F3010008F3010008F301000840
:1000D000F3010008AD1E0008F3010008F301000859
:1000E000F3010008F3010008F3010008F301000820
:1000F000F3010008F3010008F3010008F301000810
:10010000F3010008F3010008F3010008F3010008FF
:10011000F3010008F3010008F3010008F3010008EF
:10012000F3010008F3010008F3010008F3010008DF
:10013000F30100080000000000000000F3010008C7
:10014000F3010008F3010008F3010008F3010008BF
:10015000F3010008F3010008F3010008F3010008AF
:10016000F3010008F3010008F3010008F30100089F
:10017000F3010008F3010008F3010008000000008B
:1001800000000000F3010008000000000000000073
:10019000F30100080000000000000000F301000867
:1001A000000000000000000000000000F301000853
:1001B000F3010008F3010008F3010008F30100084F
:1001C000F3010008DFF80CD000F03CF800480047CD
:1001D00089220008E034012006488047064800478D
:1001E000FEE7FEE7FEE7FEE7FEE7FEE7FEE7FEE7E7
:1001F000FEE7FEE7291B0008C501000840EA0103ED
:100200009B0703D009E008C9121F08C0042AFAD2CC
:1002100003E011F8013B00F8013B521EF9D2704790
:10022000D2B201E000F8012B491EFBD27047002238
:10023000F6E710B513460A4604461946FFF7F0FFE5
:10024000204610BD1CB5094800900948019005469C
:10025000009C06E0E06840F0010394E8070098473E
:100260001034AC42F6D3FFF7B1FF000094750008DC
:10027000B4750008FEE700007047000080B5042058
:1002800001F0D0FB40F20400C2F2000000684DF61D
:100290008361C4F21B31A0FB011244F6D351C1F2B9
:1002A0006201A0FB0101900C40F21812C2F20002A0
:1002B000106040F21410C2F20000012202704EF2EF
:1002C0001000CEF200000268890942F002020260CA
:1002D0004160016841F00101016080BD10B5044634
:1002E00003F06CFC01280AD02CB940F21410C2F2C1
:1002F0000000007810B9204602F030FD00244EF2D4
:10030000180040F21811CEF20000C2F2000150F8BD
:1003100004CC09684FF47A7261434A4301680023B0
:1003200004688C42FCD00B441B1B8C4228BF6344E6
:100330009342214628BF10BDF2E7000080B54EF27F
:10034000180140F21812CEF20001C2F2000251F878
:1003500004CC1268002302FB00FE08680A6882428F
:10036000FCD003449B1A824228BF63447345104665
:1003700028BF80BDF2E700002DE9F043D1F80080EE
:1003800000234FF0010C4FF0030E002410E000BFDB
:10039000C26802EA0902C260CA79C5689A402A4363
:1003A000C2600134102C03F1020308BFBDE8F083E2
:1003B0000CFA04F618EA060FF3D002680EFA03F7F7
:1003C000BA4302600A796FEA0709076802FA03F57F
:1003D000013A3D43012A0560DAD8826802EA09023F
:1003E00082604A798D7987689A403A438260426890
:1003F000B243426005FA04F2456892B22A43426071
:10040000C6E700001C2303EA810C6FF0030303EA34
:10041000510108440F23016A03FA0CF39943016266
:10042000016A02FA0CF21143016270470069084048
:1004300018BF012070470000090481617047000067
:1004400081617047002A08BF09048161704700007C
:10045000FEE70000B0B582B007200121012401F0C1
:1004600001FA48F210008DF80740002400904FF484
:100470004070C4F202046D46ADF8040020462946DF
:10048000FFF77AFF40F28230009004F58060294641
:10049000FFF772FF4EF20700009004F50060294656
:1004A000FFF76AFF01200121002202F001FF40F264
:1004B0009401C2F20001086008B102B0B0BD02A010
:1004C00003F052FE02B0B0BD4B65795F51756575A2
:1004D0006548616E646C6520437265617465204691
:1004E00061696C210D000000B0B540F20044C4F217
:1004F0000204A4F5806528464FF40041FFF796FFFB
:1005000088B90A2002F02AFC28464FF40041FFF780
:100510008DFF002800F08B8028464FF40041FFF744
:1005200085FF0028F8D020460221FFF77FFF78B929
:100530000A2002F013FC20460221FFF777FF002873
:100540007AD000BF20460221FFF770FF0028F9D0C3
:1005500020468021FFF76AFF70B90A2002F0FEFBF7
:1005600020468021FFF762FF00286AD020468021C4
:10057000FFF75CFF0028F9D028461021FFF756FF4F
:1005800070B90A2002F0EAFB28461021FFF74EFF5F
:1005900000285BD028461021FFF748FF0028F9D03B
:1005A00020464FF4007100F057F800281CBF0520CA
:1005B000B0BD20464FF4807100F04EF800281CBFFB
:1005C0000620B0BD04F5806420464FF4005100F0D1
:1005D00043F800281CBF0720B0BD20464FF48041DF
:1005E00000F03AF800281CBF0820B0BD20460221C8
:1005F00000F032F800281CBF0920B0BD20464FF49F
:10060000004100F029F800281CBF0A20B0BD204698
:10061000012100F021F800281CBF0B20B0BD2046AE
:10062000042100F019F8002818BF0C20B0BD0A20E2
:1006300002F094FB0120B0BD0A2002F08FFB0220E3
:10064000B0BD0A2002F08AFB0320B0BD0A2002F0F0
:1006500085FB0420B0BD0000B0B50C460546FFF791
:10066000E5FE68B90A2002F079FB28462146FFF72B
:10067000DDFE38B128462146FFF7D8FE0028F9D024
:100680000020B0BD0A2002F069FB0120B0BD0000CF
:100690002DE9F04740F20045C4F2020505F58064FB
:1006A000894607462046402198469246FFF7C4FEF9
:1006B00028464FF48051FFF7BFFE2A2000F050FD7E
:1006C0000120FFF73BFE28464FF48051FFF7B8FEAC
:1006D00020464021FFF7B4FE28464FF480513E0AE1
:1006E000FFF7AAFE304600F03BFD0120FFF726FE93
:1006F00028464FF48051FFF7A3FE28464FF480515F
:10070000FFF79AFEF8B200F02BFD0120FFF716FE6E
:1007100028464FF48051FFF793FE28464FF480514E
:100720004FEA1A26FFF788FE304600F019FD012037
:10073000FFF704FE28464FF48051FFF781FE28465C
:100740004FF48051FFF778FE5FFA8AF000F008FD61
:100750000120FFF7F3FD28464FF48051FFF770FEAC
:1007600020464021FFF768FE28464FF48051FFF7EE
:1007700063FE2B2000F0F4FC0120FFF7DFFD28468C
:100780004FF48051FFF75CFE20464021FFF758FEF2
:1007900028464FF480514FEA1926FFF74DFE3046A8
:1007A00000F0DEFC0120FFF7C9FD28464FF4805120
:1007B000FFF746FE28464FF48051FFF73DFE5FFAF3
:1007C00089F000F0CDFC0120FFF7B8FD28464FF47A
:1007D0008051FFF735FE28464FF480514FEA182626
:1007E000FFF72AFE304600F0BBFC0120FFF7A6FD14
:1007F00028464FF48051FFF723FE28464FF48051DE
:10080000FFF71AFE5FFA88F000F0AAFC0120FFF75C
:1008100095FD28464FF48051FFF712FE20464021F7
:10082000FFF70AFE28464FF48051FFF705FE2C2003
:1008300000F096FC0120FFF781FD28464FF480511F
:10084000FFF7FEFD20464021BDE8F047FFF7F8BD69
:100850002DE9F04381B00E468146501E591E984640
:10086000154682B28BB248463146FFF711FF464526
:1008700012D2089C04E000BF0136B0B240450BD252
:10088000A945F9D24F4600BF204600F021FF0137AD
:10089000B8B2A842F8D3EFE701B0BDE8F08300009A
:1008A00070B582B000F074FC0620012100F0DAFF80
:1008B0004FF4A840009040F2013040F20044C0F2F2
:1008C0000010C4F202046E46019020463146FFF744
:1008D00053FD402004F58065009028463146FFF71F
:1008E0004BFD20464FF4A841FFF7AAFD28464021C2
:1008F000FFF7A6FD20464FF48041FFF79DFD6420E1
:10090000FFF7ECFC20464FF48041FFF799FD64208F
:10091000FFF7E4FC20464FF48061FFF791FD64206F
:10092000FFF7DCFC28464021FFF786FD20464FF408
:100930008051FFF781FD112000F012FC0120FFF72C
:10094000FDFC20464FF48051FFF77AFD28464021F8
:10095000FFF776FD7820FFF7C1FC28464021FFF71E
:100960006BFD20464FF48051FFF766FD362000F006
:10097000F7FB0120FFF7E2FC20464FF48051FFF720
:100980005FFD28464021FFF75BFD20464FF4805174
:10099000FFF752FDC02000F0E3FB0120FFF7CEFC83
:1009A00020464FF48051FFF74BFD28464021FFF7CA
:1009B00043FD20464FF48051FFF73EFD3A2000F002
:1009C000CFFB0120FFF7BAFC20464FF48051FFF720
:1009D00037FD28464021FFF733FD20464FF4805174
:1009E000FFF72AFD052000F0BBFB0120FFF7A6FC66
:1009F00020464FF48051FFF723FD28464021FFF7A2
:100A00001BFD20464FF48051FFF716FDB22000F089
:100A1000A7FB0120FFF792FC20464FF48051FFF71F
:100A20000FFD28464021FFF70BFD20464FF4805173
:100A3000FFF702FD0C2000F093FB0120FFF77EFC86
:100A400020464FF48051FFF7FBFC20464FF48051C5
:100A5000FFF7F2FC0C2000F083FB0120FFF76EFC97
:100A600020464FF48051FFF7EBFC20464FF48051B5
:100A7000FFF7E2FC002000F073FB0120FFF75EFCB3
:100A800020464FF48051FFF7DBFC20464FF48051A5
:100A9000FFF7D2FC332000F063FB0120FFF74EFC90
:100AA00020464FF48051FFF7CBFC20464FF4805195
:100AB000FFF7C2FC332000F053FB0120FFF73EFCA0
:100AC00020464FF48051FFF7BBFC28464021FFF73A
:100AD000B3FC20464FF48051FFF7AEFCB72000F086
:100AE0003FFB0120FFF72AFC20464FF48051FFF71F
:100AF000A7FC28464021FFF7A3FC20464FF4805175
:100B0000FFF79AFC352000F02BFB0120FFF716FCC5
:100B100020464FF48051FFF793FC28464021FFF711
:100B20008BFC20464FF48051FFF786FCBB2000F081
:100B300017FB0120FFF702FC20464FF48051FFF71E
:100B40007FFC28464021FFF77BFC20464FF4805174
:100B5000FFF772FC322000F003FB0120FFF7EEFBF1
:100B600020464FF48051FFF76BFC28464021FFF7E9
:100B700063FC20464FF48051FFF75EFCC22000F07A
:100B8000EFFA0120FFF7DAFB20464FF48051FFF720
:100B900057FC28464021FFF753FC20464FF4805174
:100BA000FFF74AFC012000F0DBFA0120FFF7C6FB4B
:100BB00020464FF48051FFF743FC28464021FFF7C1
:100BC0003BFC20464FF48051FFF736FCC32000F079
:100BD000C7FA0120FFF7B2FB20464FF48051FFF720
:100BE0002FFC28464021FFF72BFC20464FF4805174
:100BF000FFF722FC152000F0B3FA0120FFF79EFB5F
:100C000020464FF48051FFF71BFC28464021FFF798
:100C100013FC20464FF48051FFF70EFCC42000F077
:100C20009FFA0120FFF78AFB20464FF48051FFF71F
:100C300007FC28464021FFF703FC20464FF4805173
:100C4000FFF7FAFB202000F08BFA0120FFF776FB7C
:100C500020464FF48051FFF7F3FB28464021FFF771
:100C6000EBFB20464FF48051FFF7E6FBC62000F077
:100C700077FA0120FFF762FB20464FF48051FFF71F
:100C8000DFFB28464021FFF7DBFB20464FF4805175
:100C9000FFF7D2FB0F2000F063FA0120FFF74EFBB5
:100CA00020464FF48051FFF7CBFB28464021FFF749
:100CB000C3FB20464FF48051FFF7BEFBD02000F06D
:100CC0004FFA0120FFF73AFB20464FF48051FFF71F
:100CD000B7FB28464021FFF7B3FB20464FF4805175
:100CE000FFF7AAFBA42000F03BFA0120FFF726FB48
:100CF00020464FF48051FFF7A3FB20464FF480516C
:100D0000FFF79AFBA12000F02BFA0120FFF716FB5A
:100D100020464FF48051FFF793FB28464021FFF710
:100D20008BFB20464FF48051FFF786FBE02000F05C
:100D300017FA0120FFF702FB20464FF48051FFF71E
:100D40007FFB28464021FFF77BFB20464FF4805174
:100D5000FFF772FBD02000F003FA0120FFF7EEFA54
:100D600020464FF48051FFF76BFB20464FF4805133
:100D7000FFF762FB082000F0F3F90120FFF7DEFA2D
:100D800020464FF48051FFF75BFB20464FF4805123
:100D9000FFF752FB0E2000F0E3F90120FFF7CEFA37
:100DA00020464FF48051FFF74BFB20464FF4805113
:100DB000FFF742FB092000F0D3F90120FFF7BEFA4C
:100DC00020464FF48051FFF73BFB20464FF4805103
:100DD000FFF732FB092000F0C3F90120FFF7AEFA5C
:100DE00020464FF48051FFF72BFB20464FF48051F3
:100DF000FFF722FB052000F0B3F90120FFF79EFA70
:100E000020464FF48051FFF71BFB20464FF48051E2
:100E1000FFF712FB312000F0A3F90120FFF78EFA53
:100E200020464FF48051FFF70BFB20464FF48051D2
:100E3000FFF702FB332000F093F90120FFF77EFA61
:100E400020464FF48051FFF7FBFA20464FF48051C3
:100E5000FFF7F2FA482000F083F90120FFF76EFA5D
:100E600020464FF48051FFF7EBFA20464FF48051B3
:100E7000FFF7E2FA172000F073F90120FFF75EFA9E
:100E800020464FF48051FFF7DBFA20464FF48051A3
:100E9000FFF7D2FA142000F063F90120FFF74EFAB1
:100EA00020464FF48051FFF7CBFA20464FF4805193
:100EB000FFF7C2FA152000F053F90120FFF73EFAC0
:100EC00020464FF48051FFF7BBFA20464FF4805183
:100ED000FFF7B2FA312000F043F90120FFF72EFAB4
:100EE00020464FF48051FFF7ABFA20464FF4805173
:100EF000FFF7A2FA342000F033F90120FFF71EFAC1
:100F000020464FF48051FFF79BFA28464021FFF717
:100F100093FA20464FF48051FFF78EFAE12000F05B
:100F20001FF90120FFF70AFA20464FF48051FFF71E
:100F300087FA28464021FFF783FA20464FF4805174
:100F4000FFF77AFAD02000F00BF90120FFF7F6F94D
:100F500020464FF48051FFF773FA20464FF480513A
:100F6000FFF76AFA082000F0FBF80120FFF7E6F926
:100F700020464FF48051FFF763FA20464FF480512A
:100F8000FFF75AFA0E2000F0EBF80120FFF7D6F930
:100F900020464FF48051FFF753FA20464FF480511A
:100FA000FFF74AFA092000F0DBF80120FFF7C6F945
:100FB00020464FF48051FFF743FA20464FF480510A
:100FC000FFF73AFA092000F0CBF80120FFF7B6F955
:100FD00020464FF48051FFF733FA20464FF48051FA
:100FE000FFF72AFA152000F0BBF80120FFF7A6F959
:100FF00020464FF48051FFF723FA20464FF48051EA
:10100000FFF71AFA312000F0ABF80120FFF796F94C
:1010100020464FF48051FFF713FA20464FF48051D9
:10102000FFF70AFA332000F09BF80120FFF786F95A
:1010300020464FF48051FFF703FA20464FF48051C9
:10104000FFF7FAF9482000F08BF80120FFF776F956
:1010500020464FF48051FFF7F3F920464FF48051BA
:10106000FFF7EAF9172000F07BF80120FFF766F997
:1010700020464FF48051FFF7E3F920464FF48051AA
:10108000FFF7DAF9142000F06BF80120FFF756F9AA
:1010900020464FF48051FFF7D3F920464FF480519A
:1010A000FFF7CAF9152000F05BF80120FFF746F9B9
:1010B00020464FF48051FFF7C3F920464FF480518A
:1010C000FFF7BAF9312000F04BF80120FFF736F9AD
:1010D00020464FF48051FFF7B3F920464FF480517A
:1010E000FFF7AAF9342000F03BF80120FFF726F9BA
:1010F00020464FF48051FFF7A3F928464021FFF71F
:101100009BF920464FF48051FFF796F9212000F01B
:1011100027F80120FFF712F920464FF48051FFF71E
:101120008FF928464021FFF78BF928464021FFF729
:1011300083F920464FF48051FFF77EF9292000F013
:101140000FF80120FFF7FAF820464FF48051FFF71F
:1011500077F928464021FFF773F902B070BD00000F
:10116000B0B543F600040546C4F20004204602214F
:1011700000F012FC0028F9D02046294600F014FCAB
:101180002046802100F008FC0028F9D1B0BD000005
:10119000B0B586B002200121012500F063FB40F2CA
:1011A0000044C4F2020420460D210522FFF72AF96B
:1011B00020460F210522FFF725F940F20230C0F248
:1011C000001002904FF42040019001A92046FFF743
:1011D000D3F820464FF42041FFF732F94FF4804016
:1011E000012100F04BFB4FF4003002904CF2000064
:1011F000C0F2041001904FF4E020CDF812004FF43B
:101200000070A4F5E634CDF80E0001A92046ADF833
:101210000C5000F0CBFB2046012100F0B3FB06B0E0
:10122000B0BD00002DE9F04F87B0DDF84480834663
:101230004FEA58074FEA18101C46914601237A07D7
:1012400018BF03EB181000FB08F50BEB580001EB7F
:1012500008020138531E82B29BB258460E460691D0
:10126000FFF716FA002D00F08D80A8F10C00C1B236
:10127000800140EA9100C3B2052B00F28380012077
:10128000984010F02B0F00F07D802A46A9F1200035
:101290000121C0B2012D98BF0A4644F600410592D3
:1012A00000EB4002C0F6000101EB0211029144F292
:1012B0001061C0F6000101EB0011019145F6D0511B
:1012C000C0F600014FF0000A01EB80105E464FF0BF
:1012D000000903920090049308E04FF0000900BF5A
:1012E00005980AF1010A049B82454BD0032B0DD0CF
:1012F000012B09D063B9039844F29C11C0F6000198
:1013000001EB800005E000BF019802E0029800E0D8
:101310000098504405784FF0000815E02842204618
:10132000109908BF084600F0D3F909F101095FFAE6
:1013300089F0B0FBF7F101FB17000028CDD008F1D0
:101340000108B8F1080FCBD0129800284FF0010027
:1013500000FA08F0E2D0284209D00699B0B289B26A
:1013600002460B46FFF794F9204600F0B1F901362A
:10137000B0B2A0EB0B00B842E1D106985E46013056
:101380000690ADE707B0BDE8F08F00002DE9F04F03
:1013900089B01546202A07460593039112D0182DCF
:1013A00007D0102D18D1102004902020029000208A
:1013B00010E0182004904820029044F60070C0F21B
:1013C000030007E020200490802002904BF68070FC
:1013D000C0F20A00019003E00020CDE90100049072
:1013E00005980078002800F0F0800399DDE9128B61
:1013F0000139009140F2100605990024C2F200065E
:101400000DE000BF0698059A811CCCB2105D079FC5
:10141000049B00281F4452FA81F100F0D68000F1AD
:101420005F02D2B2082AC2B2069407971AD84B7844
:10143000A12B17D35E2012FB003043F6BF31401AB8
:10144000DDE9011200FB0210314600F0B5FE202D4F
:101450002CD0182D26D0102D2DD110204FF0200982
:1014600027E000BF5030C0B24728CBD84878A12829
:10147000C8D35E2112FB010044F24111401ADDE99C
:10148000011200FB0210314600F096FE202D56D0CE
:10149000182D50D0079F102D57D110204FF0200944
:1014A000012456E018204FF0480902E020204FF0B8
:1014B0008009012403E000244FF0000900203918BE
:1014C000009A013910448AB2039983B2B8B2FFF787
:1014D000DFF8002C96D0B9F1010F4FF0010098BF52
:1014E0008146CDF8209000244FF0000907E000BFAE
:1014F0004FF000090898013484423FF483AF4F460F
:1015000009F108094FF0000A305D20FA0AF0C0071F
:10151000404608BF584600F0DBF80137F8B2B0FB90
:10152000F5F101FB15000028E2D00AF1010ABAF139
:10153000080FE9D1DEE718204FF0480902E020202B
:101540004FF08009079F012403E000244FF00009B9
:1015500000203918009A013910448AB2039983B2E5
:10156000B8B2FFF795F8002C3FF44CAFB9F1010F7A
:101570004FF0010098BF8146CDF8209000274FF032
:10158000000906E04FF000090898013787423FF450
:1015900039AF4C4609F108094FF0000AF05D20FA16
:1015A0000AF0C007404608BF584600F091F80134E1
:1015B000E0B2B0FBF5F101FB15000028E2D00AF122
:1015C000010ABAF1080FE9D1DEE709B0BDE8F08FF2
:1015D000002B08BF70472DE9F04F85B007461098E3
:1015E0001C4693468A464508581E4FF000084FF0A7
:1015F0000009049016E000BF4FF0010940F03002EE
:101600000F9808FB057100901098D2B2019088B233
:1016100051460E9B00260296FFF704FE08F10108D2
:10162000A0452CD06FEA08002044010608D0012113
:10163000013801EB810102064FEA4101F8D100E0D7
:101640000121BBFBF1F049F69A11C1F69911A0FBFB
:10165000011202EB8201B9F1000FA0EB4100CDD1E4
:1016600004994145CADD0028C6D10F9908FB0570D1
:101670000091109980B2019151462022C9E705B02E
:10168000BDE8F04F704700002DE9F04F83B09B4656
:101690001378CBB1DDE90C9ADDF838800D460646AB
:1016A0004FEA5A07541E00BFB0B2DAB229465B4671
:1016B000CDE9009ACDF80880FFF7B4FDA3783E4449
:1016C000002B04F10104EFD103B0BDE8F08F00005E
:1016D00070B540F20044C4F202040546060A2046F2
:1016E0004FF48051FEF7A8FE3046FFF739FD012088
:1016F000FEF724FE20464FF48051FEF7A1FE20465F
:101700004FF48051FEF798FEE8B2FFF729FD012063
:10171000FEF714FE20464FF48051BDE87040FEF7FE
:101720008FBE000070B582B00620012100F09AF84B
:1017300040F600043C20C4F20204009040F2013064
:10174000A4F580656E46019028463146FEF714FEEA
:1017500020463146FEF710FE20462021FEF770FE9F
:1017600028460421FEF76CFE20461021FEF768FE95
:1017700020460821FEF764FE02B070BDFEE70000BF
:101780007047000010B5C17800294EF20011CEF26A
:1017900000011CD04EF60C52CEF200021268072354
:1017A00023EA12220F23C2F1040C23FA02FE42782C
:1017B00084785FFA8CF390F800C09A4004EA0E0334
:1017C0001A43120101EB0C0383F8002300E080317F
:1017D0000078012300F01F0203FA02F2C0F3421066
:1017E00041F8202010BD000040F080604EF60C5102
:1017F00040F0FD70CEF2000108607047000000006C
:10180000EFF30980BFF36F8F154B1A681EF0100FAE
:1018100008BF20ED108A20E9F04F10602DE9090083
:101820004FF0500080F31188BFF34F8FBFF36F8FDD
:1018300001F04AFC4FF0000080F31188BDE8090078
:1018400019680868B0E8F04F1EF0100F08BFB0EC40
:10185000108A80F30988BFF36F8F704700BF00BF05
:1018600020010020002943F63001C4F202010A6879
:101870000CBF22EA0000104308607047002943F6BD
:101880004001C4F202010A680CBF22EA00001043C2
:1018900008607047002943F64401C4F202010A6857
:1018A0000CBF22EA000010430860704743F6040CA6
:1018B000C4F2020CDCF8043042F20042C0F2F4023E
:1018C000C3F3810310B5DFE803F03E02072141F2C4
:1018D0000022C0F27A0236E0DCF800E0DCF80030EA
:1018E000DCF8001003F03F03C1F388145FEA4E21D7
:1018F00041F20021C0F27A0158BF1146B1FBF3F169
:10190000DCF800206143C2F3014217E0DCF800106C
:10191000DCF80030490241F20021C0F27A01DCF823
:10192000004003F03F0358BF1146B1FBF3F1DCF870
:101930000020C4F388146143C2F30272022303EB54
:101940004202B1FBF2F20260DCF8041044F28C12A5
:10195000C1F30311C0F60002515C036823FA01F1E0
:101960004160DCF80430C3F38223D35C21FA03F333
:101970008360DCF80430C3F34233D25CD140C160F1
:1019800010BD00000288002918BF012122F040028A
:1019900042EA8111018070470089084018BF012088
:1019A0007047000080897047818170472DE9F041C0
:1019B00002880B8802F4415C4A88B1F804E043EAEB
:1019C0000C03CC881A430D8942EA0E024E89224349
:1019D0008F892A43B1F80E8032433A4342EA080223
:1019E0000280828B22F400628283098A0182BDE830
:1019F000F081000000000000000000000000000076
:101A0000074B19680868B0E8F04F80F30988BFF306
:101A10006F8F4FF0000080F31188704700BF00BF48
:101A2000200100204EF21001CEF200010A680428C5
:101A300022F0040208BF04320A60704780B502F049
:101A4000BDF8012808BF80BDBDE8804001F018BC8A
:101A5000B0B582B001F078F840F29C00C2F200000C
:101A60000224CDE9004041F69940C0F6000023A1D0
:101A700082220023002501F089FE42F68120C0F673
:101A8000000020A182220023CDE9004501F07EFE66
:101A900040F2A00541F66950C2F20005C0F6000010
:101AA0001BA182220023CDE9004501F06FFE40F228
:101AB000A40541F6F150C2F20005C0F6000016A1DF
:101AC00082220023CDE9004501F060FE40F2A80526
:101AD00041F64960C2F20005C0F6000010A1822262
:101AE0000023CDE9004501F051FE002001F098F9F6
:101AF00002B0BDE8B04001F04BB800BF5461736B59
:101B000031000000764B65795F5461736B00000013
:101B10005461736B320000005461736B330000003A
:101B20005461736B3400000082B04EF6885CCEF2D4
:101B3000000CDCF8002043F6000142F47002C4F20D
:101B40000201CCF800200A684FF6FF7042F0010253
:101B50000A6000228A600B68CFF6F66018400860C1
:101B600043F21000C2F200404860086820F4802070
:101B70000860CA6001920092086840F480300860F2
:101B8000086800F40030009001980130019000983E
:101B900018B90198B0F5A04FF2D10868800354BF7E
:101BA0000020012000900098012844D1086C47F2E1
:101BB000000240F08050C4F200020864106840F453
:101BC0004040106088688860886840F40040886001
:101BD000886840F4A050886045F60820C7F240703D
:101BE0004860086840F08070086000BF08688001A5
:101BF000FCD5106840F48030106000BF5068C0030E
:101C0000FCD5106840F40030106000BF50688003BD
:101C1000FCD540F20570C1F80004886820F003008C
:101C20008860886840F00200886000BF886800F023
:101C30000C000828FAD14FF000604CF8800C02B07C
:101C40007047000010B540F20044C4F20004204682
:101C5000012100F015F8012818BF10BD2046012110
:101C600000F00AF840F21440C4F20200016881F06A
:101C70000401016010BD0000C943018270470000EB
:101C8000028A80890A4000EA010018BF0122002868
:101C900018BF01201040704782B040F2A80840F2FF
:101CA000080640F2A00440F2A409C2F2000800278E
:101CB0000FF28C0AC2F200064FF6FF7B26A5C2F295
:101CC0000004C2F2000904E00123009701F05CFE69
:101CD0000DE0FEF709FC024603282CD8DFE802F0ED
:101CE000070B0226D9F8000000210122ECE764204E
:101CF00001F034F8EDE7504602F036FA3088182249
:101D0000B0F58C7F24BF3A203080318800202B46EC
:101D1000CDE9007BFFF73AFB3088002200F1180183
:101D20002068318000210223CFE700BFD9F80000EE
:101D300000210222C8E7D8F8000000210323C4E7ED
:101D4000C8CECEF1B6FECDA8D6AAB7A2CBCDA3A160
:101D5000A3A1A3A10D000000B7A2CBCDC8CECEF1A8
:101D6000CDA8D6AA2100000082B040F208074FF0AB
:101D7000000914A4C2F200074FF03A084FF6FF76AC
:101D800016A502E0642000F0E9FF002001214FF0D9
:101D9000FF3200F019FE0028F4D0204602F0E4F9EA
:101DA00038881822B0F58C7F28BFA7F800803988C2
:101DB00000202B46CDE90096FFF7E8FA3888183066
:101DC0003880DFE7BDD3CAD5C8CECEF1CDA8D6AA1C
:101DD000B3C9B9A62121210D00000000BDD3CAD589
:101DE000C8CECEF1CDA8D6AAB3C9B9A621000000AD
:101DF00082B040F614054FF60047C4F202054FF0DA
:101E0000FF3601ACCFF6FF77286880F0200028600D
:101E10004FF47A7000F0A2FF002000210022234638
:101E2000009601F069FE9DF80400C00703D0286801
:101E300080F0100028609DF804008007E4D5E85980
:101E400080F00400E851DFE784B04FF6FF764FF0F2
:101E5000FF3800270DF10C09182410A500200021DF
:101E600000224B46CDF8008001F046FE14201821D8
:101E70002A460023CDE900640297FFF705FCBDF870
:101E80000C20B42018210223CDE900760294FFF73C
:101E90009FFB0A2000F062FFE0E700BF4B65795F1F
:101EA0004E756D626572203D2000000010B541F254
:101EB0000004C4F20104204640F2255100F064F809
:101EC000012818BF10BD204600F0D0F840F2AC0148
:101ED000C2F200010A78C0B2012A10D09AB9402893
:101EE00032D140F21210C2F20000007860BB012033
:101EF000087040F2AD00C2F20000002116E00D288B
:101F000016D102201FE00A281ED10020087040F2DE
:101F1000AD01C2F20001097840F2AE02C2F2000245
:101F2000505440F21210C2F20000012101700BE087
:101F300040F2AD01C2F200010A7840F2AE03C2F2F3
:101F400000039854501C0870204640F22551BDE80B
:101F5000104000F001B80000090A012202FA01F164
:101F6000C9430180704700008289002918BF012100
:101F700022F4005242EA41318181704700880840D2
:101F800018BF012070470000C1F342121423022A37
:101F900008BF1023012A08BF0C23C35A008801F090
:101FA0001F02090A23FA02F2C840104000F00100A3
:101FB0007047000070B584B00446008A0D46C98899
:101FC00020F4405008432082A0894EF6F3110840C7
:101FD000A9882A896B89084310431843A081A08AE5
:101FE000A98920F4407008436E46A0823046FFF76E
:101FF0005DFC41F2000124F48060C4F2010108227A
:10200000884208BF0C22B058B4F90C100122B1F17B
:10201000FF3FC8BF02222B681921484303FA02F18F
:10202000B0FBF1F048F21F51C5F2EB11A0FB012308
:102030005A096FF0630302FB0300B4F90C30032666
:10204000B3F1FF3FC8BF042600FA06F000F13200EA
:10205000A0FB01014FF00700C8BF0F2000EA51109C
:1020600040EA0210208104B070BD000080886FF348
:102070005F2070476FF35F2181807047FEE70000AB
:1020800010B584B001200121FFF7ECFB0024C4F25D
:102090000204204609210722FEF7B4F920460A214E
:1020A0000722FEF7AFF94FF4C060009040F2023013
:1020B000019069462046FEF75FF910200121FFF7E5
:1020C000E9FB4FF4E130009000204FF44021A4F5EB
:1020D0007044ADF80C00CDE9010169462046FFF7D8
:1020E00069FF20460121FFF73FFF40F22550C0F273
:1020F000001000906846FFF745FB04B010BD0000DB
:1021000070B586B0022001210126FFF7ABFB40F23B
:102110000044C4F20204204603210622FEF772F9AD
:10212000204604210622FEF76DF9204605210622ED
:10213000FEF768F94020019040F20130C0F2001033
:1021400001AD029020462946FEF716F9382001908D
:1021500040F20230C0F20010029020462946FEF7FD
:102160000BF9204640210122FEF76CF94FF40040A4
:102170000121FFF783FB4FF4003002904FF0827093
:1021800001904FF4E020CDF8120040F20020C0F2A0
:102190001000A4F5E434CDF80E0001A92046ADF8F6
:1021A0000C60FFF703FC20460121FFF7EBFB06B0B4
:1021B00070BD0000FFF7A4BFF0B581B040F200444D
:1021C000C4F2020415460E4607462046402100226E
:1021D000FEF738F9032000F01DF8C7F3074000F0C0
:1021E00019F8C7F3072000F015F8F8B200F012F85C
:1021F00045B1013E0020013D00F00CF8002D06F82D
:10220000010FF7D120464021012201B0BDE8F04086
:10221000FEF718B9B0B543F600440546C4F2000411
:1022200020460221FFF7B8FB0028F9D020462946B6
:10223000FFF7BAFB20460121FFF7AEFB0028F9D0DB
:102240002046FFF7AFFBC0B2B0BD0000B0B541F211
:10225000000504460A28C4F2010509D128460D21CB
:10226000FFF708FF28468021FFF788FE0028F9D0F5
:10227000E1B22846FFF7FEFE28468021FFF77EFEEA
:102280000028F9D02046B0BD82B0FDF7F7FFFFF778
:1022900049FAFFF7F5FEFFF78DFFFEF7DBF8FEF7D3
:1022A000FFFA4FF44070FFF79FFA4FF6FF7C0020D3
:1022B0000021F0224FF4A073CDF800C0FEF7C8FA59
:1022C00040F2980C41F65120C2F2000C4FF0020E81
:1022D000C0F6000005A1B4220023CDE900EC01F016
:1022E00055FA00F09BFE00BFFEE700BF5379737400
:1022F000656D43726561745461736B00F0B581B0B4
:102300000D4643F2CC0140F22016C2F20101C2F2A6
:1023100000060F6831680446081D00F09FFB10B1ED
:10232000601C0FD027E0306842F6D072C06AC2F25B
:1023300001020121136801FA00F023EA0000106095
:10234000601C18D1BDB143F2A400C2F20100416883
:10235000326891608A683368DA6032688B68043268
:102360005A60326804328A6031684861016801311C
:10237000016001B0F0BD3068E41944600BD340F255
:102380003010C2F2000000683168043101B0BDE8CD
:10239000F04000F0A3BB40F22810C2F20000006839
:1023A0003168043100F09AFB43F23000C2F20100C0
:1023B00001688C4238BF046001B0F0BD70B500F018
:1023C000C3FB43F2D006C2F20106306818B1BDE883
:1023D000704000F0DDBB42F6D474C2F20104204626
:1023E00000F06CFB42F6E875C2F20105284600F0E9
:1023F00065FB40F22410C2F20000046040F2341089
:10240000C2F2000005600A200C21002200F050FFFB
:1024100000283060DBD003A100F04EFCBDE8704026
:1024200000F0B6BB546D72510000000042F6C47556
:1024300040F2381A4EF6045843F2B80742F6C07616
:10244000C2F20105C2F2000ACEF200084FF0805934
:10245000C2F20107C2F2010615E000BF00F074FBF2
:10246000F868C468201D00F0F9FA3068013830605F
:1024700028680138286000F08BFB206B00F0A0FB7F
:10248000204600F09DFB28680028E7D1DAF800001C
:102490000228F8D3C8F80090BFF34F8FBFF36F8FB7
:1024A000F1E7000008480068006880F308884FF0F2
:1024B000000080F3148862B661B6BFF34F8FBFF39C
:1024C0006F8F00DF00BF000008ED00E02DE9F04352
:1024D00081B040F22418C2F20008D8F80020054666
:1024E000D2680E46D46804F10409484600F0B6FAF2
:1024F00094F8280041070CD400F0FA0084F8280072
:102500001CE000BF711B814210D3216A204688471E
:102510003D46A06924614719B7426760F2D9AE42CF
:1025200001D2AF42F1D2D8F8000004E040F23410FA
:10253000C2F200000068494600F0D0FA216A204645
:1025400001B0BDE8F043084781B00020009040F2A0
:102550000C00C2F2000000684FF0500181F31188B6
:10256000BFF36F8FBFF34F8F013001D0FEE700BF85
:1025700000980028FCD001B07047000084B040F201
:10258000241440F21C1940F2341A43F2D00BC2F268
:102590000004C2F20009C2F2000AC2F2010B0DF1FE
:1025A000040800BF2068076817B1C068066800E02B
:1025B000002600F081FD01F015FBD9F8001005465A
:1025C000884209D22068016891B1C0684FF0FF319C
:1025D0000068FFF77BFFF5E7C9F8005097B1AE42FE
:1025E00010D801F0C1FC30462946FFF76FFF29E003
:1025F000DAF80010CAF800002160C9F8005001F0B4
:10260000B3FC1FE00FB1002205E0DAF8000000681B
:10261000B0FA80F04209DBF80000711B00F07AFB91
:1026200001F0A2FC70B94EF60450CEF200004FF05B
:1026300080510160BFF34F8FBFF36F8F02E02068BE
:1026400000F04CFADBF800004146002200F084FF65
:102650000028A7D001980028F4D4039D686910B120
:10266000281D00F0FBF901F0BDFAD9F8001006466C
:1026700088420ED22068016831B1C0684FF0FF3146
:102680000068FFF723FFF5E7DAF80010CAF800004A
:1026900021600198C9F8006001380828D2D8DFE825
:1026A00000F005053A236205053A230095F8280055
:1026B000029BAA6940F0010185F82810D718294625
:1026C00041F8047FB7422D6104D99E42B7D29F42A0
:1026D00003D2B4E7F31A934218D3430722D400F08D
:1026E000FA0085F8280052E095F8280040F0010132
:1026F000029885F828100028A8614CD0304429465B
:1027000041F8040FB0422D613FF699AFDAF80000AE
:1027100000F0E4F996E795F8280000F0FE0085F84F
:1027200028008FE70298D946C346D0460F4610448A
:1027300007E000BF301A88421DD3296A284688471F
:102740005046A9692D6101EB000AB245C5F804A005
:10275000F0D9864201D28245EFD22068394600F096
:10276000BDF9C2460DE095F828008107D5D428466A
:1027700000F026FA66E7D8F800003946C24600F0B5
:10278000ADF9D846CB4640F21C19C2F20009296ABD
:102790002846884756E74FF0500080F31188BFF372
:1027A0006F8FBFF34F8F00BFFEE70000F0B581B021
:1027B000044600F0C9F994F94560012E0FDB04F1DD
:1027C000240500BF286850B1284601F059FB0028B5
:1027D00018BF00F0C5FB70B2013E0128F2DCFF26F5
:1027E00084F8456000F0D4F900F0AEF994F9447033
:1027F000012F0EDB04F11005286850B1284601F0C6
:102800003FFB002818BF00F0ABFB78B2013F012866
:10281000F2DC84F8446001B0BDE8F04000F0B8B9E3
:1028200070B5044600F048FC40F22C11C2F20001E1
:10283000086843F2240EC2F2010E58B184B304F0CA
:1028400007001138A04226BF24F0070000F1100352
:10285000002326E040F2B830C2F20000C21D430758
:1028600000F5963318BF22F0070043F29C02C2F233
:1028700001020026C2E9000623F00702A2F10803C4
:102880000B6042E902661A1A0B68CEF80020C0E914
:10289000003243F22C00C2F201000260002CCED1C3
:1028A0000023012B4FF000046CDBDEF800008342B4
:1028B00068D843F29C02C2F2010215686C689C421F
:1028C00007D200BF286820B144682A4605469C42CA
:1028D000F8D30868854212D0D2F800C02E68E01AFA
:1028E0001128166031D3EC1862070AD04FF050005F
:1028F00080F31188BFF36F8FBFF34F8FFEE7002483
:1029000040E060606B6043F29C03C2F2010300BFD1
:102910001A461B68A342FBD350681618A64203D17F
:1029200064682044144650606668A019984201D03B
:10293000184606E00868834203D0D3E90001314419
:102940006160A242206018BF146043F22C006968E5
:10295000DEF80020C2F201000368511A9942CEF855
:10296000001038BF016043F238026868C2F2010209
:10297000136840F0004000210CF10804C5E9001084
:10298000581C106001F0F0FA600708D04FF05000BA
:1029900080F31188BFF36F8FBFF34F8FFEE72046A0
:1029A00070BD0000034642F2495021F00101C0F61B
:1029B00000004FF0807C03E903106FF00201A3F1E7
:1029C000440043E90912704748B14FF0500080F3CA
:1029D0001188BFF36F8FBFF34F8F00BFFEE7F0B5D5
:1029E00081B0044615460F4600F0AEF840F22016BE
:1029F000C2F20006306800EB8400006D98B93068C0
:102A00000121204480F854106DB12846FFF776FC70
:102A10004EF60450CEF200004FF080510160BFF33B
:102A20004F8FBFF36F8F00F0B3F800F08DF8306870
:102A300000EB8400056D3DB13168002001EB84019D
:102A4000002F08BF681E086530680021204480F808
:102A5000541000F09DF8284601B0F0BDD0E90132D5
:102A600001699A60D1F804C082688445536008BF48
:102A70004A600022026108680138086008687047EF
:102A800082B040F294050020C2F200050DF1070467
:102A90008DF8070003E000BF642000F05FF9FDF748
:102AA00023FD00288DF80700F6D0286821464FF056
:102AB000FF32002300F046FCEEE700004FF0FF314C
:102AC000024642F8081F00214260C0E9032201606B
:102AD00070470000002101617047000080B5D1F807
:102AE00000C01CF1010207D000F108039E465B689C
:102AF0001A686245FAD901E0D0F810E0DEF8042047
:102B000008614A609160C1F808E0CEF804100168DD
:102B10000131016080BD0000D0F800C04368086149
:102B20009A684B608A609A68996051600CF1010163
:102B300001607047DFF80C00016841F4700101602A
:102B40007047000088ED00E04FF0500080F31188DE
:102B5000BFF36F8FBFF34F8F40F20C00C2F2000043
:102B600001684A1C026001B170474EF60450CEF273
:102B700000000068000608BF70474FF0500080F367
:102B80001188BFF36F8FBFF34F8F00BFFEE70000C8
:102B900040F20C00C2F20000016839B10139016055
:102BA00018BF7047002080F3118870474FF0500025
:102BB00080F31188BFF36F8FBFF34F8FFEE70000E4
:102BC000B0B5002808BFB0BD50F8041C002908D4D7
:102BD0004FF0500080F31188BFF36F8FBFF34F8F1A
:102BE000FEE7A0F1080422684AB14FF0500080F3DC
:102BF0001188BFF36F8FBFF34F8F00BFFEE721F047
:102C0000004140F8041C054600F056FA43F2240146
:102C1000C2F2010155F8040C0B682A4618440860FA
:102C200043F29C01C2F2010108460968A142FBD3AC
:102C30004368C518A54204D152F8042C04461A442E
:102C400042606368E2188A4201D00A460AE040F214
:102C50002C12C2F200021268914203D0D1E9002185
:102C600019446160A042226018BF046043F23C0036
:102C7000C2F20100016801310160BDE8B04001F01D
:102C800073B900004EF21000CEF200000021016086
:102C9000816040F20401C2F20001096844F6D35297
:102CA000C1F26202A1FB02124FF0FF3101EB92115F
:102CB0004160072101607047B0B5C8B14FF0000C0A
:102CC000F9B143F2580EC2F2010E0023002202E0D5
:102CD0000833402B18D00EEB03046568854212D0F0
:102CE000002AF5D12268002A18BF64462246EFE781
:102CF0004FF0500080F31188BFF36F8FBFF34F8FF9
:102D0000FEE7002200E02246002A18BFC2E90010B8
:102D1000B0BD000070B515460E460446FFF714FF1F
:102D200094F84400FF2804BF002084F8440094F87D
:102D30004500FF2804BF002084F84500FFF728FF66
:102D4000A06B28B904F1240031462A4600F02CF982
:102D50002046BDE87040FFF729BD000070B500288F
:102D600052D042F6C871C2F201010A684AB14FF06E
:102D7000500080F31188BFF36F8FBFF34F8F00BFF8
:102D8000FEE70546086840F220140130086043F26F
:102D9000CC00C2F20100C2F20004066820680430D0
:102DA000FFF75CFE60B9206842F6D072C06AC2F2DA
:102DB00001020121136801FA00F023EA000010600B
:102DC0002068AD19456009D340F23010C2F200000E
:102DD000006821680431FFF781FE10E040F22810FE
:102DE000C2F20000006821680431FFF777FE43F269
:102DF0003000C2F2010001688D4238BF056001F069
:102E0000B3F8002818BF70BD4EF60450CEF2000093
:102E10004FF080510160BFF34F8FBFF36F8F70BDD4
:102E200070B50446FFF790FE40F22016002CC2F267
:102E3000000608BF3468251D2846FFF70FFEA0B91D
:102E4000E06A40F2381200EB8001C2F2000252F850
:102E5000211051B942F6D072C2F201020121136869
:102E600001FA00F023EA00001060A06A18B104F132
:102E70001800FFF7F3FD42F6CC70C2F201000168C2
:102E8000013101603068844216D042F6C070C2F24F
:102E9000010001680139016040F22810C2F200000F
:102EA00001680968B1B1006843F23001C068C2F23C
:102EB00001010068086014E043F2B800C2F20100AA
:102EC0002946FFF729FE42F6C470C2F201000168EC
:102ED000013105E043F23000C2F201004FF0FF3152
:102EE0000160FFF755FE3068844205D0206BFFF784
:102EF00067FE2046FFF764FE43F29800C2F201002D
:102F00000068E8B13068844218BF70BD42F6C870EE
:102F1000C2F20100006840B14FF0500080F3118808
:102F2000BFF36F8FBFF34F8FFEE74EF60450CEF224
:102F300000004FF080510160BFF34F8FBFF36F8FE0
:102F400070BD000043F23401C2F201010968016062
:102F500043F2CC01C2F201010968416070470000F0
:102F600043F2D800C2F20100012101607047000065
:102F700078B110B50C4640F22011C2F20001096888
:102F80001831FFF7ABFD20460121BDE81040FFF7E7
:102F9000B5B94FF0500080F31188BFF36F8FBFF3C6
:102FA0004F8F00BFFEE7000068B310B540F2201C51
:102FB000C2F2000CD0F804E0DCF80030002AC3F8BC
:102FC0001CE0DEF80830DCF800402362DCF800305A
:102FD000DEF8084003F118036360DCF800300446B3
:102FE00003F11803CEF80830DCF80030986203686B
:102FF00018BF4FF0FF310133084611462360BDE88A
:103000001040FFF77BB94FF0500080F31188BFF3F9
:103010006F8FBFF34F8F00BFFEE7000080B582B017
:1030200043F2280C42F22D40C2F2010C4FF0000E88
:10303000C0F600001EA178220023CDE900EC00F0CC
:10304000A5FB012808BF01F04FF8411C25D001283D
:103050001CD14FF0500080F31188BFF36F8FBFF386
:103060004F8F43F23000C2F201004FF0FF31016098
:1030700043F29800C2F201000121016043F2CC004A
:10308000C2F201000021016000F062F847F29050A6
:10309000C0F60000006802B080BD4FF0500080F321
:1030A0001188BFF36F8FBFF34F8F00BFFEE700BFE4
:1030B00049444C450000000042F6C870C2F20100CD
:1030C000016801310160704742F6C870C2F2010028
:1030D000006830B143F2D800C2F201000121016062
:1030E000704743F2D800C2F201000021016042F6AD
:1030F000D070C2F201000068B0FA80F0C0B2C0F136
:103100001F0040F2381100EB8000C2F2000151F8BC
:10311000202092B101EB8000416800F1080249686B
:103120009142416001D149684160406840F22011FC
:10313000C068C2F20001086070474FF0500080F391
:103140001188BFF36F8FBFF34F8F00BFFEE7000002
:10315000B0B584B04EF20040CEF200004CF27021C7
:10316000C4F20F11D0F800294B1C9A4209D14FF03C
:10317000500080F31188BFF36F8FBFF34F8F00BFF4
:10318000FEE7D0F800298A4209D14FF0500080F3C1
:103190001188BFF36F8FBFF34F8F00BFFEE7017839
:1031A00042F6B8720291FF2101700178C2F2010269
:1031B0008DF807109DF8071001F05001117042F6CC
:1031C000BC71C2F2010107220A609DF90720B2F129
:1031D000FF3F0CDC062200BF0A609DF80730013A71
:1031E0005B008DF807309DF90730002BF4D40A6896
:1031F000032A3BD14FF440720A6002990170D0F863
:10320000201941F47001C0F82019D0F8201941F0BC
:103210007041C0F82019FFF735FD40F20C04C2F2EE
:10322000000400252560FFF785FC4EF63470CEF2D1
:103230000000016841F040410160FFF733F9FFF7FA
:1032400043FF039520684FF0500181F31188BFF3CD
:103250006F8FBFF34F8F013002D000BFFEE700BF7A
:1032600003980028FCD0002004B0B0BD4FF05000FF
:1032700080F31188BFF36F8FBFF34F8FFEE700001D
:1032800080B54FF0500080F31188BFF36F8FBFF30C
:103290004F8F00F0ADFC30B14EF60450CEF200007E
:1032A0004FF080510160002080F3118880BD000044
:1032B000F0B581B0E0B3A0FB0137CFBB01FB00F359
:1032C00013F1510F34D8064603F150000F4615464E
:1032D000FFF7A6FA4FF0000438B30146002F18BFDD
:1032E00050310160C0E90F670646FFF72DFC3068DA
:1032F000D6E90F12B46302FB0103013901FB02019D
:10330000C6E90103FF20F16086F8440086F8450015
:1033100006F11000FFF7D2FB06F12400FFF7CEFB09
:10332000FFF736FC344686F84C50204601B0F0BD1D
:103330004FF0500080F31188BFF36F8FBFF34F8FB2
:10334000FEE700002DE9F04F85B00492B8B11D46AC
:103350000446F1B1022D03D1E06B012840F0A780B3
:10336000019100F02BFC00BB0498F0B14FF050002D
:1033700080F31188BFF36F8FBFF34F8FFEE74FF0DD
:10338000500080F31188BFF36F8FBFF34F8F00BFE2
:10339000FEE7206C0028DDD04FF0500080F311884C
:1033A000BFF36F8FBFF34F8FFEE7FFF7CDFBA06B2F
:1033B000022D5ED0E16B88425BD304F11006012040
:1033C00002AF4FF0000B0DF1100800BF0499002967
:1033D00000F08280C00702D03846FFF7B3FDFFF748
:1033E000D7FBFFF769FEFFF7AFFB94F84400FF2817
:1033F00008BF84F844B094F84500FF2808BF84F85B
:1034000045B0FFF7C5FB3846414600F079F9002882
:1034100065D1FFF799FBD4F838A0D4F83C90FFF7BA
:10342000B7FBCA4516D104993046FFF7A1FD2046E7
:10343000FFF7BCF900F098FD88B94EF60450CEF2C3
:1034400000004FF080510160BFF34F8FBFF36F8FCB
:1034500005E000BF2046FFF7A9F900F085FDFFF762
:1034600073FBA06B022D04D0E16B88424FF000008B
:10347000ACD2A66B226C01991AB3CDB3E068FCF70D
:10348000BDFEE168206C2268091A9142E16003D216
:10349000A16840420844E060A81EB0FA80F04009EC
:1034A0003146002E18BF01210840361A2CE04FF09B
:1034B000500080F31188BFF36F8FBFF34F8F00BFB1
:1034C000FEE7206800BBA06800F070FC0021B0FAA5
:1034D00080F0A160400918E0FFF75AFB04E02046A5
:1034E000FFF764F900F040FD002005B0BDE8F08F63
:1034F0006068FCF783FED4E90101226C1044884225
:10350000606001D3206860600120711CA16354F8E1
:10351000241F79B1204600F0B3FCB8B14EF6045038
:10352000CEF200004FF080510160BFF34F8FBFF328
:103530006F8F0BE050B94EF60450CEF200004FF002
:1035400080510160BFF34F8FBFF36F8FFFF720FBF8
:10355000012005B0BDE8F08F2DE9F04F85B0049251
:1035600098B10C460546002900F0B78000F026FB14
:10357000A8B9049898B14FF0500080F31188BFF3B8
:103580006F8FBFF34F8F00BFFEE74FF0500080F307
:103590001188BFF36F8FBFF34F8F00BFFEE705F1B8
:1035A0001000019005F1240000900DF108090DF1C3
:1035B000100A4FF000080CE02846FFF7F7F800F07B
:1035C000D3FCFFF7C1FAAF6BFFF7E2FA002F00F070
:1035D0009280FFF7B9FAD5F838B0BBF1000F27D0C9
:1035E0002A6C5AB1D5E902011144E960814224BF35
:1035F0002868E860E9682046FCF700FEABF10100AE
:10360000A863286970B1019800F03AFC50B14EF6F9
:103610000450CEF200004FF080510160BFF34F8F95
:10362000BFF36F8FFFF7B4FA00200126A0B963E063
:10363000049850B1B8F1000F02D14846FFF782FC60
:103640004FF00108012038B956E0FFF7A1FA002633
:103650000020002850D000BFFFF79AFAFFF72CFD9A
:10366000FFF772FA95F84400FF2804BF002085F8A0
:10367000440095F84500FF2804BF002085F8450068
:10368000FFF786FA4846514600F03AF800287FF4E2
:1036900093AFFFF759FAAF6BFFF77AFA2FB12846CD
:1036A000FFF784F800F060FC93E704990098FFF7B7
:1036B0005FFC2846FFF77AF800F056FC00287FF4FC
:1036C00088AF4EF60450CEF200004FF080510160FA
:1036D000BFF34F8FBFF36F8F7BE7286C00283FF459
:1036E00045AF4FF0500080F31188BFF36F8FBFF3E9
:1036F0004F8F00BFFEE70026304605B0BDE8F08FD3
:1037000070B538B30C4671B30546FFF71DFA43F2A6
:10371000CC0EC2F2010EDEF800302268501C30D010
:1037200043F2340CC2F2010C2946D5E90050DCF812
:103730000060AE4201D083421FD2181A82421CD9C7
:10374000101A2060DCF8000000240860DEF8000099
:10375000486017E04FF0500080F31188BFF36F8F7F
:10376000BFF34F8FFEE74FF0500080F31188BFF397
:103770006F8FBFF34F8F00BFFEE700202060012452
:1037800000E00024FFF704FA204670BD2DE9F04F59
:1037900081B0970081463846984692460E46FFF71C
:1037A0003FF890B105465820FFF73AF850B158213C
:1037B0000446FCF73CFD256354B94FF0FF3001B0DF
:1037C000BDE8F08F2846FFF7FBF90024002CF4D069
:1037D000206B0A9D3946A522FCF722FD206B76B1AD
:1037E00004F13401002200BFB35C8B54B35C1BB105
:1037F000092A02F10102F7D1002184F83D10202DA1
:1038000009D34FF0500080F31188BFF36F8FBFF3DF
:103810004F8F00BFFEE700EB8A00043804F1040B71
:1038200020F007060B9F5846E562A564FFF752F9A2
:1038300004F11800FFF74EF9C5F12000A0613046F1
:103840004946424624616462FFF7ACF8002F2060CD
:1038500018BF3C60FFF778F942F6C070C2F2010071
:10386000016840F2201601310160C2F200063168A1
:1038700043F2980A40F23817C2F2010AC2F2000776
:1038800051B1DAF8000000283FD13068E16AC06A1F
:10389000884298BF346038E034600068012834D131
:1038A000002500BF7819FFF709F91435B5F5207F19
:1038B000F8D142F6FC78C2F201084046FFF7FEF864
:1038C00043F21009C2F201094846FFF7F7F843F244
:1038D0004400C2F20100FFF7F1F843F2B800C2F26F
:1038E0000100FFF7EBF843F2A400C2F20100FFF77A
:1038F000E5F840F22810C2F20000C0F8008040F263
:103900003010C2F20000C0F8009042F6CC70C2F253
:103910000100016842F6D072013101602164E06A61
:10392000C2F20102012113688140194300EB8000BB
:10393000116007EB80014A6861619368A260E360EF
:103940009368C2F808B0C3F804B057F820100131EA
:1039500047F82010FFF71CF9DAF8000078B130685A
:10396000E16AC06A88420AD24EF60450CEF20000E4
:103970004FF080510160BFF34F8FBFF36F8F012075
:1039800001B0BDE8F08F00002DE9F04149B14FF0E2
:10399000500080F31188BFF36F8FBFF34F8F00BFCC
:1039A000FEE738B3DDF818801D46144607460E467C
:1039B000FFF7CAF832463846B8F1000F04D000EBE2
:1039C0008201096DC8F80010831893F8541002277B
:1039D000042D83F8547000F2768023464FF00108DE
:1039E000DFE805F020031B18110000EB8202176DC1
:1039F0003B4316E04FF0500080F31188BFF36F8F08
:103A0000BFF34F8FFEE7022904D14FF000080129D0
:103A10000AD06CE000EB820203E000EB8202136D3F
:103A200001331365012962D1D0E902734269BB6099
:103A30005668C368011D8E425F6008BF53601368FB
:103A400042F6D076013B1360D0E90AC2C2F2010609
:103A50000127356897402F43376040F2381602EB54
:103A60008207C2F2000606EB87056C684561A36811
:103A70008460C360A368A160596056F82700BCF158
:103A8000000F00F1010046F8270008D04FF0500069
:103A900080F31188BFF36F8FBFF34F8FFEE740F2C3
:103AA0002010C2F200000068C06A82421FD94EF6A0
:103AB0000450CEF200004FF080510160BFF34F8FF1
:103AC000BFF36F8F13E043F2CC02C2F2010212681F
:103AD0004AB14FF0500080F31188BFF36F8FBFF3EE
:103AE0004F8F00BFFEE74FF0010801299CD0FFF780
:103AF0004FF84046BDE8F08148B14FF0500080F3E8
:103B00001188BFF36F8FBFF34F8F00BFFEE72DE922
:103B1000F0411E46154604460F46FFF715F840F2E1
:103B20002018C2F20008D8F80000204490F8540091
:103B300002281CD0D8F80000012200EB8400016D9F
:103B4000B9430165D8F800100698214481F8542043
:103B500068B10121FEF7D2FB4EF60450CEF2000010
:103B60004FF080510160BFF34F8FBFF36F8FFFF7AE
:103B70000FF8FEF7E9FF2EB1D8F8000000EB840043
:103B8000006D3060D8F800000026204490F85410F2
:103B90000020022907D1D8F80010012601EB84018A
:103BA0000A6DAA430A65D8F80010214481F8540030
:103BB000FEF7EEFF3046BDE8F081000043F29800CA
:103BC000C2F201000068002804BF0120704742F6DD
:103BD000C870C2F201000068B0FA80F040094000ED
:103BE0007047000043F2CC00C2F201000068704749
:103BF0002DE9F04F42F6C870C2F20100006848B1EA
:103C000043F24000C2F2010001680131016000206E
:103C1000BDE8F08F43F2CC00C2F20100016811F15F
:103C2000010EC0F800E02DD340F22810C2F20000CF
:103C3000026812684AB14FF0500080F31188BFF358
:103C40006F8FBFF34F8F00BFFEE740F23013C2F219
:103C5000000302681F6807601A6043F23402C2F270
:103C60000102136801331360026812681AB1006818
:103C7000C068006801E04FF0FF3043F23002C2F24A
:103C80000102106043F23001C2F20101086840F203
:103C900038188645C2F2000801D200206EE040F2DA
:103CA000281AC2F2000ADAF800004FF00009006892
:103CB000002858D042F6D07BC2F2010B002025E04C
:103CC000F96ADBF8002001238B401A43CBF800206F
:103CD00001EB810208EB82035E687B61B468BE6021
:103CE000FC60B468B560656058F82230013348F86C
:103CF000223040F22012C2F200021268D26ADAF8D0
:103D00000030914288BF0120196881B3DAF8003091
:103D1000DB68DF683D4655F8044FA64529D3D7E94F
:103D200002637C69B360D4F804C0FB68AC455E6094
:103D300008BF6360C7F814902368013B2360BC6A26
:103D4000002CBDD0D7E907636268B3603B6A07F116
:103D500018018A425E6008BF6360C7F82890216836
:103D600001392160ACE74FF0FF34002005E04FF04F
:103D7000FF3443F23001C2F201010C6040F2201125
:103D8000C2F200010968C96A01EB810158F82110EB
:103D9000012943F2D801C2F2010188BF012009685C
:103DA000002918BF0120BDE8F08F0000002804BFE3
:103DB0000020704740F22011C2F2000109688142E0
:103DC00009D04FF0500080F31188BFF36F8FBFF31D
:103DD0004F8F00BFFEE7C16C002946D04A1E014646
:103DE000C2644FF000003FD10A46CB6A8A6C93420E
:103DF00008BF704770B50E1D30460D46FEF72EFE0B
:103E000042F6D07C2946C2F2010C48B9C86A0123A7
:103E1000DCF8005003FA00F025EA0000CCF80000BE
:103E20008B6CC3F12000CB6288610120DCF800506C
:103E300000FA03F22A43CCF8002040F2381C03EBCE
:103E40008302C2F2000C0CEB82056B684D619C682A
:103E50008B60CC609C689E6066605CF822100131CB
:103E60004CF82210BDE8704070474FF0500080F3CE
:103E70001188BFF36F8FBFF34F8F00BFFEE70000C5
:103E8000C068C06810B310B5D0E90713826A8B60B0
:103E9000036AD2F804E000F1180C59600021E645ED
:103EA00008BF5360816211680139116042F6C87120
:103EB000C2F20101096891B143F24402C2F2010267
:103EC000516882628B68C161036231E04FF050003B
:103ED00080F31188BFF36F8FBFF34F8FFEE7D0E9F8
:103EE000021342698B60D2F804E0C36800F1040C4D
:103EF000E645596008BF5360116842F6D074013935
:103F00001160C16AC2F201044FF0010E22680EFA7C
:103F100001F31A43226040F2381201EB8101C2F230
:103F2000000202EB8102516842618B688160C360CC
:103F30008B68C1F808C0C3F804C011680131116072
:103F400040F22011C2F20001C06A0968C96A8842C1
:103F5000BDE8104091BF002043F2D801C2F2010138
:103F6000012088BF086070472DE9F04F81B042F60C
:103F7000C874C2F20104206868B1FEF7E5FD20684C
:103F800001382060206880B10024FEF701FE204641
:103F900001B0BDE8F08F4FF0500080F31188BFF3FF
:103FA0006F8FBFF34F8F00BFFEE742F6C070C2F2C3
:103FB000010000680028E7D043F2440AC2F2010A77
:103FC000DAF8001043F2D8080029C2F2010868D0DC
:103FD00042F6D07B40F2381440F2201E4FF0000C25
:103FE0004FF00109C2F2010BC2F20004C2F2000E4E
:103FF000DAF80C10CE68D6E90721B76A91607868C4
:10400000316A06F11805A8424A6008BF7960C6F80F
:1040100028C0386801383860D6E9020271698260C8
:104020004A68F568371DBA42686008BF4D60086885
:1040300001380860F06ADBF8001009FA00F2114359
:10404000CBF8001000EB800104EB8102556872612F
:10405000AB68B560F360AB68AF605F6054F8212077
:10406000013244F82120DEF80010C96A884228BFD6
:10407000C8F80090DAF800000028B9D18EB140F2FB
:104080002810C2F200000168096819B10068C06810
:10409000006801E04FF0FF3043F23001C2F201014D
:1040A000086043F24004C2F20104256855B10126BC
:1040B000FFF79EFD002818BFC8F80060013DF7D14A
:1040C00000202060D8F8000000283FF45DAF4EF6D5
:1040D0000450CEF200004FF080510160BFF34F8FCB
:1040E0000124BFF36F8F50E780B582B0FEF766F909
:1040F00043F2D000C2F20100006888B143F2D40C50
:1041000042F27D50C2F2010C4FF0020EC0F60000E8
:104110000BA1F0220023CDE900ECFFF737FB00E014
:10412000002000281CBF02B080BD4FF0500080F37B
:104130001188BFF36F8FBFF34F8F00BFFEE700BF43
:10414000546D72205376630002E008C8121F08C144
:10415000002AFAD170477047002001E001C1121F08
:10416000002AFBD17047000010B5044601E0FEF7BD
:104170006DF814F8010B04490028F8D1BDE810408F
:104180000A20FEF763B800000000002000000000D5
:1041900001020304010203040607080900000000ED
:1041A00000000000000000000000040404040400FB
:1041B0000004000014140A000000000000000000C9
:1041C00000000A0A1F0A0A1F0A0A000000040E154E
:1041D00005060C14150E0400000012150D152E2CEA
:1041E0002A1200000000040A0A36151529160000DC
:1041F0000202010000000000000000001008080496
:10420000040404040808100002040408080808084C
:104210000404020000000004150E0E150400000046
:1042200000000008083E0808000000000000000030
:10423000000000000202010000000000003F00003A
:10424000000000000000000000000000000200006C
:1042500000201010080804040202010000000E11E2
:1042600011111111110E00000000040604040404D1
:10427000040E000000000E1111080402011F0000CE
:1042800000000E11100C1010110E00000000080CA0
:104290000C0A091F081C000000001F01010F11106B
:1042A000110E000000000C12010D1311110E000080
:1042B00000001E10080804040404000000000E1191
:1042C000110E1111110E000000000E11111916101F
:1042D00009060000000000000400000000040000C7
:1042E00000000000000400000004040000001008AA
:1042F0000402020408100000000000003F003F001C
:104300000000000000000204081010080402000071
:1043100000000E11110804040004000000001C221B
:10432000292D2D1D221C0000000004040C0A0A1E69
:104330001233000000000F12120E1212120F0000B2
:1043400000001E1101010101110E000000000F12FA
:1043500012121212120F000000001F120A0E0A029F
:10436000121F000000001F120A0E0A0202070000BE
:1043700000001C1201013911120C00000000331260
:10438000121E12121233000000001F040404040461
:10439000041F000000003E08080808080808090774
:1043A000000037120A060A12123700000000070246
:1043B00002020202223F000000003B1B1B1B1515DE
:1043C0001535000000003B1216161A1A12170000CD
:1043D00000000E1111111111110E000000000F123A
:1043E000120E02020207000000000E111111111737
:1043F000190E180000000F12120E0A1212370000D8
:1044000000001E1101060810110F000000001F150A
:1044100004040404040E00000000331212121212ED
:10442000120C000000003312120A0A0C04040000EF
:104430000000151515150E0A0A0A000000001B0AD7
:104440000A04040A0A1B000000001B0A0A0A0404EA
:10445000040E000000001F0908040402121F0000DF
:104460001C0404040404040404041C0000020204E8
:1044700004040808081010000E08080808080808B6
:1044800008080E00040A0000000000000000000000
:1044900000000000000000000000003F02040000D7
:1044A000000000000000000000000000000C121CD2
:1044B000123C000000030202020E1212120E000053
:1044C00000000000001C1202120C00000018101066
:1044D000101C1212123C000000000000000C121E02
:1044E000021C000000182404041E0404041E000022
:1044F00000000000003C120C021C221C00030202FF
:10450000020E121212370000000404000006040418
:10451000040E000000080800000C0808080808073E
:1045200000030202021A0A060A130000000704042C
:1045300004040404041F000000000000000F15150F
:104540001515000000000000000F121212370000C5
:1045500000000000000C1212120C0000000000000D
:10456000000F1212120E020700000000001C1212AF
:10457000121C103800000000001B06020207000099
:1045800000000000001E020C101E000000000004CD
:10459000041E0404041C000000000000001B121292
:1045A000123C000000000000001B0A0A0404000086
:1045B000000000000015150E0A0A000000000000AF
:1045C000001B0A040A1B0000000000000033121246
:1045D0000C08040300000000001E0804041E000074
:1045E00018080808080C080808081800080808082F
:1045F0000808080808080808060404040408040455
:10460000040406001609000000000000000000007D
:10461000000000000000000000000000000000009A
:104620000000000808080808080800001818000022
:1046300000486C2412000000000000000000000090
:104640000000002424247F1212127F121212000094
:104650000000081C2A2A0A0C1828282A2A1C0808E4
:1046600000000022251515152A5854545422000024
:104670000000000C1212120A76252911916E00001A
:104680000006060403000000000000000000000017
:1046900000402010100808080808081010204000EA
:1046A000000204080810101010101008080402007E
:1046B0000000000008086B1C1C6B080800000000CC
:1046C00000000000080808087F080808080000002B
:1046D00000000000000000000000000006060403C7
:1046E0000000000000000000FE00000000000000CC
:1046F00000000000000000000000000006060000AE
:10470000000080404020201010080804040202002D
:104710000000001824424242424242422418000053
:10472000000000080E08080808080808083E0000F5
:104730000000003C4242422020100804427E00005B
:104740000000003C4242201820404042221C000051
:10475000000000203028242422227E20207800001F
:104760000000007E0202021A26404042221C000085
:10477000000000382402021A264242422418000097
:104780000000007E22221010080808080808000017
:104790000000003C4242422418244242423C0000B5
:1047A000000000182442424264584040241C00008B
:1047B0000000000000001818000000001818000099
:1047C00000000000000000080000000000080804CD
:1047D00000000040201008040204081020400000DF
:1047E0000000000000007F0000007F0000000000CB
:1047F00000000002040810204020100804020000FD
:104800000000003C424246402010100018180000F2
:104810000000001C225A555555552D42221C0000FF
:104820000000000808181414243C224242E700004B
:104830000000001F2222221E22424242221F0000AC
:104840000000007C4242010101010142221C0000E3
:104850000000001F2242424242424242221F000008
:104860000000003F4212121E12120242423F00009C
:104870000000003F4212121E121202020207000044
:104880000000003C2222010101712122221C0000B3
:10489000000000E7424242427E42424242E70000BC
:1048A0000000003E0808080808080808083E000044
:1048B0000000007C10101010101010101010110FBC
:1048C0000000007722120A0E0A121222227700003C
:1048D000000000070202020202020202427F000000
:1048E00000000077363636362A2A2A2A2A6B00003C
:1048F000000000E346464A4A5252526262470000B4
:104900000000001C2241414141414141221C000064
:104910000000003F424242423E0202020207000003
:104920000000001C2241414141414D53321C6000B6
:104930000000003F4242423E1212222242C70000C3
:104940000000007C4242020418204042423E000027
:104950000000007F4908080808080808081C000033
:10496000000000E74242424242424242423C0000D2
:10497000000000E742422224241414180808000012
:104980000000006B49494949555536222222000052
:10499000000000E7422424181818242442E70000ED
:1049A000000000772222141408080808081C0000E0
:1049B0000000007E2120101008040442423F000045
:1049C0000078080808080808080808080808780097
:1049D00000000202040408080810102020204040B3
:1049E000001E1010101010101010101010101E00CB
:1049F000003844000000000000000000000000003B
:104A0000000000000000000000000000000000FFA7
:104A10000006080000000000000000000000000088
:104A2000000000000000003C4278444242FC0000CC
:104A3000000000030202021A26424242261A000027
:104A40000000000000000038440202024438000068
:104A500000000060404040784442424264D8000078
:104A6000000000000000003C427E0202423C0000C8
:104A7000000000F08808087E08080808083E0000CA
:104A8000000000000000007C22221C023C42423C4C
:104A9000000000030202023A4642424242E700009E
:104AA0000000000C0C00000E08080808083E00007A
:104AB0000000003030000038202020202020221E5E
:104AC0000000000302020272120A1612227700008E
:104AD0000000000E0808080808080808083E000042
:104AE000000000000000007F9292929292B70000B6
:104AF000000000000000003B4642424242E7000046
:104B0000000000000000003C42424242423C0000E3
:104B1000000000000000001B26424242221E020745
:104B2000000000000000007844424242447840E027
:104B300000000000000000774C040404041F000083
:104B4000000000000000007C42023C40423E0000A9
:104B5000000000000008083E0808080808300000AF
:104B600000000000000000634242424262DC00009C
:104B700000000000000000E74224241408080000A0
:104B800000000000000000EB4949555522220000BA
:104B9000000000000000007624181818246E0000A1
:104BA00000000000000000E7422424141808080751
:104BB000000000000000007E22100808447E000073
:104BC00000C0202020202010202020202020C000F5
:104BD00010101010101010101010101010101010D5
:104BE0000006080808080810080808080808060051
:104BF0000C32C200000000000000000000000000B5
:104C000000000000000000000000000000000000A4
:104C10000000000000000000000000000000000094
:104C20000000000000000000000000000000000084
:104C300000000000000000006000600060006000F4
:104C400060006000600040002000200020000000A4
:104C50000000000060006000600000000000000034
:104C600000000000600660063003980188004400E0
:104C70000000000000000000000000000000000034
:104C80000000000000000000000000000000000024
:104C900000000000000000001002100210021002CC
:104CA000FE07FE0708020801080108010801FE07C7
:104CB000FE070401040104010401000000000000DB
:104CC00000000000000040004000F00158034C03C9
:104CD000CC034C0058007000E000C001C00140034C
:104CE0004C035C034C034801F0004000400000000E
:104CF00000000000000000000E010A019100910078
:104D00009100510051003A00AE03A002500450043B
:104D100048044804480484028403000000000000A2
:104D2000000000000000000038006C006C006C0007
:104D30006C006C002C0098071C011A013301330130
:104D40006301E300C308C6093C070000000000003F
:104D5000000000000C001C001000100008000400FF
:104D60000000000000000000000000000000000043
:104D70000000000000000000000000000000000033
:104D800000000000000400020001800080004000DC
:104D900040002000200020002000200020002000F3
:104DA000400040008000800000010002000400007C
:104DB00000000000020004000800100010002000A5
:104DC0002000400040004000400040004000400003
:104DD0002000200010001000080004000200000065
:104DE0000000000000000000000000004000C000C3
:104DF0004000460C4E0FD001F0015E0F460C400003
:104E00004000400000000000000000000000000022
:104E10000000000000000000000000000000400052
:104E20004000400040004000FE0F400040004000B5
:104E300040004000000000000000000000000000F2
:104E40000000000000000000000000000000000062
:104E50000000000000000000000000000000000052
:104E6000000000000C001C001000100008000400EE
:104E70000000000000000000000000000000000032
:104E80000000000000000000FE070000000000001D
:104E90000000000000000000000000000000000012
:104EA0000000000000000000000000000000000002
:104EB00000000000000000000000000000000000F2
:104EC000000000001C001C001C000000000000008E
:104ED00000000000000400060002000300010001C1
:104EE0008000800040004000600020002000100092
:104EF0001000080008000C0004000600020000007A
:104F000000000000000000000000F00098010C0309
:104F10000C0306060606060606060606060606062E
:104F200006060C030C039801F000000000000000CE
:104F30000000000000000000000040007C00600055
:104F40006000600060006000600060006000600061
:104F50006000600060006000FC03000000000000D2
:104F600000000000000000000000F80084010203BF
:104F700006030603000300018001C000600020005A
:104F80001000080204020602FE03000000000000F8
:104F9000000000000000000000007800C60086014C
:104FA000860180018001C0007000800100010003C3
:104FB0000003060306038601F8000000000000005D
:104FC0000000000000000000000080018001C0011E
:104FD000A001A00190018801880184018201FE0FD7
:104FE0008001800180018001E007000000000000D6
:104FF00000000000000000000000FC0304000400AA
:10500000040004000400F4008C0104030003000306
:105010000603060382018401F8000000000000007E
:1050200000000000000000000000E00118030C0375
:105030000C0004000600E60116030E06060606062E
:10504000060604060C021803F00000000000000031
:1050500000000000000000000000F8070C06040239
:105060000401000100018000800040004000400079
:105070006000600060006000600000000000000050
:1050800000000000000000000000F8010C0306060C
:10509000060606060C021C03F000C8010C030606F7
:1050A0000606060606060C03F001000000000000DC
:1050B00000000000000000000000F0000C010C03E4
:1050C000060206060606060606078C067806000691
:1050D000000300030C018C017800000000000000B8
:1050E00000000000000000000000000000000000C0
:1050F00000000000E000E000E00000000000000010
:1051000000000000E000E000E000000000000000FF
:10511000000000000000000000000000000000008F
:1051200000000000600060000000000000000000BF
:10513000000000000000600060004000200020002F
:1051400000000000000000000004000200018000D8
:10515000400020001000080004000800100020009B
:105160004000800000010002000400000000000078
:10517000000000000000000000000000000000002F
:1051800000000000FE07000000000000FE07000015
:10519000000000000000000000000000000000000F
:1051A00000000000000000000400080010002000C3
:1051B00040008000000100020004000200018000A5
:1051C0004000200010000800040000000000000063
:1051D00000000000000000000000E0031806040CBE
:1051E000040C0C0C0C0C0007800140004000400037
:1051F00000000000E000E000E0000000000000000F
:105200000000000000000000E00018030C02CC05C4
:1052100064056605A605B604B604B604B604B6026F
:10522000E4010C040C021803F00000000000000070
:10523000000000000000000000006000600050005E
:10524000D00090009000880088010801F801040354
:1052500004030402020202060F0F00000000000017
:1052600000000000000000000000FE008C030C03A2
:105270000C030C030C038C01FC000C030C020C0649
:105280000C060C060C060C03FE01000000000000DA
:1052900000000000000000000000E00318030C06FE
:1052A0000C040404060006000600060006000600C2
:1052B00006040C040C021803F000000000000000BB
:1052C000000000000000000000007F008C010C03C3
:1052D0000C030C060C060C060C060C060C060C0641
:1052E0000C060C030C038C017F0000000000000082
:1052F00000000000000000000000FF030603060499
:105300000604060086008600FE00860086008600F1
:105310000600060406040602FF0300000000000069
:1053200000000000000000000000FF030603060468
:105330000604060086008600FE00860086008600C1
:1053400006000600060006001F0000000000000026
:1053500000000000000000000000F00018010C0236
:105360000C0204020600060006000600C60F060333
:1053700006030C030C031803F000000000000000FB
:10538000000000000000000000000F0F06060606E7
:105390000606060606060606FE07060606060606B4
:1053A00006060606060606060F0F000000000000AF
:1053B00000000000000000000000FC03600060002E
:1053C00060006000600060006000600060006000DD
:1053D0006000600060006000FC030000000000004E
:1053E00000000000000000000000F807C000C0003E
:1053F000C000C000C000C000C000C000C000C000AD
:10540000C000C000C000C000C000C60066003C0074
:1054100000000000000000000000CF038601C6006D
:1054200046002600160036002E006E004600C6001C
:1054300086008601060106038F07000000000000B9
:10544000000000000000000000001F000600060031
:10545000060006000600060006000600060006001C
:105460000600060406040602FF0300000000000018
:10547000000000000000000000000707860386030C
:105480008E038E034E034E034A035A035A033A0314
:1054900032033203320312038707000000000000CA
:1054A000000000000000000000008E0F0C021C0233
:1054B0001C0234023402640264024402C402840204
:1054C00084038403040304031F020000000000009F
:1054D00000000000000000000000F00098010C0334
:1054E0000C0206060606060606060606060606065A
:1054F00006060C020C039801F000000000000000FA
:1055000000000000000000000000FF000603060687
:1055100006060606060606068603FE0006000600C8
:1055200006000600060006001F0000000000000044
:1055300000000000000000000000F00098010C03D3
:105540000C020606060606060606060606060606F9
:1055500076064C02CC039801F0008007000300009F
:1055600000000000000000000000FF010603060626
:105570000606060606060603FE004600C60086006E
:1055800086010603060306060F0E00000000000059
:1055900000000000000000000000F8020C030602FA
:1055A000060206000E003C00F800E003800300073E
:1055B0000206020606060C03F001000000000000CF
:1055C00000000000000000000000FE076204610807
:1055D00061086000600060006000600060006000C2
:1055E0006000600060006000F80100000000000042
:1055F000000000000000000000001E070C020C026A
:105600000C020C020C020C020C020C020C020C022A
:105610000C020C020C021801F00000000000000057
:10562000000000000000000000000F070602040157
:1056300004010C010C0188008800980098005000BB
:10564000500070003000200020000000000000002A
:1056500000000000000000000000F70E6204420499
:105660004604460464026402E402E4029C029C01D3
:10567000980198018801880088000000000000005F
:10568000000000000000000000009E070C0108015F
:1056900018019000B0006000200060006000D000A1
:1056A00090008801080104038E070000000000003C
:1056B000000000000000000000000F0F06040402BC
:1056C0000C0208011801B800B00070006000600012
:1056D0006000600060006000F80100000000000051
:1056E00000000000000000000000FC070C020603A0
:1056F00002018001800040004000200020001000D6
:10570000180008040C040402FE030000000000005E
:1057100000000000E0032000200020002000200006
:105720002000200020002000200020002000200079
:10573000200020002000200020002000E0030000C6
:105740000000000000000000040004000800080041
:105750001000100010002000200040004000C00099
:10576000800080000001000100020002000200042D
:10577000000000007C00400040004000400040006D
:105780004000400040004000400040004000400019
:105790004000400040004000400040007C0000000D
:1057A0000000600090000801000000000000000000
:1057B00000000000000000000000000000000000E9
:1057C00000000000000000000000000000000000D9
:1057D00000000000000000000000000000000000C9
:1057E00000000000000000000000000000000000B9
:1057F0000000000000000000000000000000FF0F9B
:105800000000000018006000000000000000000020
:105810000000000000000000000000000000000088
:105820000000000000000000000000000000000078
:105830000000000000000000000000000000000068
:1058400000000000F0010C030C030003E0031C0344
:105850000E03060306038E0B7C0E00000000000002
:10586000000000000000000008000E000C000C000A
:105870000C000C00CC013C031C060C060C060C06AC
:105880000C060C060C021C03E401000000000000E2
:105890000000000000000000000000000000000008
:1058A00000000000F0008C018C018601060006005B
:1058B000060006020C020C01F000000000000000CF
:1058C00000000000000000000002C003000300030D
:1058D0000003000378038C030C030603060306038E
:1058E0000603060304038C07780100000000000093
:1058F00000000000000000000000000000000000A8
:1059000000000000E001180308020C060C06FC076A
:105910000C000C0018041802E00100000000000058
:1059200000000000000000000000C0036006300618
:1059300030003000FE013000300030003000300018
:105940003000300030003000FC010000000000009A
:105950000000000000000000000000000000000047
:1059600000000000F007D8068C018C018C01980122
:10597000F8000C00FC00CC03060306038E03F800BD
:10598000000000000000000008000E000C000C00E9
:105990000C000C00EC011C030C030C030C030C03A7
:1059A0000C030C030C030C039E0700000000000016
:1059B0000000000000000000000060006000000027
:1059C000000040007C00600060006000600060003B
:1059D0006000600060006000FC0300000000000048
:1059E00000000000000000000000C001C001000035
:1059F00000000001F0018001800180018001800130
:105A0000800180018001800180018001CC007C0048
:105A1000000000000000000008000E000C000C0058
:105A20000C000C008C038C008C004C006C005C00A3
:105A30008C008C010C010C039E070000000000008C
:105A4000000000000000000040007C0060006000DA
:105A50006000600060006000600060006000600046
:105A60006000600060006000FC03000000000000B7
:105A70000000000000000000000000000000000026
:105A8000000000003707EE06660666066606660634
:105A90006606660666066606FF0F00000000000048
:105AA00000000000000000000000000000000000F6
:105AB00000000000EE011C030C030C030C030C039C
:105AC0000C030C030C030C039E07000000000000F5
:105AD00000000000000000000000000000000000C6
